{
	"contracts/NFT.sol": {
		"NFTContract": {
			"abi": [
				{
					"inputs": [
						{
							"internalType": "address",
							"name": "_owner",
							"type": "address"
						},
						{
							"components": [
								{
									"internalType": "string",
									"name": "name",
									"type": "string"
								},
								{
									"internalType": "bytes16",
									"name": "dna",
									"type": "bytes16"
								}
							],
							"internalType": "struct NFT",
							"name": "_NFT",
							"type": "tuple"
						},
						{
							"internalType": "uint256",
							"name": "_price",
							"type": "uint256"
						}
					],
					"stateMutability": "nonpayable",
					"type": "constructor"
				},
				{
					"inputs": [
						{
							"internalType": "address",
							"name": "owner",
							"type": "address"
						}
					],
					"name": "OwnableInvalidOwner",
					"type": "error"
				},
				{
					"inputs": [
						{
							"internalType": "address",
							"name": "account",
							"type": "address"
						}
					],
					"name": "OwnableUnauthorizedAccount",
					"type": "error"
				},
				{
					"anonymous": false,
					"inputs": [
						{
							"indexed": true,
							"internalType": "address",
							"name": "previousOwner",
							"type": "address"
						},
						{
							"indexed": true,
							"internalType": "address",
							"name": "newOwner",
							"type": "address"
						}
					],
					"name": "OwnershipTransferred",
					"type": "event"
				},
				{
					"anonymous": false,
					"inputs": [
						{
							"indexed": true,
							"internalType": "address",
							"name": "from",
							"type": "address"
						},
						{
							"indexed": true,
							"internalType": "address",
							"name": "to",
							"type": "address"
						}
					],
					"name": "SoldNFT",
					"type": "event"
				},
				{
					"anonymous": false,
					"inputs": [
						{
							"indexed": true,
							"internalType": "uint256",
							"name": "oldPrice",
							"type": "uint256"
						},
						{
							"indexed": true,
							"internalType": "uint256",
							"name": "newPrice",
							"type": "uint256"
						}
					],
					"name": "UpdatedPrice",
					"type": "event"
				},
				{
					"inputs": [],
					"name": "NFTPrice",
					"outputs": [
						{
							"internalType": "uint256",
							"name": "",
							"type": "uint256"
						}
					],
					"stateMutability": "view",
					"type": "function"
				},
				{
					"inputs": [],
					"name": "ownedNFT",
					"outputs": [
						{
							"internalType": "string",
							"name": "name",
							"type": "string"
						},
						{
							"internalType": "bytes16",
							"name": "dna",
							"type": "bytes16"
						}
					],
					"stateMutability": "view",
					"type": "function"
				},
				{
					"inputs": [],
					"name": "owner",
					"outputs": [
						{
							"internalType": "address",
							"name": "",
							"type": "address"
						}
					],
					"stateMutability": "view",
					"type": "function"
				},
				{
					"inputs": [],
					"name": "renounceOwnership",
					"outputs": [],
					"stateMutability": "nonpayable",
					"type": "function"
				},
				{
					"inputs": [
						{
							"internalType": "string",
							"name": "_name",
							"type": "string"
						}
					],
					"name": "sellNFT",
					"outputs": [],
					"stateMutability": "payable",
					"type": "function"
				},
				{
					"inputs": [
						{
							"internalType": "address",
							"name": "newOwner",
							"type": "address"
						}
					],
					"name": "transferOwnership",
					"outputs": [],
					"stateMutability": "nonpayable",
					"type": "function"
				},
				{
					"inputs": [
						{
							"internalType": "uint256",
							"name": "_newPrice",
							"type": "uint256"
						}
					],
					"name": "updatePrice",
					"outputs": [],
					"stateMutability": "nonpayable",
					"type": "function"
				},
				{
					"inputs": [],
					"name": "withdrawFunds",
					"outputs": [],
					"stateMutability": "nonpayable",
					"type": "function"
				}
			],
			"devdoc": {
				"errors": {
					"OwnableInvalidOwner(address)": [
						{
							"details": "The owner is not a valid owner account. (eg. `address(0)`)"
						}
					],
					"OwnableUnauthorizedAccount(address)": [
						{
							"details": "The caller account is not authorized to perform an operation."
						}
					]
				},
				"kind": "dev",
				"methods": {
					"owner()": {
						"details": "Returns the address of the current owner."
					},
					"renounceOwnership()": {
						"details": "Leaves the contract without owner. It will not be possible to call `onlyOwner` functions. Can only be called by the current owner. NOTE: Renouncing ownership will leave the contract without an owner, thereby disabling any functionality that is only available to the owner."
					},
					"transferOwnership(address)": {
						"details": "Transfers ownership of the contract to a new account (`newOwner`). Can only be called by the current owner."
					}
				},
				"version": 1
			},
			"evm": {
				"assembly": "    /* \"contracts/NFT.sol\":281:1783  contract NFTContract is Ownable, INFT{... */\n  mstore(0x40, 0x80)\n    /* \"contracts/NFT.sol\":491:668  constructor(address _owner, NFT memory _NFT, uint _price) Ownable(_owner){... */\n  callvalue\n  dup1\n  iszero\n  tag_1\n  jumpi\n  0x00\n  dup1\n  revert\ntag_1:\n  pop\n  mload(0x40)\n  sub(codesize, bytecodeSize)\n  dup1\n  bytecodeSize\n  dup4\n  codecopy\n  dup2\n  dup2\n  add\n  0x40\n  mstore\n  dup2\n  add\n  swap1\n  tag_2\n  swap2\n  swap1\n  tag_3\n  jump\t// in\ntag_2:\n    /* \"contracts/NFT.sol\":557:563  _owner */\n  dup3\n    /* \"@openzeppelin/contracts/access/Ownable.sol\":1297:1298  0 */\n  0x00\n    /* \"@openzeppelin/contracts/access/Ownable.sol\":1273:1299  initialOwner == address(0) */\n  0xffffffffffffffffffffffffffffffffffffffff\n  and\n    /* \"@openzeppelin/contracts/access/Ownable.sol\":1273:1285  initialOwner */\n  dup2\n    /* \"@openzeppelin/contracts/access/Ownable.sol\":1273:1299  initialOwner == address(0) */\n  0xffffffffffffffffffffffffffffffffffffffff\n  and\n  sub\n    /* \"@openzeppelin/contracts/access/Ownable.sol\":1269:1364  if (initialOwner == address(0)) {... */\n  tag_7\n  jumpi\n    /* \"@openzeppelin/contracts/access/Ownable.sol\":1350:1351  0 */\n  0x00\n    /* \"@openzeppelin/contracts/access/Ownable.sol\":1322:1353  OwnableInvalidOwner(address(0)) */\n  mload(0x40)\n  0x1e4fbdf700000000000000000000000000000000000000000000000000000000\n  dup2\n  mstore\n  0x04\n  add\n  tag_8\n  swap2\n  swap1\n  tag_9\n  jump\t// in\ntag_8:\n  mload(0x40)\n  dup1\n  swap2\n  sub\n  swap1\n  revert\n    /* \"@openzeppelin/contracts/access/Ownable.sol\":1269:1364  if (initialOwner == address(0)) {... */\ntag_7:\n    /* \"@openzeppelin/contracts/access/Ownable.sol\":1373:1405  _transferOwnership(initialOwner) */\n  tag_10\n    /* \"@openzeppelin/contracts/access/Ownable.sol\":1392:1404  initialOwner */\n  dup2\n    /* \"@openzeppelin/contracts/access/Ownable.sol\":1373:1391  _transferOwnership */\n  shl(0x20, tag_11)\n    /* \"@openzeppelin/contracts/access/Ownable.sol\":1373:1405  _transferOwnership(initialOwner) */\n  0x20\n  shr\n  jump\t// in\ntag_10:\n    /* \"@openzeppelin/contracts/access/Ownable.sol\":1225:1412  constructor(address initialOwner) {... */\n  pop\n    /* \"contracts/NFT.sol\":586:590  _NFT */\n  dup2\n    /* \"contracts/NFT.sol\":575:583  ownedNFT */\n  0x01\n    /* \"contracts/NFT.sol\":575:590  ownedNFT = _NFT */\n  0x00\n  dup3\n  add\n  mload\n  dup2\n  0x00\n  add\n  swap1\n  dup2\n  tag_13\n  swap2\n  swap1\n  tag_14\n  jump\t// in\ntag_13:\n  pop\n  0x20\n  dup3\n  add\n  mload\n  dup2\n  0x01\n  add\n  exp(0x0100, 0x00)\n  dup2\n  sload\n  dup2\n  0xffffffffffffffffffffffffffffffff\n  mul\n  not\n  and\n  swap1\n  dup4\n  0x80\n  shr\n  mul\n  or\n  swap1\n  sstore\n  pop\n  swap1\n  pop\n  pop\n    /* \"contracts/NFT.sol\":612:618  _price */\n  dup1\n    /* \"contracts/NFT.sol\":601:609  NFTPrice */\n  0x03\n    /* \"contracts/NFT.sol\":601:618  NFTPrice = _price */\n  dup2\n  swap1\n  sstore\n  pop\n    /* \"contracts/NFT.sol\":652:659  owner() */\n  tag_15\n    /* \"contracts/NFT.sol\":652:657  owner */\n  shl(0x20, tag_16)\n    /* \"contracts/NFT.sol\":652:659  owner() */\n  0x20\n  shr\n  jump\t// in\ntag_15:\n    /* \"contracts/NFT.sol\":629:641  currentOwner */\n  0x04\n  0x00\n    /* \"contracts/NFT.sol\":629:660  currentOwner = payable(owner()) */\n  0x0100\n  exp\n  dup2\n  sload\n  dup2\n  0xffffffffffffffffffffffffffffffffffffffff\n  mul\n  not\n  and\n  swap1\n  dup4\n  0xffffffffffffffffffffffffffffffffffffffff\n  and\n  mul\n  or\n  swap1\n  sstore\n  pop\n    /* \"contracts/NFT.sol\":491:668  constructor(address _owner, NFT memory _NFT, uint _price) Ownable(_owner){... */\n  pop\n  pop\n  pop\n    /* \"contracts/NFT.sol\":281:1783  contract NFTContract is Ownable, INFT{... */\n  jump(tag_17)\n    /* \"@openzeppelin/contracts/access/Ownable.sol\":2912:3099  function _transferOwnership(address newOwner) internal virtual {... */\ntag_11:\n    /* \"@openzeppelin/contracts/access/Ownable.sol\":2985:3001  address oldOwner */\n  0x00\n    /* \"@openzeppelin/contracts/access/Ownable.sol\":3004:3010  _owner */\n  dup1\n  0x00\n  swap1\n  sload\n  swap1\n  0x0100\n  exp\n  swap1\n  div\n  0xffffffffffffffffffffffffffffffffffffffff\n  and\n    /* \"@openzeppelin/contracts/access/Ownable.sol\":2985:3010  address oldOwner = _owner */\n  swap1\n  pop\n    /* \"@openzeppelin/contracts/access/Ownable.sol\":3029:3037  newOwner */\n  dup2\n    /* \"@openzeppelin/contracts/access/Ownable.sol\":3020:3026  _owner */\n  0x00\n  dup1\n    /* \"@openzeppelin/contracts/access/Ownable.sol\":3020:3037  _owner = newOwner */\n  0x0100\n  exp\n  dup2\n  sload\n  dup2\n  0xffffffffffffffffffffffffffffffffffffffff\n  mul\n  not\n  and\n  swap1\n  dup4\n  0xffffffffffffffffffffffffffffffffffffffff\n  and\n  mul\n  or\n  swap1\n  sstore\n  pop\n    /* \"@openzeppelin/contracts/access/Ownable.sol\":3083:3091  newOwner */\n  dup2\n    /* \"@openzeppelin/contracts/access/Ownable.sol\":3052:3092  OwnershipTransferred(oldOwner, newOwner) */\n  0xffffffffffffffffffffffffffffffffffffffff\n  and\n    /* \"@openzeppelin/contracts/access/Ownable.sol\":3073:3081  oldOwner */\n  dup2\n    /* \"@openzeppelin/contracts/access/Ownable.sol\":3052:3092  OwnershipTransferred(oldOwner, newOwner) */\n  0xffffffffffffffffffffffffffffffffffffffff\n  and\n  0x8be0079c531659141344cd1fd0a4f28419497f9722a3daafe3b4186f6b6457e0\n  mload(0x40)\n  mload(0x40)\n  dup1\n  swap2\n  sub\n  swap1\n  log3\n    /* \"@openzeppelin/contracts/access/Ownable.sol\":2975:3099  {... */\n  pop\n    /* \"@openzeppelin/contracts/access/Ownable.sol\":2912:3099  function _transferOwnership(address newOwner) internal virtual {... */\n  pop\n  jump\t// out\n    /* \"@openzeppelin/contracts/access/Ownable.sol\":1638:1723  function owner() public view virtual returns (address) {... */\ntag_16:\n    /* \"@openzeppelin/contracts/access/Ownable.sol\":1684:1691  address */\n  0x00\n    /* \"@openzeppelin/contracts/access/Ownable.sol\":1710:1716  _owner */\n  dup1\n  0x00\n  swap1\n  sload\n  swap1\n  0x0100\n  exp\n  swap1\n  div\n  0xffffffffffffffffffffffffffffffffffffffff\n  and\n    /* \"@openzeppelin/contracts/access/Ownable.sol\":1703:1716  return _owner */\n  swap1\n  pop\n    /* \"@openzeppelin/contracts/access/Ownable.sol\":1638:1723  function owner() public view virtual returns (address) {... */\n  swap1\n  jump\t// out\n    /* \"#utility.yul\":7:82   */\ntag_20:\n    /* \"#utility.yul\":40:46   */\n  0x00\n    /* \"#utility.yul\":73:75   */\n  0x40\n    /* \"#utility.yul\":67:76   */\n  mload\n    /* \"#utility.yul\":57:76   */\n  swap1\n  pop\n    /* \"#utility.yul\":7:82   */\n  swap1\n  jump\t// out\n    /* \"#utility.yul\":88:205   */\ntag_21:\n    /* \"#utility.yul\":197:198   */\n  0x00\n    /* \"#utility.yul\":194:195   */\n  dup1\n    /* \"#utility.yul\":187:199   */\n  revert\n    /* \"#utility.yul\":211:328   */\ntag_22:\n    /* \"#utility.yul\":320:321   */\n  0x00\n    /* \"#utility.yul\":317:318   */\n  dup1\n    /* \"#utility.yul\":310:322   */\n  revert\n    /* \"#utility.yul\":334:460   */\ntag_23:\n    /* \"#utility.yul\":371:378   */\n  0x00\n    /* \"#utility.yul\":411:453   */\n  0xffffffffffffffffffffffffffffffffffffffff\n    /* \"#utility.yul\":404:409   */\n  dup3\n    /* \"#utility.yul\":400:454   */\n  and\n    /* \"#utility.yul\":389:454   */\n  swap1\n  pop\n    /* \"#utility.yul\":334:460   */\n  swap2\n  swap1\n  pop\n  jump\t// out\n    /* \"#utility.yul\":466:562   */\ntag_24:\n    /* \"#utility.yul\":503:510   */\n  0x00\n    /* \"#utility.yul\":532:556   */\n  tag_71\n    /* \"#utility.yul\":550:555   */\n  dup3\n    /* \"#utility.yul\":532:556   */\n  tag_23\n  jump\t// in\ntag_71:\n    /* \"#utility.yul\":521:556   */\n  swap1\n  pop\n    /* \"#utility.yul\":466:562   */\n  swap2\n  swap1\n  pop\n  jump\t// out\n    /* \"#utility.yul\":568:690   */\ntag_25:\n    /* \"#utility.yul\":641:665   */\n  tag_73\n    /* \"#utility.yul\":659:664   */\n  dup2\n    /* \"#utility.yul\":641:665   */\n  tag_24\n  jump\t// in\ntag_73:\n    /* \"#utility.yul\":634:639   */\n  dup2\n    /* \"#utility.yul\":631:666   */\n  eq\n    /* \"#utility.yul\":621:684   */\n  tag_74\n  jumpi\n    /* \"#utility.yul\":680:681   */\n  0x00\n    /* \"#utility.yul\":677:678   */\n  dup1\n    /* \"#utility.yul\":670:682   */\n  revert\n    /* \"#utility.yul\":621:684   */\ntag_74:\n    /* \"#utility.yul\":568:690   */\n  pop\n  jump\t// out\n    /* \"#utility.yul\":696:839   */\ntag_26:\n    /* \"#utility.yul\":753:758   */\n  0x00\n    /* \"#utility.yul\":784:790   */\n  dup2\n    /* \"#utility.yul\":778:791   */\n  mload\n    /* \"#utility.yul\":769:791   */\n  swap1\n  pop\n    /* \"#utility.yul\":800:833   */\n  tag_76\n    /* \"#utility.yul\":827:832   */\n  dup2\n    /* \"#utility.yul\":800:833   */\n  tag_25\n  jump\t// in\ntag_76:\n    /* \"#utility.yul\":696:839   */\n  swap3\n  swap2\n  pop\n  pop\n  jump\t// out\n    /* \"#utility.yul\":845:962   */\ntag_27:\n    /* \"#utility.yul\":954:955   */\n  0x00\n    /* \"#utility.yul\":951:952   */\n  dup1\n    /* \"#utility.yul\":944:956   */\n  revert\n    /* \"#utility.yul\":968:1070   */\ntag_28:\n    /* \"#utility.yul\":1009:1015   */\n  0x00\n    /* \"#utility.yul\":1060:1062   */\n  0x1f\n    /* \"#utility.yul\":1056:1063   */\n  not\n    /* \"#utility.yul\":1051:1053   */\n  0x1f\n    /* \"#utility.yul\":1044:1049   */\n  dup4\n    /* \"#utility.yul\":1040:1054   */\n  add\n    /* \"#utility.yul\":1036:1064   */\n  and\n    /* \"#utility.yul\":1026:1064   */\n  swap1\n  pop\n    /* \"#utility.yul\":968:1070   */\n  swap2\n  swap1\n  pop\n  jump\t// out\n    /* \"#utility.yul\":1076:1256   */\ntag_29:\n    /* \"#utility.yul\":1124:1201   */\n  0x4e487b7100000000000000000000000000000000000000000000000000000000\n    /* \"#utility.yul\":1121:1122   */\n  0x00\n    /* \"#utility.yul\":1114:1202   */\n  mstore\n    /* \"#utility.yul\":1221:1225   */\n  0x41\n    /* \"#utility.yul\":1218:1219   */\n  0x04\n    /* \"#utility.yul\":1211:1226   */\n  mstore\n    /* \"#utility.yul\":1245:1249   */\n  0x24\n    /* \"#utility.yul\":1242:1243   */\n  0x00\n    /* \"#utility.yul\":1235:1250   */\n  revert\n    /* \"#utility.yul\":1262:1543   */\ntag_30:\n    /* \"#utility.yul\":1345:1372   */\n  tag_81\n    /* \"#utility.yul\":1367:1371   */\n  dup3\n    /* \"#utility.yul\":1345:1372   */\n  tag_28\n  jump\t// in\ntag_81:\n    /* \"#utility.yul\":1337:1343   */\n  dup2\n    /* \"#utility.yul\":1333:1373   */\n  add\n    /* \"#utility.yul\":1475:1481   */\n  dup2\n    /* \"#utility.yul\":1463:1473   */\n  dup2\n    /* \"#utility.yul\":1460:1482   */\n  lt\n    /* \"#utility.yul\":1439:1457   */\n  0xffffffffffffffff\n    /* \"#utility.yul\":1427:1437   */\n  dup3\n    /* \"#utility.yul\":1424:1458   */\n  gt\n    /* \"#utility.yul\":1421:1483   */\n  or\n    /* \"#utility.yul\":1418:1506   */\n  iszero\n  tag_82\n  jumpi\n    /* \"#utility.yul\":1486:1504   */\n  tag_83\n  tag_29\n  jump\t// in\ntag_83:\n    /* \"#utility.yul\":1418:1506   */\ntag_82:\n    /* \"#utility.yul\":1526:1536   */\n  dup1\n    /* \"#utility.yul\":1522:1524   */\n  0x40\n    /* \"#utility.yul\":1515:1537   */\n  mstore\n    /* \"#utility.yul\":1305:1543   */\n  pop\n    /* \"#utility.yul\":1262:1543   */\n  pop\n  pop\n  jump\t// out\n    /* \"#utility.yul\":1549:1678   */\ntag_31:\n    /* \"#utility.yul\":1583:1589   */\n  0x00\n    /* \"#utility.yul\":1610:1630   */\n  tag_85\n  tag_20\n  jump\t// in\ntag_85:\n    /* \"#utility.yul\":1600:1630   */\n  swap1\n  pop\n    /* \"#utility.yul\":1639:1672   */\n  tag_86\n    /* \"#utility.yul\":1667:1671   */\n  dup3\n    /* \"#utility.yul\":1659:1665   */\n  dup3\n    /* \"#utility.yul\":1639:1672   */\n  tag_30\n  jump\t// in\ntag_86:\n    /* \"#utility.yul\":1549:1678   */\n  swap2\n  swap1\n  pop\n  jump\t// out\n    /* \"#utility.yul\":1684:1801   */\ntag_32:\n    /* \"#utility.yul\":1793:1794   */\n  0x00\n    /* \"#utility.yul\":1790:1791   */\n  dup1\n    /* \"#utility.yul\":1783:1795   */\n  revert\n    /* \"#utility.yul\":1807:1924   */\ntag_33:\n    /* \"#utility.yul\":1916:1917   */\n  0x00\n    /* \"#utility.yul\":1913:1914   */\n  dup1\n    /* \"#utility.yul\":1906:1918   */\n  revert\n    /* \"#utility.yul\":1930:2047   */\ntag_34:\n    /* \"#utility.yul\":2039:2040   */\n  0x00\n    /* \"#utility.yul\":2036:2037   */\n  dup1\n    /* \"#utility.yul\":2029:2041   */\n  revert\n    /* \"#utility.yul\":2053:2361   */\ntag_35:\n    /* \"#utility.yul\":2115:2119   */\n  0x00\n    /* \"#utility.yul\":2205:2223   */\n  0xffffffffffffffff\n    /* \"#utility.yul\":2197:2203   */\n  dup3\n    /* \"#utility.yul\":2194:2224   */\n  gt\n    /* \"#utility.yul\":2191:2247   */\n  iszero\n  tag_91\n  jumpi\n    /* \"#utility.yul\":2227:2245   */\n  tag_92\n  tag_29\n  jump\t// in\ntag_92:\n    /* \"#utility.yul\":2191:2247   */\ntag_91:\n    /* \"#utility.yul\":2265:2294   */\n  tag_93\n    /* \"#utility.yul\":2287:2293   */\n  dup3\n    /* \"#utility.yul\":2265:2294   */\n  tag_28\n  jump\t// in\ntag_93:\n    /* \"#utility.yul\":2257:2294   */\n  swap1\n  pop\n    /* \"#utility.yul\":2349:2353   */\n  0x20\n    /* \"#utility.yul\":2343:2347   */\n  dup2\n    /* \"#utility.yul\":2339:2354   */\n  add\n    /* \"#utility.yul\":2331:2354   */\n  swap1\n  pop\n    /* \"#utility.yul\":2053:2361   */\n  swap2\n  swap1\n  pop\n  jump\t// out\n    /* \"#utility.yul\":2367:2506   */\ntag_36:\n    /* \"#utility.yul\":2456:2462   */\n  dup3\n    /* \"#utility.yul\":2451:2454   */\n  dup2\n    /* \"#utility.yul\":2446:2449   */\n  dup4\n    /* \"#utility.yul\":2440:2463   */\n  mcopy\n    /* \"#utility.yul\":2497:2498   */\n  0x00\n    /* \"#utility.yul\":2488:2494   */\n  dup4\n    /* \"#utility.yul\":2483:2486   */\n  dup4\n    /* \"#utility.yul\":2479:2495   */\n  add\n    /* \"#utility.yul\":2472:2499   */\n  mstore\n    /* \"#utility.yul\":2367:2506   */\n  pop\n  pop\n  pop\n  jump\t// out\n    /* \"#utility.yul\":2512:2946   */\ntag_37:\n    /* \"#utility.yul\":2601:2606   */\n  0x00\n    /* \"#utility.yul\":2626:2692   */\n  tag_96\n    /* \"#utility.yul\":2642:2691   */\n  tag_97\n    /* \"#utility.yul\":2684:2690   */\n  dup5\n    /* \"#utility.yul\":2642:2691   */\n  tag_35\n  jump\t// in\ntag_97:\n    /* \"#utility.yul\":2626:2692   */\n  tag_31\n  jump\t// in\ntag_96:\n    /* \"#utility.yul\":2617:2692   */\n  swap1\n  pop\n    /* \"#utility.yul\":2715:2721   */\n  dup3\n    /* \"#utility.yul\":2708:2713   */\n  dup2\n    /* \"#utility.yul\":2701:2722   */\n  mstore\n    /* \"#utility.yul\":2753:2757   */\n  0x20\n    /* \"#utility.yul\":2746:2751   */\n  dup2\n    /* \"#utility.yul\":2742:2758   */\n  add\n    /* \"#utility.yul\":2791:2794   */\n  dup5\n    /* \"#utility.yul\":2782:2788   */\n  dup5\n    /* \"#utility.yul\":2777:2780   */\n  dup5\n    /* \"#utility.yul\":2773:2789   */\n  add\n    /* \"#utility.yul\":2770:2795   */\n  gt\n    /* \"#utility.yul\":2767:2879   */\n  iszero\n  tag_98\n  jumpi\n    /* \"#utility.yul\":2798:2877   */\n  tag_99\n  tag_34\n  jump\t// in\ntag_99:\n    /* \"#utility.yul\":2767:2879   */\ntag_98:\n    /* \"#utility.yul\":2888:2940   */\n  tag_100\n    /* \"#utility.yul\":2933:2939   */\n  dup5\n    /* \"#utility.yul\":2928:2931   */\n  dup3\n    /* \"#utility.yul\":2923:2926   */\n  dup6\n    /* \"#utility.yul\":2888:2940   */\n  tag_36\n  jump\t// in\ntag_100:\n    /* \"#utility.yul\":2607:2946   */\n  pop\n    /* \"#utility.yul\":2512:2946   */\n  swap4\n  swap3\n  pop\n  pop\n  pop\n  jump\t// out\n    /* \"#utility.yul\":2966:3321   */\ntag_38:\n    /* \"#utility.yul\":3033:3038   */\n  0x00\n    /* \"#utility.yul\":3082:3085   */\n  dup3\n    /* \"#utility.yul\":3075:3079   */\n  0x1f\n    /* \"#utility.yul\":3067:3073   */\n  dup4\n    /* \"#utility.yul\":3063:3080   */\n  add\n    /* \"#utility.yul\":3059:3086   */\n  slt\n    /* \"#utility.yul\":3049:3171   */\n  tag_102\n  jumpi\n    /* \"#utility.yul\":3090:3169   */\n  tag_103\n  tag_33\n  jump\t// in\ntag_103:\n    /* \"#utility.yul\":3049:3171   */\ntag_102:\n    /* \"#utility.yul\":3200:3206   */\n  dup2\n    /* \"#utility.yul\":3194:3207   */\n  mload\n    /* \"#utility.yul\":3225:3315   */\n  tag_104\n    /* \"#utility.yul\":3311:3314   */\n  dup5\n    /* \"#utility.yul\":3303:3309   */\n  dup3\n    /* \"#utility.yul\":3296:3300   */\n  0x20\n    /* \"#utility.yul\":3288:3294   */\n  dup7\n    /* \"#utility.yul\":3284:3301   */\n  add\n    /* \"#utility.yul\":3225:3315   */\n  tag_37\n  jump\t// in\ntag_104:\n    /* \"#utility.yul\":3216:3315   */\n  swap2\n  pop\n    /* \"#utility.yul\":3039:3321   */\n  pop\n    /* \"#utility.yul\":2966:3321   */\n  swap3\n  swap2\n  pop\n  pop\n  jump\t// out\n    /* \"#utility.yul\":3327:3477   */\ntag_39:\n    /* \"#utility.yul\":3364:3371   */\n  0x00\n    /* \"#utility.yul\":3404:3470   */\n  0xffffffffffffffffffffffffffffffff00000000000000000000000000000000\n    /* \"#utility.yul\":3397:3402   */\n  dup3\n    /* \"#utility.yul\":3393:3471   */\n  and\n    /* \"#utility.yul\":3382:3471   */\n  swap1\n  pop\n    /* \"#utility.yul\":3327:3477   */\n  swap2\n  swap1\n  pop\n  jump\t// out\n    /* \"#utility.yul\":3483:3605   */\ntag_40:\n    /* \"#utility.yul\":3556:3580   */\n  tag_107\n    /* \"#utility.yul\":3574:3579   */\n  dup2\n    /* \"#utility.yul\":3556:3580   */\n  tag_39\n  jump\t// in\ntag_107:\n    /* \"#utility.yul\":3549:3554   */\n  dup2\n    /* \"#utility.yul\":3546:3581   */\n  eq\n    /* \"#utility.yul\":3536:3599   */\n  tag_108\n  jumpi\n    /* \"#utility.yul\":3595:3596   */\n  0x00\n    /* \"#utility.yul\":3592:3593   */\n  dup1\n    /* \"#utility.yul\":3585:3597   */\n  revert\n    /* \"#utility.yul\":3536:3599   */\ntag_108:\n    /* \"#utility.yul\":3483:3605   */\n  pop\n  jump\t// out\n    /* \"#utility.yul\":3611:3754   */\ntag_41:\n    /* \"#utility.yul\":3668:3673   */\n  0x00\n    /* \"#utility.yul\":3699:3705   */\n  dup2\n    /* \"#utility.yul\":3693:3706   */\n  mload\n    /* \"#utility.yul\":3684:3706   */\n  swap1\n  pop\n    /* \"#utility.yul\":3715:3748   */\n  tag_110\n    /* \"#utility.yul\":3742:3747   */\n  dup2\n    /* \"#utility.yul\":3715:3748   */\n  tag_40\n  jump\t// in\ntag_110:\n    /* \"#utility.yul\":3611:3754   */\n  swap3\n  swap2\n  pop\n  pop\n  jump\t// out\n    /* \"#utility.yul\":3778:4542   */\ntag_42:\n    /* \"#utility.yul\":3858:3863   */\n  0x00\n    /* \"#utility.yul\":3902:3906   */\n  0x40\n    /* \"#utility.yul\":3890:3899   */\n  dup3\n    /* \"#utility.yul\":3885:3888   */\n  dup5\n    /* \"#utility.yul\":3881:3900   */\n  sub\n    /* \"#utility.yul\":3877:3907   */\n  slt\n    /* \"#utility.yul\":3874:3991   */\n  iszero\n  tag_112\n  jumpi\n    /* \"#utility.yul\":3910:3989   */\n  tag_113\n  tag_27\n  jump\t// in\ntag_113:\n    /* \"#utility.yul\":3874:3991   */\ntag_112:\n    /* \"#utility.yul\":4009:4030   */\n  tag_114\n    /* \"#utility.yul\":4025:4029   */\n  0x40\n    /* \"#utility.yul\":4009:4030   */\n  tag_31\n  jump\t// in\ntag_114:\n    /* \"#utility.yul\":4000:4030   */\n  swap1\n  pop\n    /* \"#utility.yul\":4110:4111   */\n  0x00\n    /* \"#utility.yul\":4099:4108   */\n  dup3\n    /* \"#utility.yul\":4095:4112   */\n  add\n    /* \"#utility.yul\":4089:4113   */\n  mload\n    /* \"#utility.yul\":4140:4158   */\n  0xffffffffffffffff\n    /* \"#utility.yul\":4132:4138   */\n  dup2\n    /* \"#utility.yul\":4129:4159   */\n  gt\n    /* \"#utility.yul\":4126:4243   */\n  iszero\n  tag_115\n  jumpi\n    /* \"#utility.yul\":4162:4241   */\n  tag_116\n  tag_32\n  jump\t// in\ntag_116:\n    /* \"#utility.yul\":4126:4243   */\ntag_115:\n    /* \"#utility.yul\":4282:4352   */\n  tag_117\n    /* \"#utility.yul\":4348:4351   */\n  dup5\n    /* \"#utility.yul\":4339:4345   */\n  dup3\n    /* \"#utility.yul\":4328:4337   */\n  dup6\n    /* \"#utility.yul\":4324:4346   */\n  add\n    /* \"#utility.yul\":4282:4352   */\n  tag_38\n  jump\t// in\ntag_117:\n    /* \"#utility.yul\":4275:4279   */\n  0x00\n    /* \"#utility.yul\":4268:4273   */\n  dup4\n    /* \"#utility.yul\":4264:4280   */\n  add\n    /* \"#utility.yul\":4257:4353   */\n  mstore\n    /* \"#utility.yul\":4040:4364   */\n  pop\n    /* \"#utility.yul\":4422:4424   */\n  0x20\n    /* \"#utility.yul\":4463:4523   */\n  tag_118\n    /* \"#utility.yul\":4519:4522   */\n  dup5\n    /* \"#utility.yul\":4510:4516   */\n  dup3\n    /* \"#utility.yul\":4499:4508   */\n  dup6\n    /* \"#utility.yul\":4495:4517   */\n  add\n    /* \"#utility.yul\":4463:4523   */\n  tag_41\n  jump\t// in\ntag_118:\n    /* \"#utility.yul\":4456:4460   */\n  0x20\n    /* \"#utility.yul\":4449:4454   */\n  dup4\n    /* \"#utility.yul\":4445:4461   */\n  add\n    /* \"#utility.yul\":4438:4524   */\n  mstore\n    /* \"#utility.yul\":4374:4535   */\n  pop\n    /* \"#utility.yul\":3778:4542   */\n  swap3\n  swap2\n  pop\n  pop\n  jump\t// out\n    /* \"#utility.yul\":4548:4625   */\ntag_43:\n    /* \"#utility.yul\":4585:4592   */\n  0x00\n    /* \"#utility.yul\":4614:4619   */\n  dup2\n    /* \"#utility.yul\":4603:4619   */\n  swap1\n  pop\n    /* \"#utility.yul\":4548:4625   */\n  swap2\n  swap1\n  pop\n  jump\t// out\n    /* \"#utility.yul\":4631:4753   */\ntag_44:\n    /* \"#utility.yul\":4704:4728   */\n  tag_121\n    /* \"#utility.yul\":4722:4727   */\n  dup2\n    /* \"#utility.yul\":4704:4728   */\n  tag_43\n  jump\t// in\ntag_121:\n    /* \"#utility.yul\":4697:4702   */\n  dup2\n    /* \"#utility.yul\":4694:4729   */\n  eq\n    /* \"#utility.yul\":4684:4747   */\n  tag_122\n  jumpi\n    /* \"#utility.yul\":4743:4744   */\n  0x00\n    /* \"#utility.yul\":4740:4741   */\n  dup1\n    /* \"#utility.yul\":4733:4745   */\n  revert\n    /* \"#utility.yul\":4684:4747   */\ntag_122:\n    /* \"#utility.yul\":4631:4753   */\n  pop\n  jump\t// out\n    /* \"#utility.yul\":4759:4902   */\ntag_45:\n    /* \"#utility.yul\":4816:4821   */\n  0x00\n    /* \"#utility.yul\":4847:4853   */\n  dup2\n    /* \"#utility.yul\":4841:4854   */\n  mload\n    /* \"#utility.yul\":4832:4854   */\n  swap1\n  pop\n    /* \"#utility.yul\":4863:4896   */\n  tag_124\n    /* \"#utility.yul\":4890:4895   */\n  dup2\n    /* \"#utility.yul\":4863:4896   */\n  tag_44\n  jump\t// in\ntag_124:\n    /* \"#utility.yul\":4759:4902   */\n  swap3\n  swap2\n  pop\n  pop\n  jump\t// out\n    /* \"#utility.yul\":4908:5764   */\ntag_3:\n    /* \"#utility.yul\":5016:5022   */\n  0x00\n    /* \"#utility.yul\":5024:5030   */\n  dup1\n    /* \"#utility.yul\":5032:5038   */\n  0x00\n    /* \"#utility.yul\":5081:5083   */\n  0x60\n    /* \"#utility.yul\":5069:5078   */\n  dup5\n    /* \"#utility.yul\":5060:5067   */\n  dup7\n    /* \"#utility.yul\":5056:5079   */\n  sub\n    /* \"#utility.yul\":5052:5084   */\n  slt\n    /* \"#utility.yul\":5049:5168   */\n  iszero\n  tag_126\n  jumpi\n    /* \"#utility.yul\":5087:5166   */\n  tag_127\n  tag_21\n  jump\t// in\ntag_127:\n    /* \"#utility.yul\":5049:5168   */\ntag_126:\n    /* \"#utility.yul\":5207:5208   */\n  0x00\n    /* \"#utility.yul\":5232:5296   */\n  tag_128\n    /* \"#utility.yul\":5288:5295   */\n  dup7\n    /* \"#utility.yul\":5279:5285   */\n  dup3\n    /* \"#utility.yul\":5268:5277   */\n  dup8\n    /* \"#utility.yul\":5264:5286   */\n  add\n    /* \"#utility.yul\":5232:5296   */\n  tag_26\n  jump\t// in\ntag_128:\n    /* \"#utility.yul\":5222:5296   */\n  swap4\n  pop\n    /* \"#utility.yul\":5178:5306   */\n  pop\n    /* \"#utility.yul\":5366:5368   */\n  0x20\n    /* \"#utility.yul\":5355:5364   */\n  dup5\n    /* \"#utility.yul\":5351:5369   */\n  add\n    /* \"#utility.yul\":5345:5370   */\n  mload\n    /* \"#utility.yul\":5397:5415   */\n  0xffffffffffffffff\n    /* \"#utility.yul\":5389:5395   */\n  dup2\n    /* \"#utility.yul\":5386:5416   */\n  gt\n    /* \"#utility.yul\":5383:5500   */\n  iszero\n  tag_129\n  jumpi\n    /* \"#utility.yul\":5419:5498   */\n  tag_130\n  tag_22\n  jump\t// in\ntag_130:\n    /* \"#utility.yul\":5383:5500   */\ntag_129:\n    /* \"#utility.yul\":5524:5608   */\n  tag_131\n    /* \"#utility.yul\":5600:5607   */\n  dup7\n    /* \"#utility.yul\":5591:5597   */\n  dup3\n    /* \"#utility.yul\":5580:5589   */\n  dup8\n    /* \"#utility.yul\":5576:5598   */\n  add\n    /* \"#utility.yul\":5524:5608   */\n  tag_42\n  jump\t// in\ntag_131:\n    /* \"#utility.yul\":5514:5608   */\n  swap3\n  pop\n    /* \"#utility.yul\":5316:5618   */\n  pop\n    /* \"#utility.yul\":5657:5659   */\n  0x40\n    /* \"#utility.yul\":5683:5747   */\n  tag_132\n    /* \"#utility.yul\":5739:5746   */\n  dup7\n    /* \"#utility.yul\":5730:5736   */\n  dup3\n    /* \"#utility.yul\":5719:5728   */\n  dup8\n    /* \"#utility.yul\":5715:5737   */\n  add\n    /* \"#utility.yul\":5683:5747   */\n  tag_45\n  jump\t// in\ntag_132:\n    /* \"#utility.yul\":5673:5747   */\n  swap2\n  pop\n    /* \"#utility.yul\":5628:5757   */\n  pop\n    /* \"#utility.yul\":4908:5764   */\n  swap3\n  pop\n  swap3\n  pop\n  swap3\n  jump\t// out\n    /* \"#utility.yul\":5770:5888   */\ntag_46:\n    /* \"#utility.yul\":5857:5881   */\n  tag_134\n    /* \"#utility.yul\":5875:5880   */\n  dup2\n    /* \"#utility.yul\":5857:5881   */\n  tag_24\n  jump\t// in\ntag_134:\n    /* \"#utility.yul\":5852:5855   */\n  dup3\n    /* \"#utility.yul\":5845:5882   */\n  mstore\n    /* \"#utility.yul\":5770:5888   */\n  pop\n  pop\n  jump\t// out\n    /* \"#utility.yul\":5894:6116   */\ntag_9:\n    /* \"#utility.yul\":5987:5991   */\n  0x00\n    /* \"#utility.yul\":6025:6027   */\n  0x20\n    /* \"#utility.yul\":6014:6023   */\n  dup3\n    /* \"#utility.yul\":6010:6028   */\n  add\n    /* \"#utility.yul\":6002:6028   */\n  swap1\n  pop\n    /* \"#utility.yul\":6038:6109   */\n  tag_136\n    /* \"#utility.yul\":6106:6107   */\n  0x00\n    /* \"#utility.yul\":6095:6104   */\n  dup4\n    /* \"#utility.yul\":6091:6108   */\n  add\n    /* \"#utility.yul\":6082:6088   */\n  dup5\n    /* \"#utility.yul\":6038:6109   */\n  tag_46\n  jump\t// in\ntag_136:\n    /* \"#utility.yul\":5894:6116   */\n  swap3\n  swap2\n  pop\n  pop\n  jump\t// out\n    /* \"#utility.yul\":6122:6221   */\ntag_47:\n    /* \"#utility.yul\":6174:6180   */\n  0x00\n    /* \"#utility.yul\":6208:6213   */\n  dup2\n    /* \"#utility.yul\":6202:6214   */\n  mload\n    /* \"#utility.yul\":6192:6214   */\n  swap1\n  pop\n    /* \"#utility.yul\":6122:6221   */\n  swap2\n  swap1\n  pop\n  jump\t// out\n    /* \"#utility.yul\":6227:6407   */\ntag_48:\n    /* \"#utility.yul\":6275:6352   */\n  0x4e487b7100000000000000000000000000000000000000000000000000000000\n    /* \"#utility.yul\":6272:6273   */\n  0x00\n    /* \"#utility.yul\":6265:6353   */\n  mstore\n    /* \"#utility.yul\":6372:6376   */\n  0x22\n    /* \"#utility.yul\":6369:6370   */\n  0x04\n    /* \"#utility.yul\":6362:6377   */\n  mstore\n    /* \"#utility.yul\":6396:6400   */\n  0x24\n    /* \"#utility.yul\":6393:6394   */\n  0x00\n    /* \"#utility.yul\":6386:6401   */\n  revert\n    /* \"#utility.yul\":6413:6733   */\ntag_49:\n    /* \"#utility.yul\":6457:6463   */\n  0x00\n    /* \"#utility.yul\":6494:6495   */\n  0x02\n    /* \"#utility.yul\":6488:6492   */\n  dup3\n    /* \"#utility.yul\":6484:6496   */\n  div\n    /* \"#utility.yul\":6474:6496   */\n  swap1\n  pop\n    /* \"#utility.yul\":6541:6542   */\n  0x01\n    /* \"#utility.yul\":6535:6539   */\n  dup3\n    /* \"#utility.yul\":6531:6543   */\n  and\n    /* \"#utility.yul\":6562:6580   */\n  dup1\n    /* \"#utility.yul\":6552:6633   */\n  tag_140\n  jumpi\n    /* \"#utility.yul\":6618:6622   */\n  0x7f\n    /* \"#utility.yul\":6610:6616   */\n  dup3\n    /* \"#utility.yul\":6606:6623   */\n  and\n    /* \"#utility.yul\":6596:6623   */\n  swap2\n  pop\n    /* \"#utility.yul\":6552:6633   */\ntag_140:\n    /* \"#utility.yul\":6680:6682   */\n  0x20\n    /* \"#utility.yul\":6672:6678   */\n  dup3\n    /* \"#utility.yul\":6669:6683   */\n  lt\n    /* \"#utility.yul\":6649:6667   */\n  dup2\n    /* \"#utility.yul\":6646:6684   */\n  sub\n    /* \"#utility.yul\":6643:6727   */\n  tag_141\n  jumpi\n    /* \"#utility.yul\":6699:6717   */\n  tag_142\n  tag_48\n  jump\t// in\ntag_142:\n    /* \"#utility.yul\":6643:6727   */\ntag_141:\n    /* \"#utility.yul\":6464:6733   */\n  pop\n    /* \"#utility.yul\":6413:6733   */\n  swap2\n  swap1\n  pop\n  jump\t// out\n    /* \"#utility.yul\":6739:6880   */\ntag_50:\n    /* \"#utility.yul\":6788:6792   */\n  0x00\n    /* \"#utility.yul\":6811:6814   */\n  dup2\n    /* \"#utility.yul\":6803:6814   */\n  swap1\n  pop\n    /* \"#utility.yul\":6834:6837   */\n  dup2\n    /* \"#utility.yul\":6831:6832   */\n  0x00\n    /* \"#utility.yul\":6824:6838   */\n  mstore\n    /* \"#utility.yul\":6868:6872   */\n  0x20\n    /* \"#utility.yul\":6865:6866   */\n  0x00\n    /* \"#utility.yul\":6855:6873   */\n  keccak256\n    /* \"#utility.yul\":6847:6873   */\n  swap1\n  pop\n    /* \"#utility.yul\":6739:6880   */\n  swap2\n  swap1\n  pop\n  jump\t// out\n    /* \"#utility.yul\":6886:6979   */\ntag_51:\n    /* \"#utility.yul\":6923:6929   */\n  0x00\n    /* \"#utility.yul\":6970:6972   */\n  0x20\n    /* \"#utility.yul\":6965:6967   */\n  0x1f\n    /* \"#utility.yul\":6958:6963   */\n  dup4\n    /* \"#utility.yul\":6954:6968   */\n  add\n    /* \"#utility.yul\":6950:6973   */\n  div\n    /* \"#utility.yul\":6940:6973   */\n  swap1\n  pop\n    /* \"#utility.yul\":6886:6979   */\n  swap2\n  swap1\n  pop\n  jump\t// out\n    /* \"#utility.yul\":6985:7092   */\ntag_52:\n    /* \"#utility.yul\":7029:7037   */\n  0x00\n    /* \"#utility.yul\":7079:7084   */\n  dup3\n    /* \"#utility.yul\":7073:7077   */\n  dup3\n    /* \"#utility.yul\":7069:7085   */\n  shl\n    /* \"#utility.yul\":7048:7085   */\n  swap1\n  pop\n    /* \"#utility.yul\":6985:7092   */\n  swap3\n  swap2\n  pop\n  pop\n  jump\t// out\n    /* \"#utility.yul\":7098:7491   */\ntag_53:\n    /* \"#utility.yul\":7167:7173   */\n  0x00\n    /* \"#utility.yul\":7217:7218   */\n  0x08\n    /* \"#utility.yul\":7205:7215   */\n  dup4\n    /* \"#utility.yul\":7201:7219   */\n  mul\n    /* \"#utility.yul\":7240:7337   */\n  tag_147\n    /* \"#utility.yul\":7270:7336   */\n  0xffffffffffffffffffffffffffffffffffffffffffffffffffffffffffffffff\n    /* \"#utility.yul\":7259:7268   */\n  dup3\n    /* \"#utility.yul\":7240:7337   */\n  tag_52\n  jump\t// in\ntag_147:\n    /* \"#utility.yul\":7358:7397   */\n  tag_148\n    /* \"#utility.yul\":7388:7396   */\n  dup7\n    /* \"#utility.yul\":7377:7386   */\n  dup4\n    /* \"#utility.yul\":7358:7397   */\n  tag_52\n  jump\t// in\ntag_148:\n    /* \"#utility.yul\":7346:7397   */\n  swap6\n  pop\n    /* \"#utility.yul\":7430:7434   */\n  dup1\n    /* \"#utility.yul\":7426:7435   */\n  not\n    /* \"#utility.yul\":7419:7424   */\n  dup5\n    /* \"#utility.yul\":7415:7436   */\n  and\n    /* \"#utility.yul\":7406:7436   */\n  swap4\n  pop\n    /* \"#utility.yul\":7479:7483   */\n  dup1\n    /* \"#utility.yul\":7469:7477   */\n  dup7\n    /* \"#utility.yul\":7465:7484   */\n  and\n    /* \"#utility.yul\":7458:7463   */\n  dup5\n    /* \"#utility.yul\":7455:7485   */\n  or\n    /* \"#utility.yul\":7445:7485   */\n  swap3\n  pop\n    /* \"#utility.yul\":7174:7491   */\n  pop\n  pop\n    /* \"#utility.yul\":7098:7491   */\n  swap4\n  swap3\n  pop\n  pop\n  pop\n  jump\t// out\n    /* \"#utility.yul\":7497:7557   */\ntag_54:\n    /* \"#utility.yul\":7525:7528   */\n  0x00\n    /* \"#utility.yul\":7546:7551   */\n  dup2\n    /* \"#utility.yul\":7539:7551   */\n  swap1\n  pop\n    /* \"#utility.yul\":7497:7557   */\n  swap2\n  swap1\n  pop\n  jump\t// out\n    /* \"#utility.yul\":7563:7705   */\ntag_55:\n    /* \"#utility.yul\":7613:7622   */\n  0x00\n    /* \"#utility.yul\":7646:7699   */\n  tag_151\n    /* \"#utility.yul\":7664:7698   */\n  tag_152\n    /* \"#utility.yul\":7673:7697   */\n  tag_153\n    /* \"#utility.yul\":7691:7696   */\n  dup5\n    /* \"#utility.yul\":7673:7697   */\n  tag_43\n  jump\t// in\ntag_153:\n    /* \"#utility.yul\":7664:7698   */\n  tag_54\n  jump\t// in\ntag_152:\n    /* \"#utility.yul\":7646:7699   */\n  tag_43\n  jump\t// in\ntag_151:\n    /* \"#utility.yul\":7633:7699   */\n  swap1\n  pop\n    /* \"#utility.yul\":7563:7705   */\n  swap2\n  swap1\n  pop\n  jump\t// out\n    /* \"#utility.yul\":7711:7786   */\ntag_56:\n    /* \"#utility.yul\":7754:7757   */\n  0x00\n    /* \"#utility.yul\":7775:7780   */\n  dup2\n    /* \"#utility.yul\":7768:7780   */\n  swap1\n  pop\n    /* \"#utility.yul\":7711:7786   */\n  swap2\n  swap1\n  pop\n  jump\t// out\n    /* \"#utility.yul\":7792:8061   */\ntag_57:\n    /* \"#utility.yul\":7902:7941   */\n  tag_156\n    /* \"#utility.yul\":7933:7940   */\n  dup4\n    /* \"#utility.yul\":7902:7941   */\n  tag_55\n  jump\t// in\ntag_156:\n    /* \"#utility.yul\":7963:8054   */\n  tag_157\n    /* \"#utility.yul\":8012:8053   */\n  tag_158\n    /* \"#utility.yul\":8036:8052   */\n  dup3\n    /* \"#utility.yul\":8012:8053   */\n  tag_56\n  jump\t// in\ntag_158:\n    /* \"#utility.yul\":8004:8010   */\n  dup5\n    /* \"#utility.yul\":7997:8001   */\n  dup5\n    /* \"#utility.yul\":7991:8002   */\n  sload\n    /* \"#utility.yul\":7963:8054   */\n  tag_53\n  jump\t// in\ntag_157:\n    /* \"#utility.yul\":7957:7961   */\n  dup3\n    /* \"#utility.yul\":7950:8055   */\n  sstore\n    /* \"#utility.yul\":7868:8061   */\n  pop\n    /* \"#utility.yul\":7792:8061   */\n  pop\n  pop\n  pop\n  jump\t// out\n    /* \"#utility.yul\":8067:8140   */\ntag_58:\n    /* \"#utility.yul\":8112:8115   */\n  0x00\n    /* \"#utility.yul\":8067:8140   */\n  swap1\n  jump\t// out\n    /* \"#utility.yul\":8146:8335   */\ntag_59:\n    /* \"#utility.yul\":8223:8255   */\n  tag_161\n  tag_58\n  jump\t// in\ntag_161:\n    /* \"#utility.yul\":8264:8329   */\n  tag_162\n    /* \"#utility.yul\":8322:8328   */\n  dup2\n    /* \"#utility.yul\":8314:8320   */\n  dup5\n    /* \"#utility.yul\":8308:8312   */\n  dup5\n    /* \"#utility.yul\":8264:8329   */\n  tag_57\n  jump\t// in\ntag_162:\n    /* \"#utility.yul\":8199:8335   */\n  pop\n    /* \"#utility.yul\":8146:8335   */\n  pop\n  pop\n  jump\t// out\n    /* \"#utility.yul\":8341:8527   */\ntag_60:\n    /* \"#utility.yul\":8401:8521   */\ntag_164:\n    /* \"#utility.yul\":8418:8421   */\n  dup2\n    /* \"#utility.yul\":8411:8416   */\n  dup2\n    /* \"#utility.yul\":8408:8422   */\n  lt\n    /* \"#utility.yul\":8401:8521   */\n  iszero\n  tag_166\n  jumpi\n    /* \"#utility.yul\":8472:8511   */\n  tag_167\n    /* \"#utility.yul\":8509:8510   */\n  0x00\n    /* \"#utility.yul\":8502:8507   */\n  dup3\n    /* \"#utility.yul\":8472:8511   */\n  tag_59\n  jump\t// in\ntag_167:\n    /* \"#utility.yul\":8445:8446   */\n  0x01\n    /* \"#utility.yul\":8438:8443   */\n  dup2\n    /* \"#utility.yul\":8434:8447   */\n  add\n    /* \"#utility.yul\":8425:8447   */\n  swap1\n  pop\n    /* \"#utility.yul\":8401:8521   */\n  jump(tag_164)\ntag_166:\n    /* \"#utility.yul\":8341:8527   */\n  pop\n  pop\n  jump\t// out\n    /* \"#utility.yul\":8533:9076   */\ntag_61:\n    /* \"#utility.yul\":8634:8636   */\n  0x1f\n    /* \"#utility.yul\":8629:8632   */\n  dup3\n    /* \"#utility.yul\":8626:8637   */\n  gt\n    /* \"#utility.yul\":8623:9069   */\n  iszero\n  tag_169\n  jumpi\n    /* \"#utility.yul\":8668:8706   */\n  tag_170\n    /* \"#utility.yul\":8700:8705   */\n  dup2\n    /* \"#utility.yul\":8668:8706   */\n  tag_50\n  jump\t// in\ntag_170:\n    /* \"#utility.yul\":8752:8781   */\n  tag_171\n    /* \"#utility.yul\":8770:8780   */\n  dup5\n    /* \"#utility.yul\":8752:8781   */\n  tag_51\n  jump\t// in\ntag_171:\n    /* \"#utility.yul\":8742:8750   */\n  dup2\n    /* \"#utility.yul\":8738:8782   */\n  add\n    /* \"#utility.yul\":8935:8937   */\n  0x20\n    /* \"#utility.yul\":8923:8933   */\n  dup6\n    /* \"#utility.yul\":8920:8938   */\n  lt\n    /* \"#utility.yul\":8917:8966   */\n  iszero\n  tag_172\n  jumpi\n    /* \"#utility.yul\":8956:8964   */\n  dup2\n    /* \"#utility.yul\":8941:8964   */\n  swap1\n  pop\n    /* \"#utility.yul\":8917:8966   */\ntag_172:\n    /* \"#utility.yul\":8979:9059   */\n  tag_173\n    /* \"#utility.yul\":9035:9057   */\n  tag_174\n    /* \"#utility.yul\":9053:9056   */\n  dup6\n    /* \"#utility.yul\":9035:9057   */\n  tag_51\n  jump\t// in\ntag_174:\n    /* \"#utility.yul\":9025:9033   */\n  dup4\n    /* \"#utility.yul\":9021:9058   */\n  add\n    /* \"#utility.yul\":9008:9019   */\n  dup3\n    /* \"#utility.yul\":8979:9059   */\n  tag_60\n  jump\t// in\ntag_173:\n    /* \"#utility.yul\":8638:9069   */\n  pop\n  pop\n    /* \"#utility.yul\":8623:9069   */\ntag_169:\n    /* \"#utility.yul\":8533:9076   */\n  pop\n  pop\n  pop\n  jump\t// out\n    /* \"#utility.yul\":9082:9199   */\ntag_62:\n    /* \"#utility.yul\":9136:9144   */\n  0x00\n    /* \"#utility.yul\":9186:9191   */\n  dup3\n    /* \"#utility.yul\":9180:9184   */\n  dup3\n    /* \"#utility.yul\":9176:9192   */\n  shr\n    /* \"#utility.yul\":9155:9192   */\n  swap1\n  pop\n    /* \"#utility.yul\":9082:9199   */\n  swap3\n  swap2\n  pop\n  pop\n  jump\t// out\n    /* \"#utility.yul\":9205:9374   */\ntag_63:\n    /* \"#utility.yul\":9249:9255   */\n  0x00\n    /* \"#utility.yul\":9282:9333   */\n  tag_177\n    /* \"#utility.yul\":9330:9331   */\n  0x00\n    /* \"#utility.yul\":9326:9332   */\n  not\n    /* \"#utility.yul\":9318:9323   */\n  dup5\n    /* \"#utility.yul\":9315:9316   */\n  0x08\n    /* \"#utility.yul\":9311:9324   */\n  mul\n    /* \"#utility.yul\":9282:9333   */\n  tag_62\n  jump\t// in\ntag_177:\n    /* \"#utility.yul\":9278:9334   */\n  not\n    /* \"#utility.yul\":9363:9367   */\n  dup1\n    /* \"#utility.yul\":9357:9361   */\n  dup4\n    /* \"#utility.yul\":9353:9368   */\n  and\n    /* \"#utility.yul\":9343:9368   */\n  swap2\n  pop\n    /* \"#utility.yul\":9256:9374   */\n  pop\n    /* \"#utility.yul\":9205:9374   */\n  swap3\n  swap2\n  pop\n  pop\n  jump\t// out\n    /* \"#utility.yul\":9379:9674   */\ntag_64:\n    /* \"#utility.yul\":9455:9459   */\n  0x00\n    /* \"#utility.yul\":9601:9630   */\n  tag_179\n    /* \"#utility.yul\":9626:9629   */\n  dup4\n    /* \"#utility.yul\":9620:9624   */\n  dup4\n    /* \"#utility.yul\":9601:9630   */\n  tag_63\n  jump\t// in\ntag_179:\n    /* \"#utility.yul\":9593:9630   */\n  swap2\n  pop\n    /* \"#utility.yul\":9663:9666   */\n  dup3\n    /* \"#utility.yul\":9660:9661   */\n  0x02\n    /* \"#utility.yul\":9656:9667   */\n  mul\n    /* \"#utility.yul\":9650:9654   */\n  dup3\n    /* \"#utility.yul\":9647:9668   */\n  or\n    /* \"#utility.yul\":9639:9668   */\n  swap1\n  pop\n    /* \"#utility.yul\":9379:9674   */\n  swap3\n  swap2\n  pop\n  pop\n  jump\t// out\n    /* \"#utility.yul\":9679:11074   */\ntag_14:\n    /* \"#utility.yul\":9796:9833   */\n  tag_181\n    /* \"#utility.yul\":9829:9832   */\n  dup3\n    /* \"#utility.yul\":9796:9833   */\n  tag_47\n  jump\t// in\ntag_181:\n    /* \"#utility.yul\":9898:9916   */\n  0xffffffffffffffff\n    /* \"#utility.yul\":9890:9896   */\n  dup2\n    /* \"#utility.yul\":9887:9917   */\n  gt\n    /* \"#utility.yul\":9884:9940   */\n  iszero\n  tag_182\n  jumpi\n    /* \"#utility.yul\":9920:9938   */\n  tag_183\n  tag_29\n  jump\t// in\ntag_183:\n    /* \"#utility.yul\":9884:9940   */\ntag_182:\n    /* \"#utility.yul\":9964:10002   */\n  tag_184\n    /* \"#utility.yul\":9996:10000   */\n  dup3\n    /* \"#utility.yul\":9990:10001   */\n  sload\n    /* \"#utility.yul\":9964:10002   */\n  tag_49\n  jump\t// in\ntag_184:\n    /* \"#utility.yul\":10049:10116   */\n  tag_185\n    /* \"#utility.yul\":10109:10115   */\n  dup3\n    /* \"#utility.yul\":10101:10107   */\n  dup3\n    /* \"#utility.yul\":10095:10099   */\n  dup6\n    /* \"#utility.yul\":10049:10116   */\n  tag_61\n  jump\t// in\ntag_185:\n    /* \"#utility.yul\":10143:10144   */\n  0x00\n    /* \"#utility.yul\":10167:10171   */\n  0x20\n    /* \"#utility.yul\":10154:10171   */\n  swap1\n  pop\n    /* \"#utility.yul\":10199:10201   */\n  0x1f\n    /* \"#utility.yul\":10191:10197   */\n  dup4\n    /* \"#utility.yul\":10188:10202   */\n  gt\n    /* \"#utility.yul\":10216:10217   */\n  0x01\n    /* \"#utility.yul\":10211:10829   */\n  dup2\n  eq\n  tag_187\n  jumpi\n    /* \"#utility.yul\":10873:10874   */\n  0x00\n    /* \"#utility.yul\":10890:10896   */\n  dup5\n    /* \"#utility.yul\":10887:10964   */\n  iszero\n  tag_188\n  jumpi\n    /* \"#utility.yul\":10939:10948   */\n  dup3\n    /* \"#utility.yul\":10934:10937   */\n  dup8\n    /* \"#utility.yul\":10930:10949   */\n  add\n    /* \"#utility.yul\":10924:10950   */\n  mload\n    /* \"#utility.yul\":10915:10950   */\n  swap1\n  pop\n    /* \"#utility.yul\":10887:10964   */\ntag_188:\n    /* \"#utility.yul\":10990:11057   */\n  tag_189\n    /* \"#utility.yul\":11050:11056   */\n  dup6\n    /* \"#utility.yul\":11043:11048   */\n  dup3\n    /* \"#utility.yul\":10990:11057   */\n  tag_64\n  jump\t// in\ntag_189:\n    /* \"#utility.yul\":10984:10988   */\n  dup7\n    /* \"#utility.yul\":10977:11058   */\n  sstore\n    /* \"#utility.yul\":10846:11068   */\n  pop\n    /* \"#utility.yul\":10181:11068   */\n  jump(tag_186)\n    /* \"#utility.yul\":10211:10829   */\ntag_187:\n    /* \"#utility.yul\":10263:10267   */\n  0x1f\n    /* \"#utility.yul\":10259:10268   */\n  not\n    /* \"#utility.yul\":10251:10257   */\n  dup5\n    /* \"#utility.yul\":10247:10269   */\n  and\n    /* \"#utility.yul\":10297:10334   */\n  tag_190\n    /* \"#utility.yul\":10329:10333   */\n  dup7\n    /* \"#utility.yul\":10297:10334   */\n  tag_50\n  jump\t// in\ntag_190:\n    /* \"#utility.yul\":10356:10357   */\n  0x00\n    /* \"#utility.yul\":10370:10578   */\ntag_191:\n    /* \"#utility.yul\":10384:10391   */\n  dup3\n    /* \"#utility.yul\":10381:10382   */\n  dup2\n    /* \"#utility.yul\":10378:10392   */\n  lt\n    /* \"#utility.yul\":10370:10578   */\n  iszero\n  tag_193\n  jumpi\n    /* \"#utility.yul\":10463:10472   */\n  dup5\n    /* \"#utility.yul\":10458:10461   */\n  dup10\n    /* \"#utility.yul\":10454:10473   */\n  add\n    /* \"#utility.yul\":10448:10474   */\n  mload\n    /* \"#utility.yul\":10440:10446   */\n  dup3\n    /* \"#utility.yul\":10433:10475   */\n  sstore\n    /* \"#utility.yul\":10514:10515   */\n  0x01\n    /* \"#utility.yul\":10506:10512   */\n  dup3\n    /* \"#utility.yul\":10502:10516   */\n  add\n    /* \"#utility.yul\":10492:10516   */\n  swap2\n  pop\n    /* \"#utility.yul\":10561:10563   */\n  0x20\n    /* \"#utility.yul\":10550:10559   */\n  dup6\n    /* \"#utility.yul\":10546:10564   */\n  add\n    /* \"#utility.yul\":10533:10564   */\n  swap5\n  pop\n    /* \"#utility.yul\":10407:10411   */\n  0x20\n    /* \"#utility.yul\":10404:10405   */\n  dup2\n    /* \"#utility.yul\":10400:10412   */\n  add\n    /* \"#utility.yul\":10395:10412   */\n  swap1\n  pop\n    /* \"#utility.yul\":10370:10578   */\n  jump(tag_191)\ntag_193:\n    /* \"#utility.yul\":10606:10612   */\n  dup7\n    /* \"#utility.yul\":10597:10604   */\n  dup4\n    /* \"#utility.yul\":10594:10613   */\n  lt\n    /* \"#utility.yul\":10591:10770   */\n  iszero\n  tag_194\n  jumpi\n    /* \"#utility.yul\":10664:10673   */\n  dup5\n    /* \"#utility.yul\":10659:10662   */\n  dup10\n    /* \"#utility.yul\":10655:10674   */\n  add\n    /* \"#utility.yul\":10649:10675   */\n  mload\n    /* \"#utility.yul\":10707:10755   */\n  tag_195\n    /* \"#utility.yul\":10749:10753   */\n  0x1f\n    /* \"#utility.yul\":10741:10747   */\n  dup10\n    /* \"#utility.yul\":10737:10754   */\n  and\n    /* \"#utility.yul\":10726:10735   */\n  dup3\n    /* \"#utility.yul\":10707:10755   */\n  tag_63\n  jump\t// in\ntag_195:\n    /* \"#utility.yul\":10699:10705   */\n  dup4\n    /* \"#utility.yul\":10692:10756   */\n  sstore\n    /* \"#utility.yul\":10614:10770   */\n  pop\n    /* \"#utility.yul\":10591:10770   */\ntag_194:\n    /* \"#utility.yul\":10816:10817   */\n  0x01\n    /* \"#utility.yul\":10812:10813   */\n  0x02\n    /* \"#utility.yul\":10804:10810   */\n  dup9\n    /* \"#utility.yul\":10800:10814   */\n  mul\n    /* \"#utility.yul\":10796:10818   */\n  add\n    /* \"#utility.yul\":10790:10794   */\n  dup9\n    /* \"#utility.yul\":10783:10819   */\n  sstore\n    /* \"#utility.yul\":10218:10829   */\n  pop\n  pop\n  pop\n    /* \"#utility.yul\":10181:11068   */\ntag_186:\n  pop\n    /* \"#utility.yul\":9771:11074   */\n  pop\n  pop\n  pop\n    /* \"#utility.yul\":9679:11074   */\n  pop\n  pop\n  jump\t// out\n    /* \"contracts/NFT.sol\":281:1783  contract NFTContract is Ownable, INFT{... */\ntag_17:\n  dataSize(sub_0)\n  dup1\n  dataOffset(sub_0)\n  0x00\n  codecopy\n  0x00\n  return\nstop\n\nsub_0: assembly {\n        /* \"contracts/NFT.sol\":281:1783  contract NFTContract is Ownable, INFT{... */\n      mstore(0x40, 0x80)\n      jumpi(tag_1, lt(calldatasize, 0x04))\n      shr(0xe0, calldataload(0x00))\n      dup1\n      0x8da5cb5b\n      gt\n      tag_10\n      jumpi\n      dup1\n      0x8da5cb5b\n      eq\n      tag_6\n      jumpi\n      dup1\n      0xa38bffda\n      eq\n      tag_7\n      jumpi\n      dup1\n      0xcc28cd3b\n      eq\n      tag_8\n      jumpi\n      dup1\n      0xf2fde38b\n      eq\n      tag_9\n      jumpi\n      jump(tag_1)\n    tag_10:\n      dup1\n      0x24600fc3\n      eq\n      tag_2\n      jumpi\n      dup1\n      0x69769a27\n      eq\n      tag_3\n      jumpi\n      dup1\n      0x715018a6\n      eq\n      tag_4\n      jumpi\n      dup1\n      0x8d6cc56d\n      eq\n      tag_5\n      jumpi\n    tag_1:\n      0x00\n      dup1\n      revert\n        /* \"contracts/NFT.sol\":1530:1780  function withdrawFunds() external onlyOwner{... */\n    tag_2:\n      callvalue\n      dup1\n      iszero\n      tag_11\n      jumpi\n      0x00\n      dup1\n      revert\n    tag_11:\n      pop\n      tag_12\n      tag_13\n      jump\t// in\n    tag_12:\n      stop\n        /* \"contracts/NFT.sol\":351:370  NFT public ownedNFT */\n    tag_3:\n      callvalue\n      dup1\n      iszero\n      tag_14\n      jumpi\n      0x00\n      dup1\n      revert\n    tag_14:\n      pop\n      tag_15\n      tag_16\n      jump\t// in\n    tag_15:\n      mload(0x40)\n      tag_17\n      swap3\n      swap2\n      swap1\n      tag_18\n      jump\t// in\n    tag_17:\n      mload(0x40)\n      dup1\n      swap2\n      sub\n      swap1\n      return\n        /* \"@openzeppelin/contracts/access/Ownable.sol\":2293:2394  function renounceOwnership() public virtual onlyOwner {... */\n    tag_4:\n      callvalue\n      dup1\n      iszero\n      tag_19\n      jumpi\n      0x00\n      dup1\n      revert\n    tag_19:\n      pop\n      tag_20\n      tag_21\n      jump\t// in\n    tag_20:\n      stop\n        /* \"contracts/NFT.sol\":715:895  function updatePrice(uint _newPrice) external onlyOwner{... */\n    tag_5:\n      callvalue\n      dup1\n      iszero\n      tag_22\n      jumpi\n      0x00\n      dup1\n      revert\n    tag_22:\n      pop\n      tag_23\n      0x04\n      dup1\n      calldatasize\n      sub\n      dup2\n      add\n      swap1\n      tag_24\n      swap2\n      swap1\n      tag_25\n      jump\t// in\n    tag_24:\n      tag_26\n      jump\t// in\n    tag_23:\n      stop\n        /* \"@openzeppelin/contracts/access/Ownable.sol\":1638:1723  function owner() public view virtual returns (address) {... */\n    tag_6:\n      callvalue\n      dup1\n      iszero\n      tag_27\n      jumpi\n      0x00\n      dup1\n      revert\n    tag_27:\n      pop\n      tag_28\n      tag_29\n      jump\t// in\n    tag_28:\n      mload(0x40)\n      tag_30\n      swap2\n      swap1\n      tag_31\n      jump\t// in\n    tag_30:\n      mload(0x40)\n      dup1\n      swap2\n      sub\n      swap1\n      return\n        /* \"contracts/NFT.sol\":377:397  uint public NFTPrice */\n    tag_7:\n      callvalue\n      dup1\n      iszero\n      tag_32\n      jumpi\n      0x00\n      dup1\n      revert\n    tag_32:\n      pop\n      tag_33\n      tag_34\n      jump\t// in\n    tag_33:\n      mload(0x40)\n      tag_35\n      swap2\n      swap1\n      tag_36\n      jump\t// in\n    tag_35:\n      mload(0x40)\n      dup1\n      swap2\n      sub\n      swap1\n      return\n        /* \"contracts/NFT.sol\":938:1481  function sellNFT(string memory _name) external payable onlyOwner{... */\n    tag_8:\n      tag_37\n      0x04\n      dup1\n      calldatasize\n      sub\n      dup2\n      add\n      swap1\n      tag_38\n      swap2\n      swap1\n      tag_39\n      jump\t// in\n    tag_38:\n      tag_40\n      jump\t// in\n    tag_37:\n      stop\n        /* \"@openzeppelin/contracts/access/Ownable.sol\":2543:2758  function transferOwnership(address newOwner) public virtual onlyOwner {... */\n    tag_9:\n      callvalue\n      dup1\n      iszero\n      tag_41\n      jumpi\n      0x00\n      dup1\n      revert\n    tag_41:\n      pop\n      tag_42\n      0x04\n      dup1\n      calldatasize\n      sub\n      dup2\n      add\n      swap1\n      tag_43\n      swap2\n      swap1\n      tag_44\n      jump\t// in\n    tag_43:\n      tag_45\n      jump\t// in\n    tag_42:\n      stop\n        /* \"contracts/NFT.sol\":1530:1780  function withdrawFunds() external onlyOwner{... */\n    tag_13:\n        /* \"@openzeppelin/contracts/access/Ownable.sol\":1531:1544  _checkOwner() */\n      tag_47\n        /* \"@openzeppelin/contracts/access/Ownable.sol\":1531:1542  _checkOwner */\n      tag_48\n        /* \"@openzeppelin/contracts/access/Ownable.sol\":1531:1544  _checkOwner() */\n      jump\t// in\n    tag_47:\n        /* \"contracts/NFT.sol\":1584:1603  uint currentBalance */\n      0x00\n        /* \"contracts/NFT.sol\":1606:1627  address(this).balance */\n      selfbalance\n        /* \"contracts/NFT.sol\":1584:1627  uint currentBalance = address(this).balance */\n      swap1\n      pop\n        /* \"contracts/NFT.sol\":1639:1650  bool isSent */\n      0x00\n        /* \"contracts/NFT.sol\":1656:1668  currentOwner */\n      0x04\n      0x00\n      swap1\n      sload\n      swap1\n      0x0100\n      exp\n      swap1\n      div\n      0xffffffffffffffffffffffffffffffffffffffff\n      and\n        /* \"contracts/NFT.sol\":1656:1673  currentOwner.call */\n      0xffffffffffffffffffffffffffffffffffffffff\n      and\n        /* \"contracts/NFT.sol\":1681:1695  currentBalance */\n      dup3\n        /* \"contracts/NFT.sol\":1656:1700  currentOwner.call{value: currentBalance}(\"\") */\n      mload(0x40)\n      tag_50\n      swap1\n      tag_51\n      jump\t// in\n    tag_50:\n      0x00\n      mload(0x40)\n      dup1\n      dup4\n      sub\n      dup2\n      dup6\n      dup8\n      gas\n      call\n      swap3\n      pop\n      pop\n      pop\n      returndatasize\n      dup1\n      0x00\n      dup2\n      eq\n      tag_54\n      jumpi\n      mload(0x40)\n      swap2\n      pop\n      and(add(returndatasize, 0x3f), not(0x1f))\n      dup3\n      add\n      0x40\n      mstore\n      returndatasize\n      dup3\n      mstore\n      returndatasize\n      0x00\n      0x20\n      dup5\n      add\n      returndatacopy\n      jump(tag_53)\n    tag_54:\n      0x60\n      swap2\n      pop\n    tag_53:\n      pop\n        /* \"contracts/NFT.sol\":1638:1700  (bool isSent, ) = currentOwner.call{value: currentBalance}(\"\") */\n      pop\n      swap1\n      pop\n        /* \"contracts/NFT.sol\":1729:1735  isSent */\n      dup1\n        /* \"contracts/NFT.sol\":1721:1772  require(isSent, \"Funds not withdrawn successfully\") */\n      tag_55\n      jumpi\n      mload(0x40)\n      0x08c379a000000000000000000000000000000000000000000000000000000000\n      dup2\n      mstore\n      0x04\n      add\n      tag_56\n      swap1\n      tag_57\n      jump\t// in\n    tag_56:\n      mload(0x40)\n      dup1\n      swap2\n      sub\n      swap1\n      revert\n    tag_55:\n        /* \"contracts/NFT.sol\":1573:1780  {... */\n      pop\n      pop\n        /* \"contracts/NFT.sol\":1530:1780  function withdrawFunds() external onlyOwner{... */\n      jump\t// out\n        /* \"contracts/NFT.sol\":351:370  NFT public ownedNFT */\n    tag_16:\n      0x01\n      dup1\n      0x00\n      add\n      dup1\n      sload\n      tag_58\n      swap1\n      tag_59\n      jump\t// in\n    tag_58:\n      dup1\n      0x1f\n      add\n      0x20\n      dup1\n      swap2\n      div\n      mul\n      0x20\n      add\n      mload(0x40)\n      swap1\n      dup2\n      add\n      0x40\n      mstore\n      dup1\n      swap3\n      swap2\n      swap1\n      dup2\n      dup2\n      mstore\n      0x20\n      add\n      dup3\n      dup1\n      sload\n      tag_60\n      swap1\n      tag_59\n      jump\t// in\n    tag_60:\n      dup1\n      iszero\n      tag_61\n      jumpi\n      dup1\n      0x1f\n      lt\n      tag_62\n      jumpi\n      0x0100\n      dup1\n      dup4\n      sload\n      div\n      mul\n      dup4\n      mstore\n      swap2\n      0x20\n      add\n      swap2\n      jump(tag_61)\n    tag_62:\n      dup3\n      add\n      swap2\n      swap1\n      0x00\n      mstore\n      keccak256(0x00, 0x20)\n      swap1\n    tag_63:\n      dup2\n      sload\n      dup2\n      mstore\n      swap1\n      0x01\n      add\n      swap1\n      0x20\n      add\n      dup1\n      dup4\n      gt\n      tag_63\n      jumpi\n      dup3\n      swap1\n      sub\n      0x1f\n      and\n      dup3\n      add\n      swap2\n    tag_61:\n      pop\n      pop\n      pop\n      pop\n      pop\n      swap1\n      dup1\n      0x01\n      add\n      0x00\n      swap1\n      sload\n      swap1\n      0x0100\n      exp\n      swap1\n      div\n      0x80\n      shl\n      swap1\n      pop\n      dup3\n      jump\t// out\n        /* \"@openzeppelin/contracts/access/Ownable.sol\":2293:2394  function renounceOwnership() public virtual onlyOwner {... */\n    tag_21:\n        /* \"@openzeppelin/contracts/access/Ownable.sol\":1531:1544  _checkOwner() */\n      tag_65\n        /* \"@openzeppelin/contracts/access/Ownable.sol\":1531:1542  _checkOwner */\n      tag_48\n        /* \"@openzeppelin/contracts/access/Ownable.sol\":1531:1544  _checkOwner() */\n      jump\t// in\n    tag_65:\n        /* \"@openzeppelin/contracts/access/Ownable.sol\":2357:2387  _transferOwnership(address(0)) */\n      tag_67\n        /* \"@openzeppelin/contracts/access/Ownable.sol\":2384:2385  0 */\n      0x00\n        /* \"@openzeppelin/contracts/access/Ownable.sol\":2357:2375  _transferOwnership */\n      tag_68\n        /* \"@openzeppelin/contracts/access/Ownable.sol\":2357:2387  _transferOwnership(address(0)) */\n      jump\t// in\n    tag_67:\n        /* \"@openzeppelin/contracts/access/Ownable.sol\":2293:2394  function renounceOwnership() public virtual onlyOwner {... */\n      jump\t// out\n        /* \"contracts/NFT.sol\":715:895  function updatePrice(uint _newPrice) external onlyOwner{... */\n    tag_26:\n        /* \"@openzeppelin/contracts/access/Ownable.sol\":1531:1544  _checkOwner() */\n      tag_70\n        /* \"@openzeppelin/contracts/access/Ownable.sol\":1531:1542  _checkOwner */\n      tag_48\n        /* \"@openzeppelin/contracts/access/Ownable.sol\":1531:1544  _checkOwner() */\n      jump\t// in\n    tag_70:\n        /* \"contracts/NFT.sol\":781:794  uint oldPrice */\n      0x00\n        /* \"contracts/NFT.sol\":797:805  NFTPrice */\n      sload(0x03)\n        /* \"contracts/NFT.sol\":781:805  uint oldPrice = NFTPrice */\n      swap1\n      pop\n        /* \"contracts/NFT.sol\":827:836  _newPrice */\n      dup2\n        /* \"contracts/NFT.sol\":816:824  NFTPrice */\n      0x03\n        /* \"contracts/NFT.sol\":816:836  NFTPrice = _newPrice */\n      dup2\n      swap1\n      sstore\n      pop\n        /* \"contracts/NFT.sol\":877:886  _newPrice */\n      dup2\n        /* \"contracts/NFT.sol\":867:875  oldPrice */\n      dup2\n        /* \"contracts/NFT.sol\":854:887  UpdatedPrice(oldPrice, _newPrice) */\n      0x9bdb33962ec269ba46cf891894f92891dcfbcda357db379ca990f7a6e9b951a3\n      mload(0x40)\n      mload(0x40)\n      dup1\n      swap2\n      sub\n      swap1\n      log3\n        /* \"contracts/NFT.sol\":770:895  {... */\n      pop\n        /* \"contracts/NFT.sol\":715:895  function updatePrice(uint _newPrice) external onlyOwner{... */\n      pop\n      jump\t// out\n        /* \"@openzeppelin/contracts/access/Ownable.sol\":1638:1723  function owner() public view virtual returns (address) {... */\n    tag_29:\n        /* \"@openzeppelin/contracts/access/Ownable.sol\":1684:1691  address */\n      0x00\n        /* \"@openzeppelin/contracts/access/Ownable.sol\":1710:1716  _owner */\n      dup1\n      0x00\n      swap1\n      sload\n      swap1\n      0x0100\n      exp\n      swap1\n      div\n      0xffffffffffffffffffffffffffffffffffffffff\n      and\n        /* \"@openzeppelin/contracts/access/Ownable.sol\":1703:1716  return _owner */\n      swap1\n      pop\n        /* \"@openzeppelin/contracts/access/Ownable.sol\":1638:1723  function owner() public view virtual returns (address) {... */\n      swap1\n      jump\t// out\n        /* \"contracts/NFT.sol\":377:397  uint public NFTPrice */\n    tag_34:\n      sload(0x03)\n      dup2\n      jump\t// out\n        /* \"contracts/NFT.sol\":938:1481  function sellNFT(string memory _name) external payable onlyOwner{... */\n    tag_40:\n        /* \"@openzeppelin/contracts/access/Ownable.sol\":1531:1544  _checkOwner() */\n      tag_74\n        /* \"@openzeppelin/contracts/access/Ownable.sol\":1531:1542  _checkOwner */\n      tag_48\n        /* \"@openzeppelin/contracts/access/Ownable.sol\":1531:1544  _checkOwner() */\n      jump\t// in\n    tag_74:\n        /* \"contracts/NFT.sol\":1068:1076  NFTPrice */\n      sload(0x03)\n        /* \"contracts/NFT.sol\":1055:1064  msg.value */\n      callvalue\n        /* \"contracts/NFT.sol\":1055:1076  msg.value == NFTPrice */\n      eq\n        /* \"contracts/NFT.sol\":1047:1144  require(msg.value == NFTPrice, \"Transaction failed, ensure your value is equal to current price\") */\n      tag_76\n      jumpi\n      mload(0x40)\n      0x08c379a000000000000000000000000000000000000000000000000000000000\n      dup2\n      mstore\n      0x04\n      add\n      tag_77\n      swap1\n      tag_78\n      jump\t// in\n    tag_77:\n      mload(0x40)\n      dup1\n      swap2\n      sub\n      swap1\n      revert\n    tag_76:\n        /* \"contracts/NFT.sol\":1237:1250  keccak256(\"\") */\n      0xc5d2460186f7233c927e7db2dcc703c0e500b653ca82273b7bfad8045d85a470\n        /* \"contracts/NFT.sol\":1226:1231  _name */\n      dup2\n        /* \"contracts/NFT.sol\":1209:1232  abi.encodePacked(_name) */\n      add(0x20, mload(0x40))\n      tag_79\n      swap2\n      swap1\n      tag_80\n      jump\t// in\n    tag_79:\n      mload(0x40)\n      0x20\n      dup2\n      dup4\n      sub\n      sub\n      dup2\n      mstore\n      swap1\n      0x40\n      mstore\n        /* \"contracts/NFT.sol\":1199:1233  keccak256(abi.encodePacked(_name)) */\n      dup1\n      mload\n      swap1\n      0x20\n      add\n      keccak256\n        /* \"contracts/NFT.sol\":1199:1250  keccak256(abi.encodePacked(_name)) != keccak256(\"\") */\n      eq\n        /* \"contracts/NFT.sol\":1196:1299  if(keccak256(abi.encodePacked(_name)) != keccak256(\"\")){... */\n      tag_81\n      jumpi\n        /* \"contracts/NFT.sol\":1282:1287  _name */\n      dup1\n        /* \"contracts/NFT.sol\":1266:1274  ownedNFT */\n      0x01\n        /* \"contracts/NFT.sol\":1266:1279  ownedNFT.name */\n      0x00\n      add\n        /* \"contracts/NFT.sol\":1266:1287  ownedNFT.name = _name */\n      swap1\n      dup2\n      tag_82\n      swap2\n      swap1\n      tag_83\n      jump\t// in\n    tag_82:\n      pop\n        /* \"contracts/NFT.sol\":1196:1299  if(keccak256(abi.encodePacked(_name)) != keccak256(\"\")){... */\n    tag_81:\n        /* \"contracts/NFT.sol\":1360:1376  address oldOwner */\n      0x00\n        /* \"contracts/NFT.sol\":1379:1386  owner() */\n      tag_84\n        /* \"contracts/NFT.sol\":1379:1384  owner */\n      tag_29\n        /* \"contracts/NFT.sol\":1379:1386  owner() */\n      jump\t// in\n    tag_84:\n        /* \"contracts/NFT.sol\":1360:1386  address oldOwner = owner() */\n      swap1\n      pop\n        /* \"contracts/NFT.sol\":1397:1426  transferOwnership(msg.sender) */\n      tag_85\n        /* \"contracts/NFT.sol\":1415:1425  msg.sender */\n      caller\n        /* \"contracts/NFT.sol\":1397:1414  transferOwnership */\n      tag_45\n        /* \"contracts/NFT.sol\":1397:1426  transferOwnership(msg.sender) */\n      jump\t// in\n    tag_85:\n        /* \"contracts/NFT.sol\":1462:1472  msg.sender */\n      caller\n        /* \"contracts/NFT.sol\":1444:1473  SoldNFT(oldOwner, msg.sender) */\n      0xffffffffffffffffffffffffffffffffffffffff\n      and\n        /* \"contracts/NFT.sol\":1452:1460  oldOwner */\n      dup2\n        /* \"contracts/NFT.sol\":1444:1473  SoldNFT(oldOwner, msg.sender) */\n      0xffffffffffffffffffffffffffffffffffffffff\n      and\n      0xc26ebe5b6f78dfb9113d7b983bf073e2fb6dfab1fb744b0feb73e04fb2bcc077\n      mload(0x40)\n      mload(0x40)\n      dup1\n      swap2\n      sub\n      swap1\n      log3\n        /* \"contracts/NFT.sol\":1002:1481  {... */\n      pop\n        /* \"contracts/NFT.sol\":938:1481  function sellNFT(string memory _name) external payable onlyOwner{... */\n      pop\n      jump\t// out\n        /* \"@openzeppelin/contracts/access/Ownable.sol\":2543:2758  function transferOwnership(address newOwner) public virtual onlyOwner {... */\n    tag_45:\n        /* \"@openzeppelin/contracts/access/Ownable.sol\":1531:1544  _checkOwner() */\n      tag_87\n        /* \"@openzeppelin/contracts/access/Ownable.sol\":1531:1542  _checkOwner */\n      tag_48\n        /* \"@openzeppelin/contracts/access/Ownable.sol\":1531:1544  _checkOwner() */\n      jump\t// in\n    tag_87:\n        /* \"@openzeppelin/contracts/access/Ownable.sol\":2647:2648  0 */\n      0x00\n        /* \"@openzeppelin/contracts/access/Ownable.sol\":2627:2649  newOwner == address(0) */\n      0xffffffffffffffffffffffffffffffffffffffff\n      and\n        /* \"@openzeppelin/contracts/access/Ownable.sol\":2627:2635  newOwner */\n      dup2\n        /* \"@openzeppelin/contracts/access/Ownable.sol\":2627:2649  newOwner == address(0) */\n      0xffffffffffffffffffffffffffffffffffffffff\n      and\n      sub\n        /* \"@openzeppelin/contracts/access/Ownable.sol\":2623:2714  if (newOwner == address(0)) {... */\n      tag_89\n      jumpi\n        /* \"@openzeppelin/contracts/access/Ownable.sol\":2700:2701  0 */\n      0x00\n        /* \"@openzeppelin/contracts/access/Ownable.sol\":2672:2703  OwnableInvalidOwner(address(0)) */\n      mload(0x40)\n      0x1e4fbdf700000000000000000000000000000000000000000000000000000000\n      dup2\n      mstore\n      0x04\n      add\n      tag_90\n      swap2\n      swap1\n      tag_31\n      jump\t// in\n    tag_90:\n      mload(0x40)\n      dup1\n      swap2\n      sub\n      swap1\n      revert\n        /* \"@openzeppelin/contracts/access/Ownable.sol\":2623:2714  if (newOwner == address(0)) {... */\n    tag_89:\n        /* \"@openzeppelin/contracts/access/Ownable.sol\":2723:2751  _transferOwnership(newOwner) */\n      tag_91\n        /* \"@openzeppelin/contracts/access/Ownable.sol\":2742:2750  newOwner */\n      dup2\n        /* \"@openzeppelin/contracts/access/Ownable.sol\":2723:2741  _transferOwnership */\n      tag_68\n        /* \"@openzeppelin/contracts/access/Ownable.sol\":2723:2751  _transferOwnership(newOwner) */\n      jump\t// in\n    tag_91:\n        /* \"@openzeppelin/contracts/access/Ownable.sol\":2543:2758  function transferOwnership(address newOwner) public virtual onlyOwner {... */\n      pop\n      jump\t// out\n        /* \"@openzeppelin/contracts/access/Ownable.sol\":1796:1958  function _checkOwner() internal view virtual {... */\n    tag_48:\n        /* \"@openzeppelin/contracts/access/Ownable.sol\":1866:1878  _msgSender() */\n      tag_93\n        /* \"@openzeppelin/contracts/access/Ownable.sol\":1866:1876  _msgSender */\n      tag_94\n        /* \"@openzeppelin/contracts/access/Ownable.sol\":1866:1878  _msgSender() */\n      jump\t// in\n    tag_93:\n        /* \"@openzeppelin/contracts/access/Ownable.sol\":1855:1878  owner() != _msgSender() */\n      0xffffffffffffffffffffffffffffffffffffffff\n      and\n        /* \"@openzeppelin/contracts/access/Ownable.sol\":1855:1862  owner() */\n      tag_95\n        /* \"@openzeppelin/contracts/access/Ownable.sol\":1855:1860  owner */\n      tag_29\n        /* \"@openzeppelin/contracts/access/Ownable.sol\":1855:1862  owner() */\n      jump\t// in\n    tag_95:\n        /* \"@openzeppelin/contracts/access/Ownable.sol\":1855:1878  owner() != _msgSender() */\n      0xffffffffffffffffffffffffffffffffffffffff\n      and\n      eq\n        /* \"@openzeppelin/contracts/access/Ownable.sol\":1851:1952  if (owner() != _msgSender()) {... */\n      tag_96\n      jumpi\n        /* \"@openzeppelin/contracts/access/Ownable.sol\":1928:1940  _msgSender() */\n      tag_97\n        /* \"@openzeppelin/contracts/access/Ownable.sol\":1928:1938  _msgSender */\n      tag_94\n        /* \"@openzeppelin/contracts/access/Ownable.sol\":1928:1940  _msgSender() */\n      jump\t// in\n    tag_97:\n        /* \"@openzeppelin/contracts/access/Ownable.sol\":1901:1941  OwnableUnauthorizedAccount(_msgSender()) */\n      mload(0x40)\n      0x118cdaa700000000000000000000000000000000000000000000000000000000\n      dup2\n      mstore\n      0x04\n      add\n      tag_98\n      swap2\n      swap1\n      tag_31\n      jump\t// in\n    tag_98:\n      mload(0x40)\n      dup1\n      swap2\n      sub\n      swap1\n      revert\n        /* \"@openzeppelin/contracts/access/Ownable.sol\":1851:1952  if (owner() != _msgSender()) {... */\n    tag_96:\n        /* \"@openzeppelin/contracts/access/Ownable.sol\":1796:1958  function _checkOwner() internal view virtual {... */\n      jump\t// out\n        /* \"@openzeppelin/contracts/access/Ownable.sol\":2912:3099  function _transferOwnership(address newOwner) internal virtual {... */\n    tag_68:\n        /* \"@openzeppelin/contracts/access/Ownable.sol\":2985:3001  address oldOwner */\n      0x00\n        /* \"@openzeppelin/contracts/access/Ownable.sol\":3004:3010  _owner */\n      dup1\n      0x00\n      swap1\n      sload\n      swap1\n      0x0100\n      exp\n      swap1\n      div\n      0xffffffffffffffffffffffffffffffffffffffff\n      and\n        /* \"@openzeppelin/contracts/access/Ownable.sol\":2985:3010  address oldOwner = _owner */\n      swap1\n      pop\n        /* \"@openzeppelin/contracts/access/Ownable.sol\":3029:3037  newOwner */\n      dup2\n        /* \"@openzeppelin/contracts/access/Ownable.sol\":3020:3026  _owner */\n      0x00\n      dup1\n        /* \"@openzeppelin/contracts/access/Ownable.sol\":3020:3037  _owner = newOwner */\n      0x0100\n      exp\n      dup2\n      sload\n      dup2\n      0xffffffffffffffffffffffffffffffffffffffff\n      mul\n      not\n      and\n      swap1\n      dup4\n      0xffffffffffffffffffffffffffffffffffffffff\n      and\n      mul\n      or\n      swap1\n      sstore\n      pop\n        /* \"@openzeppelin/contracts/access/Ownable.sol\":3083:3091  newOwner */\n      dup2\n        /* \"@openzeppelin/contracts/access/Ownable.sol\":3052:3092  OwnershipTransferred(oldOwner, newOwner) */\n      0xffffffffffffffffffffffffffffffffffffffff\n      and\n        /* \"@openzeppelin/contracts/access/Ownable.sol\":3073:3081  oldOwner */\n      dup2\n        /* \"@openzeppelin/contracts/access/Ownable.sol\":3052:3092  OwnershipTransferred(oldOwner, newOwner) */\n      0xffffffffffffffffffffffffffffffffffffffff\n      and\n      0x8be0079c531659141344cd1fd0a4f28419497f9722a3daafe3b4186f6b6457e0\n      mload(0x40)\n      mload(0x40)\n      dup1\n      swap2\n      sub\n      swap1\n      log3\n        /* \"@openzeppelin/contracts/access/Ownable.sol\":2975:3099  {... */\n      pop\n        /* \"@openzeppelin/contracts/access/Ownable.sol\":2912:3099  function _transferOwnership(address newOwner) internal virtual {... */\n      pop\n      jump\t// out\n        /* \"@openzeppelin/contracts/utils/Context.sol\":656:752  function _msgSender() internal view virtual returns (address) {... */\n    tag_94:\n        /* \"@openzeppelin/contracts/utils/Context.sol\":709:716  address */\n      0x00\n        /* \"@openzeppelin/contracts/utils/Context.sol\":735:745  msg.sender */\n      caller\n        /* \"@openzeppelin/contracts/utils/Context.sol\":728:745  return msg.sender */\n      swap1\n      pop\n        /* \"@openzeppelin/contracts/utils/Context.sol\":656:752  function _msgSender() internal view virtual returns (address) {... */\n      swap1\n      jump\t// out\n        /* \"#utility.yul\":7:106   */\n    tag_101:\n        /* \"#utility.yul\":59:65   */\n      0x00\n        /* \"#utility.yul\":93:98   */\n      dup2\n        /* \"#utility.yul\":87:99   */\n      mload\n        /* \"#utility.yul\":77:99   */\n      swap1\n      pop\n        /* \"#utility.yul\":7:106   */\n      swap2\n      swap1\n      pop\n      jump\t// out\n        /* \"#utility.yul\":112:281   */\n    tag_102:\n        /* \"#utility.yul\":196:207   */\n      0x00\n        /* \"#utility.yul\":230:236   */\n      dup3\n        /* \"#utility.yul\":225:228   */\n      dup3\n        /* \"#utility.yul\":218:237   */\n      mstore\n        /* \"#utility.yul\":270:274   */\n      0x20\n        /* \"#utility.yul\":265:268   */\n      dup3\n        /* \"#utility.yul\":261:275   */\n      add\n        /* \"#utility.yul\":246:275   */\n      swap1\n      pop\n        /* \"#utility.yul\":112:281   */\n      swap3\n      swap2\n      pop\n      pop\n      jump\t// out\n        /* \"#utility.yul\":287:426   */\n    tag_103:\n        /* \"#utility.yul\":376:382   */\n      dup3\n        /* \"#utility.yul\":371:374   */\n      dup2\n        /* \"#utility.yul\":366:369   */\n      dup4\n        /* \"#utility.yul\":360:383   */\n      mcopy\n        /* \"#utility.yul\":417:418   */\n      0x00\n        /* \"#utility.yul\":408:414   */\n      dup4\n        /* \"#utility.yul\":403:406   */\n      dup4\n        /* \"#utility.yul\":399:415   */\n      add\n        /* \"#utility.yul\":392:419   */\n      mstore\n        /* \"#utility.yul\":287:426   */\n      pop\n      pop\n      pop\n      jump\t// out\n        /* \"#utility.yul\":432:534   */\n    tag_104:\n        /* \"#utility.yul\":473:479   */\n      0x00\n        /* \"#utility.yul\":524:526   */\n      0x1f\n        /* \"#utility.yul\":520:527   */\n      not\n        /* \"#utility.yul\":515:517   */\n      0x1f\n        /* \"#utility.yul\":508:513   */\n      dup4\n        /* \"#utility.yul\":504:518   */\n      add\n        /* \"#utility.yul\":500:528   */\n      and\n        /* \"#utility.yul\":490:528   */\n      swap1\n      pop\n        /* \"#utility.yul\":432:534   */\n      swap2\n      swap1\n      pop\n      jump\t// out\n        /* \"#utility.yul\":540:917   */\n    tag_105:\n        /* \"#utility.yul\":628:631   */\n      0x00\n        /* \"#utility.yul\":656:695   */\n      tag_160\n        /* \"#utility.yul\":689:694   */\n      dup3\n        /* \"#utility.yul\":656:695   */\n      tag_101\n      jump\t// in\n    tag_160:\n        /* \"#utility.yul\":711:782   */\n      tag_161\n        /* \"#utility.yul\":775:781   */\n      dup2\n        /* \"#utility.yul\":770:773   */\n      dup6\n        /* \"#utility.yul\":711:782   */\n      tag_102\n      jump\t// in\n    tag_161:\n        /* \"#utility.yul\":704:782   */\n      swap4\n      pop\n        /* \"#utility.yul\":791:856   */\n      tag_162\n        /* \"#utility.yul\":849:855   */\n      dup2\n        /* \"#utility.yul\":844:847   */\n      dup6\n        /* \"#utility.yul\":837:841   */\n      0x20\n        /* \"#utility.yul\":830:835   */\n      dup7\n        /* \"#utility.yul\":826:842   */\n      add\n        /* \"#utility.yul\":791:856   */\n      tag_103\n      jump\t// in\n    tag_162:\n        /* \"#utility.yul\":881:910   */\n      tag_163\n        /* \"#utility.yul\":903:909   */\n      dup2\n        /* \"#utility.yul\":881:910   */\n      tag_104\n      jump\t// in\n    tag_163:\n        /* \"#utility.yul\":876:879   */\n      dup5\n        /* \"#utility.yul\":872:911   */\n      add\n        /* \"#utility.yul\":865:911   */\n      swap2\n      pop\n        /* \"#utility.yul\":632:917   */\n      pop\n        /* \"#utility.yul\":540:917   */\n      swap3\n      swap2\n      pop\n      pop\n      jump\t// out\n        /* \"#utility.yul\":923:1073   */\n    tag_106:\n        /* \"#utility.yul\":960:967   */\n      0x00\n        /* \"#utility.yul\":1000:1066   */\n      0xffffffffffffffffffffffffffffffff00000000000000000000000000000000\n        /* \"#utility.yul\":993:998   */\n      dup3\n        /* \"#utility.yul\":989:1067   */\n      and\n        /* \"#utility.yul\":978:1067   */\n      swap1\n      pop\n        /* \"#utility.yul\":923:1073   */\n      swap2\n      swap1\n      pop\n      jump\t// out\n        /* \"#utility.yul\":1079:1197   */\n    tag_107:\n        /* \"#utility.yul\":1166:1190   */\n      tag_166\n        /* \"#utility.yul\":1184:1189   */\n      dup2\n        /* \"#utility.yul\":1166:1190   */\n      tag_106\n      jump\t// in\n    tag_166:\n        /* \"#utility.yul\":1161:1164   */\n      dup3\n        /* \"#utility.yul\":1154:1191   */\n      mstore\n        /* \"#utility.yul\":1079:1197   */\n      pop\n      pop\n      jump\t// out\n        /* \"#utility.yul\":1203:1626   */\n    tag_18:\n        /* \"#utility.yul\":1344:1348   */\n      0x00\n        /* \"#utility.yul\":1382:1384   */\n      0x40\n        /* \"#utility.yul\":1371:1380   */\n      dup3\n        /* \"#utility.yul\":1367:1385   */\n      add\n        /* \"#utility.yul\":1359:1385   */\n      swap1\n      pop\n        /* \"#utility.yul\":1431:1440   */\n      dup2\n        /* \"#utility.yul\":1425:1429   */\n      dup2\n        /* \"#utility.yul\":1421:1441   */\n      sub\n        /* \"#utility.yul\":1417:1418   */\n      0x00\n        /* \"#utility.yul\":1406:1415   */\n      dup4\n        /* \"#utility.yul\":1402:1419   */\n      add\n        /* \"#utility.yul\":1395:1442   */\n      mstore\n        /* \"#utility.yul\":1459:1537   */\n      tag_168\n        /* \"#utility.yul\":1532:1536   */\n      dup2\n        /* \"#utility.yul\":1523:1529   */\n      dup6\n        /* \"#utility.yul\":1459:1537   */\n      tag_105\n      jump\t// in\n    tag_168:\n        /* \"#utility.yul\":1451:1537   */\n      swap1\n      pop\n        /* \"#utility.yul\":1547:1619   */\n      tag_169\n        /* \"#utility.yul\":1615:1617   */\n      0x20\n        /* \"#utility.yul\":1604:1613   */\n      dup4\n        /* \"#utility.yul\":1600:1618   */\n      add\n        /* \"#utility.yul\":1591:1597   */\n      dup5\n        /* \"#utility.yul\":1547:1619   */\n      tag_107\n      jump\t// in\n    tag_169:\n        /* \"#utility.yul\":1203:1626   */\n      swap4\n      swap3\n      pop\n      pop\n      pop\n      jump\t// out\n        /* \"#utility.yul\":1632:1707   */\n    tag_108:\n        /* \"#utility.yul\":1665:1671   */\n      0x00\n        /* \"#utility.yul\":1698:1700   */\n      0x40\n        /* \"#utility.yul\":1692:1701   */\n      mload\n        /* \"#utility.yul\":1682:1701   */\n      swap1\n      pop\n        /* \"#utility.yul\":1632:1707   */\n      swap1\n      jump\t// out\n        /* \"#utility.yul\":1713:1830   */\n    tag_109:\n        /* \"#utility.yul\":1822:1823   */\n      0x00\n        /* \"#utility.yul\":1819:1820   */\n      dup1\n        /* \"#utility.yul\":1812:1824   */\n      revert\n        /* \"#utility.yul\":1836:1953   */\n    tag_110:\n        /* \"#utility.yul\":1945:1946   */\n      0x00\n        /* \"#utility.yul\":1942:1943   */\n      dup1\n        /* \"#utility.yul\":1935:1947   */\n      revert\n        /* \"#utility.yul\":1959:2036   */\n    tag_111:\n        /* \"#utility.yul\":1996:2003   */\n      0x00\n        /* \"#utility.yul\":2025:2030   */\n      dup2\n        /* \"#utility.yul\":2014:2030   */\n      swap1\n      pop\n        /* \"#utility.yul\":1959:2036   */\n      swap2\n      swap1\n      pop\n      jump\t// out\n        /* \"#utility.yul\":2042:2164   */\n    tag_112:\n        /* \"#utility.yul\":2115:2139   */\n      tag_175\n        /* \"#utility.yul\":2133:2138   */\n      dup2\n        /* \"#utility.yul\":2115:2139   */\n      tag_111\n      jump\t// in\n    tag_175:\n        /* \"#utility.yul\":2108:2113   */\n      dup2\n        /* \"#utility.yul\":2105:2140   */\n      eq\n        /* \"#utility.yul\":2095:2158   */\n      tag_176\n      jumpi\n        /* \"#utility.yul\":2154:2155   */\n      0x00\n        /* \"#utility.yul\":2151:2152   */\n      dup1\n        /* \"#utility.yul\":2144:2156   */\n      revert\n        /* \"#utility.yul\":2095:2158   */\n    tag_176:\n        /* \"#utility.yul\":2042:2164   */\n      pop\n      jump\t// out\n        /* \"#utility.yul\":2170:2309   */\n    tag_113:\n        /* \"#utility.yul\":2216:2221   */\n      0x00\n        /* \"#utility.yul\":2254:2260   */\n      dup2\n        /* \"#utility.yul\":2241:2261   */\n      calldataload\n        /* \"#utility.yul\":2232:2261   */\n      swap1\n      pop\n        /* \"#utility.yul\":2270:2303   */\n      tag_178\n        /* \"#utility.yul\":2297:2302   */\n      dup2\n        /* \"#utility.yul\":2270:2303   */\n      tag_112\n      jump\t// in\n    tag_178:\n        /* \"#utility.yul\":2170:2309   */\n      swap3\n      swap2\n      pop\n      pop\n      jump\t// out\n        /* \"#utility.yul\":2315:2644   */\n    tag_25:\n        /* \"#utility.yul\":2374:2380   */\n      0x00\n        /* \"#utility.yul\":2423:2425   */\n      0x20\n        /* \"#utility.yul\":2411:2420   */\n      dup3\n        /* \"#utility.yul\":2402:2409   */\n      dup5\n        /* \"#utility.yul\":2398:2421   */\n      sub\n        /* \"#utility.yul\":2394:2426   */\n      slt\n        /* \"#utility.yul\":2391:2510   */\n      iszero\n      tag_180\n      jumpi\n        /* \"#utility.yul\":2429:2508   */\n      tag_181\n      tag_109\n      jump\t// in\n    tag_181:\n        /* \"#utility.yul\":2391:2510   */\n    tag_180:\n        /* \"#utility.yul\":2549:2550   */\n      0x00\n        /* \"#utility.yul\":2574:2627   */\n      tag_182\n        /* \"#utility.yul\":2619:2626   */\n      dup5\n        /* \"#utility.yul\":2610:2616   */\n      dup3\n        /* \"#utility.yul\":2599:2608   */\n      dup6\n        /* \"#utility.yul\":2595:2617   */\n      add\n        /* \"#utility.yul\":2574:2627   */\n      tag_113\n      jump\t// in\n    tag_182:\n        /* \"#utility.yul\":2564:2627   */\n      swap2\n      pop\n        /* \"#utility.yul\":2520:2637   */\n      pop\n        /* \"#utility.yul\":2315:2644   */\n      swap3\n      swap2\n      pop\n      pop\n      jump\t// out\n        /* \"#utility.yul\":2650:2776   */\n    tag_114:\n        /* \"#utility.yul\":2687:2694   */\n      0x00\n        /* \"#utility.yul\":2727:2769   */\n      0xffffffffffffffffffffffffffffffffffffffff\n        /* \"#utility.yul\":2720:2725   */\n      dup3\n        /* \"#utility.yul\":2716:2770   */\n      and\n        /* \"#utility.yul\":2705:2770   */\n      swap1\n      pop\n        /* \"#utility.yul\":2650:2776   */\n      swap2\n      swap1\n      pop\n      jump\t// out\n        /* \"#utility.yul\":2782:2878   */\n    tag_115:\n        /* \"#utility.yul\":2819:2826   */\n      0x00\n        /* \"#utility.yul\":2848:2872   */\n      tag_185\n        /* \"#utility.yul\":2866:2871   */\n      dup3\n        /* \"#utility.yul\":2848:2872   */\n      tag_114\n      jump\t// in\n    tag_185:\n        /* \"#utility.yul\":2837:2872   */\n      swap1\n      pop\n        /* \"#utility.yul\":2782:2878   */\n      swap2\n      swap1\n      pop\n      jump\t// out\n        /* \"#utility.yul\":2884:3002   */\n    tag_116:\n        /* \"#utility.yul\":2971:2995   */\n      tag_187\n        /* \"#utility.yul\":2989:2994   */\n      dup2\n        /* \"#utility.yul\":2971:2995   */\n      tag_115\n      jump\t// in\n    tag_187:\n        /* \"#utility.yul\":2966:2969   */\n      dup3\n        /* \"#utility.yul\":2959:2996   */\n      mstore\n        /* \"#utility.yul\":2884:3002   */\n      pop\n      pop\n      jump\t// out\n        /* \"#utility.yul\":3008:3230   */\n    tag_31:\n        /* \"#utility.yul\":3101:3105   */\n      0x00\n        /* \"#utility.yul\":3139:3141   */\n      0x20\n        /* \"#utility.yul\":3128:3137   */\n      dup3\n        /* \"#utility.yul\":3124:3142   */\n      add\n        /* \"#utility.yul\":3116:3142   */\n      swap1\n      pop\n        /* \"#utility.yul\":3152:3223   */\n      tag_189\n        /* \"#utility.yul\":3220:3221   */\n      0x00\n        /* \"#utility.yul\":3209:3218   */\n      dup4\n        /* \"#utility.yul\":3205:3222   */\n      add\n        /* \"#utility.yul\":3196:3202   */\n      dup5\n        /* \"#utility.yul\":3152:3223   */\n      tag_116\n      jump\t// in\n    tag_189:\n        /* \"#utility.yul\":3008:3230   */\n      swap3\n      swap2\n      pop\n      pop\n      jump\t// out\n        /* \"#utility.yul\":3236:3354   */\n    tag_117:\n        /* \"#utility.yul\":3323:3347   */\n      tag_191\n        /* \"#utility.yul\":3341:3346   */\n      dup2\n        /* \"#utility.yul\":3323:3347   */\n      tag_111\n      jump\t// in\n    tag_191:\n        /* \"#utility.yul\":3318:3321   */\n      dup3\n        /* \"#utility.yul\":3311:3348   */\n      mstore\n        /* \"#utility.yul\":3236:3354   */\n      pop\n      pop\n      jump\t// out\n        /* \"#utility.yul\":3360:3582   */\n    tag_36:\n        /* \"#utility.yul\":3453:3457   */\n      0x00\n        /* \"#utility.yul\":3491:3493   */\n      0x20\n        /* \"#utility.yul\":3480:3489   */\n      dup3\n        /* \"#utility.yul\":3476:3494   */\n      add\n        /* \"#utility.yul\":3468:3494   */\n      swap1\n      pop\n        /* \"#utility.yul\":3504:3575   */\n      tag_193\n        /* \"#utility.yul\":3572:3573   */\n      0x00\n        /* \"#utility.yul\":3561:3570   */\n      dup4\n        /* \"#utility.yul\":3557:3574   */\n      add\n        /* \"#utility.yul\":3548:3554   */\n      dup5\n        /* \"#utility.yul\":3504:3575   */\n      tag_117\n      jump\t// in\n    tag_193:\n        /* \"#utility.yul\":3360:3582   */\n      swap3\n      swap2\n      pop\n      pop\n      jump\t// out\n        /* \"#utility.yul\":3588:3705   */\n    tag_118:\n        /* \"#utility.yul\":3697:3698   */\n      0x00\n        /* \"#utility.yul\":3694:3695   */\n      dup1\n        /* \"#utility.yul\":3687:3699   */\n      revert\n        /* \"#utility.yul\":3711:3828   */\n    tag_119:\n        /* \"#utility.yul\":3820:3821   */\n      0x00\n        /* \"#utility.yul\":3817:3818   */\n      dup1\n        /* \"#utility.yul\":3810:3822   */\n      revert\n        /* \"#utility.yul\":3834:4014   */\n    tag_120:\n        /* \"#utility.yul\":3882:3959   */\n      0x4e487b7100000000000000000000000000000000000000000000000000000000\n        /* \"#utility.yul\":3879:3880   */\n      0x00\n        /* \"#utility.yul\":3872:3960   */\n      mstore\n        /* \"#utility.yul\":3979:3983   */\n      0x41\n        /* \"#utility.yul\":3976:3977   */\n      0x04\n        /* \"#utility.yul\":3969:3984   */\n      mstore\n        /* \"#utility.yul\":4003:4007   */\n      0x24\n        /* \"#utility.yul\":4000:4001   */\n      0x00\n        /* \"#utility.yul\":3993:4008   */\n      revert\n        /* \"#utility.yul\":4020:4301   */\n    tag_121:\n        /* \"#utility.yul\":4103:4130   */\n      tag_198\n        /* \"#utility.yul\":4125:4129   */\n      dup3\n        /* \"#utility.yul\":4103:4130   */\n      tag_104\n      jump\t// in\n    tag_198:\n        /* \"#utility.yul\":4095:4101   */\n      dup2\n        /* \"#utility.yul\":4091:4131   */\n      add\n        /* \"#utility.yul\":4233:4239   */\n      dup2\n        /* \"#utility.yul\":4221:4231   */\n      dup2\n        /* \"#utility.yul\":4218:4240   */\n      lt\n        /* \"#utility.yul\":4197:4215   */\n      0xffffffffffffffff\n        /* \"#utility.yul\":4185:4195   */\n      dup3\n        /* \"#utility.yul\":4182:4216   */\n      gt\n        /* \"#utility.yul\":4179:4241   */\n      or\n        /* \"#utility.yul\":4176:4264   */\n      iszero\n      tag_199\n      jumpi\n        /* \"#utility.yul\":4244:4262   */\n      tag_200\n      tag_120\n      jump\t// in\n    tag_200:\n        /* \"#utility.yul\":4176:4264   */\n    tag_199:\n        /* \"#utility.yul\":4284:4294   */\n      dup1\n        /* \"#utility.yul\":4280:4282   */\n      0x40\n        /* \"#utility.yul\":4273:4295   */\n      mstore\n        /* \"#utility.yul\":4063:4301   */\n      pop\n        /* \"#utility.yul\":4020:4301   */\n      pop\n      pop\n      jump\t// out\n        /* \"#utility.yul\":4307:4436   */\n    tag_122:\n        /* \"#utility.yul\":4341:4347   */\n      0x00\n        /* \"#utility.yul\":4368:4388   */\n      tag_202\n      tag_108\n      jump\t// in\n    tag_202:\n        /* \"#utility.yul\":4358:4388   */\n      swap1\n      pop\n        /* \"#utility.yul\":4397:4430   */\n      tag_203\n        /* \"#utility.yul\":4425:4429   */\n      dup3\n        /* \"#utility.yul\":4417:4423   */\n      dup3\n        /* \"#utility.yul\":4397:4430   */\n      tag_121\n      jump\t// in\n    tag_203:\n        /* \"#utility.yul\":4307:4436   */\n      swap2\n      swap1\n      pop\n      jump\t// out\n        /* \"#utility.yul\":4442:4750   */\n    tag_123:\n        /* \"#utility.yul\":4504:4508   */\n      0x00\n        /* \"#utility.yul\":4594:4612   */\n      0xffffffffffffffff\n        /* \"#utility.yul\":4586:4592   */\n      dup3\n        /* \"#utility.yul\":4583:4613   */\n      gt\n        /* \"#utility.yul\":4580:4636   */\n      iszero\n      tag_205\n      jumpi\n        /* \"#utility.yul\":4616:4634   */\n      tag_206\n      tag_120\n      jump\t// in\n    tag_206:\n        /* \"#utility.yul\":4580:4636   */\n    tag_205:\n        /* \"#utility.yul\":4654:4683   */\n      tag_207\n        /* \"#utility.yul\":4676:4682   */\n      dup3\n        /* \"#utility.yul\":4654:4683   */\n      tag_104\n      jump\t// in\n    tag_207:\n        /* \"#utility.yul\":4646:4683   */\n      swap1\n      pop\n        /* \"#utility.yul\":4738:4742   */\n      0x20\n        /* \"#utility.yul\":4732:4736   */\n      dup2\n        /* \"#utility.yul\":4728:4743   */\n      add\n        /* \"#utility.yul\":4720:4743   */\n      swap1\n      pop\n        /* \"#utility.yul\":4442:4750   */\n      swap2\n      swap1\n      pop\n      jump\t// out\n        /* \"#utility.yul\":4756:4904   */\n    tag_124:\n        /* \"#utility.yul\":4854:4860   */\n      dup3\n        /* \"#utility.yul\":4849:4852   */\n      dup2\n        /* \"#utility.yul\":4844:4847   */\n      dup4\n        /* \"#utility.yul\":4831:4861   */\n      calldatacopy\n        /* \"#utility.yul\":4895:4896   */\n      0x00\n        /* \"#utility.yul\":4886:4892   */\n      dup4\n        /* \"#utility.yul\":4881:4884   */\n      dup4\n        /* \"#utility.yul\":4877:4893   */\n      add\n        /* \"#utility.yul\":4870:4897   */\n      mstore\n        /* \"#utility.yul\":4756:4904   */\n      pop\n      pop\n      pop\n      jump\t// out\n        /* \"#utility.yul\":4910:5335   */\n    tag_125:\n        /* \"#utility.yul\":4988:4993   */\n      0x00\n        /* \"#utility.yul\":5013:5079   */\n      tag_210\n        /* \"#utility.yul\":5029:5078   */\n      tag_211\n        /* \"#utility.yul\":5071:5077   */\n      dup5\n        /* \"#utility.yul\":5029:5078   */\n      tag_123\n      jump\t// in\n    tag_211:\n        /* \"#utility.yul\":5013:5079   */\n      tag_122\n      jump\t// in\n    tag_210:\n        /* \"#utility.yul\":5004:5079   */\n      swap1\n      pop\n        /* \"#utility.yul\":5102:5108   */\n      dup3\n        /* \"#utility.yul\":5095:5100   */\n      dup2\n        /* \"#utility.yul\":5088:5109   */\n      mstore\n        /* \"#utility.yul\":5140:5144   */\n      0x20\n        /* \"#utility.yul\":5133:5138   */\n      dup2\n        /* \"#utility.yul\":5129:5145   */\n      add\n        /* \"#utility.yul\":5178:5181   */\n      dup5\n        /* \"#utility.yul\":5169:5175   */\n      dup5\n        /* \"#utility.yul\":5164:5167   */\n      dup5\n        /* \"#utility.yul\":5160:5176   */\n      add\n        /* \"#utility.yul\":5157:5182   */\n      gt\n        /* \"#utility.yul\":5154:5266   */\n      iszero\n      tag_212\n      jumpi\n        /* \"#utility.yul\":5185:5264   */\n      tag_213\n      tag_119\n      jump\t// in\n    tag_213:\n        /* \"#utility.yul\":5154:5266   */\n    tag_212:\n        /* \"#utility.yul\":5275:5329   */\n      tag_214\n        /* \"#utility.yul\":5322:5328   */\n      dup5\n        /* \"#utility.yul\":5317:5320   */\n      dup3\n        /* \"#utility.yul\":5312:5315   */\n      dup6\n        /* \"#utility.yul\":5275:5329   */\n      tag_124\n      jump\t// in\n    tag_214:\n        /* \"#utility.yul\":4994:5335   */\n      pop\n        /* \"#utility.yul\":4910:5335   */\n      swap4\n      swap3\n      pop\n      pop\n      pop\n      jump\t// out\n        /* \"#utility.yul\":5355:5695   */\n    tag_126:\n        /* \"#utility.yul\":5411:5416   */\n      0x00\n        /* \"#utility.yul\":5460:5463   */\n      dup3\n        /* \"#utility.yul\":5453:5457   */\n      0x1f\n        /* \"#utility.yul\":5445:5451   */\n      dup4\n        /* \"#utility.yul\":5441:5458   */\n      add\n        /* \"#utility.yul\":5437:5464   */\n      slt\n        /* \"#utility.yul\":5427:5549   */\n      tag_216\n      jumpi\n        /* \"#utility.yul\":5468:5547   */\n      tag_217\n      tag_118\n      jump\t// in\n    tag_217:\n        /* \"#utility.yul\":5427:5549   */\n    tag_216:\n        /* \"#utility.yul\":5585:5591   */\n      dup2\n        /* \"#utility.yul\":5572:5592   */\n      calldataload\n        /* \"#utility.yul\":5610:5689   */\n      tag_218\n        /* \"#utility.yul\":5685:5688   */\n      dup5\n        /* \"#utility.yul\":5677:5683   */\n      dup3\n        /* \"#utility.yul\":5670:5674   */\n      0x20\n        /* \"#utility.yul\":5662:5668   */\n      dup7\n        /* \"#utility.yul\":5658:5675   */\n      add\n        /* \"#utility.yul\":5610:5689   */\n      tag_125\n      jump\t// in\n    tag_218:\n        /* \"#utility.yul\":5601:5689   */\n      swap2\n      pop\n        /* \"#utility.yul\":5417:5695   */\n      pop\n        /* \"#utility.yul\":5355:5695   */\n      swap3\n      swap2\n      pop\n      pop\n      jump\t// out\n        /* \"#utility.yul\":5701:6210   */\n    tag_39:\n        /* \"#utility.yul\":5770:5776   */\n      0x00\n        /* \"#utility.yul\":5819:5821   */\n      0x20\n        /* \"#utility.yul\":5807:5816   */\n      dup3\n        /* \"#utility.yul\":5798:5805   */\n      dup5\n        /* \"#utility.yul\":5794:5817   */\n      sub\n        /* \"#utility.yul\":5790:5822   */\n      slt\n        /* \"#utility.yul\":5787:5906   */\n      iszero\n      tag_220\n      jumpi\n        /* \"#utility.yul\":5825:5904   */\n      tag_221\n      tag_109\n      jump\t// in\n    tag_221:\n        /* \"#utility.yul\":5787:5906   */\n    tag_220:\n        /* \"#utility.yul\":5973:5974   */\n      0x00\n        /* \"#utility.yul\":5962:5971   */\n      dup3\n        /* \"#utility.yul\":5958:5975   */\n      add\n        /* \"#utility.yul\":5945:5976   */\n      calldataload\n        /* \"#utility.yul\":6003:6021   */\n      0xffffffffffffffff\n        /* \"#utility.yul\":5995:6001   */\n      dup2\n        /* \"#utility.yul\":5992:6022   */\n      gt\n        /* \"#utility.yul\":5989:6106   */\n      iszero\n      tag_222\n      jumpi\n        /* \"#utility.yul\":6025:6104   */\n      tag_223\n      tag_110\n      jump\t// in\n    tag_223:\n        /* \"#utility.yul\":5989:6106   */\n    tag_222:\n        /* \"#utility.yul\":6130:6193   */\n      tag_224\n        /* \"#utility.yul\":6185:6192   */\n      dup5\n        /* \"#utility.yul\":6176:6182   */\n      dup3\n        /* \"#utility.yul\":6165:6174   */\n      dup6\n        /* \"#utility.yul\":6161:6183   */\n      add\n        /* \"#utility.yul\":6130:6193   */\n      tag_126\n      jump\t// in\n    tag_224:\n        /* \"#utility.yul\":6120:6193   */\n      swap2\n      pop\n        /* \"#utility.yul\":5916:6203   */\n      pop\n        /* \"#utility.yul\":5701:6210   */\n      swap3\n      swap2\n      pop\n      pop\n      jump\t// out\n        /* \"#utility.yul\":6216:6338   */\n    tag_127:\n        /* \"#utility.yul\":6289:6313   */\n      tag_226\n        /* \"#utility.yul\":6307:6312   */\n      dup2\n        /* \"#utility.yul\":6289:6313   */\n      tag_115\n      jump\t// in\n    tag_226:\n        /* \"#utility.yul\":6282:6287   */\n      dup2\n        /* \"#utility.yul\":6279:6314   */\n      eq\n        /* \"#utility.yul\":6269:6332   */\n      tag_227\n      jumpi\n        /* \"#utility.yul\":6328:6329   */\n      0x00\n        /* \"#utility.yul\":6325:6326   */\n      dup1\n        /* \"#utility.yul\":6318:6330   */\n      revert\n        /* \"#utility.yul\":6269:6332   */\n    tag_227:\n        /* \"#utility.yul\":6216:6338   */\n      pop\n      jump\t// out\n        /* \"#utility.yul\":6344:6483   */\n    tag_128:\n        /* \"#utility.yul\":6390:6395   */\n      0x00\n        /* \"#utility.yul\":6428:6434   */\n      dup2\n        /* \"#utility.yul\":6415:6435   */\n      calldataload\n        /* \"#utility.yul\":6406:6435   */\n      swap1\n      pop\n        /* \"#utility.yul\":6444:6477   */\n      tag_229\n        /* \"#utility.yul\":6471:6476   */\n      dup2\n        /* \"#utility.yul\":6444:6477   */\n      tag_127\n      jump\t// in\n    tag_229:\n        /* \"#utility.yul\":6344:6483   */\n      swap3\n      swap2\n      pop\n      pop\n      jump\t// out\n        /* \"#utility.yul\":6489:6818   */\n    tag_44:\n        /* \"#utility.yul\":6548:6554   */\n      0x00\n        /* \"#utility.yul\":6597:6599   */\n      0x20\n        /* \"#utility.yul\":6585:6594   */\n      dup3\n        /* \"#utility.yul\":6576:6583   */\n      dup5\n        /* \"#utility.yul\":6572:6595   */\n      sub\n        /* \"#utility.yul\":6568:6600   */\n      slt\n        /* \"#utility.yul\":6565:6684   */\n      iszero\n      tag_231\n      jumpi\n        /* \"#utility.yul\":6603:6682   */\n      tag_232\n      tag_109\n      jump\t// in\n    tag_232:\n        /* \"#utility.yul\":6565:6684   */\n    tag_231:\n        /* \"#utility.yul\":6723:6724   */\n      0x00\n        /* \"#utility.yul\":6748:6801   */\n      tag_233\n        /* \"#utility.yul\":6793:6800   */\n      dup5\n        /* \"#utility.yul\":6784:6790   */\n      dup3\n        /* \"#utility.yul\":6773:6782   */\n      dup6\n        /* \"#utility.yul\":6769:6791   */\n      add\n        /* \"#utility.yul\":6748:6801   */\n      tag_128\n      jump\t// in\n    tag_233:\n        /* \"#utility.yul\":6738:6801   */\n      swap2\n      pop\n        /* \"#utility.yul\":6694:6811   */\n      pop\n        /* \"#utility.yul\":6489:6818   */\n      swap3\n      swap2\n      pop\n      pop\n      jump\t// out\n        /* \"#utility.yul\":6824:6971   */\n    tag_129:\n        /* \"#utility.yul\":6925:6936   */\n      0x00\n        /* \"#utility.yul\":6962:6965   */\n      dup2\n        /* \"#utility.yul\":6947:6965   */\n      swap1\n      pop\n        /* \"#utility.yul\":6824:6971   */\n      swap3\n      swap2\n      pop\n      pop\n      jump\t// out\n        /* \"#utility.yul\":6977:7091   */\n    tag_130:\n      pop\n      jump\t// out\n        /* \"#utility.yul\":7097:7495   */\n    tag_131:\n        /* \"#utility.yul\":7256:7259   */\n      0x00\n        /* \"#utility.yul\":7277:7360   */\n      tag_237\n        /* \"#utility.yul\":7358:7359   */\n      0x00\n        /* \"#utility.yul\":7353:7356   */\n      dup4\n        /* \"#utility.yul\":7277:7360   */\n      tag_129\n      jump\t// in\n    tag_237:\n        /* \"#utility.yul\":7270:7360   */\n      swap2\n      pop\n        /* \"#utility.yul\":7369:7462   */\n      tag_238\n        /* \"#utility.yul\":7458:7461   */\n      dup3\n        /* \"#utility.yul\":7369:7462   */\n      tag_130\n      jump\t// in\n    tag_238:\n        /* \"#utility.yul\":7487:7488   */\n      0x00\n        /* \"#utility.yul\":7482:7485   */\n      dup3\n        /* \"#utility.yul\":7478:7489   */\n      add\n        /* \"#utility.yul\":7471:7489   */\n      swap1\n      pop\n        /* \"#utility.yul\":7097:7495   */\n      swap2\n      swap1\n      pop\n      jump\t// out\n        /* \"#utility.yul\":7501:7880   */\n    tag_51:\n        /* \"#utility.yul\":7685:7688   */\n      0x00\n        /* \"#utility.yul\":7707:7854   */\n      tag_240\n        /* \"#utility.yul\":7850:7853   */\n      dup3\n        /* \"#utility.yul\":7707:7854   */\n      tag_131\n      jump\t// in\n    tag_240:\n        /* \"#utility.yul\":7700:7854   */\n      swap2\n      pop\n        /* \"#utility.yul\":7871:7874   */\n      dup2\n        /* \"#utility.yul\":7864:7874   */\n      swap1\n      pop\n        /* \"#utility.yul\":7501:7880   */\n      swap2\n      swap1\n      pop\n      jump\t// out\n        /* \"#utility.yul\":7886:8068   */\n    tag_132:\n        /* \"#utility.yul\":8026:8060   */\n      0x46756e6473206e6f742077697468647261776e207375636365737366756c6c79\n        /* \"#utility.yul\":8022:8023   */\n      0x00\n        /* \"#utility.yul\":8014:8020   */\n      dup3\n        /* \"#utility.yul\":8010:8024   */\n      add\n        /* \"#utility.yul\":8003:8061   */\n      mstore\n        /* \"#utility.yul\":7886:8068   */\n      pop\n      jump\t// out\n        /* \"#utility.yul\":8074:8440   */\n    tag_133:\n        /* \"#utility.yul\":8216:8219   */\n      0x00\n        /* \"#utility.yul\":8237:8304   */\n      tag_243\n        /* \"#utility.yul\":8301:8303   */\n      0x20\n        /* \"#utility.yul\":8296:8299   */\n      dup4\n        /* \"#utility.yul\":8237:8304   */\n      tag_102\n      jump\t// in\n    tag_243:\n        /* \"#utility.yul\":8230:8304   */\n      swap2\n      pop\n        /* \"#utility.yul\":8313:8406   */\n      tag_244\n        /* \"#utility.yul\":8402:8405   */\n      dup3\n        /* \"#utility.yul\":8313:8406   */\n      tag_132\n      jump\t// in\n    tag_244:\n        /* \"#utility.yul\":8431:8433   */\n      0x20\n        /* \"#utility.yul\":8426:8429   */\n      dup3\n        /* \"#utility.yul\":8422:8434   */\n      add\n        /* \"#utility.yul\":8415:8434   */\n      swap1\n      pop\n        /* \"#utility.yul\":8074:8440   */\n      swap2\n      swap1\n      pop\n      jump\t// out\n        /* \"#utility.yul\":8446:8865   */\n    tag_57:\n        /* \"#utility.yul\":8612:8616   */\n      0x00\n        /* \"#utility.yul\":8650:8652   */\n      0x20\n        /* \"#utility.yul\":8639:8648   */\n      dup3\n        /* \"#utility.yul\":8635:8653   */\n      add\n        /* \"#utility.yul\":8627:8653   */\n      swap1\n      pop\n        /* \"#utility.yul\":8699:8708   */\n      dup2\n        /* \"#utility.yul\":8693:8697   */\n      dup2\n        /* \"#utility.yul\":8689:8709   */\n      sub\n        /* \"#utility.yul\":8685:8686   */\n      0x00\n        /* \"#utility.yul\":8674:8683   */\n      dup4\n        /* \"#utility.yul\":8670:8687   */\n      add\n        /* \"#utility.yul\":8663:8710   */\n      mstore\n        /* \"#utility.yul\":8727:8858   */\n      tag_246\n        /* \"#utility.yul\":8853:8857   */\n      dup2\n        /* \"#utility.yul\":8727:8858   */\n      tag_133\n      jump\t// in\n    tag_246:\n        /* \"#utility.yul\":8719:8858   */\n      swap1\n      pop\n        /* \"#utility.yul\":8446:8865   */\n      swap2\n      swap1\n      pop\n      jump\t// out\n        /* \"#utility.yul\":8871:9051   */\n    tag_134:\n        /* \"#utility.yul\":8919:8996   */\n      0x4e487b7100000000000000000000000000000000000000000000000000000000\n        /* \"#utility.yul\":8916:8917   */\n      0x00\n        /* \"#utility.yul\":8909:8997   */\n      mstore\n        /* \"#utility.yul\":9016:9020   */\n      0x22\n        /* \"#utility.yul\":9013:9014   */\n      0x04\n        /* \"#utility.yul\":9006:9021   */\n      mstore\n        /* \"#utility.yul\":9040:9044   */\n      0x24\n        /* \"#utility.yul\":9037:9038   */\n      0x00\n        /* \"#utility.yul\":9030:9045   */\n      revert\n        /* \"#utility.yul\":9057:9377   */\n    tag_59:\n        /* \"#utility.yul\":9101:9107   */\n      0x00\n        /* \"#utility.yul\":9138:9139   */\n      0x02\n        /* \"#utility.yul\":9132:9136   */\n      dup3\n        /* \"#utility.yul\":9128:9140   */\n      div\n        /* \"#utility.yul\":9118:9140   */\n      swap1\n      pop\n        /* \"#utility.yul\":9185:9186   */\n      0x01\n        /* \"#utility.yul\":9179:9183   */\n      dup3\n        /* \"#utility.yul\":9175:9187   */\n      and\n        /* \"#utility.yul\":9206:9224   */\n      dup1\n        /* \"#utility.yul\":9196:9277   */\n      tag_249\n      jumpi\n        /* \"#utility.yul\":9262:9266   */\n      0x7f\n        /* \"#utility.yul\":9254:9260   */\n      dup3\n        /* \"#utility.yul\":9250:9267   */\n      and\n        /* \"#utility.yul\":9240:9267   */\n      swap2\n      pop\n        /* \"#utility.yul\":9196:9277   */\n    tag_249:\n        /* \"#utility.yul\":9324:9326   */\n      0x20\n        /* \"#utility.yul\":9316:9322   */\n      dup3\n        /* \"#utility.yul\":9313:9327   */\n      lt\n        /* \"#utility.yul\":9293:9311   */\n      dup2\n        /* \"#utility.yul\":9290:9328   */\n      sub\n        /* \"#utility.yul\":9287:9371   */\n      tag_250\n      jumpi\n        /* \"#utility.yul\":9343:9361   */\n      tag_251\n      tag_134\n      jump\t// in\n    tag_251:\n        /* \"#utility.yul\":9287:9371   */\n    tag_250:\n        /* \"#utility.yul\":9108:9377   */\n      pop\n        /* \"#utility.yul\":9057:9377   */\n      swap2\n      swap1\n      pop\n      jump\t// out\n        /* \"#utility.yul\":9383:9633   */\n    tag_135:\n        /* \"#utility.yul\":9523:9557   */\n      0x5472616e73616374696f6e206661696c65642c20656e7375726520796f757220\n        /* \"#utility.yul\":9519:9520   */\n      0x00\n        /* \"#utility.yul\":9511:9517   */\n      dup3\n        /* \"#utility.yul\":9507:9521   */\n      add\n        /* \"#utility.yul\":9500:9558   */\n      mstore\n        /* \"#utility.yul\":9592:9625   */\n      0x76616c756520697320657175616c20746f2063757272656e7420707269636500\n        /* \"#utility.yul\":9587:9589   */\n      0x20\n        /* \"#utility.yul\":9579:9585   */\n      dup3\n        /* \"#utility.yul\":9575:9590   */\n      add\n        /* \"#utility.yul\":9568:9626   */\n      mstore\n        /* \"#utility.yul\":9383:9633   */\n      pop\n      jump\t// out\n        /* \"#utility.yul\":9639:10005   */\n    tag_136:\n        /* \"#utility.yul\":9781:9784   */\n      0x00\n        /* \"#utility.yul\":9802:9869   */\n      tag_254\n        /* \"#utility.yul\":9866:9868   */\n      0x3f\n        /* \"#utility.yul\":9861:9864   */\n      dup4\n        /* \"#utility.yul\":9802:9869   */\n      tag_102\n      jump\t// in\n    tag_254:\n        /* \"#utility.yul\":9795:9869   */\n      swap2\n      pop\n        /* \"#utility.yul\":9878:9971   */\n      tag_255\n        /* \"#utility.yul\":9967:9970   */\n      dup3\n        /* \"#utility.yul\":9878:9971   */\n      tag_135\n      jump\t// in\n    tag_255:\n        /* \"#utility.yul\":9996:9998   */\n      0x40\n        /* \"#utility.yul\":9991:9994   */\n      dup3\n        /* \"#utility.yul\":9987:9999   */\n      add\n        /* \"#utility.yul\":9980:9999   */\n      swap1\n      pop\n        /* \"#utility.yul\":9639:10005   */\n      swap2\n      swap1\n      pop\n      jump\t// out\n        /* \"#utility.yul\":10011:10430   */\n    tag_78:\n        /* \"#utility.yul\":10177:10181   */\n      0x00\n        /* \"#utility.yul\":10215:10217   */\n      0x20\n        /* \"#utility.yul\":10204:10213   */\n      dup3\n        /* \"#utility.yul\":10200:10218   */\n      add\n        /* \"#utility.yul\":10192:10218   */\n      swap1\n      pop\n        /* \"#utility.yul\":10264:10273   */\n      dup2\n        /* \"#utility.yul\":10258:10262   */\n      dup2\n        /* \"#utility.yul\":10254:10274   */\n      sub\n        /* \"#utility.yul\":10250:10251   */\n      0x00\n        /* \"#utility.yul\":10239:10248   */\n      dup4\n        /* \"#utility.yul\":10235:10252   */\n      add\n        /* \"#utility.yul\":10228:10275   */\n      mstore\n        /* \"#utility.yul\":10292:10423   */\n      tag_257\n        /* \"#utility.yul\":10418:10422   */\n      dup2\n        /* \"#utility.yul\":10292:10423   */\n      tag_136\n      jump\t// in\n    tag_257:\n        /* \"#utility.yul\":10284:10423   */\n      swap1\n      pop\n        /* \"#utility.yul\":10011:10430   */\n      swap2\n      swap1\n      pop\n      jump\t// out\n        /* \"#utility.yul\":10436:10584   */\n    tag_137:\n        /* \"#utility.yul\":10538:10549   */\n      0x00\n        /* \"#utility.yul\":10575:10578   */\n      dup2\n        /* \"#utility.yul\":10560:10578   */\n      swap1\n      pop\n        /* \"#utility.yul\":10436:10584   */\n      swap3\n      swap2\n      pop\n      pop\n      jump\t// out\n        /* \"#utility.yul\":10590:10980   */\n    tag_138:\n        /* \"#utility.yul\":10696:10699   */\n      0x00\n        /* \"#utility.yul\":10724:10763   */\n      tag_260\n        /* \"#utility.yul\":10757:10762   */\n      dup3\n        /* \"#utility.yul\":10724:10763   */\n      tag_101\n      jump\t// in\n    tag_260:\n        /* \"#utility.yul\":10779:10868   */\n      tag_261\n        /* \"#utility.yul\":10861:10867   */\n      dup2\n        /* \"#utility.yul\":10856:10859   */\n      dup6\n        /* \"#utility.yul\":10779:10868   */\n      tag_137\n      jump\t// in\n    tag_261:\n        /* \"#utility.yul\":10772:10868   */\n      swap4\n      pop\n        /* \"#utility.yul\":10877:10942   */\n      tag_262\n        /* \"#utility.yul\":10935:10941   */\n      dup2\n        /* \"#utility.yul\":10930:10933   */\n      dup6\n        /* \"#utility.yul\":10923:10927   */\n      0x20\n        /* \"#utility.yul\":10916:10921   */\n      dup7\n        /* \"#utility.yul\":10912:10928   */\n      add\n        /* \"#utility.yul\":10877:10942   */\n      tag_103\n      jump\t// in\n    tag_262:\n        /* \"#utility.yul\":10967:10973   */\n      dup1\n        /* \"#utility.yul\":10962:10965   */\n      dup5\n        /* \"#utility.yul\":10958:10974   */\n      add\n        /* \"#utility.yul\":10951:10974   */\n      swap2\n      pop\n        /* \"#utility.yul\":10700:10980   */\n      pop\n        /* \"#utility.yul\":10590:10980   */\n      swap3\n      swap2\n      pop\n      pop\n      jump\t// out\n        /* \"#utility.yul\":10986:11261   */\n    tag_80:\n        /* \"#utility.yul\":11118:11121   */\n      0x00\n        /* \"#utility.yul\":11140:11235   */\n      tag_264\n        /* \"#utility.yul\":11231:11234   */\n      dup3\n        /* \"#utility.yul\":11222:11228   */\n      dup5\n        /* \"#utility.yul\":11140:11235   */\n      tag_138\n      jump\t// in\n    tag_264:\n        /* \"#utility.yul\":11133:11235   */\n      swap2\n      pop\n        /* \"#utility.yul\":11252:11255   */\n      dup2\n        /* \"#utility.yul\":11245:11255   */\n      swap1\n      pop\n        /* \"#utility.yul\":10986:11261   */\n      swap3\n      swap2\n      pop\n      pop\n      jump\t// out\n        /* \"#utility.yul\":11267:11408   */\n    tag_139:\n        /* \"#utility.yul\":11316:11320   */\n      0x00\n        /* \"#utility.yul\":11339:11342   */\n      dup2\n        /* \"#utility.yul\":11331:11342   */\n      swap1\n      pop\n        /* \"#utility.yul\":11362:11365   */\n      dup2\n        /* \"#utility.yul\":11359:11360   */\n      0x00\n        /* \"#utility.yul\":11352:11366   */\n      mstore\n        /* \"#utility.yul\":11396:11400   */\n      0x20\n        /* \"#utility.yul\":11393:11394   */\n      0x00\n        /* \"#utility.yul\":11383:11401   */\n      keccak256\n        /* \"#utility.yul\":11375:11401   */\n      swap1\n      pop\n        /* \"#utility.yul\":11267:11408   */\n      swap2\n      swap1\n      pop\n      jump\t// out\n        /* \"#utility.yul\":11414:11507   */\n    tag_140:\n        /* \"#utility.yul\":11451:11457   */\n      0x00\n        /* \"#utility.yul\":11498:11500   */\n      0x20\n        /* \"#utility.yul\":11493:11495   */\n      0x1f\n        /* \"#utility.yul\":11486:11491   */\n      dup4\n        /* \"#utility.yul\":11482:11496   */\n      add\n        /* \"#utility.yul\":11478:11501   */\n      div\n        /* \"#utility.yul\":11468:11501   */\n      swap1\n      pop\n        /* \"#utility.yul\":11414:11507   */\n      swap2\n      swap1\n      pop\n      jump\t// out\n        /* \"#utility.yul\":11513:11620   */\n    tag_141:\n        /* \"#utility.yul\":11557:11565   */\n      0x00\n        /* \"#utility.yul\":11607:11612   */\n      dup3\n        /* \"#utility.yul\":11601:11605   */\n      dup3\n        /* \"#utility.yul\":11597:11613   */\n      shl\n        /* \"#utility.yul\":11576:11613   */\n      swap1\n      pop\n        /* \"#utility.yul\":11513:11620   */\n      swap3\n      swap2\n      pop\n      pop\n      jump\t// out\n        /* \"#utility.yul\":11626:12019   */\n    tag_142:\n        /* \"#utility.yul\":11695:11701   */\n      0x00\n        /* \"#utility.yul\":11745:11746   */\n      0x08\n        /* \"#utility.yul\":11733:11743   */\n      dup4\n        /* \"#utility.yul\":11729:11747   */\n      mul\n        /* \"#utility.yul\":11768:11865   */\n      tag_269\n        /* \"#utility.yul\":11798:11864   */\n      0xffffffffffffffffffffffffffffffffffffffffffffffffffffffffffffffff\n        /* \"#utility.yul\":11787:11796   */\n      dup3\n        /* \"#utility.yul\":11768:11865   */\n      tag_141\n      jump\t// in\n    tag_269:\n        /* \"#utility.yul\":11886:11925   */\n      tag_270\n        /* \"#utility.yul\":11916:11924   */\n      dup7\n        /* \"#utility.yul\":11905:11914   */\n      dup4\n        /* \"#utility.yul\":11886:11925   */\n      tag_141\n      jump\t// in\n    tag_270:\n        /* \"#utility.yul\":11874:11925   */\n      swap6\n      pop\n        /* \"#utility.yul\":11958:11962   */\n      dup1\n        /* \"#utility.yul\":11954:11963   */\n      not\n        /* \"#utility.yul\":11947:11952   */\n      dup5\n        /* \"#utility.yul\":11943:11964   */\n      and\n        /* \"#utility.yul\":11934:11964   */\n      swap4\n      pop\n        /* \"#utility.yul\":12007:12011   */\n      dup1\n        /* \"#utility.yul\":11997:12005   */\n      dup7\n        /* \"#utility.yul\":11993:12012   */\n      and\n        /* \"#utility.yul\":11986:11991   */\n      dup5\n        /* \"#utility.yul\":11983:12013   */\n      or\n        /* \"#utility.yul\":11973:12013   */\n      swap3\n      pop\n        /* \"#utility.yul\":11702:12019   */\n      pop\n      pop\n        /* \"#utility.yul\":11626:12019   */\n      swap4\n      swap3\n      pop\n      pop\n      pop\n      jump\t// out\n        /* \"#utility.yul\":12025:12085   */\n    tag_143:\n        /* \"#utility.yul\":12053:12056   */\n      0x00\n        /* \"#utility.yul\":12074:12079   */\n      dup2\n        /* \"#utility.yul\":12067:12079   */\n      swap1\n      pop\n        /* \"#utility.yul\":12025:12085   */\n      swap2\n      swap1\n      pop\n      jump\t// out\n        /* \"#utility.yul\":12091:12233   */\n    tag_144:\n        /* \"#utility.yul\":12141:12150   */\n      0x00\n        /* \"#utility.yul\":12174:12227   */\n      tag_273\n        /* \"#utility.yul\":12192:12226   */\n      tag_274\n        /* \"#utility.yul\":12201:12225   */\n      tag_275\n        /* \"#utility.yul\":12219:12224   */\n      dup5\n        /* \"#utility.yul\":12201:12225   */\n      tag_111\n      jump\t// in\n    tag_275:\n        /* \"#utility.yul\":12192:12226   */\n      tag_143\n      jump\t// in\n    tag_274:\n        /* \"#utility.yul\":12174:12227   */\n      tag_111\n      jump\t// in\n    tag_273:\n        /* \"#utility.yul\":12161:12227   */\n      swap1\n      pop\n        /* \"#utility.yul\":12091:12233   */\n      swap2\n      swap1\n      pop\n      jump\t// out\n        /* \"#utility.yul\":12239:12314   */\n    tag_145:\n        /* \"#utility.yul\":12282:12285   */\n      0x00\n        /* \"#utility.yul\":12303:12308   */\n      dup2\n        /* \"#utility.yul\":12296:12308   */\n      swap1\n      pop\n        /* \"#utility.yul\":12239:12314   */\n      swap2\n      swap1\n      pop\n      jump\t// out\n        /* \"#utility.yul\":12320:12589   */\n    tag_146:\n        /* \"#utility.yul\":12430:12469   */\n      tag_278\n        /* \"#utility.yul\":12461:12468   */\n      dup4\n        /* \"#utility.yul\":12430:12469   */\n      tag_144\n      jump\t// in\n    tag_278:\n        /* \"#utility.yul\":12491:12582   */\n      tag_279\n        /* \"#utility.yul\":12540:12581   */\n      tag_280\n        /* \"#utility.yul\":12564:12580   */\n      dup3\n        /* \"#utility.yul\":12540:12581   */\n      tag_145\n      jump\t// in\n    tag_280:\n        /* \"#utility.yul\":12532:12538   */\n      dup5\n        /* \"#utility.yul\":12525:12529   */\n      dup5\n        /* \"#utility.yul\":12519:12530   */\n      sload\n        /* \"#utility.yul\":12491:12582   */\n      tag_142\n      jump\t// in\n    tag_279:\n        /* \"#utility.yul\":12485:12489   */\n      dup3\n        /* \"#utility.yul\":12478:12583   */\n      sstore\n        /* \"#utility.yul\":12396:12589   */\n      pop\n        /* \"#utility.yul\":12320:12589   */\n      pop\n      pop\n      pop\n      jump\t// out\n        /* \"#utility.yul\":12595:12668   */\n    tag_147:\n        /* \"#utility.yul\":12640:12643   */\n      0x00\n        /* \"#utility.yul\":12595:12668   */\n      swap1\n      jump\t// out\n        /* \"#utility.yul\":12674:12863   */\n    tag_148:\n        /* \"#utility.yul\":12751:12783   */\n      tag_283\n      tag_147\n      jump\t// in\n    tag_283:\n        /* \"#utility.yul\":12792:12857   */\n      tag_284\n        /* \"#utility.yul\":12850:12856   */\n      dup2\n        /* \"#utility.yul\":12842:12848   */\n      dup5\n        /* \"#utility.yul\":12836:12840   */\n      dup5\n        /* \"#utility.yul\":12792:12857   */\n      tag_146\n      jump\t// in\n    tag_284:\n        /* \"#utility.yul\":12727:12863   */\n      pop\n        /* \"#utility.yul\":12674:12863   */\n      pop\n      pop\n      jump\t// out\n        /* \"#utility.yul\":12869:13055   */\n    tag_149:\n        /* \"#utility.yul\":12929:13049   */\n    tag_286:\n        /* \"#utility.yul\":12946:12949   */\n      dup2\n        /* \"#utility.yul\":12939:12944   */\n      dup2\n        /* \"#utility.yul\":12936:12950   */\n      lt\n        /* \"#utility.yul\":12929:13049   */\n      iszero\n      tag_288\n      jumpi\n        /* \"#utility.yul\":13000:13039   */\n      tag_289\n        /* \"#utility.yul\":13037:13038   */\n      0x00\n        /* \"#utility.yul\":13030:13035   */\n      dup3\n        /* \"#utility.yul\":13000:13039   */\n      tag_148\n      jump\t// in\n    tag_289:\n        /* \"#utility.yul\":12973:12974   */\n      0x01\n        /* \"#utility.yul\":12966:12971   */\n      dup2\n        /* \"#utility.yul\":12962:12975   */\n      add\n        /* \"#utility.yul\":12953:12975   */\n      swap1\n      pop\n        /* \"#utility.yul\":12929:13049   */\n      jump(tag_286)\n    tag_288:\n        /* \"#utility.yul\":12869:13055   */\n      pop\n      pop\n      jump\t// out\n        /* \"#utility.yul\":13061:13604   */\n    tag_150:\n        /* \"#utility.yul\":13162:13164   */\n      0x1f\n        /* \"#utility.yul\":13157:13160   */\n      dup3\n        /* \"#utility.yul\":13154:13165   */\n      gt\n        /* \"#utility.yul\":13151:13597   */\n      iszero\n      tag_291\n      jumpi\n        /* \"#utility.yul\":13196:13234   */\n      tag_292\n        /* \"#utility.yul\":13228:13233   */\n      dup2\n        /* \"#utility.yul\":13196:13234   */\n      tag_139\n      jump\t// in\n    tag_292:\n        /* \"#utility.yul\":13280:13309   */\n      tag_293\n        /* \"#utility.yul\":13298:13308   */\n      dup5\n        /* \"#utility.yul\":13280:13309   */\n      tag_140\n      jump\t// in\n    tag_293:\n        /* \"#utility.yul\":13270:13278   */\n      dup2\n        /* \"#utility.yul\":13266:13310   */\n      add\n        /* \"#utility.yul\":13463:13465   */\n      0x20\n        /* \"#utility.yul\":13451:13461   */\n      dup6\n        /* \"#utility.yul\":13448:13466   */\n      lt\n        /* \"#utility.yul\":13445:13494   */\n      iszero\n      tag_294\n      jumpi\n        /* \"#utility.yul\":13484:13492   */\n      dup2\n        /* \"#utility.yul\":13469:13492   */\n      swap1\n      pop\n        /* \"#utility.yul\":13445:13494   */\n    tag_294:\n        /* \"#utility.yul\":13507:13587   */\n      tag_295\n        /* \"#utility.yul\":13563:13585   */\n      tag_296\n        /* \"#utility.yul\":13581:13584   */\n      dup6\n        /* \"#utility.yul\":13563:13585   */\n      tag_140\n      jump\t// in\n    tag_296:\n        /* \"#utility.yul\":13553:13561   */\n      dup4\n        /* \"#utility.yul\":13549:13586   */\n      add\n        /* \"#utility.yul\":13536:13547   */\n      dup3\n        /* \"#utility.yul\":13507:13587   */\n      tag_149\n      jump\t// in\n    tag_295:\n        /* \"#utility.yul\":13166:13597   */\n      pop\n      pop\n        /* \"#utility.yul\":13151:13597   */\n    tag_291:\n        /* \"#utility.yul\":13061:13604   */\n      pop\n      pop\n      pop\n      jump\t// out\n        /* \"#utility.yul\":13610:13727   */\n    tag_151:\n        /* \"#utility.yul\":13664:13672   */\n      0x00\n        /* \"#utility.yul\":13714:13719   */\n      dup3\n        /* \"#utility.yul\":13708:13712   */\n      dup3\n        /* \"#utility.yul\":13704:13720   */\n      shr\n        /* \"#utility.yul\":13683:13720   */\n      swap1\n      pop\n        /* \"#utility.yul\":13610:13727   */\n      swap3\n      swap2\n      pop\n      pop\n      jump\t// out\n        /* \"#utility.yul\":13733:13902   */\n    tag_152:\n        /* \"#utility.yul\":13777:13783   */\n      0x00\n        /* \"#utility.yul\":13810:13861   */\n      tag_299\n        /* \"#utility.yul\":13858:13859   */\n      0x00\n        /* \"#utility.yul\":13854:13860   */\n      not\n        /* \"#utility.yul\":13846:13851   */\n      dup5\n        /* \"#utility.yul\":13843:13844   */\n      0x08\n        /* \"#utility.yul\":13839:13852   */\n      mul\n        /* \"#utility.yul\":13810:13861   */\n      tag_151\n      jump\t// in\n    tag_299:\n        /* \"#utility.yul\":13806:13862   */\n      not\n        /* \"#utility.yul\":13891:13895   */\n      dup1\n        /* \"#utility.yul\":13885:13889   */\n      dup4\n        /* \"#utility.yul\":13881:13896   */\n      and\n        /* \"#utility.yul\":13871:13896   */\n      swap2\n      pop\n        /* \"#utility.yul\":13784:13902   */\n      pop\n        /* \"#utility.yul\":13733:13902   */\n      swap3\n      swap2\n      pop\n      pop\n      jump\t// out\n        /* \"#utility.yul\":13907:14202   */\n    tag_153:\n        /* \"#utility.yul\":13983:13987   */\n      0x00\n        /* \"#utility.yul\":14129:14158   */\n      tag_301\n        /* \"#utility.yul\":14154:14157   */\n      dup4\n        /* \"#utility.yul\":14148:14152   */\n      dup4\n        /* \"#utility.yul\":14129:14158   */\n      tag_152\n      jump\t// in\n    tag_301:\n        /* \"#utility.yul\":14121:14158   */\n      swap2\n      pop\n        /* \"#utility.yul\":14191:14194   */\n      dup3\n        /* \"#utility.yul\":14188:14189   */\n      0x02\n        /* \"#utility.yul\":14184:14195   */\n      mul\n        /* \"#utility.yul\":14178:14182   */\n      dup3\n        /* \"#utility.yul\":14175:14196   */\n      or\n        /* \"#utility.yul\":14167:14196   */\n      swap1\n      pop\n        /* \"#utility.yul\":13907:14202   */\n      swap3\n      swap2\n      pop\n      pop\n      jump\t// out\n        /* \"#utility.yul\":14207:15602   */\n    tag_83:\n        /* \"#utility.yul\":14324:14361   */\n      tag_303\n        /* \"#utility.yul\":14357:14360   */\n      dup3\n        /* \"#utility.yul\":14324:14361   */\n      tag_101\n      jump\t// in\n    tag_303:\n        /* \"#utility.yul\":14426:14444   */\n      0xffffffffffffffff\n        /* \"#utility.yul\":14418:14424   */\n      dup2\n        /* \"#utility.yul\":14415:14445   */\n      gt\n        /* \"#utility.yul\":14412:14468   */\n      iszero\n      tag_304\n      jumpi\n        /* \"#utility.yul\":14448:14466   */\n      tag_305\n      tag_120\n      jump\t// in\n    tag_305:\n        /* \"#utility.yul\":14412:14468   */\n    tag_304:\n        /* \"#utility.yul\":14492:14530   */\n      tag_306\n        /* \"#utility.yul\":14524:14528   */\n      dup3\n        /* \"#utility.yul\":14518:14529   */\n      sload\n        /* \"#utility.yul\":14492:14530   */\n      tag_59\n      jump\t// in\n    tag_306:\n        /* \"#utility.yul\":14577:14644   */\n      tag_307\n        /* \"#utility.yul\":14637:14643   */\n      dup3\n        /* \"#utility.yul\":14629:14635   */\n      dup3\n        /* \"#utility.yul\":14623:14627   */\n      dup6\n        /* \"#utility.yul\":14577:14644   */\n      tag_150\n      jump\t// in\n    tag_307:\n        /* \"#utility.yul\":14671:14672   */\n      0x00\n        /* \"#utility.yul\":14695:14699   */\n      0x20\n        /* \"#utility.yul\":14682:14699   */\n      swap1\n      pop\n        /* \"#utility.yul\":14727:14729   */\n      0x1f\n        /* \"#utility.yul\":14719:14725   */\n      dup4\n        /* \"#utility.yul\":14716:14730   */\n      gt\n        /* \"#utility.yul\":14744:14745   */\n      0x01\n        /* \"#utility.yul\":14739:15357   */\n      dup2\n      eq\n      tag_309\n      jumpi\n        /* \"#utility.yul\":15401:15402   */\n      0x00\n        /* \"#utility.yul\":15418:15424   */\n      dup5\n        /* \"#utility.yul\":15415:15492   */\n      iszero\n      tag_310\n      jumpi\n        /* \"#utility.yul\":15467:15476   */\n      dup3\n        /* \"#utility.yul\":15462:15465   */\n      dup8\n        /* \"#utility.yul\":15458:15477   */\n      add\n        /* \"#utility.yul\":15452:15478   */\n      mload\n        /* \"#utility.yul\":15443:15478   */\n      swap1\n      pop\n        /* \"#utility.yul\":15415:15492   */\n    tag_310:\n        /* \"#utility.yul\":15518:15585   */\n      tag_311\n        /* \"#utility.yul\":15578:15584   */\n      dup6\n        /* \"#utility.yul\":15571:15576   */\n      dup3\n        /* \"#utility.yul\":15518:15585   */\n      tag_153\n      jump\t// in\n    tag_311:\n        /* \"#utility.yul\":15512:15516   */\n      dup7\n        /* \"#utility.yul\":15505:15586   */\n      sstore\n        /* \"#utility.yul\":15374:15596   */\n      pop\n        /* \"#utility.yul\":14709:15596   */\n      jump(tag_308)\n        /* \"#utility.yul\":14739:15357   */\n    tag_309:\n        /* \"#utility.yul\":14791:14795   */\n      0x1f\n        /* \"#utility.yul\":14787:14796   */\n      not\n        /* \"#utility.yul\":14779:14785   */\n      dup5\n        /* \"#utility.yul\":14775:14797   */\n      and\n        /* \"#utility.yul\":14825:14862   */\n      tag_312\n        /* \"#utility.yul\":14857:14861   */\n      dup7\n        /* \"#utility.yul\":14825:14862   */\n      tag_139\n      jump\t// in\n    tag_312:\n        /* \"#utility.yul\":14884:14885   */\n      0x00\n        /* \"#utility.yul\":14898:15106   */\n    tag_313:\n        /* \"#utility.yul\":14912:14919   */\n      dup3\n        /* \"#utility.yul\":14909:14910   */\n      dup2\n        /* \"#utility.yul\":14906:14920   */\n      lt\n        /* \"#utility.yul\":14898:15106   */\n      iszero\n      tag_315\n      jumpi\n        /* \"#utility.yul\":14991:15000   */\n      dup5\n        /* \"#utility.yul\":14986:14989   */\n      dup10\n        /* \"#utility.yul\":14982:15001   */\n      add\n        /* \"#utility.yul\":14976:15002   */\n      mload\n        /* \"#utility.yul\":14968:14974   */\n      dup3\n        /* \"#utility.yul\":14961:15003   */\n      sstore\n        /* \"#utility.yul\":15042:15043   */\n      0x01\n        /* \"#utility.yul\":15034:15040   */\n      dup3\n        /* \"#utility.yul\":15030:15044   */\n      add\n        /* \"#utility.yul\":15020:15044   */\n      swap2\n      pop\n        /* \"#utility.yul\":15089:15091   */\n      0x20\n        /* \"#utility.yul\":15078:15087   */\n      dup6\n        /* \"#utility.yul\":15074:15092   */\n      add\n        /* \"#utility.yul\":15061:15092   */\n      swap5\n      pop\n        /* \"#utility.yul\":14935:14939   */\n      0x20\n        /* \"#utility.yul\":14932:14933   */\n      dup2\n        /* \"#utility.yul\":14928:14940   */\n      add\n        /* \"#utility.yul\":14923:14940   */\n      swap1\n      pop\n        /* \"#utility.yul\":14898:15106   */\n      jump(tag_313)\n    tag_315:\n        /* \"#utility.yul\":15134:15140   */\n      dup7\n        /* \"#utility.yul\":15125:15132   */\n      dup4\n        /* \"#utility.yul\":15122:15141   */\n      lt\n        /* \"#utility.yul\":15119:15298   */\n      iszero\n      tag_316\n      jumpi\n        /* \"#utility.yul\":15192:15201   */\n      dup5\n        /* \"#utility.yul\":15187:15190   */\n      dup10\n        /* \"#utility.yul\":15183:15202   */\n      add\n        /* \"#utility.yul\":15177:15203   */\n      mload\n        /* \"#utility.yul\":15235:15283   */\n      tag_317\n        /* \"#utility.yul\":15277:15281   */\n      0x1f\n        /* \"#utility.yul\":15269:15275   */\n      dup10\n        /* \"#utility.yul\":15265:15282   */\n      and\n        /* \"#utility.yul\":15254:15263   */\n      dup3\n        /* \"#utility.yul\":15235:15283   */\n      tag_152\n      jump\t// in\n    tag_317:\n        /* \"#utility.yul\":15227:15233   */\n      dup4\n        /* \"#utility.yul\":15220:15284   */\n      sstore\n        /* \"#utility.yul\":15142:15298   */\n      pop\n        /* \"#utility.yul\":15119:15298   */\n    tag_316:\n        /* \"#utility.yul\":15344:15345   */\n      0x01\n        /* \"#utility.yul\":15340:15341   */\n      0x02\n        /* \"#utility.yul\":15332:15338   */\n      dup9\n        /* \"#utility.yul\":15328:15342   */\n      mul\n        /* \"#utility.yul\":15324:15346   */\n      add\n        /* \"#utility.yul\":15318:15322   */\n      dup9\n        /* \"#utility.yul\":15311:15347   */\n      sstore\n        /* \"#utility.yul\":14746:15357   */\n      pop\n      pop\n      pop\n        /* \"#utility.yul\":14709:15596   */\n    tag_308:\n      pop\n        /* \"#utility.yul\":14299:15602   */\n      pop\n      pop\n      pop\n        /* \"#utility.yul\":14207:15602   */\n      pop\n      pop\n      jump\t// out\n\n    auxdata: 0xa26469706673582212204a79e63aa5d27febd45ed3bb5167c336b523d428727d3d0adb1a0c415867496564736f6c63430008190033\n}\n",
				"bytecode": {
					"linkReferences": {},
					"object": "608060405234801561000f575f80fd5b506040516116f13803806116f1833981810160405281019061003191906104df565b825f73ffffffffffffffffffffffffffffffffffffffff168173ffffffffffffffffffffffffffffffffffffffff16036100a2575f6040517f1e4fbdf7000000000000000000000000000000000000000000000000000000008152600401610099919061055a565b60405180910390fd5b6100b18161015760201b60201c565b508160015f820151815f0190816100c89190610777565b506020820151816001015f6101000a8154816fffffffffffffffffffffffffffffffff021916908360801c02179055509050508060038190555061011061021860201b60201c565b60045f6101000a81548173ffffffffffffffffffffffffffffffffffffffff021916908373ffffffffffffffffffffffffffffffffffffffff160217905550505050610846565b5f805f9054906101000a900473ffffffffffffffffffffffffffffffffffffffff169050815f806101000a81548173ffffffffffffffffffffffffffffffffffffffff021916908373ffffffffffffffffffffffffffffffffffffffff1602179055508173ffffffffffffffffffffffffffffffffffffffff168173ffffffffffffffffffffffffffffffffffffffff167f8be0079c531659141344cd1fd0a4f28419497f9722a3daafe3b4186f6b6457e060405160405180910390a35050565b5f805f9054906101000a900473ffffffffffffffffffffffffffffffffffffffff16905090565b5f604051905090565b5f80fd5b5f80fd5b5f73ffffffffffffffffffffffffffffffffffffffff82169050919050565b5f61027982610250565b9050919050565b6102898161026f565b8114610293575f80fd5b50565b5f815190506102a481610280565b92915050565b5f80fd5b5f601f19601f8301169050919050565b7f4e487b71000000000000000000000000000000000000000000000000000000005f52604160045260245ffd5b6102f4826102ae565b810181811067ffffffffffffffff82111715610313576103126102be565b5b80604052505050565b5f61032561023f565b905061033182826102eb565b919050565b5f80fd5b5f80fd5b5f80fd5b5f67ffffffffffffffff82111561035c5761035b6102be565b5b610365826102ae565b9050602081019050919050565b8281835e5f83830152505050565b5f61039261038d84610342565b61031c565b9050828152602081018484840111156103ae576103ad61033e565b5b6103b9848285610372565b509392505050565b5f82601f8301126103d5576103d461033a565b5b81516103e5848260208601610380565b91505092915050565b5f7fffffffffffffffffffffffffffffffff0000000000000000000000000000000082169050919050565b610422816103ee565b811461042c575f80fd5b50565b5f8151905061043d81610419565b92915050565b5f60408284031215610458576104576102aa565b5b610462604061031c565b90505f82015167ffffffffffffffff81111561048157610480610336565b5b61048d848285016103c1565b5f8301525060206104a08482850161042f565b60208301525092915050565b5f819050919050565b6104be816104ac565b81146104c8575f80fd5b50565b5f815190506104d9816104b5565b92915050565b5f805f606084860312156104f6576104f5610248565b5b5f61050386828701610296565b935050602084015167ffffffffffffffff8111156105245761052361024c565b5b61053086828701610443565b9250506040610541868287016104cb565b9150509250925092565b6105548161026f565b82525050565b5f60208201905061056d5f83018461054b565b92915050565b5f81519050919050565b7f4e487b71000000000000000000000000000000000000000000000000000000005f52602260045260245ffd5b5f60028204905060018216806105c157607f821691505b6020821081036105d4576105d361057d565b5b50919050565b5f819050815f5260205f209050919050565b5f6020601f8301049050919050565b5f82821b905092915050565b5f600883026106367fffffffffffffffffffffffffffffffffffffffffffffffffffffffffffffffff826105fb565b61064086836105fb565b95508019841693508086168417925050509392505050565b5f819050919050565b5f61067b610676610671846104ac565b610658565b6104ac565b9050919050565b5f819050919050565b61069483610661565b6106a86106a082610682565b848454610607565b825550505050565b5f90565b6106bc6106b0565b6106c781848461068b565b505050565b5b818110156106ea576106df5f826106b4565b6001810190506106cd565b5050565b601f82111561072f57610700816105da565b610709846105ec565b81016020851015610718578190505b61072c610724856105ec565b8301826106cc565b50505b505050565b5f82821c905092915050565b5f61074f5f1984600802610734565b1980831691505092915050565b5f6107678383610740565b9150826002028217905092915050565b61078082610573565b67ffffffffffffffff811115610799576107986102be565b5b6107a382546105aa565b6107ae8282856106ee565b5f60209050601f8311600181146107df575f84156107cd578287015190505b6107d7858261075c565b86555061083e565b601f1984166107ed866105da565b5f5b82811015610814578489015182556001820191506020850194506020810190506107ef565b86831015610831578489015161082d601f891682610740565b8355505b6001600288020188555050505b505050505050565b610e9e806108535f395ff3fe60806040526004361061007a575f3560e01c80638da5cb5b1161004d5780638da5cb5b146100fd578063a38bffda14610127578063cc28cd3b14610151578063f2fde38b1461016d5761007a565b806324600fc31461007e57806369769a2714610094578063715018a6146100bf5780638d6cc56d146100d5575b5f80fd5b348015610089575f80fd5b50610092610195565b005b34801561009f575f80fd5b506100a861026e565b6040516100b6929190610733565b60405180910390f35b3480156100ca575f80fd5b506100d3610311565b005b3480156100e0575f80fd5b506100fb60048036038101906100f691906107a5565b610324565b005b348015610108575f80fd5b5061011161036b565b60405161011e919061080f565b60405180910390f35b348015610132575f80fd5b5061013b610392565b6040516101489190610837565b60405180910390f35b61016b6004803603810190610166919061097c565b610398565b005b348015610178575f80fd5b50610193600480360381019061018e91906109ed565b6104b6565b005b61019d61053a565b5f4790505f60045f9054906101000a900473ffffffffffffffffffffffffffffffffffffffff1673ffffffffffffffffffffffffffffffffffffffff16826040516101e790610a45565b5f6040518083038185875af1925050503d805f8114610221576040519150601f19603f3d011682016040523d82523d5f602084013e610226565b606091505b505090508061026a576040517f08c379a000000000000000000000000000000000000000000000000000000000815260040161026190610aa3565b60405180910390fd5b5050565b6001805f01805461027e90610aee565b80601f01602080910402602001604051908101604052809291908181526020018280546102aa90610aee565b80156102f55780601f106102cc576101008083540402835291602001916102f5565b820191905f5260205f20905b8154815290600101906020018083116102d857829003601f168201915b505050505090806001015f9054906101000a900460801b905082565b61031961053a565b6103225f6105c1565b565b61032c61053a565b5f60035490508160038190555081817f9bdb33962ec269ba46cf891894f92891dcfbcda357db379ca990f7a6e9b951a360405160405180910390a35050565b5f805f9054906101000a900473ffffffffffffffffffffffffffffffffffffffff16905090565b60035481565b6103a061053a565b60035434146103e4576040517f08c379a00000000000000000000000000000000000000000000000000000000081526004016103db90610b8e565b60405180910390fd5b7fc5d2460186f7233c927e7db2dcc703c0e500b653ca82273b7bfad8045d85a470816040516020016104169190610be6565b6040516020818303038152906040528051906020012014610444578060015f0190816104429190610d99565b505b5f61044d61036b565b9050610458336104b6565b3373ffffffffffffffffffffffffffffffffffffffff168173ffffffffffffffffffffffffffffffffffffffff167fc26ebe5b6f78dfb9113d7b983bf073e2fb6dfab1fb744b0feb73e04fb2bcc07760405160405180910390a35050565b6104be61053a565b5f73ffffffffffffffffffffffffffffffffffffffff168173ffffffffffffffffffffffffffffffffffffffff160361052e575f6040517f1e4fbdf7000000000000000000000000000000000000000000000000000000008152600401610525919061080f565b60405180910390fd5b610537816105c1565b50565b610542610682565b73ffffffffffffffffffffffffffffffffffffffff1661056061036b565b73ffffffffffffffffffffffffffffffffffffffff16146105bf57610583610682565b6040517f118cdaa70000000000000000000000000000000000000000000000000000000081526004016105b6919061080f565b60405180910390fd5b565b5f805f9054906101000a900473ffffffffffffffffffffffffffffffffffffffff169050815f806101000a81548173ffffffffffffffffffffffffffffffffffffffff021916908373ffffffffffffffffffffffffffffffffffffffff1602179055508173ffffffffffffffffffffffffffffffffffffffff168173ffffffffffffffffffffffffffffffffffffffff167f8be0079c531659141344cd1fd0a4f28419497f9722a3daafe3b4186f6b6457e060405160405180910390a35050565b5f33905090565b5f81519050919050565b5f82825260208201905092915050565b8281835e5f83830152505050565b5f601f19601f8301169050919050565b5f6106cb82610689565b6106d58185610693565b93506106e58185602086016106a3565b6106ee816106b1565b840191505092915050565b5f7fffffffffffffffffffffffffffffffff0000000000000000000000000000000082169050919050565b61072d816106f9565b82525050565b5f6040820190508181035f83015261074b81856106c1565b905061075a6020830184610724565b9392505050565b5f604051905090565b5f80fd5b5f80fd5b5f819050919050565b61078481610772565b811461078e575f80fd5b50565b5f8135905061079f8161077b565b92915050565b5f602082840312156107ba576107b961076a565b5b5f6107c784828501610791565b91505092915050565b5f73ffffffffffffffffffffffffffffffffffffffff82169050919050565b5f6107f9826107d0565b9050919050565b610809816107ef565b82525050565b5f6020820190506108225f830184610800565b92915050565b61083181610772565b82525050565b5f60208201905061084a5f830184610828565b92915050565b5f80fd5b5f80fd5b7f4e487b71000000000000000000000000000000000000000000000000000000005f52604160045260245ffd5b61088e826106b1565b810181811067ffffffffffffffff821117156108ad576108ac610858565b5b80604052505050565b5f6108bf610761565b90506108cb8282610885565b919050565b5f67ffffffffffffffff8211156108ea576108e9610858565b5b6108f3826106b1565b9050602081019050919050565b828183375f83830152505050565b5f61092061091b846108d0565b6108b6565b90508281526020810184848401111561093c5761093b610854565b5b610947848285610900565b509392505050565b5f82601f83011261096357610962610850565b5b813561097384826020860161090e565b91505092915050565b5f602082840312156109915761099061076a565b5b5f82013567ffffffffffffffff8111156109ae576109ad61076e565b5b6109ba8482850161094f565b91505092915050565b6109cc816107ef565b81146109d6575f80fd5b50565b5f813590506109e7816109c3565b92915050565b5f60208284031215610a0257610a0161076a565b5b5f610a0f848285016109d9565b91505092915050565b5f81905092915050565b50565b5f610a305f83610a18565b9150610a3b82610a22565b5f82019050919050565b5f610a4f82610a25565b9150819050919050565b7f46756e6473206e6f742077697468647261776e207375636365737366756c6c795f82015250565b5f610a8d602083610693565b9150610a9882610a59565b602082019050919050565b5f6020820190508181035f830152610aba81610a81565b9050919050565b7f4e487b71000000000000000000000000000000000000000000000000000000005f52602260045260245ffd5b5f6002820490506001821680610b0557607f821691505b602082108103610b1857610b17610ac1565b5b50919050565b7f5472616e73616374696f6e206661696c65642c20656e7375726520796f7572205f8201527f76616c756520697320657175616c20746f2063757272656e7420707269636500602082015250565b5f610b78603f83610693565b9150610b8382610b1e565b604082019050919050565b5f6020820190508181035f830152610ba581610b6c565b9050919050565b5f81905092915050565b5f610bc082610689565b610bca8185610bac565b9350610bda8185602086016106a3565b80840191505092915050565b5f610bf18284610bb6565b915081905092915050565b5f819050815f5260205f209050919050565b5f6020601f8301049050919050565b5f82821b905092915050565b5f60088302610c587fffffffffffffffffffffffffffffffffffffffffffffffffffffffffffffffff82610c1d565b610c628683610c1d565b95508019841693508086168417925050509392505050565b5f819050919050565b5f610c9d610c98610c9384610772565b610c7a565b610772565b9050919050565b5f819050919050565b610cb683610c83565b610cca610cc282610ca4565b848454610c29565b825550505050565b5f90565b610cde610cd2565b610ce9818484610cad565b505050565b5b81811015610d0c57610d015f82610cd6565b600181019050610cef565b5050565b601f821115610d5157610d2281610bfc565b610d2b84610c0e565b81016020851015610d3a578190505b610d4e610d4685610c0e565b830182610cee565b50505b505050565b5f82821c905092915050565b5f610d715f1984600802610d56565b1980831691505092915050565b5f610d898383610d62565b9150826002028217905092915050565b610da282610689565b67ffffffffffffffff811115610dbb57610dba610858565b5b610dc58254610aee565b610dd0828285610d10565b5f60209050601f831160018114610e01575f8415610def578287015190505b610df98582610d7e565b865550610e60565b601f198416610e0f86610bfc565b5f5b82811015610e3657848901518255600182019150602085019450602081019050610e11565b86831015610e535784890151610e4f601f891682610d62565b8355505b6001600288020188555050505b50505050505056fea26469706673582212204a79e63aa5d27febd45ed3bb5167c336b523d428727d3d0adb1a0c415867496564736f6c63430008190033",
					"opcodes": "PUSH1 0x80 PUSH1 0x40 MSTORE CALLVALUE DUP1 ISZERO PUSH2 0xF JUMPI PUSH0 DUP1 REVERT JUMPDEST POP PUSH1 0x40 MLOAD PUSH2 0x16F1 CODESIZE SUB DUP1 PUSH2 0x16F1 DUP4 CODECOPY DUP2 DUP2 ADD PUSH1 0x40 MSTORE DUP2 ADD SWAP1 PUSH2 0x31 SWAP2 SWAP1 PUSH2 0x4DF JUMP JUMPDEST DUP3 PUSH0 PUSH20 0xFFFFFFFFFFFFFFFFFFFFFFFFFFFFFFFFFFFFFFFF AND DUP2 PUSH20 0xFFFFFFFFFFFFFFFFFFFFFFFFFFFFFFFFFFFFFFFF AND SUB PUSH2 0xA2 JUMPI PUSH0 PUSH1 0x40 MLOAD PUSH32 0x1E4FBDF700000000000000000000000000000000000000000000000000000000 DUP2 MSTORE PUSH1 0x4 ADD PUSH2 0x99 SWAP2 SWAP1 PUSH2 0x55A JUMP JUMPDEST PUSH1 0x40 MLOAD DUP1 SWAP2 SUB SWAP1 REVERT JUMPDEST PUSH2 0xB1 DUP2 PUSH2 0x157 PUSH1 0x20 SHL PUSH1 0x20 SHR JUMP JUMPDEST POP DUP2 PUSH1 0x1 PUSH0 DUP3 ADD MLOAD DUP2 PUSH0 ADD SWAP1 DUP2 PUSH2 0xC8 SWAP2 SWAP1 PUSH2 0x777 JUMP JUMPDEST POP PUSH1 0x20 DUP3 ADD MLOAD DUP2 PUSH1 0x1 ADD PUSH0 PUSH2 0x100 EXP DUP2 SLOAD DUP2 PUSH16 0xFFFFFFFFFFFFFFFFFFFFFFFFFFFFFFFF MUL NOT AND SWAP1 DUP4 PUSH1 0x80 SHR MUL OR SWAP1 SSTORE POP SWAP1 POP POP DUP1 PUSH1 0x3 DUP2 SWAP1 SSTORE POP PUSH2 0x110 PUSH2 0x218 PUSH1 0x20 SHL PUSH1 0x20 SHR JUMP JUMPDEST PUSH1 0x4 PUSH0 PUSH2 0x100 EXP DUP2 SLOAD DUP2 PUSH20 0xFFFFFFFFFFFFFFFFFFFFFFFFFFFFFFFFFFFFFFFF MUL NOT AND SWAP1 DUP4 PUSH20 0xFFFFFFFFFFFFFFFFFFFFFFFFFFFFFFFFFFFFFFFF AND MUL OR SWAP1 SSTORE POP POP POP POP PUSH2 0x846 JUMP JUMPDEST PUSH0 DUP1 PUSH0 SWAP1 SLOAD SWAP1 PUSH2 0x100 EXP SWAP1 DIV PUSH20 0xFFFFFFFFFFFFFFFFFFFFFFFFFFFFFFFFFFFFFFFF AND SWAP1 POP DUP2 PUSH0 DUP1 PUSH2 0x100 EXP DUP2 SLOAD DUP2 PUSH20 0xFFFFFFFFFFFFFFFFFFFFFFFFFFFFFFFFFFFFFFFF MUL NOT AND SWAP1 DUP4 PUSH20 0xFFFFFFFFFFFFFFFFFFFFFFFFFFFFFFFFFFFFFFFF AND MUL OR SWAP1 SSTORE POP DUP2 PUSH20 0xFFFFFFFFFFFFFFFFFFFFFFFFFFFFFFFFFFFFFFFF AND DUP2 PUSH20 0xFFFFFFFFFFFFFFFFFFFFFFFFFFFFFFFFFFFFFFFF AND PUSH32 0x8BE0079C531659141344CD1FD0A4F28419497F9722A3DAAFE3B4186F6B6457E0 PUSH1 0x40 MLOAD PUSH1 0x40 MLOAD DUP1 SWAP2 SUB SWAP1 LOG3 POP POP JUMP JUMPDEST PUSH0 DUP1 PUSH0 SWAP1 SLOAD SWAP1 PUSH2 0x100 EXP SWAP1 DIV PUSH20 0xFFFFFFFFFFFFFFFFFFFFFFFFFFFFFFFFFFFFFFFF AND SWAP1 POP SWAP1 JUMP JUMPDEST PUSH0 PUSH1 0x40 MLOAD SWAP1 POP SWAP1 JUMP JUMPDEST PUSH0 DUP1 REVERT JUMPDEST PUSH0 DUP1 REVERT JUMPDEST PUSH0 PUSH20 0xFFFFFFFFFFFFFFFFFFFFFFFFFFFFFFFFFFFFFFFF DUP3 AND SWAP1 POP SWAP2 SWAP1 POP JUMP JUMPDEST PUSH0 PUSH2 0x279 DUP3 PUSH2 0x250 JUMP JUMPDEST SWAP1 POP SWAP2 SWAP1 POP JUMP JUMPDEST PUSH2 0x289 DUP2 PUSH2 0x26F JUMP JUMPDEST DUP2 EQ PUSH2 0x293 JUMPI PUSH0 DUP1 REVERT JUMPDEST POP JUMP JUMPDEST PUSH0 DUP2 MLOAD SWAP1 POP PUSH2 0x2A4 DUP2 PUSH2 0x280 JUMP JUMPDEST SWAP3 SWAP2 POP POP JUMP JUMPDEST PUSH0 DUP1 REVERT JUMPDEST PUSH0 PUSH1 0x1F NOT PUSH1 0x1F DUP4 ADD AND SWAP1 POP SWAP2 SWAP1 POP JUMP JUMPDEST PUSH32 0x4E487B7100000000000000000000000000000000000000000000000000000000 PUSH0 MSTORE PUSH1 0x41 PUSH1 0x4 MSTORE PUSH1 0x24 PUSH0 REVERT JUMPDEST PUSH2 0x2F4 DUP3 PUSH2 0x2AE JUMP JUMPDEST DUP2 ADD DUP2 DUP2 LT PUSH8 0xFFFFFFFFFFFFFFFF DUP3 GT OR ISZERO PUSH2 0x313 JUMPI PUSH2 0x312 PUSH2 0x2BE JUMP JUMPDEST JUMPDEST DUP1 PUSH1 0x40 MSTORE POP POP POP JUMP JUMPDEST PUSH0 PUSH2 0x325 PUSH2 0x23F JUMP JUMPDEST SWAP1 POP PUSH2 0x331 DUP3 DUP3 PUSH2 0x2EB JUMP JUMPDEST SWAP2 SWAP1 POP JUMP JUMPDEST PUSH0 DUP1 REVERT JUMPDEST PUSH0 DUP1 REVERT JUMPDEST PUSH0 DUP1 REVERT JUMPDEST PUSH0 PUSH8 0xFFFFFFFFFFFFFFFF DUP3 GT ISZERO PUSH2 0x35C JUMPI PUSH2 0x35B PUSH2 0x2BE JUMP JUMPDEST JUMPDEST PUSH2 0x365 DUP3 PUSH2 0x2AE JUMP JUMPDEST SWAP1 POP PUSH1 0x20 DUP2 ADD SWAP1 POP SWAP2 SWAP1 POP JUMP JUMPDEST DUP3 DUP2 DUP4 MCOPY PUSH0 DUP4 DUP4 ADD MSTORE POP POP POP JUMP JUMPDEST PUSH0 PUSH2 0x392 PUSH2 0x38D DUP5 PUSH2 0x342 JUMP JUMPDEST PUSH2 0x31C JUMP JUMPDEST SWAP1 POP DUP3 DUP2 MSTORE PUSH1 0x20 DUP2 ADD DUP5 DUP5 DUP5 ADD GT ISZERO PUSH2 0x3AE JUMPI PUSH2 0x3AD PUSH2 0x33E JUMP JUMPDEST JUMPDEST PUSH2 0x3B9 DUP5 DUP3 DUP6 PUSH2 0x372 JUMP JUMPDEST POP SWAP4 SWAP3 POP POP POP JUMP JUMPDEST PUSH0 DUP3 PUSH1 0x1F DUP4 ADD SLT PUSH2 0x3D5 JUMPI PUSH2 0x3D4 PUSH2 0x33A JUMP JUMPDEST JUMPDEST DUP2 MLOAD PUSH2 0x3E5 DUP5 DUP3 PUSH1 0x20 DUP7 ADD PUSH2 0x380 JUMP JUMPDEST SWAP2 POP POP SWAP3 SWAP2 POP POP JUMP JUMPDEST PUSH0 PUSH32 0xFFFFFFFFFFFFFFFFFFFFFFFFFFFFFFFF00000000000000000000000000000000 DUP3 AND SWAP1 POP SWAP2 SWAP1 POP JUMP JUMPDEST PUSH2 0x422 DUP2 PUSH2 0x3EE JUMP JUMPDEST DUP2 EQ PUSH2 0x42C JUMPI PUSH0 DUP1 REVERT JUMPDEST POP JUMP JUMPDEST PUSH0 DUP2 MLOAD SWAP1 POP PUSH2 0x43D DUP2 PUSH2 0x419 JUMP JUMPDEST SWAP3 SWAP2 POP POP JUMP JUMPDEST PUSH0 PUSH1 0x40 DUP3 DUP5 SUB SLT ISZERO PUSH2 0x458 JUMPI PUSH2 0x457 PUSH2 0x2AA JUMP JUMPDEST JUMPDEST PUSH2 0x462 PUSH1 0x40 PUSH2 0x31C JUMP JUMPDEST SWAP1 POP PUSH0 DUP3 ADD MLOAD PUSH8 0xFFFFFFFFFFFFFFFF DUP2 GT ISZERO PUSH2 0x481 JUMPI PUSH2 0x480 PUSH2 0x336 JUMP JUMPDEST JUMPDEST PUSH2 0x48D DUP5 DUP3 DUP6 ADD PUSH2 0x3C1 JUMP JUMPDEST PUSH0 DUP4 ADD MSTORE POP PUSH1 0x20 PUSH2 0x4A0 DUP5 DUP3 DUP6 ADD PUSH2 0x42F JUMP JUMPDEST PUSH1 0x20 DUP4 ADD MSTORE POP SWAP3 SWAP2 POP POP JUMP JUMPDEST PUSH0 DUP2 SWAP1 POP SWAP2 SWAP1 POP JUMP JUMPDEST PUSH2 0x4BE DUP2 PUSH2 0x4AC JUMP JUMPDEST DUP2 EQ PUSH2 0x4C8 JUMPI PUSH0 DUP1 REVERT JUMPDEST POP JUMP JUMPDEST PUSH0 DUP2 MLOAD SWAP1 POP PUSH2 0x4D9 DUP2 PUSH2 0x4B5 JUMP JUMPDEST SWAP3 SWAP2 POP POP JUMP JUMPDEST PUSH0 DUP1 PUSH0 PUSH1 0x60 DUP5 DUP7 SUB SLT ISZERO PUSH2 0x4F6 JUMPI PUSH2 0x4F5 PUSH2 0x248 JUMP JUMPDEST JUMPDEST PUSH0 PUSH2 0x503 DUP7 DUP3 DUP8 ADD PUSH2 0x296 JUMP JUMPDEST SWAP4 POP POP PUSH1 0x20 DUP5 ADD MLOAD PUSH8 0xFFFFFFFFFFFFFFFF DUP2 GT ISZERO PUSH2 0x524 JUMPI PUSH2 0x523 PUSH2 0x24C JUMP JUMPDEST JUMPDEST PUSH2 0x530 DUP7 DUP3 DUP8 ADD PUSH2 0x443 JUMP JUMPDEST SWAP3 POP POP PUSH1 0x40 PUSH2 0x541 DUP7 DUP3 DUP8 ADD PUSH2 0x4CB JUMP JUMPDEST SWAP2 POP POP SWAP3 POP SWAP3 POP SWAP3 JUMP JUMPDEST PUSH2 0x554 DUP2 PUSH2 0x26F JUMP JUMPDEST DUP3 MSTORE POP POP JUMP JUMPDEST PUSH0 PUSH1 0x20 DUP3 ADD SWAP1 POP PUSH2 0x56D PUSH0 DUP4 ADD DUP5 PUSH2 0x54B JUMP JUMPDEST SWAP3 SWAP2 POP POP JUMP JUMPDEST PUSH0 DUP2 MLOAD SWAP1 POP SWAP2 SWAP1 POP JUMP JUMPDEST PUSH32 0x4E487B7100000000000000000000000000000000000000000000000000000000 PUSH0 MSTORE PUSH1 0x22 PUSH1 0x4 MSTORE PUSH1 0x24 PUSH0 REVERT JUMPDEST PUSH0 PUSH1 0x2 DUP3 DIV SWAP1 POP PUSH1 0x1 DUP3 AND DUP1 PUSH2 0x5C1 JUMPI PUSH1 0x7F DUP3 AND SWAP2 POP JUMPDEST PUSH1 0x20 DUP3 LT DUP2 SUB PUSH2 0x5D4 JUMPI PUSH2 0x5D3 PUSH2 0x57D JUMP JUMPDEST JUMPDEST POP SWAP2 SWAP1 POP JUMP JUMPDEST PUSH0 DUP2 SWAP1 POP DUP2 PUSH0 MSTORE PUSH1 0x20 PUSH0 KECCAK256 SWAP1 POP SWAP2 SWAP1 POP JUMP JUMPDEST PUSH0 PUSH1 0x20 PUSH1 0x1F DUP4 ADD DIV SWAP1 POP SWAP2 SWAP1 POP JUMP JUMPDEST PUSH0 DUP3 DUP3 SHL SWAP1 POP SWAP3 SWAP2 POP POP JUMP JUMPDEST PUSH0 PUSH1 0x8 DUP4 MUL PUSH2 0x636 PUSH32 0xFFFFFFFFFFFFFFFFFFFFFFFFFFFFFFFFFFFFFFFFFFFFFFFFFFFFFFFFFFFFFFFF DUP3 PUSH2 0x5FB JUMP JUMPDEST PUSH2 0x640 DUP7 DUP4 PUSH2 0x5FB JUMP JUMPDEST SWAP6 POP DUP1 NOT DUP5 AND SWAP4 POP DUP1 DUP7 AND DUP5 OR SWAP3 POP POP POP SWAP4 SWAP3 POP POP POP JUMP JUMPDEST PUSH0 DUP2 SWAP1 POP SWAP2 SWAP1 POP JUMP JUMPDEST PUSH0 PUSH2 0x67B PUSH2 0x676 PUSH2 0x671 DUP5 PUSH2 0x4AC JUMP JUMPDEST PUSH2 0x658 JUMP JUMPDEST PUSH2 0x4AC JUMP JUMPDEST SWAP1 POP SWAP2 SWAP1 POP JUMP JUMPDEST PUSH0 DUP2 SWAP1 POP SWAP2 SWAP1 POP JUMP JUMPDEST PUSH2 0x694 DUP4 PUSH2 0x661 JUMP JUMPDEST PUSH2 0x6A8 PUSH2 0x6A0 DUP3 PUSH2 0x682 JUMP JUMPDEST DUP5 DUP5 SLOAD PUSH2 0x607 JUMP JUMPDEST DUP3 SSTORE POP POP POP POP JUMP JUMPDEST PUSH0 SWAP1 JUMP JUMPDEST PUSH2 0x6BC PUSH2 0x6B0 JUMP JUMPDEST PUSH2 0x6C7 DUP2 DUP5 DUP5 PUSH2 0x68B JUMP JUMPDEST POP POP POP JUMP JUMPDEST JUMPDEST DUP2 DUP2 LT ISZERO PUSH2 0x6EA JUMPI PUSH2 0x6DF PUSH0 DUP3 PUSH2 0x6B4 JUMP JUMPDEST PUSH1 0x1 DUP2 ADD SWAP1 POP PUSH2 0x6CD JUMP JUMPDEST POP POP JUMP JUMPDEST PUSH1 0x1F DUP3 GT ISZERO PUSH2 0x72F JUMPI PUSH2 0x700 DUP2 PUSH2 0x5DA JUMP JUMPDEST PUSH2 0x709 DUP5 PUSH2 0x5EC JUMP JUMPDEST DUP2 ADD PUSH1 0x20 DUP6 LT ISZERO PUSH2 0x718 JUMPI DUP2 SWAP1 POP JUMPDEST PUSH2 0x72C PUSH2 0x724 DUP6 PUSH2 0x5EC JUMP JUMPDEST DUP4 ADD DUP3 PUSH2 0x6CC JUMP JUMPDEST POP POP JUMPDEST POP POP POP JUMP JUMPDEST PUSH0 DUP3 DUP3 SHR SWAP1 POP SWAP3 SWAP2 POP POP JUMP JUMPDEST PUSH0 PUSH2 0x74F PUSH0 NOT DUP5 PUSH1 0x8 MUL PUSH2 0x734 JUMP JUMPDEST NOT DUP1 DUP4 AND SWAP2 POP POP SWAP3 SWAP2 POP POP JUMP JUMPDEST PUSH0 PUSH2 0x767 DUP4 DUP4 PUSH2 0x740 JUMP JUMPDEST SWAP2 POP DUP3 PUSH1 0x2 MUL DUP3 OR SWAP1 POP SWAP3 SWAP2 POP POP JUMP JUMPDEST PUSH2 0x780 DUP3 PUSH2 0x573 JUMP JUMPDEST PUSH8 0xFFFFFFFFFFFFFFFF DUP2 GT ISZERO PUSH2 0x799 JUMPI PUSH2 0x798 PUSH2 0x2BE JUMP JUMPDEST JUMPDEST PUSH2 0x7A3 DUP3 SLOAD PUSH2 0x5AA JUMP JUMPDEST PUSH2 0x7AE DUP3 DUP3 DUP6 PUSH2 0x6EE JUMP JUMPDEST PUSH0 PUSH1 0x20 SWAP1 POP PUSH1 0x1F DUP4 GT PUSH1 0x1 DUP2 EQ PUSH2 0x7DF JUMPI PUSH0 DUP5 ISZERO PUSH2 0x7CD JUMPI DUP3 DUP8 ADD MLOAD SWAP1 POP JUMPDEST PUSH2 0x7D7 DUP6 DUP3 PUSH2 0x75C JUMP JUMPDEST DUP7 SSTORE POP PUSH2 0x83E JUMP JUMPDEST PUSH1 0x1F NOT DUP5 AND PUSH2 0x7ED DUP7 PUSH2 0x5DA JUMP JUMPDEST PUSH0 JUMPDEST DUP3 DUP2 LT ISZERO PUSH2 0x814 JUMPI DUP5 DUP10 ADD MLOAD DUP3 SSTORE PUSH1 0x1 DUP3 ADD SWAP2 POP PUSH1 0x20 DUP6 ADD SWAP5 POP PUSH1 0x20 DUP2 ADD SWAP1 POP PUSH2 0x7EF JUMP JUMPDEST DUP7 DUP4 LT ISZERO PUSH2 0x831 JUMPI DUP5 DUP10 ADD MLOAD PUSH2 0x82D PUSH1 0x1F DUP10 AND DUP3 PUSH2 0x740 JUMP JUMPDEST DUP4 SSTORE POP JUMPDEST PUSH1 0x1 PUSH1 0x2 DUP9 MUL ADD DUP9 SSTORE POP POP POP JUMPDEST POP POP POP POP POP POP JUMP JUMPDEST PUSH2 0xE9E DUP1 PUSH2 0x853 PUSH0 CODECOPY PUSH0 RETURN INVALID PUSH1 0x80 PUSH1 0x40 MSTORE PUSH1 0x4 CALLDATASIZE LT PUSH2 0x7A JUMPI PUSH0 CALLDATALOAD PUSH1 0xE0 SHR DUP1 PUSH4 0x8DA5CB5B GT PUSH2 0x4D JUMPI DUP1 PUSH4 0x8DA5CB5B EQ PUSH2 0xFD JUMPI DUP1 PUSH4 0xA38BFFDA EQ PUSH2 0x127 JUMPI DUP1 PUSH4 0xCC28CD3B EQ PUSH2 0x151 JUMPI DUP1 PUSH4 0xF2FDE38B EQ PUSH2 0x16D JUMPI PUSH2 0x7A JUMP JUMPDEST DUP1 PUSH4 0x24600FC3 EQ PUSH2 0x7E JUMPI DUP1 PUSH4 0x69769A27 EQ PUSH2 0x94 JUMPI DUP1 PUSH4 0x715018A6 EQ PUSH2 0xBF JUMPI DUP1 PUSH4 0x8D6CC56D EQ PUSH2 0xD5 JUMPI JUMPDEST PUSH0 DUP1 REVERT JUMPDEST CALLVALUE DUP1 ISZERO PUSH2 0x89 JUMPI PUSH0 DUP1 REVERT JUMPDEST POP PUSH2 0x92 PUSH2 0x195 JUMP JUMPDEST STOP JUMPDEST CALLVALUE DUP1 ISZERO PUSH2 0x9F JUMPI PUSH0 DUP1 REVERT JUMPDEST POP PUSH2 0xA8 PUSH2 0x26E JUMP JUMPDEST PUSH1 0x40 MLOAD PUSH2 0xB6 SWAP3 SWAP2 SWAP1 PUSH2 0x733 JUMP JUMPDEST PUSH1 0x40 MLOAD DUP1 SWAP2 SUB SWAP1 RETURN JUMPDEST CALLVALUE DUP1 ISZERO PUSH2 0xCA JUMPI PUSH0 DUP1 REVERT JUMPDEST POP PUSH2 0xD3 PUSH2 0x311 JUMP JUMPDEST STOP JUMPDEST CALLVALUE DUP1 ISZERO PUSH2 0xE0 JUMPI PUSH0 DUP1 REVERT JUMPDEST POP PUSH2 0xFB PUSH1 0x4 DUP1 CALLDATASIZE SUB DUP2 ADD SWAP1 PUSH2 0xF6 SWAP2 SWAP1 PUSH2 0x7A5 JUMP JUMPDEST PUSH2 0x324 JUMP JUMPDEST STOP JUMPDEST CALLVALUE DUP1 ISZERO PUSH2 0x108 JUMPI PUSH0 DUP1 REVERT JUMPDEST POP PUSH2 0x111 PUSH2 0x36B JUMP JUMPDEST PUSH1 0x40 MLOAD PUSH2 0x11E SWAP2 SWAP1 PUSH2 0x80F JUMP JUMPDEST PUSH1 0x40 MLOAD DUP1 SWAP2 SUB SWAP1 RETURN JUMPDEST CALLVALUE DUP1 ISZERO PUSH2 0x132 JUMPI PUSH0 DUP1 REVERT JUMPDEST POP PUSH2 0x13B PUSH2 0x392 JUMP JUMPDEST PUSH1 0x40 MLOAD PUSH2 0x148 SWAP2 SWAP1 PUSH2 0x837 JUMP JUMPDEST PUSH1 0x40 MLOAD DUP1 SWAP2 SUB SWAP1 RETURN JUMPDEST PUSH2 0x16B PUSH1 0x4 DUP1 CALLDATASIZE SUB DUP2 ADD SWAP1 PUSH2 0x166 SWAP2 SWAP1 PUSH2 0x97C JUMP JUMPDEST PUSH2 0x398 JUMP JUMPDEST STOP JUMPDEST CALLVALUE DUP1 ISZERO PUSH2 0x178 JUMPI PUSH0 DUP1 REVERT JUMPDEST POP PUSH2 0x193 PUSH1 0x4 DUP1 CALLDATASIZE SUB DUP2 ADD SWAP1 PUSH2 0x18E SWAP2 SWAP1 PUSH2 0x9ED JUMP JUMPDEST PUSH2 0x4B6 JUMP JUMPDEST STOP JUMPDEST PUSH2 0x19D PUSH2 0x53A JUMP JUMPDEST PUSH0 SELFBALANCE SWAP1 POP PUSH0 PUSH1 0x4 PUSH0 SWAP1 SLOAD SWAP1 PUSH2 0x100 EXP SWAP1 DIV PUSH20 0xFFFFFFFFFFFFFFFFFFFFFFFFFFFFFFFFFFFFFFFF AND PUSH20 0xFFFFFFFFFFFFFFFFFFFFFFFFFFFFFFFFFFFFFFFF AND DUP3 PUSH1 0x40 MLOAD PUSH2 0x1E7 SWAP1 PUSH2 0xA45 JUMP JUMPDEST PUSH0 PUSH1 0x40 MLOAD DUP1 DUP4 SUB DUP2 DUP6 DUP8 GAS CALL SWAP3 POP POP POP RETURNDATASIZE DUP1 PUSH0 DUP2 EQ PUSH2 0x221 JUMPI PUSH1 0x40 MLOAD SWAP2 POP PUSH1 0x1F NOT PUSH1 0x3F RETURNDATASIZE ADD AND DUP3 ADD PUSH1 0x40 MSTORE RETURNDATASIZE DUP3 MSTORE RETURNDATASIZE PUSH0 PUSH1 0x20 DUP5 ADD RETURNDATACOPY PUSH2 0x226 JUMP JUMPDEST PUSH1 0x60 SWAP2 POP JUMPDEST POP POP SWAP1 POP DUP1 PUSH2 0x26A JUMPI PUSH1 0x40 MLOAD PUSH32 0x8C379A000000000000000000000000000000000000000000000000000000000 DUP2 MSTORE PUSH1 0x4 ADD PUSH2 0x261 SWAP1 PUSH2 0xAA3 JUMP JUMPDEST PUSH1 0x40 MLOAD DUP1 SWAP2 SUB SWAP1 REVERT JUMPDEST POP POP JUMP JUMPDEST PUSH1 0x1 DUP1 PUSH0 ADD DUP1 SLOAD PUSH2 0x27E SWAP1 PUSH2 0xAEE JUMP JUMPDEST DUP1 PUSH1 0x1F ADD PUSH1 0x20 DUP1 SWAP2 DIV MUL PUSH1 0x20 ADD PUSH1 0x40 MLOAD SWAP1 DUP2 ADD PUSH1 0x40 MSTORE DUP1 SWAP3 SWAP2 SWAP1 DUP2 DUP2 MSTORE PUSH1 0x20 ADD DUP3 DUP1 SLOAD PUSH2 0x2AA SWAP1 PUSH2 0xAEE JUMP JUMPDEST DUP1 ISZERO PUSH2 0x2F5 JUMPI DUP1 PUSH1 0x1F LT PUSH2 0x2CC JUMPI PUSH2 0x100 DUP1 DUP4 SLOAD DIV MUL DUP4 MSTORE SWAP2 PUSH1 0x20 ADD SWAP2 PUSH2 0x2F5 JUMP JUMPDEST DUP3 ADD SWAP2 SWAP1 PUSH0 MSTORE PUSH1 0x20 PUSH0 KECCAK256 SWAP1 JUMPDEST DUP2 SLOAD DUP2 MSTORE SWAP1 PUSH1 0x1 ADD SWAP1 PUSH1 0x20 ADD DUP1 DUP4 GT PUSH2 0x2D8 JUMPI DUP3 SWAP1 SUB PUSH1 0x1F AND DUP3 ADD SWAP2 JUMPDEST POP POP POP POP POP SWAP1 DUP1 PUSH1 0x1 ADD PUSH0 SWAP1 SLOAD SWAP1 PUSH2 0x100 EXP SWAP1 DIV PUSH1 0x80 SHL SWAP1 POP DUP3 JUMP JUMPDEST PUSH2 0x319 PUSH2 0x53A JUMP JUMPDEST PUSH2 0x322 PUSH0 PUSH2 0x5C1 JUMP JUMPDEST JUMP JUMPDEST PUSH2 0x32C PUSH2 0x53A JUMP JUMPDEST PUSH0 PUSH1 0x3 SLOAD SWAP1 POP DUP2 PUSH1 0x3 DUP2 SWAP1 SSTORE POP DUP2 DUP2 PUSH32 0x9BDB33962EC269BA46CF891894F92891DCFBCDA357DB379CA990F7A6E9B951A3 PUSH1 0x40 MLOAD PUSH1 0x40 MLOAD DUP1 SWAP2 SUB SWAP1 LOG3 POP POP JUMP JUMPDEST PUSH0 DUP1 PUSH0 SWAP1 SLOAD SWAP1 PUSH2 0x100 EXP SWAP1 DIV PUSH20 0xFFFFFFFFFFFFFFFFFFFFFFFFFFFFFFFFFFFFFFFF AND SWAP1 POP SWAP1 JUMP JUMPDEST PUSH1 0x3 SLOAD DUP2 JUMP JUMPDEST PUSH2 0x3A0 PUSH2 0x53A JUMP JUMPDEST PUSH1 0x3 SLOAD CALLVALUE EQ PUSH2 0x3E4 JUMPI PUSH1 0x40 MLOAD PUSH32 0x8C379A000000000000000000000000000000000000000000000000000000000 DUP2 MSTORE PUSH1 0x4 ADD PUSH2 0x3DB SWAP1 PUSH2 0xB8E JUMP JUMPDEST PUSH1 0x40 MLOAD DUP1 SWAP2 SUB SWAP1 REVERT JUMPDEST PUSH32 0xC5D2460186F7233C927E7DB2DCC703C0E500B653CA82273B7BFAD8045D85A470 DUP2 PUSH1 0x40 MLOAD PUSH1 0x20 ADD PUSH2 0x416 SWAP2 SWAP1 PUSH2 0xBE6 JUMP JUMPDEST PUSH1 0x40 MLOAD PUSH1 0x20 DUP2 DUP4 SUB SUB DUP2 MSTORE SWAP1 PUSH1 0x40 MSTORE DUP1 MLOAD SWAP1 PUSH1 0x20 ADD KECCAK256 EQ PUSH2 0x444 JUMPI DUP1 PUSH1 0x1 PUSH0 ADD SWAP1 DUP2 PUSH2 0x442 SWAP2 SWAP1 PUSH2 0xD99 JUMP JUMPDEST POP JUMPDEST PUSH0 PUSH2 0x44D PUSH2 0x36B JUMP JUMPDEST SWAP1 POP PUSH2 0x458 CALLER PUSH2 0x4B6 JUMP JUMPDEST CALLER PUSH20 0xFFFFFFFFFFFFFFFFFFFFFFFFFFFFFFFFFFFFFFFF AND DUP2 PUSH20 0xFFFFFFFFFFFFFFFFFFFFFFFFFFFFFFFFFFFFFFFF AND PUSH32 0xC26EBE5B6F78DFB9113D7B983BF073E2FB6DFAB1FB744B0FEB73E04FB2BCC077 PUSH1 0x40 MLOAD PUSH1 0x40 MLOAD DUP1 SWAP2 SUB SWAP1 LOG3 POP POP JUMP JUMPDEST PUSH2 0x4BE PUSH2 0x53A JUMP JUMPDEST PUSH0 PUSH20 0xFFFFFFFFFFFFFFFFFFFFFFFFFFFFFFFFFFFFFFFF AND DUP2 PUSH20 0xFFFFFFFFFFFFFFFFFFFFFFFFFFFFFFFFFFFFFFFF AND SUB PUSH2 0x52E JUMPI PUSH0 PUSH1 0x40 MLOAD PUSH32 0x1E4FBDF700000000000000000000000000000000000000000000000000000000 DUP2 MSTORE PUSH1 0x4 ADD PUSH2 0x525 SWAP2 SWAP1 PUSH2 0x80F JUMP JUMPDEST PUSH1 0x40 MLOAD DUP1 SWAP2 SUB SWAP1 REVERT JUMPDEST PUSH2 0x537 DUP2 PUSH2 0x5C1 JUMP JUMPDEST POP JUMP JUMPDEST PUSH2 0x542 PUSH2 0x682 JUMP JUMPDEST PUSH20 0xFFFFFFFFFFFFFFFFFFFFFFFFFFFFFFFFFFFFFFFF AND PUSH2 0x560 PUSH2 0x36B JUMP JUMPDEST PUSH20 0xFFFFFFFFFFFFFFFFFFFFFFFFFFFFFFFFFFFFFFFF AND EQ PUSH2 0x5BF JUMPI PUSH2 0x583 PUSH2 0x682 JUMP JUMPDEST PUSH1 0x40 MLOAD PUSH32 0x118CDAA700000000000000000000000000000000000000000000000000000000 DUP2 MSTORE PUSH1 0x4 ADD PUSH2 0x5B6 SWAP2 SWAP1 PUSH2 0x80F JUMP JUMPDEST PUSH1 0x40 MLOAD DUP1 SWAP2 SUB SWAP1 REVERT JUMPDEST JUMP JUMPDEST PUSH0 DUP1 PUSH0 SWAP1 SLOAD SWAP1 PUSH2 0x100 EXP SWAP1 DIV PUSH20 0xFFFFFFFFFFFFFFFFFFFFFFFFFFFFFFFFFFFFFFFF AND SWAP1 POP DUP2 PUSH0 DUP1 PUSH2 0x100 EXP DUP2 SLOAD DUP2 PUSH20 0xFFFFFFFFFFFFFFFFFFFFFFFFFFFFFFFFFFFFFFFF MUL NOT AND SWAP1 DUP4 PUSH20 0xFFFFFFFFFFFFFFFFFFFFFFFFFFFFFFFFFFFFFFFF AND MUL OR SWAP1 SSTORE POP DUP2 PUSH20 0xFFFFFFFFFFFFFFFFFFFFFFFFFFFFFFFFFFFFFFFF AND DUP2 PUSH20 0xFFFFFFFFFFFFFFFFFFFFFFFFFFFFFFFFFFFFFFFF AND PUSH32 0x8BE0079C531659141344CD1FD0A4F28419497F9722A3DAAFE3B4186F6B6457E0 PUSH1 0x40 MLOAD PUSH1 0x40 MLOAD DUP1 SWAP2 SUB SWAP1 LOG3 POP POP JUMP JUMPDEST PUSH0 CALLER SWAP1 POP SWAP1 JUMP JUMPDEST PUSH0 DUP2 MLOAD SWAP1 POP SWAP2 SWAP1 POP JUMP JUMPDEST PUSH0 DUP3 DUP3 MSTORE PUSH1 0x20 DUP3 ADD SWAP1 POP SWAP3 SWAP2 POP POP JUMP JUMPDEST DUP3 DUP2 DUP4 MCOPY PUSH0 DUP4 DUP4 ADD MSTORE POP POP POP JUMP JUMPDEST PUSH0 PUSH1 0x1F NOT PUSH1 0x1F DUP4 ADD AND SWAP1 POP SWAP2 SWAP1 POP JUMP JUMPDEST PUSH0 PUSH2 0x6CB DUP3 PUSH2 0x689 JUMP JUMPDEST PUSH2 0x6D5 DUP2 DUP6 PUSH2 0x693 JUMP JUMPDEST SWAP4 POP PUSH2 0x6E5 DUP2 DUP6 PUSH1 0x20 DUP7 ADD PUSH2 0x6A3 JUMP JUMPDEST PUSH2 0x6EE DUP2 PUSH2 0x6B1 JUMP JUMPDEST DUP5 ADD SWAP2 POP POP SWAP3 SWAP2 POP POP JUMP JUMPDEST PUSH0 PUSH32 0xFFFFFFFFFFFFFFFFFFFFFFFFFFFFFFFF00000000000000000000000000000000 DUP3 AND SWAP1 POP SWAP2 SWAP1 POP JUMP JUMPDEST PUSH2 0x72D DUP2 PUSH2 0x6F9 JUMP JUMPDEST DUP3 MSTORE POP POP JUMP JUMPDEST PUSH0 PUSH1 0x40 DUP3 ADD SWAP1 POP DUP2 DUP2 SUB PUSH0 DUP4 ADD MSTORE PUSH2 0x74B DUP2 DUP6 PUSH2 0x6C1 JUMP JUMPDEST SWAP1 POP PUSH2 0x75A PUSH1 0x20 DUP4 ADD DUP5 PUSH2 0x724 JUMP JUMPDEST SWAP4 SWAP3 POP POP POP JUMP JUMPDEST PUSH0 PUSH1 0x40 MLOAD SWAP1 POP SWAP1 JUMP JUMPDEST PUSH0 DUP1 REVERT JUMPDEST PUSH0 DUP1 REVERT JUMPDEST PUSH0 DUP2 SWAP1 POP SWAP2 SWAP1 POP JUMP JUMPDEST PUSH2 0x784 DUP2 PUSH2 0x772 JUMP JUMPDEST DUP2 EQ PUSH2 0x78E JUMPI PUSH0 DUP1 REVERT JUMPDEST POP JUMP JUMPDEST PUSH0 DUP2 CALLDATALOAD SWAP1 POP PUSH2 0x79F DUP2 PUSH2 0x77B JUMP JUMPDEST SWAP3 SWAP2 POP POP JUMP JUMPDEST PUSH0 PUSH1 0x20 DUP3 DUP5 SUB SLT ISZERO PUSH2 0x7BA JUMPI PUSH2 0x7B9 PUSH2 0x76A JUMP JUMPDEST JUMPDEST PUSH0 PUSH2 0x7C7 DUP5 DUP3 DUP6 ADD PUSH2 0x791 JUMP JUMPDEST SWAP2 POP POP SWAP3 SWAP2 POP POP JUMP JUMPDEST PUSH0 PUSH20 0xFFFFFFFFFFFFFFFFFFFFFFFFFFFFFFFFFFFFFFFF DUP3 AND SWAP1 POP SWAP2 SWAP1 POP JUMP JUMPDEST PUSH0 PUSH2 0x7F9 DUP3 PUSH2 0x7D0 JUMP JUMPDEST SWAP1 POP SWAP2 SWAP1 POP JUMP JUMPDEST PUSH2 0x809 DUP2 PUSH2 0x7EF JUMP JUMPDEST DUP3 MSTORE POP POP JUMP JUMPDEST PUSH0 PUSH1 0x20 DUP3 ADD SWAP1 POP PUSH2 0x822 PUSH0 DUP4 ADD DUP5 PUSH2 0x800 JUMP JUMPDEST SWAP3 SWAP2 POP POP JUMP JUMPDEST PUSH2 0x831 DUP2 PUSH2 0x772 JUMP JUMPDEST DUP3 MSTORE POP POP JUMP JUMPDEST PUSH0 PUSH1 0x20 DUP3 ADD SWAP1 POP PUSH2 0x84A PUSH0 DUP4 ADD DUP5 PUSH2 0x828 JUMP JUMPDEST SWAP3 SWAP2 POP POP JUMP JUMPDEST PUSH0 DUP1 REVERT JUMPDEST PUSH0 DUP1 REVERT JUMPDEST PUSH32 0x4E487B7100000000000000000000000000000000000000000000000000000000 PUSH0 MSTORE PUSH1 0x41 PUSH1 0x4 MSTORE PUSH1 0x24 PUSH0 REVERT JUMPDEST PUSH2 0x88E DUP3 PUSH2 0x6B1 JUMP JUMPDEST DUP2 ADD DUP2 DUP2 LT PUSH8 0xFFFFFFFFFFFFFFFF DUP3 GT OR ISZERO PUSH2 0x8AD JUMPI PUSH2 0x8AC PUSH2 0x858 JUMP JUMPDEST JUMPDEST DUP1 PUSH1 0x40 MSTORE POP POP POP JUMP JUMPDEST PUSH0 PUSH2 0x8BF PUSH2 0x761 JUMP JUMPDEST SWAP1 POP PUSH2 0x8CB DUP3 DUP3 PUSH2 0x885 JUMP JUMPDEST SWAP2 SWAP1 POP JUMP JUMPDEST PUSH0 PUSH8 0xFFFFFFFFFFFFFFFF DUP3 GT ISZERO PUSH2 0x8EA JUMPI PUSH2 0x8E9 PUSH2 0x858 JUMP JUMPDEST JUMPDEST PUSH2 0x8F3 DUP3 PUSH2 0x6B1 JUMP JUMPDEST SWAP1 POP PUSH1 0x20 DUP2 ADD SWAP1 POP SWAP2 SWAP1 POP JUMP JUMPDEST DUP3 DUP2 DUP4 CALLDATACOPY PUSH0 DUP4 DUP4 ADD MSTORE POP POP POP JUMP JUMPDEST PUSH0 PUSH2 0x920 PUSH2 0x91B DUP5 PUSH2 0x8D0 JUMP JUMPDEST PUSH2 0x8B6 JUMP JUMPDEST SWAP1 POP DUP3 DUP2 MSTORE PUSH1 0x20 DUP2 ADD DUP5 DUP5 DUP5 ADD GT ISZERO PUSH2 0x93C JUMPI PUSH2 0x93B PUSH2 0x854 JUMP JUMPDEST JUMPDEST PUSH2 0x947 DUP5 DUP3 DUP6 PUSH2 0x900 JUMP JUMPDEST POP SWAP4 SWAP3 POP POP POP JUMP JUMPDEST PUSH0 DUP3 PUSH1 0x1F DUP4 ADD SLT PUSH2 0x963 JUMPI PUSH2 0x962 PUSH2 0x850 JUMP JUMPDEST JUMPDEST DUP2 CALLDATALOAD PUSH2 0x973 DUP5 DUP3 PUSH1 0x20 DUP7 ADD PUSH2 0x90E JUMP JUMPDEST SWAP2 POP POP SWAP3 SWAP2 POP POP JUMP JUMPDEST PUSH0 PUSH1 0x20 DUP3 DUP5 SUB SLT ISZERO PUSH2 0x991 JUMPI PUSH2 0x990 PUSH2 0x76A JUMP JUMPDEST JUMPDEST PUSH0 DUP3 ADD CALLDATALOAD PUSH8 0xFFFFFFFFFFFFFFFF DUP2 GT ISZERO PUSH2 0x9AE JUMPI PUSH2 0x9AD PUSH2 0x76E JUMP JUMPDEST JUMPDEST PUSH2 0x9BA DUP5 DUP3 DUP6 ADD PUSH2 0x94F JUMP JUMPDEST SWAP2 POP POP SWAP3 SWAP2 POP POP JUMP JUMPDEST PUSH2 0x9CC DUP2 PUSH2 0x7EF JUMP JUMPDEST DUP2 EQ PUSH2 0x9D6 JUMPI PUSH0 DUP1 REVERT JUMPDEST POP JUMP JUMPDEST PUSH0 DUP2 CALLDATALOAD SWAP1 POP PUSH2 0x9E7 DUP2 PUSH2 0x9C3 JUMP JUMPDEST SWAP3 SWAP2 POP POP JUMP JUMPDEST PUSH0 PUSH1 0x20 DUP3 DUP5 SUB SLT ISZERO PUSH2 0xA02 JUMPI PUSH2 0xA01 PUSH2 0x76A JUMP JUMPDEST JUMPDEST PUSH0 PUSH2 0xA0F DUP5 DUP3 DUP6 ADD PUSH2 0x9D9 JUMP JUMPDEST SWAP2 POP POP SWAP3 SWAP2 POP POP JUMP JUMPDEST PUSH0 DUP2 SWAP1 POP SWAP3 SWAP2 POP POP JUMP JUMPDEST POP JUMP JUMPDEST PUSH0 PUSH2 0xA30 PUSH0 DUP4 PUSH2 0xA18 JUMP JUMPDEST SWAP2 POP PUSH2 0xA3B DUP3 PUSH2 0xA22 JUMP JUMPDEST PUSH0 DUP3 ADD SWAP1 POP SWAP2 SWAP1 POP JUMP JUMPDEST PUSH0 PUSH2 0xA4F DUP3 PUSH2 0xA25 JUMP JUMPDEST SWAP2 POP DUP2 SWAP1 POP SWAP2 SWAP1 POP JUMP JUMPDEST PUSH32 0x46756E6473206E6F742077697468647261776E207375636365737366756C6C79 PUSH0 DUP3 ADD MSTORE POP JUMP JUMPDEST PUSH0 PUSH2 0xA8D PUSH1 0x20 DUP4 PUSH2 0x693 JUMP JUMPDEST SWAP2 POP PUSH2 0xA98 DUP3 PUSH2 0xA59 JUMP JUMPDEST PUSH1 0x20 DUP3 ADD SWAP1 POP SWAP2 SWAP1 POP JUMP JUMPDEST PUSH0 PUSH1 0x20 DUP3 ADD SWAP1 POP DUP2 DUP2 SUB PUSH0 DUP4 ADD MSTORE PUSH2 0xABA DUP2 PUSH2 0xA81 JUMP JUMPDEST SWAP1 POP SWAP2 SWAP1 POP JUMP JUMPDEST PUSH32 0x4E487B7100000000000000000000000000000000000000000000000000000000 PUSH0 MSTORE PUSH1 0x22 PUSH1 0x4 MSTORE PUSH1 0x24 PUSH0 REVERT JUMPDEST PUSH0 PUSH1 0x2 DUP3 DIV SWAP1 POP PUSH1 0x1 DUP3 AND DUP1 PUSH2 0xB05 JUMPI PUSH1 0x7F DUP3 AND SWAP2 POP JUMPDEST PUSH1 0x20 DUP3 LT DUP2 SUB PUSH2 0xB18 JUMPI PUSH2 0xB17 PUSH2 0xAC1 JUMP JUMPDEST JUMPDEST POP SWAP2 SWAP1 POP JUMP JUMPDEST PUSH32 0x5472616E73616374696F6E206661696C65642C20656E7375726520796F757220 PUSH0 DUP3 ADD MSTORE PUSH32 0x76616C756520697320657175616C20746F2063757272656E7420707269636500 PUSH1 0x20 DUP3 ADD MSTORE POP JUMP JUMPDEST PUSH0 PUSH2 0xB78 PUSH1 0x3F DUP4 PUSH2 0x693 JUMP JUMPDEST SWAP2 POP PUSH2 0xB83 DUP3 PUSH2 0xB1E JUMP JUMPDEST PUSH1 0x40 DUP3 ADD SWAP1 POP SWAP2 SWAP1 POP JUMP JUMPDEST PUSH0 PUSH1 0x20 DUP3 ADD SWAP1 POP DUP2 DUP2 SUB PUSH0 DUP4 ADD MSTORE PUSH2 0xBA5 DUP2 PUSH2 0xB6C JUMP JUMPDEST SWAP1 POP SWAP2 SWAP1 POP JUMP JUMPDEST PUSH0 DUP2 SWAP1 POP SWAP3 SWAP2 POP POP JUMP JUMPDEST PUSH0 PUSH2 0xBC0 DUP3 PUSH2 0x689 JUMP JUMPDEST PUSH2 0xBCA DUP2 DUP6 PUSH2 0xBAC JUMP JUMPDEST SWAP4 POP PUSH2 0xBDA DUP2 DUP6 PUSH1 0x20 DUP7 ADD PUSH2 0x6A3 JUMP JUMPDEST DUP1 DUP5 ADD SWAP2 POP POP SWAP3 SWAP2 POP POP JUMP JUMPDEST PUSH0 PUSH2 0xBF1 DUP3 DUP5 PUSH2 0xBB6 JUMP JUMPDEST SWAP2 POP DUP2 SWAP1 POP SWAP3 SWAP2 POP POP JUMP JUMPDEST PUSH0 DUP2 SWAP1 POP DUP2 PUSH0 MSTORE PUSH1 0x20 PUSH0 KECCAK256 SWAP1 POP SWAP2 SWAP1 POP JUMP JUMPDEST PUSH0 PUSH1 0x20 PUSH1 0x1F DUP4 ADD DIV SWAP1 POP SWAP2 SWAP1 POP JUMP JUMPDEST PUSH0 DUP3 DUP3 SHL SWAP1 POP SWAP3 SWAP2 POP POP JUMP JUMPDEST PUSH0 PUSH1 0x8 DUP4 MUL PUSH2 0xC58 PUSH32 0xFFFFFFFFFFFFFFFFFFFFFFFFFFFFFFFFFFFFFFFFFFFFFFFFFFFFFFFFFFFFFFFF DUP3 PUSH2 0xC1D JUMP JUMPDEST PUSH2 0xC62 DUP7 DUP4 PUSH2 0xC1D JUMP JUMPDEST SWAP6 POP DUP1 NOT DUP5 AND SWAP4 POP DUP1 DUP7 AND DUP5 OR SWAP3 POP POP POP SWAP4 SWAP3 POP POP POP JUMP JUMPDEST PUSH0 DUP2 SWAP1 POP SWAP2 SWAP1 POP JUMP JUMPDEST PUSH0 PUSH2 0xC9D PUSH2 0xC98 PUSH2 0xC93 DUP5 PUSH2 0x772 JUMP JUMPDEST PUSH2 0xC7A JUMP JUMPDEST PUSH2 0x772 JUMP JUMPDEST SWAP1 POP SWAP2 SWAP1 POP JUMP JUMPDEST PUSH0 DUP2 SWAP1 POP SWAP2 SWAP1 POP JUMP JUMPDEST PUSH2 0xCB6 DUP4 PUSH2 0xC83 JUMP JUMPDEST PUSH2 0xCCA PUSH2 0xCC2 DUP3 PUSH2 0xCA4 JUMP JUMPDEST DUP5 DUP5 SLOAD PUSH2 0xC29 JUMP JUMPDEST DUP3 SSTORE POP POP POP POP JUMP JUMPDEST PUSH0 SWAP1 JUMP JUMPDEST PUSH2 0xCDE PUSH2 0xCD2 JUMP JUMPDEST PUSH2 0xCE9 DUP2 DUP5 DUP5 PUSH2 0xCAD JUMP JUMPDEST POP POP POP JUMP JUMPDEST JUMPDEST DUP2 DUP2 LT ISZERO PUSH2 0xD0C JUMPI PUSH2 0xD01 PUSH0 DUP3 PUSH2 0xCD6 JUMP JUMPDEST PUSH1 0x1 DUP2 ADD SWAP1 POP PUSH2 0xCEF JUMP JUMPDEST POP POP JUMP JUMPDEST PUSH1 0x1F DUP3 GT ISZERO PUSH2 0xD51 JUMPI PUSH2 0xD22 DUP2 PUSH2 0xBFC JUMP JUMPDEST PUSH2 0xD2B DUP5 PUSH2 0xC0E JUMP JUMPDEST DUP2 ADD PUSH1 0x20 DUP6 LT ISZERO PUSH2 0xD3A JUMPI DUP2 SWAP1 POP JUMPDEST PUSH2 0xD4E PUSH2 0xD46 DUP6 PUSH2 0xC0E JUMP JUMPDEST DUP4 ADD DUP3 PUSH2 0xCEE JUMP JUMPDEST POP POP JUMPDEST POP POP POP JUMP JUMPDEST PUSH0 DUP3 DUP3 SHR SWAP1 POP SWAP3 SWAP2 POP POP JUMP JUMPDEST PUSH0 PUSH2 0xD71 PUSH0 NOT DUP5 PUSH1 0x8 MUL PUSH2 0xD56 JUMP JUMPDEST NOT DUP1 DUP4 AND SWAP2 POP POP SWAP3 SWAP2 POP POP JUMP JUMPDEST PUSH0 PUSH2 0xD89 DUP4 DUP4 PUSH2 0xD62 JUMP JUMPDEST SWAP2 POP DUP3 PUSH1 0x2 MUL DUP3 OR SWAP1 POP SWAP3 SWAP2 POP POP JUMP JUMPDEST PUSH2 0xDA2 DUP3 PUSH2 0x689 JUMP JUMPDEST PUSH8 0xFFFFFFFFFFFFFFFF DUP2 GT ISZERO PUSH2 0xDBB JUMPI PUSH2 0xDBA PUSH2 0x858 JUMP JUMPDEST JUMPDEST PUSH2 0xDC5 DUP3 SLOAD PUSH2 0xAEE JUMP JUMPDEST PUSH2 0xDD0 DUP3 DUP3 DUP6 PUSH2 0xD10 JUMP JUMPDEST PUSH0 PUSH1 0x20 SWAP1 POP PUSH1 0x1F DUP4 GT PUSH1 0x1 DUP2 EQ PUSH2 0xE01 JUMPI PUSH0 DUP5 ISZERO PUSH2 0xDEF JUMPI DUP3 DUP8 ADD MLOAD SWAP1 POP JUMPDEST PUSH2 0xDF9 DUP6 DUP3 PUSH2 0xD7E JUMP JUMPDEST DUP7 SSTORE POP PUSH2 0xE60 JUMP JUMPDEST PUSH1 0x1F NOT DUP5 AND PUSH2 0xE0F DUP7 PUSH2 0xBFC JUMP JUMPDEST PUSH0 JUMPDEST DUP3 DUP2 LT ISZERO PUSH2 0xE36 JUMPI DUP5 DUP10 ADD MLOAD DUP3 SSTORE PUSH1 0x1 DUP3 ADD SWAP2 POP PUSH1 0x20 DUP6 ADD SWAP5 POP PUSH1 0x20 DUP2 ADD SWAP1 POP PUSH2 0xE11 JUMP JUMPDEST DUP7 DUP4 LT ISZERO PUSH2 0xE53 JUMPI DUP5 DUP10 ADD MLOAD PUSH2 0xE4F PUSH1 0x1F DUP10 AND DUP3 PUSH2 0xD62 JUMP JUMPDEST DUP4 SSTORE POP JUMPDEST PUSH1 0x1 PUSH1 0x2 DUP9 MUL ADD DUP9 SSTORE POP POP POP JUMPDEST POP POP POP POP POP POP JUMP INVALID LOG2 PUSH5 0x6970667358 0x22 SLT KECCAK256 BLOBBASEFEE PUSH26 0xE63AA5D27FEBD45ED3BB5167C336B523D428727D3D0ADB1A0C41 PC PUSH8 0x496564736F6C6343 STOP ADDMOD NOT STOP CALLER "
				},
				"gasEstimates": {
					"creation": {
						"codeDepositCost": "748400",
						"executionCost": "infinite",
						"totalCost": "infinite"
					},
					"external": {
						"NFTPrice()": "2447",
						"ownedNFT()": "infinite",
						"owner()": "2515",
						"renounceOwnership()": "infinite",
						"sellNFT(string)": "infinite",
						"transferOwnership(address)": "infinite",
						"updatePrice(uint256)": "infinite",
						"withdrawFunds()": "infinite"
					}
				},
				"methodIdentifiers": {
					"NFTPrice()": "a38bffda",
					"ownedNFT()": "69769a27",
					"owner()": "8da5cb5b",
					"renounceOwnership()": "715018a6",
					"sellNFT(string)": "cc28cd3b",
					"transferOwnership(address)": "f2fde38b",
					"updatePrice(uint256)": "8d6cc56d",
					"withdrawFunds()": "24600fc3"
				}
			},
			"storageLayout": {
				"storage": [
					{
						"astId": 8,
						"contract": "contracts/NFT.sol:NFTContract",
						"label": "_owner",
						"offset": 0,
						"slot": "0",
						"type": "t_address"
					},
					{
						"astId": 217,
						"contract": "contracts/NFT.sol:NFTContract",
						"label": "ownedNFT",
						"offset": 0,
						"slot": "1",
						"type": "t_struct(NFT)358_storage"
					},
					{
						"astId": 219,
						"contract": "contracts/NFT.sol:NFTContract",
						"label": "NFTPrice",
						"offset": 0,
						"slot": "3",
						"type": "t_uint256"
					},
					{
						"astId": 221,
						"contract": "contracts/NFT.sol:NFTContract",
						"label": "currentOwner",
						"offset": 0,
						"slot": "4",
						"type": "t_address_payable"
					}
				],
				"types": {
					"t_address": {
						"encoding": "inplace",
						"label": "address",
						"numberOfBytes": "20"
					},
					"t_address_payable": {
						"encoding": "inplace",
						"label": "address payable",
						"numberOfBytes": "20"
					},
					"t_bytes16": {
						"encoding": "inplace",
						"label": "bytes16",
						"numberOfBytes": "16"
					},
					"t_string_storage": {
						"encoding": "bytes",
						"label": "string",
						"numberOfBytes": "32"
					},
					"t_struct(NFT)358_storage": {
						"encoding": "inplace",
						"label": "struct NFT",
						"members": [
							{
								"astId": 355,
								"contract": "contracts/NFT.sol:NFTContract",
								"label": "name",
								"offset": 0,
								"slot": "0",
								"type": "t_string_storage"
							},
							{
								"astId": 357,
								"contract": "contracts/NFT.sol:NFTContract",
								"label": "dna",
								"offset": 0,
								"slot": "1",
								"type": "t_bytes16"
							}
						],
						"numberOfBytes": "64"
					},
					"t_uint256": {
						"encoding": "inplace",
						"label": "uint256",
						"numberOfBytes": "32"
					}
				}
			},
			"userdoc": {
				"kind": "user",
				"methods": {},
				"version": 1
			}
		}
	}
}