{
	"contracts/myCalc.sol": {
		"Calculator": {
			"abi": [
				{
					"inputs": [
						{
							"internalType": "uint256[]",
							"name": "_values",
							"type": "uint256[]"
						}
					],
					"name": "add",
					"outputs": [],
					"stateMutability": "nonpayable",
					"type": "function"
				},
				{
					"inputs": [
						{
							"internalType": "uint256[]",
							"name": "_values",
							"type": "uint256[]"
						}
					],
					"name": "divide",
					"outputs": [],
					"stateMutability": "nonpayable",
					"type": "function"
				},
				{
					"inputs": [
						{
							"internalType": "uint256[]",
							"name": "_values",
							"type": "uint256[]"
						}
					],
					"name": "multiply",
					"outputs": [],
					"stateMutability": "nonpayable",
					"type": "function"
				},
				{
					"inputs": [],
					"name": "result",
					"outputs": [
						{
							"internalType": "uint256",
							"name": "",
							"type": "uint256"
						}
					],
					"stateMutability": "view",
					"type": "function"
				},
				{
					"inputs": [
						{
							"internalType": "uint256[]",
							"name": "_values",
							"type": "uint256[]"
						}
					],
					"name": "stats",
					"outputs": [
						{
							"components": [
								{
									"internalType": "uint256",
									"name": "mean",
									"type": "uint256"
								},
								{
									"internalType": "uint256",
									"name": "mode",
									"type": "uint256"
								},
								{
									"internalType": "uint256",
									"name": "totalItems",
									"type": "uint256"
								}
							],
							"internalType": "struct Calculator.ArrayData",
							"name": "",
							"type": "tuple"
						}
					],
					"stateMutability": "nonpayable",
					"type": "function"
				},
				{
					"inputs": [],
					"name": "statsAnswer",
					"outputs": [
						{
							"internalType": "uint256",
							"name": "mean",
							"type": "uint256"
						},
						{
							"internalType": "uint256",
							"name": "mode",
							"type": "uint256"
						},
						{
							"internalType": "uint256",
							"name": "totalItems",
							"type": "uint256"
						}
					],
					"stateMutability": "view",
					"type": "function"
				},
				{
					"inputs": [
						{
							"internalType": "uint256[]",
							"name": "_values",
							"type": "uint256[]"
						}
					],
					"name": "subtract",
					"outputs": [],
					"stateMutability": "nonpayable",
					"type": "function"
				}
			],
			"devdoc": {
				"kind": "dev",
				"methods": {},
				"version": 1
			},
			"evm": {
				"assembly": "    /* \"contracts/myCalc.sol\":209:4348  contract Calculator{... */\n  mstore(0x40, 0x80)\n    /* \"contracts/myCalc.sol\":667:668  0 */\n  0x00\n    /* \"contracts/myCalc.sol\":646:668  uint public result = 0 */\n  dup1\n  sstore\n    /* \"contracts/myCalc.sol\":706:724  ArrayData(0, 0, 0) */\n  mload(0x40)\n  dup1\n  0x60\n  add\n  0x40\n  mstore\n  dup1\n    /* \"contracts/myCalc.sol\":716:717  0 */\n  0x00\n    /* \"contracts/myCalc.sol\":706:724  ArrayData(0, 0, 0) */\n  dup2\n  mstore\n  0x20\n  add\n    /* \"contracts/myCalc.sol\":719:720  0 */\n  0x00\n    /* \"contracts/myCalc.sol\":706:724  ArrayData(0, 0, 0) */\n  dup2\n  mstore\n  0x20\n  add\n    /* \"contracts/myCalc.sol\":722:723  0 */\n  0x00\n    /* \"contracts/myCalc.sol\":706:724  ArrayData(0, 0, 0) */\n  dup2\n  mstore\n  pop\n    /* \"contracts/myCalc.sol\":675:724  ArrayData public statsAnswer = ArrayData(0, 0, 0) */\n  0x01\n  0x00\n  dup3\n  add\n  mload\n  dup2\n  0x00\n  add\n  sstore\n  0x20\n  dup3\n  add\n  mload\n  dup2\n  0x01\n  add\n  sstore\n  0x40\n  dup3\n  add\n  mload\n  dup2\n  0x02\n  add\n  sstore\n  pop\n  pop\n    /* \"contracts/myCalc.sol\":209:4348  contract Calculator{... */\n  callvalue\n  dup1\n  iszero\n  tag_1\n  jumpi\n  0x00\n  dup1\n  revert\ntag_1:\n  pop\n  dataSize(sub_0)\n  dup1\n  dataOffset(sub_0)\n  0x00\n  codecopy\n  0x00\n  return\nstop\n\nsub_0: assembly {\n        /* \"contracts/myCalc.sol\":209:4348  contract Calculator{... */\n      mstore(0x40, 0x80)\n      callvalue\n      dup1\n      iszero\n      tag_1\n      jumpi\n      0x00\n      dup1\n      revert\n    tag_1:\n      pop\n      jumpi(tag_2, lt(calldatasize, 0x04))\n      shr(0xe0, calldataload(0x00))\n      dup1\n      0x43e37638\n      gt\n      tag_10\n      jumpi\n      dup1\n      0x43e37638\n      eq\n      tag_6\n      jumpi\n      dup1\n      0x65372147\n      eq\n      tag_7\n      jumpi\n      dup1\n      0xaa04375c\n      eq\n      tag_8\n      jumpi\n      dup1\n      0xbdb35499\n      eq\n      tag_9\n      jumpi\n      jump(tag_2)\n    tag_10:\n      dup1\n      0x10b0b5d5\n      eq\n      tag_3\n      jumpi\n      dup1\n      0x239de9f4\n      eq\n      tag_4\n      jumpi\n      dup1\n      0x42577da2\n      eq\n      tag_5\n      jumpi\n    tag_2:\n      0x00\n      dup1\n      revert\n        /* \"contracts/myCalc.sol\":1614:1830  function add(uint[] calldata _values) external{... */\n    tag_3:\n      tag_11\n      0x04\n      dup1\n      calldatasize\n      sub\n      dup2\n      add\n      swap1\n      tag_12\n      swap2\n      swap1\n      tag_13\n      jump\t// in\n    tag_12:\n      tag_14\n      jump\t// in\n    tag_11:\n      stop\n        /* \"contracts/myCalc.sol\":2150:2406  function multiply(uint[] calldata _values) external{... */\n    tag_4:\n      tag_15\n      0x04\n      dup1\n      calldatasize\n      sub\n      dup2\n      add\n      swap1\n      tag_16\n      swap2\n      swap1\n      tag_13\n      jump\t// in\n    tag_16:\n      tag_17\n      jump\t// in\n    tag_15:\n      stop\n        /* \"contracts/myCalc.sol\":675:724  ArrayData public statsAnswer = ArrayData(0, 0, 0) */\n    tag_5:\n      tag_18\n      tag_19\n      jump\t// in\n    tag_18:\n      mload(0x40)\n      tag_20\n      swap4\n      swap3\n      swap2\n      swap1\n      tag_21\n      jump\t// in\n    tag_20:\n      mload(0x40)\n      dup1\n      swap2\n      sub\n      swap1\n      return\n        /* \"contracts/myCalc.sol\":2451:2669  function divide(uint[] calldata _values) external{... */\n    tag_6:\n      tag_22\n      0x04\n      dup1\n      calldatasize\n      sub\n      dup2\n      add\n      swap1\n      tag_23\n      swap2\n      swap1\n      tag_13\n      jump\t// in\n    tag_23:\n      tag_24\n      jump\t// in\n    tag_22:\n      stop\n        /* \"contracts/myCalc.sol\":646:668  uint public result = 0 */\n    tag_7:\n      tag_25\n      tag_26\n      jump\t// in\n    tag_25:\n      mload(0x40)\n      tag_27\n      swap2\n      swap1\n      tag_28\n      jump\t// in\n    tag_27:\n      mload(0x40)\n      dup1\n      swap2\n      sub\n      swap1\n      return\n        /* \"contracts/myCalc.sol\":2735:4345  function stats(uint[] calldata _values) external returns(ArrayData memory){... */\n    tag_8:\n      tag_29\n      0x04\n      dup1\n      calldatasize\n      sub\n      dup2\n      add\n      swap1\n      tag_30\n      swap2\n      swap1\n      tag_13\n      jump\t// in\n    tag_30:\n      tag_31\n      jump\t// in\n    tag_29:\n      mload(0x40)\n      tag_32\n      swap2\n      swap1\n      tag_33\n      jump\t// in\n    tag_32:\n      mload(0x40)\n      dup1\n      swap2\n      sub\n      swap1\n      return\n        /* \"contracts/myCalc.sol\":1877:2103  function subtract(uint[] calldata _values) external{... */\n    tag_9:\n      tag_34\n      0x04\n      dup1\n      calldatasize\n      sub\n      dup2\n      add\n      swap1\n      tag_35\n      swap2\n      swap1\n      tag_13\n      jump\t// in\n    tag_35:\n      tag_36\n      jump\t// in\n    tag_34:\n      stop\n        /* \"contracts/myCalc.sol\":1614:1830  function add(uint[] calldata _values) external{... */\n    tag_14:\n        /* \"contracts/myCalc.sol\":1745:1746  0 */\n      0x00\n        /* \"contracts/myCalc.sol\":1727:1734  _values */\n      dup3\n      dup3\n        /* \"contracts/myCalc.sol\":1727:1741  _values.length */\n      swap1\n      pop\n        /* \"contracts/myCalc.sol\":1727:1746  _values.length == 0 */\n      sub\n        /* \"contracts/myCalc.sol\":1724:1781  if(_values.length == 0){... */\n      iszero\n        /* \"contracts/myCalc.sol\":1762:1769  return; */\n      tag_37\n        /* \"contracts/myCalc.sol\":1724:1781  if(_values.length == 0){... */\n      jumpi\n        /* \"contracts/myCalc.sol\":1802:1822  _values.reduce(_add) */\n      tag_39\n        /* \"contracts/myCalc.sol\":1817:1821  _add */\n      tag_40\n        /* \"contracts/myCalc.sol\":1802:1809  _values */\n      dup4\n      dup4\n        /* \"contracts/myCalc.sol\":1802:1816  _values.reduce */\n      dup1\n      dup1\n      0x20\n      mul\n      0x20\n      add\n      mload(0x40)\n      swap1\n      dup2\n      add\n      0x40\n      mstore\n      dup1\n      swap4\n      swap3\n      swap2\n      swap1\n      dup2\n      dup2\n      mstore\n      0x20\n      add\n      dup4\n      dup4\n      0x20\n      mul\n      dup1\n      dup3\n      dup5\n      calldatacopy\n      0x00\n      dup2\n      dup5\n      add\n      mstore\n      not(0x1f)\n      0x1f\n      dup3\n      add\n      and\n      swap1\n      pop\n      dup1\n      dup4\n      add\n      swap3\n      pop\n      pop\n      pop\n      pop\n      pop\n      pop\n      pop\n      tag_41\n      swap1\n        /* \"contracts/myCalc.sol\":1802:1822  _values.reduce(_add) */\n      swap2\n      swap1\n      0xffffffff\n      and\n      jump\t// in\n    tag_39:\n        /* \"contracts/myCalc.sol\":1793:1799  result */\n      0x00\n        /* \"contracts/myCalc.sol\":1793:1822  result = _values.reduce(_add) */\n      dup2\n      swap1\n      sstore\n      pop\n        /* \"contracts/myCalc.sol\":1614:1830  function add(uint[] calldata _values) external{... */\n    tag_37:\n      pop\n      pop\n      jump\t// out\n        /* \"contracts/myCalc.sol\":2150:2406  function multiply(uint[] calldata _values) external{... */\n    tag_17:\n        /* \"contracts/myCalc.sol\":2291:2292  0 */\n      0x00\n        /* \"contracts/myCalc.sol\":2273:2280  _values */\n      dup3\n      dup3\n        /* \"contracts/myCalc.sol\":2273:2287  _values.length */\n      swap1\n      pop\n        /* \"contracts/myCalc.sol\":2273:2292  _values.length == 0 */\n      sub\n        /* \"contracts/myCalc.sol\":2270:2352  if(_values.length == 0){... */\n      tag_43\n      jumpi\n        /* \"contracts/myCalc.sol\":2317:2318  0 */\n      0x00\n        /* \"contracts/myCalc.sol\":2308:2314  result */\n      dup1\n        /* \"contracts/myCalc.sol\":2308:2318  result = 0 */\n      dup2\n      swap1\n      sstore\n      pop\n        /* \"contracts/myCalc.sol\":2333:2340  return; */\n      jump(tag_42)\n        /* \"contracts/myCalc.sol\":2270:2352  if(_values.length == 0){... */\n    tag_43:\n        /* \"contracts/myCalc.sol\":2373:2398  _values.reduce(_multiply) */\n      tag_44\n        /* \"contracts/myCalc.sol\":2388:2397  _multiply */\n      tag_45\n        /* \"contracts/myCalc.sol\":2373:2380  _values */\n      dup4\n      dup4\n        /* \"contracts/myCalc.sol\":2373:2387  _values.reduce */\n      dup1\n      dup1\n      0x20\n      mul\n      0x20\n      add\n      mload(0x40)\n      swap1\n      dup2\n      add\n      0x40\n      mstore\n      dup1\n      swap4\n      swap3\n      swap2\n      swap1\n      dup2\n      dup2\n      mstore\n      0x20\n      add\n      dup4\n      dup4\n      0x20\n      mul\n      dup1\n      dup3\n      dup5\n      calldatacopy\n      0x00\n      dup2\n      dup5\n      add\n      mstore\n      not(0x1f)\n      0x1f\n      dup3\n      add\n      and\n      swap1\n      pop\n      dup1\n      dup4\n      add\n      swap3\n      pop\n      pop\n      pop\n      pop\n      pop\n      pop\n      pop\n      tag_41\n      swap1\n        /* \"contracts/myCalc.sol\":2373:2398  _values.reduce(_multiply) */\n      swap2\n      swap1\n      0xffffffff\n      and\n      jump\t// in\n    tag_44:\n        /* \"contracts/myCalc.sol\":2364:2370  result */\n      0x00\n        /* \"contracts/myCalc.sol\":2364:2398  result = _values.reduce(_multiply) */\n      dup2\n      swap1\n      sstore\n      pop\n        /* \"contracts/myCalc.sol\":2150:2406  function multiply(uint[] calldata _values) external{... */\n    tag_42:\n      pop\n      pop\n      jump\t// out\n        /* \"contracts/myCalc.sol\":675:724  ArrayData public statsAnswer = ArrayData(0, 0, 0) */\n    tag_19:\n      0x01\n      dup1\n      0x00\n      add\n      sload\n      swap1\n      dup1\n      0x01\n      add\n      sload\n      swap1\n      dup1\n      0x02\n      add\n      sload\n      swap1\n      pop\n      dup4\n      jump\t// out\n        /* \"contracts/myCalc.sol\":2451:2669  function divide(uint[] calldata _values) external{... */\n    tag_24:\n        /* \"contracts/myCalc.sol\":2587:2588  0 */\n      0x00\n        /* \"contracts/myCalc.sol\":2569:2576  _values */\n      dup3\n      dup3\n        /* \"contracts/myCalc.sol\":2569:2583  _values.length */\n      swap1\n      pop\n        /* \"contracts/myCalc.sol\":2569:2588  _values.length != 0 */\n      sub\n        /* \"contracts/myCalc.sol\":2561:2618  require(_values.length != 0, \"You cannot divide by zero\") */\n      tag_47\n      jumpi\n      mload(0x40)\n      0x08c379a000000000000000000000000000000000000000000000000000000000\n      dup2\n      mstore\n      0x04\n      add\n      tag_48\n      swap1\n      tag_49\n      jump\t// in\n    tag_48:\n      mload(0x40)\n      dup1\n      swap2\n      sub\n      swap1\n      revert\n    tag_47:\n        /* \"contracts/myCalc.sol\":2638:2661  _values.reduce(_divide) */\n      tag_50\n        /* \"contracts/myCalc.sol\":2653:2660  _divide */\n      tag_51\n        /* \"contracts/myCalc.sol\":2638:2645  _values */\n      dup4\n      dup4\n        /* \"contracts/myCalc.sol\":2638:2652  _values.reduce */\n      dup1\n      dup1\n      0x20\n      mul\n      0x20\n      add\n      mload(0x40)\n      swap1\n      dup2\n      add\n      0x40\n      mstore\n      dup1\n      swap4\n      swap3\n      swap2\n      swap1\n      dup2\n      dup2\n      mstore\n      0x20\n      add\n      dup4\n      dup4\n      0x20\n      mul\n      dup1\n      dup3\n      dup5\n      calldatacopy\n      0x00\n      dup2\n      dup5\n      add\n      mstore\n      not(0x1f)\n      0x1f\n      dup3\n      add\n      and\n      swap1\n      pop\n      dup1\n      dup4\n      add\n      swap3\n      pop\n      pop\n      pop\n      pop\n      pop\n      pop\n      pop\n      tag_41\n      swap1\n        /* \"contracts/myCalc.sol\":2638:2661  _values.reduce(_divide) */\n      swap2\n      swap1\n      0xffffffff\n      and\n      jump\t// in\n    tag_50:\n        /* \"contracts/myCalc.sol\":2629:2635  result */\n      0x00\n        /* \"contracts/myCalc.sol\":2629:2661  result = _values.reduce(_divide) */\n      dup2\n      swap1\n      sstore\n      pop\n        /* \"contracts/myCalc.sol\":2451:2669  function divide(uint[] calldata _values) external{... */\n      pop\n      pop\n      jump\t// out\n        /* \"contracts/myCalc.sol\":646:668  uint public result = 0 */\n    tag_26:\n      sload(0x00)\n      dup2\n      jump\t// out\n        /* \"contracts/myCalc.sol\":2735:4345  function stats(uint[] calldata _values) external returns(ArrayData memory){... */\n    tag_31:\n        /* \"contracts/myCalc.sol\":2792:2808  ArrayData memory */\n      tag_52\n      tag_53\n      jump\t// in\n    tag_52:\n        /* \"contracts/myCalc.sol\":2820:2848  uint numberToStatElementSize */\n      0x00\n        /* \"contracts/myCalc.sol\":2863:2876  uint totalSum */\n      dup1\n        /* \"contracts/myCalc.sol\":2891:2912  uint maxRepeatedTimes */\n      0x00\n        /* \"contracts/myCalc.sol\":3014:3020  uint i */\n      dup1\n        /* \"contracts/myCalc.sol\":3010:4048  for(uint i = 0; i < _values.length; i++){... */\n    tag_55:\n        /* \"contracts/myCalc.sol\":3030:3037  _values */\n      dup7\n      dup7\n        /* \"contracts/myCalc.sol\":3030:3044  _values.length */\n      swap1\n      pop\n        /* \"contracts/myCalc.sol\":3026:3027  i */\n      dup2\n        /* \"contracts/myCalc.sol\":3026:3044  i < _values.length */\n      lt\n        /* \"contracts/myCalc.sol\":3010:4048  for(uint i = 0; i < _values.length; i++){... */\n      iszero\n      tag_56\n      jumpi\n        /* \"contracts/myCalc.sol\":3065:3082  uint currentValue */\n      0x00\n        /* \"contracts/myCalc.sol\":3085:3092  _values */\n      dup8\n      dup8\n        /* \"contracts/myCalc.sol\":3093:3094  i */\n      dup4\n        /* \"contracts/myCalc.sol\":3085:3095  _values[i] */\n      dup2\n      dup2\n      lt\n      tag_58\n      jumpi\n      tag_59\n      tag_60\n      jump\t// in\n    tag_59:\n    tag_58:\n      swap1\n      pop\n      0x20\n      mul\n      add\n      calldataload\n        /* \"contracts/myCalc.sol\":3065:3095  uint currentValue = _values[i] */\n      swap1\n      pop\n        /* \"contracts/myCalc.sol\":3254:3255  0 */\n      0x00\n        /* \"contracts/myCalc.sol\":3202:3222  _numberToStatElement */\n      0x04\n        /* \"contracts/myCalc.sol\":3202:3236  _numberToStatElement[currentValue] */\n      0x00\n        /* \"contracts/myCalc.sol\":3223:3235  currentValue */\n      dup4\n        /* \"contracts/myCalc.sol\":3202:3236  _numberToStatElement[currentValue] */\n      dup2\n      mstore\n      0x20\n      add\n      swap1\n      dup2\n      mstore\n      0x20\n      add\n      0x00\n      keccak256\n        /* \"contracts/myCalc.sol\":3202:3250  _numberToStatElement[currentValue].repeatedTimes */\n      0x00\n      add\n      0x00\n      swap1\n      sload\n      swap1\n      0x0100\n      exp\n      swap1\n      div\n      0xff\n      and\n        /* \"contracts/myCalc.sol\":3202:3255  _numberToStatElement[currentValue].repeatedTimes == 0 */\n      0xff\n      and\n      sub\n        /* \"contracts/myCalc.sol\":3199:3953  if(_numberToStatElement[currentValue].repeatedTimes == 0){... */\n      tag_61\n      jumpi\n        /* \"contracts/myCalc.sol\":3312:3345  ArrayElementData(1, currentValue) */\n      mload(0x40)\n      dup1\n      0x40\n      add\n      0x40\n      mstore\n      dup1\n        /* \"contracts/myCalc.sol\":3329:3330  1 */\n      0x01\n        /* \"contracts/myCalc.sol\":3312:3345  ArrayElementData(1, currentValue) */\n      0xff\n      and\n      dup2\n      mstore\n      0x20\n      add\n        /* \"contracts/myCalc.sol\":3332:3344  currentValue */\n      dup3\n        /* \"contracts/myCalc.sol\":3312:3345  ArrayElementData(1, currentValue) */\n      dup2\n      mstore\n      pop\n        /* \"contracts/myCalc.sol\":3275:3295  _numberToStatElement */\n      0x04\n        /* \"contracts/myCalc.sol\":3275:3309  _numberToStatElement[currentValue] */\n      0x00\n        /* \"contracts/myCalc.sol\":3296:3308  currentValue */\n      dup4\n        /* \"contracts/myCalc.sol\":3275:3309  _numberToStatElement[currentValue] */\n      dup2\n      mstore\n      0x20\n      add\n      swap1\n      dup2\n      mstore\n      0x20\n      add\n      0x00\n      keccak256\n        /* \"contracts/myCalc.sol\":3275:3345  _numberToStatElement[currentValue] = ArrayElementData(1, currentValue) */\n      0x00\n      dup3\n      add\n      mload\n      dup2\n      0x00\n      add\n      exp(0x0100, 0x00)\n      dup2\n      sload\n      dup2\n      0xff\n      mul\n      not\n      and\n      swap1\n      dup4\n      0xff\n      and\n      mul\n      or\n      swap1\n      sstore\n      pop\n      0x20\n      dup3\n      add\n      mload\n      dup2\n      0x01\n      add\n      sstore\n      swap1\n      pop\n      pop\n        /* \"contracts/myCalc.sol\":3364:3389  numberToStatElementSize++ */\n      dup5\n      dup1\n      tag_62\n      swap1\n      tag_63\n      jump\t// in\n    tag_62:\n      swap6\n      pop\n      pop\n        /* \"contracts/myCalc.sol\":3199:3953  if(_numberToStatElement[currentValue].repeatedTimes == 0){... */\n      jump(tag_64)\n    tag_61:\n        /* \"contracts/myCalc.sol\":3604:3624  _numberToStatElement */\n      0x04\n        /* \"contracts/myCalc.sol\":3604:3638  _numberToStatElement[currentValue] */\n      0x00\n        /* \"contracts/myCalc.sol\":3625:3637  currentValue */\n      dup3\n        /* \"contracts/myCalc.sol\":3604:3638  _numberToStatElement[currentValue] */\n      dup2\n      mstore\n      0x20\n      add\n      swap1\n      dup2\n      mstore\n      0x20\n      add\n      0x00\n      keccak256\n        /* \"contracts/myCalc.sol\":3604:3652  _numberToStatElement[currentValue].repeatedTimes */\n      0x00\n      add\n      0x00\n        /* \"contracts/myCalc.sol\":3604:3654  _numberToStatElement[currentValue].repeatedTimes++ */\n      dup2\n      dup2\n      swap1\n      sload\n      swap1\n      0x0100\n      exp\n      swap1\n      div\n      0xff\n      and\n      dup1\n      swap3\n      swap2\n      swap1\n      tag_65\n      swap1\n      tag_66\n      jump\t// in\n    tag_65:\n      swap2\n      swap1\n      0x0100\n      exp\n      dup2\n      sload\n      dup2\n      0xff\n      mul\n      not\n      and\n      swap1\n      dup4\n      0xff\n      and\n      mul\n      or\n      swap1\n      sstore\n      pop\n      pop\n        /* \"contracts/myCalc.sol\":3729:3745  maxRepeatedTimes */\n      dup3\n        /* \"contracts/myCalc.sol\":3678:3698  _numberToStatElement */\n      0x04\n        /* \"contracts/myCalc.sol\":3678:3712  _numberToStatElement[currentValue] */\n      0x00\n        /* \"contracts/myCalc.sol\":3699:3711  currentValue */\n      dup4\n        /* \"contracts/myCalc.sol\":3678:3712  _numberToStatElement[currentValue] */\n      dup2\n      mstore\n      0x20\n      add\n      swap1\n      dup2\n      mstore\n      0x20\n      add\n      0x00\n      keccak256\n        /* \"contracts/myCalc.sol\":3678:3726  _numberToStatElement[currentValue].repeatedTimes */\n      0x00\n      add\n      0x00\n      swap1\n      sload\n      swap1\n      0x0100\n      exp\n      swap1\n      div\n      0xff\n      and\n        /* \"contracts/myCalc.sol\":3678:3745  _numberToStatElement[currentValue].repeatedTimes > maxRepeatedTimes */\n      0xff\n      and\n      gt\n        /* \"contracts/myCalc.sol\":3675:3938  if(_numberToStatElement[currentValue].repeatedTimes > maxRepeatedTimes){... */\n      iszero\n      tag_67\n      jumpi\n        /* \"contracts/myCalc.sol\":3788:3808  _numberToStatElement */\n      0x04\n        /* \"contracts/myCalc.sol\":3788:3822  _numberToStatElement[currentValue] */\n      0x00\n        /* \"contracts/myCalc.sol\":3809:3821  currentValue */\n      dup3\n        /* \"contracts/myCalc.sol\":3788:3822  _numberToStatElement[currentValue] */\n      dup2\n      mstore\n      0x20\n      add\n      swap1\n      dup2\n      mstore\n      0x20\n      add\n      0x00\n      keccak256\n        /* \"contracts/myCalc.sol\":3788:3828  _numberToStatElement[currentValue].value */\n      0x01\n      add\n      sload\n        /* \"contracts/myCalc.sol\":3769:3780  statsAnswer */\n      0x01\n        /* \"contracts/myCalc.sol\":3769:3785  statsAnswer.mode */\n      dup1\n      add\n        /* \"contracts/myCalc.sol\":3769:3828  statsAnswer.mode = _numberToStatElement[currentValue].value */\n      dup2\n      swap1\n      sstore\n      pop\n        /* \"contracts/myCalc.sol\":3870:3890  _numberToStatElement */\n      0x04\n        /* \"contracts/myCalc.sol\":3870:3904  _numberToStatElement[currentValue] */\n      0x00\n        /* \"contracts/myCalc.sol\":3891:3903  currentValue */\n      dup3\n        /* \"contracts/myCalc.sol\":3870:3904  _numberToStatElement[currentValue] */\n      dup2\n      mstore\n      0x20\n      add\n      swap1\n      dup2\n      mstore\n      0x20\n      add\n      0x00\n      keccak256\n        /* \"contracts/myCalc.sol\":3870:3918  _numberToStatElement[currentValue].repeatedTimes */\n      0x00\n      add\n      0x00\n      swap1\n      sload\n      swap1\n      0x0100\n      exp\n      swap1\n      div\n      0xff\n      and\n        /* \"contracts/myCalc.sol\":3851:3918  maxRepeatedTimes = _numberToStatElement[currentValue].repeatedTimes */\n      0xff\n      and\n      swap3\n      pop\n        /* \"contracts/myCalc.sol\":3675:3938  if(_numberToStatElement[currentValue].repeatedTimes > maxRepeatedTimes){... */\n    tag_67:\n        /* \"contracts/myCalc.sol\":3199:3953  if(_numberToStatElement[currentValue].repeatedTimes == 0){... */\n    tag_64:\n        /* \"contracts/myCalc.sol\":4024:4036  currentValue */\n      dup1\n        /* \"contracts/myCalc.sol\":4012:4036  totalSum += currentValue */\n      dup5\n      tag_68\n      swap2\n      swap1\n      tag_69\n      jump\t// in\n    tag_68:\n      swap4\n      pop\n        /* \"contracts/myCalc.sol\":3050:4048  {... */\n      pop\n        /* \"contracts/myCalc.sol\":3046:3049  i++ */\n      dup1\n      dup1\n      0x01\n      add\n      swap2\n      pop\n      pop\n        /* \"contracts/myCalc.sol\":3010:4048  for(uint i = 0; i < _values.length; i++){... */\n      jump(tag_55)\n    tag_56:\n      pop\n        /* \"contracts/myCalc.sol\":4109:4110  0 */\n      0x00\n        /* \"contracts/myCalc.sol\":4083:4106  numberToStatElementSize */\n      dup4\n        /* \"contracts/myCalc.sol\":4083:4110  numberToStatElementSize > 0 */\n      gt\n        /* \"contracts/myCalc.sol\":4079:4230  if (numberToStatElementSize > 0) {... */\n      iszero\n      tag_70\n      jumpi\n        /* \"contracts/myCalc.sol\":4214:4222  totalSum */\n      dup2\n        /* \"contracts/myCalc.sol\":4195:4206  statsAnswer */\n      0x01\n        /* \"contracts/myCalc.sol\":4195:4211  statsAnswer.mean */\n      0x00\n      add\n        /* \"contracts/myCalc.sol\":4195:4222  statsAnswer.mean = totalSum */\n      dup2\n      swap1\n      sstore\n      pop\n        /* \"contracts/myCalc.sol\":4079:4230  if (numberToStatElementSize > 0) {... */\n    tag_70:\n        /* \"contracts/myCalc.sol\":4287:4310  numberToStatElementSize */\n      dup3\n        /* \"contracts/myCalc.sol\":4262:4273  statsAnswer */\n      0x01\n        /* \"contracts/myCalc.sol\":4262:4284  statsAnswer.totalItems */\n      0x02\n      add\n        /* \"contracts/myCalc.sol\":4262:4310  statsAnswer.totalItems = numberToStatElementSize */\n      dup2\n      swap1\n      sstore\n      pop\n        /* \"contracts/myCalc.sol\":4326:4337  statsAnswer */\n      0x01\n        /* \"contracts/myCalc.sol\":4319:4337  return statsAnswer */\n      mload(0x40)\n      dup1\n      0x60\n      add\n      0x40\n      mstore\n      swap1\n      dup2\n      0x00\n      dup3\n      add\n      sload\n      dup2\n      mstore\n      0x20\n      add\n      0x01\n      dup3\n      add\n      sload\n      dup2\n      mstore\n      0x20\n      add\n      0x02\n      dup3\n      add\n      sload\n      dup2\n      mstore\n      pop\n      pop\n      swap4\n      pop\n      pop\n      pop\n      pop\n        /* \"contracts/myCalc.sol\":2735:4345  function stats(uint[] calldata _values) external returns(ArrayData memory){... */\n      swap3\n      swap2\n      pop\n      pop\n      jump\t// out\n        /* \"contracts/myCalc.sol\":1877:2103  function subtract(uint[] calldata _values) external{... */\n    tag_36:\n        /* \"contracts/myCalc.sol\":2013:2014  0 */\n      0x00\n        /* \"contracts/myCalc.sol\":1995:2002  _values */\n      dup3\n      dup3\n        /* \"contracts/myCalc.sol\":1995:2009  _values.length */\n      swap1\n      pop\n        /* \"contracts/myCalc.sol\":1995:2014  _values.length == 0 */\n      sub\n        /* \"contracts/myCalc.sol\":1992:2049  if(_values.length == 0){... */\n      iszero\n        /* \"contracts/myCalc.sol\":2030:2037  return; */\n      tag_71\n        /* \"contracts/myCalc.sol\":1992:2049  if(_values.length == 0){... */\n      jumpi\n        /* \"contracts/myCalc.sol\":2070:2095  _values.reduce(_subtract) */\n      tag_73\n        /* \"contracts/myCalc.sol\":2085:2094  _subtract */\n      tag_74\n        /* \"contracts/myCalc.sol\":2070:2077  _values */\n      dup4\n      dup4\n        /* \"contracts/myCalc.sol\":2070:2084  _values.reduce */\n      dup1\n      dup1\n      0x20\n      mul\n      0x20\n      add\n      mload(0x40)\n      swap1\n      dup2\n      add\n      0x40\n      mstore\n      dup1\n      swap4\n      swap3\n      swap2\n      swap1\n      dup2\n      dup2\n      mstore\n      0x20\n      add\n      dup4\n      dup4\n      0x20\n      mul\n      dup1\n      dup3\n      dup5\n      calldatacopy\n      0x00\n      dup2\n      dup5\n      add\n      mstore\n      not(0x1f)\n      0x1f\n      dup3\n      add\n      and\n      swap1\n      pop\n      dup1\n      dup4\n      add\n      swap3\n      pop\n      pop\n      pop\n      pop\n      pop\n      pop\n      pop\n      tag_41\n      swap1\n        /* \"contracts/myCalc.sol\":2070:2095  _values.reduce(_subtract) */\n      swap2\n      swap1\n      0xffffffff\n      and\n      jump\t// in\n    tag_73:\n        /* \"contracts/myCalc.sol\":2061:2067  result */\n      0x00\n        /* \"contracts/myCalc.sol\":2061:2095  result = _values.reduce(_subtract) */\n      dup2\n      swap1\n      sstore\n      pop\n        /* \"contracts/myCalc.sol\":1877:2103  function subtract(uint[] calldata _values) external{... */\n    tag_71:\n      pop\n      pop\n      jump\t// out\n        /* \"contracts/myCalc.sol\":875:1004  function _add(uint a, uint b) internal pure returns(uint){... */\n    tag_40:\n        /* \"contracts/myCalc.sol\":927:931  uint */\n      0x00\n        /* \"contracts/myCalc.sol\":946:957  uint answer */\n      dup1\n        /* \"contracts/myCalc.sol\":961:972  a.tryAdd(b) */\n      tag_76\n        /* \"contracts/myCalc.sol\":970:971  b */\n      dup4\n        /* \"contracts/myCalc.sol\":961:962  a */\n      dup6\n        /* \"contracts/myCalc.sol\":961:969  a.tryAdd */\n      tag_77\n      swap1\n        /* \"contracts/myCalc.sol\":961:972  a.tryAdd(b) */\n      swap2\n      swap1\n      0xffffffff\n      and\n      jump\t// in\n    tag_76:\n        /* \"contracts/myCalc.sol\":943:972  (, uint answer) = a.tryAdd(b) */\n      swap2\n      pop\n      pop\n        /* \"contracts/myCalc.sol\":990:996  answer */\n      dup1\n        /* \"contracts/myCalc.sol\":983:996  return answer */\n      swap2\n      pop\n      pop\n        /* \"contracts/myCalc.sol\":875:1004  function _add(uint a, uint b) internal pure returns(uint){... */\n      swap3\n      swap2\n      pop\n      pop\n      jump\t// out\n        /* \"library/ArrayLibrary.sol\":373:847  function reduce(... */\n    tag_41:\n        /* \"library/ArrayLibrary.sol\":539:543  uint */\n      0x00\n        /* \"library/ArrayLibrary.sol\":523:529  _array */\n      dup3\n        /* \"library/ArrayLibrary.sol\":211:212  0 */\n      0x00\n        /* \"library/ArrayLibrary.sol\":193:200  numbers */\n      dup2\n        /* \"library/ArrayLibrary.sol\":193:207  numbers.length */\n      mload\n        /* \"library/ArrayLibrary.sol\":193:212  numbers.length != 0 */\n      sub\n        /* \"library/ArrayLibrary.sol\":185:240  require(numbers.length != 0, \"Array must not be empty\") */\n      tag_79\n      jumpi\n      mload(0x40)\n      0x08c379a000000000000000000000000000000000000000000000000000000000\n      dup2\n      mstore\n      0x04\n      add\n      tag_80\n      swap1\n      tag_81\n      jump\t// in\n    tag_80:\n      mload(0x40)\n      dup1\n      swap2\n      sub\n      swap1\n      revert\n    tag_79:\n        /* \"library/ArrayLibrary.sol\":555:571  uint accumulator */\n      0x00\n        /* \"library/ArrayLibrary.sol\":574:580  _array */\n      dup5\n        /* \"library/ArrayLibrary.sol\":581:582  0 */\n      0x00\n        /* \"library/ArrayLibrary.sol\":574:583  _array[0] */\n      dup2\n      mload\n      dup2\n      lt\n      tag_83\n      jumpi\n      tag_84\n      tag_60\n      jump\t// in\n    tag_84:\n    tag_83:\n      0x20\n      mul\n      0x20\n      add\n      add\n      mload\n        /* \"library/ArrayLibrary.sol\":555:583  uint accumulator = _array[0] */\n      swap1\n      pop\n        /* \"library/ArrayLibrary.sol\":700:706  uint i */\n      0x00\n        /* \"library/ArrayLibrary.sol\":709:710  1 */\n      0x01\n        /* \"library/ArrayLibrary.sol\":700:710  uint i = 1 */\n      swap1\n      pop\n        /* \"library/ArrayLibrary.sol\":696:809  for(uint i = 1; i < _array.length; i++){... */\n    tag_85:\n        /* \"library/ArrayLibrary.sol\":716:722  _array */\n      dup6\n        /* \"library/ArrayLibrary.sol\":716:729  _array.length */\n      mload\n        /* \"library/ArrayLibrary.sol\":712:713  i */\n      dup2\n        /* \"library/ArrayLibrary.sol\":712:729  i < _array.length */\n      lt\n        /* \"library/ArrayLibrary.sol\":696:809  for(uint i = 1; i < _array.length; i++){... */\n      iszero\n      tag_86\n      jumpi\n        /* \"library/ArrayLibrary.sol\":764:797  _callback(accumulator, _array[i]) */\n      tag_88\n        /* \"library/ArrayLibrary.sol\":774:785  accumulator */\n      dup3\n        /* \"library/ArrayLibrary.sol\":787:793  _array */\n      dup8\n        /* \"library/ArrayLibrary.sol\":794:795  i */\n      dup4\n        /* \"library/ArrayLibrary.sol\":787:796  _array[i] */\n      dup2\n      mload\n      dup2\n      lt\n      tag_89\n      jumpi\n      tag_90\n      tag_60\n      jump\t// in\n    tag_90:\n    tag_89:\n      0x20\n      mul\n      0x20\n      add\n      add\n      mload\n        /* \"library/ArrayLibrary.sol\":764:773  _callback */\n      dup8\n        /* \"library/ArrayLibrary.sol\":764:797  _callback(accumulator, _array[i]) */\n      0xffffffff\n      and\n      jump\t// in\n    tag_88:\n        /* \"library/ArrayLibrary.sol\":750:797  accumulator = _callback(accumulator, _array[i]) */\n      swap2\n      pop\n        /* \"library/ArrayLibrary.sol\":731:734  i++ */\n      dup1\n      dup1\n      0x01\n      add\n      swap2\n      pop\n      pop\n        /* \"library/ArrayLibrary.sol\":696:809  for(uint i = 1; i < _array.length; i++){... */\n      jump(tag_85)\n    tag_86:\n      pop\n        /* \"library/ArrayLibrary.sol\":828:839  accumulator */\n      dup1\n        /* \"library/ArrayLibrary.sol\":821:839  return accumulator */\n      swap3\n      pop\n      pop\n        /* \"library/ArrayLibrary.sol\":373:847  function reduce(... */\n      pop\n      swap3\n      swap2\n      pop\n      pop\n      jump\t// out\n        /* \"contracts/myCalc.sol\":1252:1386  function _multiply(uint a, uint b) internal pure returns(uint){... */\n    tag_45:\n        /* \"contracts/myCalc.sol\":1309:1313  uint */\n      0x00\n        /* \"contracts/myCalc.sol\":1328:1339  uint answer */\n      dup1\n        /* \"contracts/myCalc.sol\":1343:1354  a.tryMul(b) */\n      tag_92\n        /* \"contracts/myCalc.sol\":1352:1353  b */\n      dup4\n        /* \"contracts/myCalc.sol\":1343:1344  a */\n      dup6\n        /* \"contracts/myCalc.sol\":1343:1351  a.tryMul */\n      tag_93\n      swap1\n        /* \"contracts/myCalc.sol\":1343:1354  a.tryMul(b) */\n      swap2\n      swap1\n      0xffffffff\n      and\n      jump\t// in\n    tag_92:\n        /* \"contracts/myCalc.sol\":1325:1354  (, uint answer) = a.tryMul(b) */\n      swap2\n      pop\n      pop\n        /* \"contracts/myCalc.sol\":1372:1378  answer */\n      dup1\n        /* \"contracts/myCalc.sol\":1365:1378  return answer */\n      swap2\n      pop\n      pop\n        /* \"contracts/myCalc.sol\":1252:1386  function _multiply(uint a, uint b) internal pure returns(uint){... */\n      swap3\n      swap2\n      pop\n      pop\n      jump\t// out\n        /* \"contracts/myCalc.sol\":1440:1572  function _divide(uint a, uint b) internal pure returns(uint){... */\n    tag_51:\n        /* \"contracts/myCalc.sol\":1495:1499  uint */\n      0x00\n        /* \"contracts/myCalc.sol\":1514:1525  uint answer */\n      dup1\n        /* \"contracts/myCalc.sol\":1529:1540  a.tryDiv(b) */\n      tag_95\n        /* \"contracts/myCalc.sol\":1538:1539  b */\n      dup4\n        /* \"contracts/myCalc.sol\":1529:1530  a */\n      dup6\n        /* \"contracts/myCalc.sol\":1529:1537  a.tryDiv */\n      tag_96\n      swap1\n        /* \"contracts/myCalc.sol\":1529:1540  a.tryDiv(b) */\n      swap2\n      swap1\n      0xffffffff\n      and\n      jump\t// in\n    tag_95:\n        /* \"contracts/myCalc.sol\":1511:1540  (, uint answer) = a.tryDiv(b) */\n      swap2\n      pop\n      pop\n        /* \"contracts/myCalc.sol\":1558:1564  answer */\n      dup1\n        /* \"contracts/myCalc.sol\":1551:1564  return answer */\n      swap2\n      pop\n      pop\n        /* \"contracts/myCalc.sol\":1440:1572  function _divide(uint a, uint b) internal pure returns(uint){... */\n      swap3\n      swap2\n      pop\n      pop\n      jump\t// out\n        /* \"contracts/myCalc.sol\":1061:1195  function _subtract(uint a, uint b) internal pure returns(uint){... */\n    tag_74:\n        /* \"contracts/myCalc.sol\":1118:1122  uint */\n      0x00\n        /* \"contracts/myCalc.sol\":1137:1148  uint answer */\n      dup1\n        /* \"contracts/myCalc.sol\":1152:1163  a.trySub(b) */\n      tag_98\n        /* \"contracts/myCalc.sol\":1161:1162  b */\n      dup4\n        /* \"contracts/myCalc.sol\":1152:1153  a */\n      dup6\n        /* \"contracts/myCalc.sol\":1152:1160  a.trySub */\n      tag_99\n      swap1\n        /* \"contracts/myCalc.sol\":1152:1163  a.trySub(b) */\n      swap2\n      swap1\n      0xffffffff\n      and\n      jump\t// in\n    tag_98:\n        /* \"contracts/myCalc.sol\":1134:1163  (, uint answer) = a.trySub(b) */\n      swap2\n      pop\n      pop\n        /* \"contracts/myCalc.sol\":1181:1187  answer */\n      dup1\n        /* \"contracts/myCalc.sol\":1174:1187  return answer */\n      swap2\n      pop\n      pop\n        /* \"contracts/myCalc.sol\":1061:1195  function _subtract(uint a, uint b) internal pure returns(uint){... */\n      swap3\n      swap2\n      pop\n      pop\n      jump\t// out\n        /* \"https://github.com/OpenZeppelin/openzeppelin-contracts/blob/master/contracts/utils/math/Math.sol\":586:817  function tryAdd(uint256 a, uint256 b) internal pure returns (bool success, uint256 result) {... */\n    tag_77:\n        /* \"https://github.com/OpenZeppelin/openzeppelin-contracts/blob/master/contracts/utils/math/Math.sol\":647:659  bool success */\n      0x00\n        /* \"https://github.com/OpenZeppelin/openzeppelin-contracts/blob/master/contracts/utils/math/Math.sol\":661:675  uint256 result */\n      dup1\n        /* \"https://github.com/OpenZeppelin/openzeppelin-contracts/blob/master/contracts/utils/math/Math.sol\":711:720  uint256 c */\n      0x00\n        /* \"https://github.com/OpenZeppelin/openzeppelin-contracts/blob/master/contracts/utils/math/Math.sol\":727:728  b */\n      dup4\n        /* \"https://github.com/OpenZeppelin/openzeppelin-contracts/blob/master/contracts/utils/math/Math.sol\":723:724  a */\n      dup6\n        /* \"https://github.com/OpenZeppelin/openzeppelin-contracts/blob/master/contracts/utils/math/Math.sol\":723:728  a + b */\n      add\n        /* \"https://github.com/OpenZeppelin/openzeppelin-contracts/blob/master/contracts/utils/math/Math.sol\":711:728  uint256 c = a + b */\n      swap1\n      pop\n        /* \"https://github.com/OpenZeppelin/openzeppelin-contracts/blob/master/contracts/utils/math/Math.sol\":750:751  a */\n      dup5\n        /* \"https://github.com/OpenZeppelin/openzeppelin-contracts/blob/master/contracts/utils/math/Math.sol\":746:747  c */\n      dup2\n        /* \"https://github.com/OpenZeppelin/openzeppelin-contracts/blob/master/contracts/utils/math/Math.sol\":746:751  c < a */\n      lt\n        /* \"https://github.com/OpenZeppelin/openzeppelin-contracts/blob/master/contracts/utils/math/Math.sol\":742:770  if (c < a) return (false, 0) */\n      iszero\n      tag_101\n      jumpi\n        /* \"https://github.com/OpenZeppelin/openzeppelin-contracts/blob/master/contracts/utils/math/Math.sol\":761:766  false */\n      0x00\n        /* \"https://github.com/OpenZeppelin/openzeppelin-contracts/blob/master/contracts/utils/math/Math.sol\":768:769  0 */\n      dup1\n        /* \"https://github.com/OpenZeppelin/openzeppelin-contracts/blob/master/contracts/utils/math/Math.sol\":753:770  return (false, 0) */\n      swap3\n      pop\n      swap3\n      pop\n      pop\n      jump(tag_100)\n        /* \"https://github.com/OpenZeppelin/openzeppelin-contracts/blob/master/contracts/utils/math/Math.sol\":742:770  if (c < a) return (false, 0) */\n    tag_101:\n        /* \"https://github.com/OpenZeppelin/openzeppelin-contracts/blob/master/contracts/utils/math/Math.sol\":792:796  true */\n      0x01\n        /* \"https://github.com/OpenZeppelin/openzeppelin-contracts/blob/master/contracts/utils/math/Math.sol\":798:799  c */\n      dup2\n        /* \"https://github.com/OpenZeppelin/openzeppelin-contracts/blob/master/contracts/utils/math/Math.sol\":784:800  return (true, c) */\n      swap3\n      pop\n      swap3\n      pop\n      pop\n        /* \"https://github.com/OpenZeppelin/openzeppelin-contracts/blob/master/contracts/utils/math/Math.sol\":586:817  function tryAdd(uint256 a, uint256 b) internal pure returns (bool success, uint256 result) {... */\n    tag_100:\n      swap3\n      pop\n      swap3\n      swap1\n      pop\n      jump\t// out\n        /* \"https://github.com/OpenZeppelin/openzeppelin-contracts/blob/master/contracts/utils/math/Math.sol\":1264:1772  function tryMul(uint256 a, uint256 b) internal pure returns (bool success, uint256 result) {... */\n    tag_93:\n        /* \"https://github.com/OpenZeppelin/openzeppelin-contracts/blob/master/contracts/utils/math/Math.sol\":1325:1337  bool success */\n      0x00\n        /* \"https://github.com/OpenZeppelin/openzeppelin-contracts/blob/master/contracts/utils/math/Math.sol\":1339:1353  uint256 result */\n      dup1\n        /* \"https://github.com/OpenZeppelin/openzeppelin-contracts/blob/master/contracts/utils/math/Math.sol\":1628:1629  0 */\n      0x00\n        /* \"https://github.com/OpenZeppelin/openzeppelin-contracts/blob/master/contracts/utils/math/Math.sol\":1623:1624  a */\n      dup5\n        /* \"https://github.com/OpenZeppelin/openzeppelin-contracts/blob/master/contracts/utils/math/Math.sol\":1623:1629  a == 0 */\n      sub\n        /* \"https://github.com/OpenZeppelin/openzeppelin-contracts/blob/master/contracts/utils/math/Math.sol\":1619:1647  if (a == 0) return (true, 0) */\n      tag_103\n      jumpi\n        /* \"https://github.com/OpenZeppelin/openzeppelin-contracts/blob/master/contracts/utils/math/Math.sol\":1639:1643  true */\n      0x01\n        /* \"https://github.com/OpenZeppelin/openzeppelin-contracts/blob/master/contracts/utils/math/Math.sol\":1645:1646  0 */\n      0x00\n        /* \"https://github.com/OpenZeppelin/openzeppelin-contracts/blob/master/contracts/utils/math/Math.sol\":1631:1647  return (true, 0) */\n      swap2\n      pop\n      swap2\n      pop\n      jump(tag_102)\n        /* \"https://github.com/OpenZeppelin/openzeppelin-contracts/blob/master/contracts/utils/math/Math.sol\":1619:1647  if (a == 0) return (true, 0) */\n    tag_103:\n        /* \"https://github.com/OpenZeppelin/openzeppelin-contracts/blob/master/contracts/utils/math/Math.sol\":1661:1670  uint256 c */\n      0x00\n        /* \"https://github.com/OpenZeppelin/openzeppelin-contracts/blob/master/contracts/utils/math/Math.sol\":1677:1678  b */\n      dup4\n        /* \"https://github.com/OpenZeppelin/openzeppelin-contracts/blob/master/contracts/utils/math/Math.sol\":1673:1674  a */\n      dup6\n        /* \"https://github.com/OpenZeppelin/openzeppelin-contracts/blob/master/contracts/utils/math/Math.sol\":1673:1678  a * b */\n      mul\n        /* \"https://github.com/OpenZeppelin/openzeppelin-contracts/blob/master/contracts/utils/math/Math.sol\":1661:1678  uint256 c = a * b */\n      swap1\n      pop\n        /* \"https://github.com/OpenZeppelin/openzeppelin-contracts/blob/master/contracts/utils/math/Math.sol\":1705:1706  b */\n      dup4\n        /* \"https://github.com/OpenZeppelin/openzeppelin-contracts/blob/master/contracts/utils/math/Math.sol\":1700:1701  a */\n      dup6\n        /* \"https://github.com/OpenZeppelin/openzeppelin-contracts/blob/master/contracts/utils/math/Math.sol\":1696:1697  c */\n      dup3\n        /* \"https://github.com/OpenZeppelin/openzeppelin-contracts/blob/master/contracts/utils/math/Math.sol\":1696:1701  c / a */\n      dup2\n      tag_104\n      jumpi\n      tag_105\n      tag_106\n      jump\t// in\n    tag_105:\n    tag_104:\n      div\n        /* \"https://github.com/OpenZeppelin/openzeppelin-contracts/blob/master/contracts/utils/math/Math.sol\":1696:1706  c / a != b */\n      eq\n        /* \"https://github.com/OpenZeppelin/openzeppelin-contracts/blob/master/contracts/utils/math/Math.sol\":1692:1725  if (c / a != b) return (false, 0) */\n      tag_107\n      jumpi\n        /* \"https://github.com/OpenZeppelin/openzeppelin-contracts/blob/master/contracts/utils/math/Math.sol\":1716:1721  false */\n      0x00\n        /* \"https://github.com/OpenZeppelin/openzeppelin-contracts/blob/master/contracts/utils/math/Math.sol\":1723:1724  0 */\n      dup1\n        /* \"https://github.com/OpenZeppelin/openzeppelin-contracts/blob/master/contracts/utils/math/Math.sol\":1708:1725  return (false, 0) */\n      swap3\n      pop\n      swap3\n      pop\n      pop\n      jump(tag_102)\n        /* \"https://github.com/OpenZeppelin/openzeppelin-contracts/blob/master/contracts/utils/math/Math.sol\":1692:1725  if (c / a != b) return (false, 0) */\n    tag_107:\n        /* \"https://github.com/OpenZeppelin/openzeppelin-contracts/blob/master/contracts/utils/math/Math.sol\":1747:1751  true */\n      0x01\n        /* \"https://github.com/OpenZeppelin/openzeppelin-contracts/blob/master/contracts/utils/math/Math.sol\":1753:1754  c */\n      dup2\n        /* \"https://github.com/OpenZeppelin/openzeppelin-contracts/blob/master/contracts/utils/math/Math.sol\":1739:1755  return (true, c) */\n      swap3\n      pop\n      swap3\n      pop\n      pop\n        /* \"https://github.com/OpenZeppelin/openzeppelin-contracts/blob/master/contracts/utils/math/Math.sol\":1264:1772  function tryMul(uint256 a, uint256 b) internal pure returns (bool success, uint256 result) {... */\n    tag_102:\n      swap3\n      pop\n      swap3\n      swap1\n      pop\n      jump\t// out\n        /* \"https://github.com/OpenZeppelin/openzeppelin-contracts/blob/master/contracts/utils/math/Math.sol\":1896:2101  function tryDiv(uint256 a, uint256 b) internal pure returns (bool success, uint256 result) {... */\n    tag_96:\n        /* \"https://github.com/OpenZeppelin/openzeppelin-contracts/blob/master/contracts/utils/math/Math.sol\":1957:1969  bool success */\n      0x00\n        /* \"https://github.com/OpenZeppelin/openzeppelin-contracts/blob/master/contracts/utils/math/Math.sol\":1971:1985  uint256 result */\n      dup1\n        /* \"https://github.com/OpenZeppelin/openzeppelin-contracts/blob/master/contracts/utils/math/Math.sol\":2030:2031  0 */\n      0x00\n        /* \"https://github.com/OpenZeppelin/openzeppelin-contracts/blob/master/contracts/utils/math/Math.sol\":2025:2026  b */\n      dup4\n        /* \"https://github.com/OpenZeppelin/openzeppelin-contracts/blob/master/contracts/utils/math/Math.sol\":2025:2031  b == 0 */\n      sub\n        /* \"https://github.com/OpenZeppelin/openzeppelin-contracts/blob/master/contracts/utils/math/Math.sol\":2021:2050  if (b == 0) return (false, 0) */\n      tag_109\n      jumpi\n        /* \"https://github.com/OpenZeppelin/openzeppelin-contracts/blob/master/contracts/utils/math/Math.sol\":2041:2046  false */\n      0x00\n        /* \"https://github.com/OpenZeppelin/openzeppelin-contracts/blob/master/contracts/utils/math/Math.sol\":2048:2049  0 */\n      dup1\n        /* \"https://github.com/OpenZeppelin/openzeppelin-contracts/blob/master/contracts/utils/math/Math.sol\":2033:2050  return (false, 0) */\n      swap2\n      pop\n      swap2\n      pop\n      jump(tag_108)\n        /* \"https://github.com/OpenZeppelin/openzeppelin-contracts/blob/master/contracts/utils/math/Math.sol\":2021:2050  if (b == 0) return (false, 0) */\n    tag_109:\n        /* \"https://github.com/OpenZeppelin/openzeppelin-contracts/blob/master/contracts/utils/math/Math.sol\":2072:2076  true */\n      0x01\n        /* \"https://github.com/OpenZeppelin/openzeppelin-contracts/blob/master/contracts/utils/math/Math.sol\":2082:2083  b */\n      dup4\n        /* \"https://github.com/OpenZeppelin/openzeppelin-contracts/blob/master/contracts/utils/math/Math.sol\":2078:2079  a */\n      dup6\n        /* \"https://github.com/OpenZeppelin/openzeppelin-contracts/blob/master/contracts/utils/math/Math.sol\":2078:2083  a / b */\n      dup2\n      tag_110\n      jumpi\n      tag_111\n      tag_106\n      jump\t// in\n    tag_111:\n    tag_110:\n      div\n        /* \"https://github.com/OpenZeppelin/openzeppelin-contracts/blob/master/contracts/utils/math/Math.sol\":2064:2084  return (true, a / b) */\n      swap2\n      pop\n      swap2\n      pop\n        /* \"https://github.com/OpenZeppelin/openzeppelin-contracts/blob/master/contracts/utils/math/Math.sol\":1896:2101  function tryDiv(uint256 a, uint256 b) internal pure returns (bool success, uint256 result) {... */\n    tag_108:\n      swap3\n      pop\n      swap3\n      swap1\n      pop\n      jump\t// out\n        /* \"https://github.com/OpenZeppelin/openzeppelin-contracts/blob/master/contracts/utils/math/Math.sol\":937:1141  function trySub(uint256 a, uint256 b) internal pure returns (bool success, uint256 result) {... */\n    tag_99:\n        /* \"https://github.com/OpenZeppelin/openzeppelin-contracts/blob/master/contracts/utils/math/Math.sol\":998:1010  bool success */\n      0x00\n        /* \"https://github.com/OpenZeppelin/openzeppelin-contracts/blob/master/contracts/utils/math/Math.sol\":1012:1026  uint256 result */\n      dup1\n        /* \"https://github.com/OpenZeppelin/openzeppelin-contracts/blob/master/contracts/utils/math/Math.sol\":1070:1071  a */\n      dup4\n        /* \"https://github.com/OpenZeppelin/openzeppelin-contracts/blob/master/contracts/utils/math/Math.sol\":1066:1067  b */\n      dup4\n        /* \"https://github.com/OpenZeppelin/openzeppelin-contracts/blob/master/contracts/utils/math/Math.sol\":1066:1071  b > a */\n      gt\n        /* \"https://github.com/OpenZeppelin/openzeppelin-contracts/blob/master/contracts/utils/math/Math.sol\":1062:1090  if (b > a) return (false, 0) */\n      iszero\n      tag_113\n      jumpi\n        /* \"https://github.com/OpenZeppelin/openzeppelin-contracts/blob/master/contracts/utils/math/Math.sol\":1081:1086  false */\n      0x00\n        /* \"https://github.com/OpenZeppelin/openzeppelin-contracts/blob/master/contracts/utils/math/Math.sol\":1088:1089  0 */\n      dup1\n        /* \"https://github.com/OpenZeppelin/openzeppelin-contracts/blob/master/contracts/utils/math/Math.sol\":1073:1090  return (false, 0) */\n      swap2\n      pop\n      swap2\n      pop\n      jump(tag_112)\n        /* \"https://github.com/OpenZeppelin/openzeppelin-contracts/blob/master/contracts/utils/math/Math.sol\":1062:1090  if (b > a) return (false, 0) */\n    tag_113:\n        /* \"https://github.com/OpenZeppelin/openzeppelin-contracts/blob/master/contracts/utils/math/Math.sol\":1112:1116  true */\n      0x01\n        /* \"https://github.com/OpenZeppelin/openzeppelin-contracts/blob/master/contracts/utils/math/Math.sol\":1122:1123  b */\n      dup4\n        /* \"https://github.com/OpenZeppelin/openzeppelin-contracts/blob/master/contracts/utils/math/Math.sol\":1118:1119  a */\n      dup6\n        /* \"https://github.com/OpenZeppelin/openzeppelin-contracts/blob/master/contracts/utils/math/Math.sol\":1118:1123  a - b */\n      sub\n        /* \"https://github.com/OpenZeppelin/openzeppelin-contracts/blob/master/contracts/utils/math/Math.sol\":1104:1124  return (true, a - b) */\n      swap2\n      pop\n      swap2\n      pop\n        /* \"https://github.com/OpenZeppelin/openzeppelin-contracts/blob/master/contracts/utils/math/Math.sol\":937:1141  function trySub(uint256 a, uint256 b) internal pure returns (bool success, uint256 result) {... */\n    tag_112:\n      swap3\n      pop\n      swap3\n      swap1\n      pop\n      jump\t// out\n    tag_53:\n      mload(0x40)\n      dup1\n      0x60\n      add\n      0x40\n      mstore\n      dup1\n      0x00\n      dup2\n      mstore\n      0x20\n      add\n      0x00\n      dup2\n      mstore\n      0x20\n      add\n      0x00\n      dup2\n      mstore\n      pop\n      swap1\n      jump\t// out\n        /* \"#utility.yul\":88:205   */\n    tag_115:\n        /* \"#utility.yul\":197:198   */\n      0x00\n        /* \"#utility.yul\":194:195   */\n      dup1\n        /* \"#utility.yul\":187:199   */\n      revert\n        /* \"#utility.yul\":211:328   */\n    tag_116:\n        /* \"#utility.yul\":320:321   */\n      0x00\n        /* \"#utility.yul\":317:318   */\n      dup1\n        /* \"#utility.yul\":310:322   */\n      revert\n        /* \"#utility.yul\":334:451   */\n    tag_117:\n        /* \"#utility.yul\":443:444   */\n      0x00\n        /* \"#utility.yul\":440:441   */\n      dup1\n        /* \"#utility.yul\":433:445   */\n      revert\n        /* \"#utility.yul\":457:574   */\n    tag_118:\n        /* \"#utility.yul\":566:567   */\n      0x00\n        /* \"#utility.yul\":563:564   */\n      dup1\n        /* \"#utility.yul\":556:568   */\n      revert\n        /* \"#utility.yul\":580:697   */\n    tag_119:\n        /* \"#utility.yul\":689:690   */\n      0x00\n        /* \"#utility.yul\":686:687   */\n      dup1\n        /* \"#utility.yul\":679:691   */\n      revert\n        /* \"#utility.yul\":720:1288   */\n    tag_120:\n        /* \"#utility.yul\":793:801   */\n      0x00\n        /* \"#utility.yul\":803:809   */\n      dup1\n        /* \"#utility.yul\":853:856   */\n      dup4\n        /* \"#utility.yul\":846:850   */\n      0x1f\n        /* \"#utility.yul\":838:844   */\n      dup5\n        /* \"#utility.yul\":834:851   */\n      add\n        /* \"#utility.yul\":830:857   */\n      slt\n        /* \"#utility.yul\":820:942   */\n      tag_140\n      jumpi\n        /* \"#utility.yul\":861:940   */\n      tag_141\n      tag_117\n      jump\t// in\n    tag_141:\n        /* \"#utility.yul\":820:942   */\n    tag_140:\n        /* \"#utility.yul\":974:980   */\n      dup3\n        /* \"#utility.yul\":961:981   */\n      calldataload\n        /* \"#utility.yul\":951:981   */\n      swap1\n      pop\n        /* \"#utility.yul\":1004:1022   */\n      0xffffffffffffffff\n        /* \"#utility.yul\":996:1002   */\n      dup2\n        /* \"#utility.yul\":993:1023   */\n      gt\n        /* \"#utility.yul\":990:1107   */\n      iszero\n      tag_142\n      jumpi\n        /* \"#utility.yul\":1026:1105   */\n      tag_143\n      tag_118\n      jump\t// in\n    tag_143:\n        /* \"#utility.yul\":990:1107   */\n    tag_142:\n        /* \"#utility.yul\":1140:1144   */\n      0x20\n        /* \"#utility.yul\":1132:1138   */\n      dup4\n        /* \"#utility.yul\":1128:1145   */\n      add\n        /* \"#utility.yul\":1116:1145   */\n      swap2\n      pop\n        /* \"#utility.yul\":1194:1197   */\n      dup4\n        /* \"#utility.yul\":1186:1190   */\n      0x20\n        /* \"#utility.yul\":1178:1184   */\n      dup3\n        /* \"#utility.yul\":1174:1191   */\n      mul\n        /* \"#utility.yul\":1164:1172   */\n      dup4\n        /* \"#utility.yul\":1160:1192   */\n      add\n        /* \"#utility.yul\":1157:1198   */\n      gt\n        /* \"#utility.yul\":1154:1282   */\n      iszero\n      tag_144\n      jumpi\n        /* \"#utility.yul\":1201:1280   */\n      tag_145\n      tag_119\n      jump\t// in\n    tag_145:\n        /* \"#utility.yul\":1154:1282   */\n    tag_144:\n        /* \"#utility.yul\":720:1288   */\n      swap3\n      pop\n      swap3\n      swap1\n      pop\n      jump\t// out\n        /* \"#utility.yul\":1294:1853   */\n    tag_13:\n        /* \"#utility.yul\":1380:1386   */\n      0x00\n        /* \"#utility.yul\":1388:1394   */\n      dup1\n        /* \"#utility.yul\":1437:1439   */\n      0x20\n        /* \"#utility.yul\":1425:1434   */\n      dup4\n        /* \"#utility.yul\":1416:1423   */\n      dup6\n        /* \"#utility.yul\":1412:1435   */\n      sub\n        /* \"#utility.yul\":1408:1440   */\n      slt\n        /* \"#utility.yul\":1405:1524   */\n      iszero\n      tag_147\n      jumpi\n        /* \"#utility.yul\":1443:1522   */\n      tag_148\n      tag_115\n      jump\t// in\n    tag_148:\n        /* \"#utility.yul\":1405:1524   */\n    tag_147:\n        /* \"#utility.yul\":1591:1592   */\n      0x00\n        /* \"#utility.yul\":1580:1589   */\n      dup4\n        /* \"#utility.yul\":1576:1593   */\n      add\n        /* \"#utility.yul\":1563:1594   */\n      calldataload\n        /* \"#utility.yul\":1621:1639   */\n      0xffffffffffffffff\n        /* \"#utility.yul\":1613:1619   */\n      dup2\n        /* \"#utility.yul\":1610:1640   */\n      gt\n        /* \"#utility.yul\":1607:1724   */\n      iszero\n      tag_149\n      jumpi\n        /* \"#utility.yul\":1643:1722   */\n      tag_150\n      tag_116\n      jump\t// in\n    tag_150:\n        /* \"#utility.yul\":1607:1724   */\n    tag_149:\n        /* \"#utility.yul\":1756:1836   */\n      tag_151\n        /* \"#utility.yul\":1828:1835   */\n      dup6\n        /* \"#utility.yul\":1819:1825   */\n      dup3\n        /* \"#utility.yul\":1808:1817   */\n      dup7\n        /* \"#utility.yul\":1804:1826   */\n      add\n        /* \"#utility.yul\":1756:1836   */\n      tag_120\n      jump\t// in\n    tag_151:\n        /* \"#utility.yul\":1738:1836   */\n      swap3\n      pop\n      swap3\n      pop\n        /* \"#utility.yul\":1534:1846   */\n      pop\n        /* \"#utility.yul\":1294:1853   */\n      swap3\n      pop\n      swap3\n      swap1\n      pop\n      jump\t// out\n        /* \"#utility.yul\":1859:1936   */\n    tag_121:\n        /* \"#utility.yul\":1896:1903   */\n      0x00\n        /* \"#utility.yul\":1925:1930   */\n      dup2\n        /* \"#utility.yul\":1914:1930   */\n      swap1\n      pop\n        /* \"#utility.yul\":1859:1936   */\n      swap2\n      swap1\n      pop\n      jump\t// out\n        /* \"#utility.yul\":1942:2060   */\n    tag_122:\n        /* \"#utility.yul\":2029:2053   */\n      tag_154\n        /* \"#utility.yul\":2047:2052   */\n      dup2\n        /* \"#utility.yul\":2029:2053   */\n      tag_121\n      jump\t// in\n    tag_154:\n        /* \"#utility.yul\":2024:2027   */\n      dup3\n        /* \"#utility.yul\":2017:2054   */\n      mstore\n        /* \"#utility.yul\":1942:2060   */\n      pop\n      pop\n      jump\t// out\n        /* \"#utility.yul\":2066:2508   */\n    tag_21:\n        /* \"#utility.yul\":2215:2219   */\n      0x00\n        /* \"#utility.yul\":2253:2255   */\n      0x60\n        /* \"#utility.yul\":2242:2251   */\n      dup3\n        /* \"#utility.yul\":2238:2256   */\n      add\n        /* \"#utility.yul\":2230:2256   */\n      swap1\n      pop\n        /* \"#utility.yul\":2266:2337   */\n      tag_156\n        /* \"#utility.yul\":2334:2335   */\n      0x00\n        /* \"#utility.yul\":2323:2332   */\n      dup4\n        /* \"#utility.yul\":2319:2336   */\n      add\n        /* \"#utility.yul\":2310:2316   */\n      dup7\n        /* \"#utility.yul\":2266:2337   */\n      tag_122\n      jump\t// in\n    tag_156:\n        /* \"#utility.yul\":2347:2419   */\n      tag_157\n        /* \"#utility.yul\":2415:2417   */\n      0x20\n        /* \"#utility.yul\":2404:2413   */\n      dup4\n        /* \"#utility.yul\":2400:2418   */\n      add\n        /* \"#utility.yul\":2391:2397   */\n      dup6\n        /* \"#utility.yul\":2347:2419   */\n      tag_122\n      jump\t// in\n    tag_157:\n        /* \"#utility.yul\":2429:2501   */\n      tag_158\n        /* \"#utility.yul\":2497:2499   */\n      0x40\n        /* \"#utility.yul\":2486:2495   */\n      dup4\n        /* \"#utility.yul\":2482:2500   */\n      add\n        /* \"#utility.yul\":2473:2479   */\n      dup5\n        /* \"#utility.yul\":2429:2501   */\n      tag_122\n      jump\t// in\n    tag_158:\n        /* \"#utility.yul\":2066:2508   */\n      swap5\n      swap4\n      pop\n      pop\n      pop\n      pop\n      jump\t// out\n        /* \"#utility.yul\":2514:2736   */\n    tag_28:\n        /* \"#utility.yul\":2607:2611   */\n      0x00\n        /* \"#utility.yul\":2645:2647   */\n      0x20\n        /* \"#utility.yul\":2634:2643   */\n      dup3\n        /* \"#utility.yul\":2630:2648   */\n      add\n        /* \"#utility.yul\":2622:2648   */\n      swap1\n      pop\n        /* \"#utility.yul\":2658:2729   */\n      tag_160\n        /* \"#utility.yul\":2726:2727   */\n      0x00\n        /* \"#utility.yul\":2715:2724   */\n      dup4\n        /* \"#utility.yul\":2711:2728   */\n      add\n        /* \"#utility.yul\":2702:2708   */\n      dup5\n        /* \"#utility.yul\":2658:2729   */\n      tag_122\n      jump\t// in\n    tag_160:\n        /* \"#utility.yul\":2514:2736   */\n      swap3\n      swap2\n      pop\n      pop\n      jump\t// out\n        /* \"#utility.yul\":2742:2850   */\n    tag_123:\n        /* \"#utility.yul\":2819:2843   */\n      tag_162\n        /* \"#utility.yul\":2837:2842   */\n      dup2\n        /* \"#utility.yul\":2819:2843   */\n      tag_121\n      jump\t// in\n    tag_162:\n        /* \"#utility.yul\":2814:2817   */\n      dup3\n        /* \"#utility.yul\":2807:2844   */\n      mstore\n        /* \"#utility.yul\":2742:2850   */\n      pop\n      pop\n      jump\t// out\n        /* \"#utility.yul\":2922:3609   */\n    tag_124:\n        /* \"#utility.yul\":3069:3073   */\n      0x60\n        /* \"#utility.yul\":3064:3067   */\n      dup3\n        /* \"#utility.yul\":3060:3074   */\n      add\n        /* \"#utility.yul\":3156:3160   */\n      0x00\n        /* \"#utility.yul\":3149:3154   */\n      dup3\n        /* \"#utility.yul\":3145:3161   */\n      add\n        /* \"#utility.yul\":3139:3162   */\n      mload\n        /* \"#utility.yul\":3175:3238   */\n      tag_164\n        /* \"#utility.yul\":3232:3236   */\n      0x00\n        /* \"#utility.yul\":3227:3230   */\n      dup6\n        /* \"#utility.yul\":3223:3237   */\n      add\n        /* \"#utility.yul\":3209:3221   */\n      dup3\n        /* \"#utility.yul\":3175:3238   */\n      tag_123\n      jump\t// in\n    tag_164:\n        /* \"#utility.yul\":3084:3248   */\n      pop\n        /* \"#utility.yul\":3330:3334   */\n      0x20\n        /* \"#utility.yul\":3323:3328   */\n      dup3\n        /* \"#utility.yul\":3319:3335   */\n      add\n        /* \"#utility.yul\":3313:3336   */\n      mload\n        /* \"#utility.yul\":3349:3412   */\n      tag_165\n        /* \"#utility.yul\":3406:3410   */\n      0x20\n        /* \"#utility.yul\":3401:3404   */\n      dup6\n        /* \"#utility.yul\":3397:3411   */\n      add\n        /* \"#utility.yul\":3383:3395   */\n      dup3\n        /* \"#utility.yul\":3349:3412   */\n      tag_123\n      jump\t// in\n    tag_165:\n        /* \"#utility.yul\":3258:3422   */\n      pop\n        /* \"#utility.yul\":3510:3514   */\n      0x40\n        /* \"#utility.yul\":3503:3508   */\n      dup3\n        /* \"#utility.yul\":3499:3515   */\n      add\n        /* \"#utility.yul\":3493:3516   */\n      mload\n        /* \"#utility.yul\":3529:3592   */\n      tag_166\n        /* \"#utility.yul\":3586:3590   */\n      0x40\n        /* \"#utility.yul\":3581:3584   */\n      dup6\n        /* \"#utility.yul\":3577:3591   */\n      add\n        /* \"#utility.yul\":3563:3575   */\n      dup3\n        /* \"#utility.yul\":3529:3592   */\n      tag_123\n      jump\t// in\n    tag_166:\n        /* \"#utility.yul\":3432:3602   */\n      pop\n        /* \"#utility.yul\":3038:3609   */\n      pop\n        /* \"#utility.yul\":2922:3609   */\n      pop\n      pop\n      jump\t// out\n        /* \"#utility.yul\":3615:3937   */\n    tag_33:\n        /* \"#utility.yul\":3758:3762   */\n      0x00\n        /* \"#utility.yul\":3796:3798   */\n      0x60\n        /* \"#utility.yul\":3785:3794   */\n      dup3\n        /* \"#utility.yul\":3781:3799   */\n      add\n        /* \"#utility.yul\":3773:3799   */\n      swap1\n      pop\n        /* \"#utility.yul\":3809:3930   */\n      tag_168\n        /* \"#utility.yul\":3927:3928   */\n      0x00\n        /* \"#utility.yul\":3916:3925   */\n      dup4\n        /* \"#utility.yul\":3912:3929   */\n      add\n        /* \"#utility.yul\":3903:3909   */\n      dup5\n        /* \"#utility.yul\":3809:3930   */\n      tag_124\n      jump\t// in\n    tag_168:\n        /* \"#utility.yul\":3615:3937   */\n      swap3\n      swap2\n      pop\n      pop\n      jump\t// out\n        /* \"#utility.yul\":3943:4112   */\n    tag_125:\n        /* \"#utility.yul\":4027:4038   */\n      0x00\n        /* \"#utility.yul\":4061:4067   */\n      dup3\n        /* \"#utility.yul\":4056:4059   */\n      dup3\n        /* \"#utility.yul\":4049:4068   */\n      mstore\n        /* \"#utility.yul\":4101:4105   */\n      0x20\n        /* \"#utility.yul\":4096:4099   */\n      dup3\n        /* \"#utility.yul\":4092:4106   */\n      add\n        /* \"#utility.yul\":4077:4106   */\n      swap1\n      pop\n        /* \"#utility.yul\":3943:4112   */\n      swap3\n      swap2\n      pop\n      pop\n      jump\t// out\n        /* \"#utility.yul\":4118:4293   */\n    tag_126:\n        /* \"#utility.yul\":4258:4285   */\n      0x596f752063616e6e6f7420646976696465206279207a65726f00000000000000\n        /* \"#utility.yul\":4254:4255   */\n      0x00\n        /* \"#utility.yul\":4246:4252   */\n      dup3\n        /* \"#utility.yul\":4242:4256   */\n      add\n        /* \"#utility.yul\":4235:4286   */\n      mstore\n        /* \"#utility.yul\":4118:4293   */\n      pop\n      jump\t// out\n        /* \"#utility.yul\":4299:4665   */\n    tag_127:\n        /* \"#utility.yul\":4441:4444   */\n      0x00\n        /* \"#utility.yul\":4462:4529   */\n      tag_172\n        /* \"#utility.yul\":4526:4528   */\n      0x19\n        /* \"#utility.yul\":4521:4524   */\n      dup4\n        /* \"#utility.yul\":4462:4529   */\n      tag_125\n      jump\t// in\n    tag_172:\n        /* \"#utility.yul\":4455:4529   */\n      swap2\n      pop\n        /* \"#utility.yul\":4538:4631   */\n      tag_173\n        /* \"#utility.yul\":4627:4630   */\n      dup3\n        /* \"#utility.yul\":4538:4631   */\n      tag_126\n      jump\t// in\n    tag_173:\n        /* \"#utility.yul\":4656:4658   */\n      0x20\n        /* \"#utility.yul\":4651:4654   */\n      dup3\n        /* \"#utility.yul\":4647:4659   */\n      add\n        /* \"#utility.yul\":4640:4659   */\n      swap1\n      pop\n        /* \"#utility.yul\":4299:4665   */\n      swap2\n      swap1\n      pop\n      jump\t// out\n        /* \"#utility.yul\":4671:5090   */\n    tag_49:\n        /* \"#utility.yul\":4837:4841   */\n      0x00\n        /* \"#utility.yul\":4875:4877   */\n      0x20\n        /* \"#utility.yul\":4864:4873   */\n      dup3\n        /* \"#utility.yul\":4860:4878   */\n      add\n        /* \"#utility.yul\":4852:4878   */\n      swap1\n      pop\n        /* \"#utility.yul\":4924:4933   */\n      dup2\n        /* \"#utility.yul\":4918:4922   */\n      dup2\n        /* \"#utility.yul\":4914:4934   */\n      sub\n        /* \"#utility.yul\":4910:4911   */\n      0x00\n        /* \"#utility.yul\":4899:4908   */\n      dup4\n        /* \"#utility.yul\":4895:4912   */\n      add\n        /* \"#utility.yul\":4888:4935   */\n      mstore\n        /* \"#utility.yul\":4952:5083   */\n      tag_175\n        /* \"#utility.yul\":5078:5082   */\n      dup2\n        /* \"#utility.yul\":4952:5083   */\n      tag_127\n      jump\t// in\n    tag_175:\n        /* \"#utility.yul\":4944:5083   */\n      swap1\n      pop\n        /* \"#utility.yul\":4671:5090   */\n      swap2\n      swap1\n      pop\n      jump\t// out\n        /* \"#utility.yul\":5096:5276   */\n    tag_60:\n        /* \"#utility.yul\":5144:5221   */\n      0x4e487b7100000000000000000000000000000000000000000000000000000000\n        /* \"#utility.yul\":5141:5142   */\n      0x00\n        /* \"#utility.yul\":5134:5222   */\n      mstore\n        /* \"#utility.yul\":5241:5245   */\n      0x32\n        /* \"#utility.yul\":5238:5239   */\n      0x04\n        /* \"#utility.yul\":5231:5246   */\n      mstore\n        /* \"#utility.yul\":5265:5269   */\n      0x24\n        /* \"#utility.yul\":5262:5263   */\n      0x00\n        /* \"#utility.yul\":5255:5270   */\n      revert\n        /* \"#utility.yul\":5282:5462   */\n    tag_128:\n        /* \"#utility.yul\":5330:5407   */\n      0x4e487b7100000000000000000000000000000000000000000000000000000000\n        /* \"#utility.yul\":5327:5328   */\n      0x00\n        /* \"#utility.yul\":5320:5408   */\n      mstore\n        /* \"#utility.yul\":5427:5431   */\n      0x11\n        /* \"#utility.yul\":5424:5425   */\n      0x04\n        /* \"#utility.yul\":5417:5432   */\n      mstore\n        /* \"#utility.yul\":5451:5455   */\n      0x24\n        /* \"#utility.yul\":5448:5449   */\n      0x00\n        /* \"#utility.yul\":5441:5456   */\n      revert\n        /* \"#utility.yul\":5468:5701   */\n    tag_63:\n        /* \"#utility.yul\":5507:5510   */\n      0x00\n        /* \"#utility.yul\":5530:5554   */\n      tag_179\n        /* \"#utility.yul\":5548:5553   */\n      dup3\n        /* \"#utility.yul\":5530:5554   */\n      tag_121\n      jump\t// in\n    tag_179:\n        /* \"#utility.yul\":5521:5554   */\n      swap2\n      pop\n        /* \"#utility.yul\":5576:5642   */\n      0xffffffffffffffffffffffffffffffffffffffffffffffffffffffffffffffff\n        /* \"#utility.yul\":5569:5574   */\n      dup3\n        /* \"#utility.yul\":5566:5643   */\n      sub\n        /* \"#utility.yul\":5563:5666   */\n      tag_180\n      jumpi\n        /* \"#utility.yul\":5646:5664   */\n      tag_181\n      tag_128\n      jump\t// in\n    tag_181:\n        /* \"#utility.yul\":5563:5666   */\n    tag_180:\n        /* \"#utility.yul\":5693:5694   */\n      0x01\n        /* \"#utility.yul\":5686:5691   */\n      dup3\n        /* \"#utility.yul\":5682:5695   */\n      add\n        /* \"#utility.yul\":5675:5695   */\n      swap1\n      pop\n        /* \"#utility.yul\":5468:5701   */\n      swap2\n      swap1\n      pop\n      jump\t// out\n        /* \"#utility.yul\":5707:5793   */\n    tag_129:\n        /* \"#utility.yul\":5742:5749   */\n      0x00\n        /* \"#utility.yul\":5782:5786   */\n      0xff\n        /* \"#utility.yul\":5775:5780   */\n      dup3\n        /* \"#utility.yul\":5771:5787   */\n      and\n        /* \"#utility.yul\":5760:5787   */\n      swap1\n      pop\n        /* \"#utility.yul\":5707:5793   */\n      swap2\n      swap1\n      pop\n      jump\t// out\n        /* \"#utility.yul\":5799:5966   */\n    tag_66:\n        /* \"#utility.yul\":5836:5839   */\n      0x00\n        /* \"#utility.yul\":5859:5881   */\n      tag_184\n        /* \"#utility.yul\":5875:5880   */\n      dup3\n        /* \"#utility.yul\":5859:5881   */\n      tag_129\n      jump\t// in\n    tag_184:\n        /* \"#utility.yul\":5850:5881   */\n      swap2\n      pop\n        /* \"#utility.yul\":5903:5907   */\n      0xff\n        /* \"#utility.yul\":5896:5901   */\n      dup3\n        /* \"#utility.yul\":5893:5908   */\n      sub\n        /* \"#utility.yul\":5890:5931   */\n      tag_185\n      jumpi\n        /* \"#utility.yul\":5911:5929   */\n      tag_186\n      tag_128\n      jump\t// in\n    tag_186:\n        /* \"#utility.yul\":5890:5931   */\n    tag_185:\n        /* \"#utility.yul\":5958:5959   */\n      0x01\n        /* \"#utility.yul\":5951:5956   */\n      dup3\n        /* \"#utility.yul\":5947:5960   */\n      add\n        /* \"#utility.yul\":5940:5960   */\n      swap1\n      pop\n        /* \"#utility.yul\":5799:5966   */\n      swap2\n      swap1\n      pop\n      jump\t// out\n        /* \"#utility.yul\":5972:6163   */\n    tag_69:\n        /* \"#utility.yul\":6012:6015   */\n      0x00\n        /* \"#utility.yul\":6031:6051   */\n      tag_188\n        /* \"#utility.yul\":6049:6050   */\n      dup3\n        /* \"#utility.yul\":6031:6051   */\n      tag_121\n      jump\t// in\n    tag_188:\n        /* \"#utility.yul\":6026:6051   */\n      swap2\n      pop\n        /* \"#utility.yul\":6065:6085   */\n      tag_189\n        /* \"#utility.yul\":6083:6084   */\n      dup4\n        /* \"#utility.yul\":6065:6085   */\n      tag_121\n      jump\t// in\n    tag_189:\n        /* \"#utility.yul\":6060:6085   */\n      swap3\n      pop\n        /* \"#utility.yul\":6108:6109   */\n      dup3\n        /* \"#utility.yul\":6105:6106   */\n      dup3\n        /* \"#utility.yul\":6101:6110   */\n      add\n        /* \"#utility.yul\":6094:6110   */\n      swap1\n      pop\n        /* \"#utility.yul\":6129:6132   */\n      dup1\n        /* \"#utility.yul\":6126:6127   */\n      dup3\n        /* \"#utility.yul\":6123:6133   */\n      gt\n        /* \"#utility.yul\":6120:6156   */\n      iszero\n      tag_190\n      jumpi\n        /* \"#utility.yul\":6136:6154   */\n      tag_191\n      tag_128\n      jump\t// in\n    tag_191:\n        /* \"#utility.yul\":6120:6156   */\n    tag_190:\n        /* \"#utility.yul\":5972:6163   */\n      swap3\n      swap2\n      pop\n      pop\n      jump\t// out\n        /* \"#utility.yul\":6169:6342   */\n    tag_130:\n        /* \"#utility.yul\":6309:6334   */\n      0x4172726179206d757374206e6f7420626520656d707479000000000000000000\n        /* \"#utility.yul\":6305:6306   */\n      0x00\n        /* \"#utility.yul\":6297:6303   */\n      dup3\n        /* \"#utility.yul\":6293:6307   */\n      add\n        /* \"#utility.yul\":6286:6335   */\n      mstore\n        /* \"#utility.yul\":6169:6342   */\n      pop\n      jump\t// out\n        /* \"#utility.yul\":6348:6714   */\n    tag_131:\n        /* \"#utility.yul\":6490:6493   */\n      0x00\n        /* \"#utility.yul\":6511:6578   */\n      tag_194\n        /* \"#utility.yul\":6575:6577   */\n      0x17\n        /* \"#utility.yul\":6570:6573   */\n      dup4\n        /* \"#utility.yul\":6511:6578   */\n      tag_125\n      jump\t// in\n    tag_194:\n        /* \"#utility.yul\":6504:6578   */\n      swap2\n      pop\n        /* \"#utility.yul\":6587:6680   */\n      tag_195\n        /* \"#utility.yul\":6676:6679   */\n      dup3\n        /* \"#utility.yul\":6587:6680   */\n      tag_130\n      jump\t// in\n    tag_195:\n        /* \"#utility.yul\":6705:6707   */\n      0x20\n        /* \"#utility.yul\":6700:6703   */\n      dup3\n        /* \"#utility.yul\":6696:6708   */\n      add\n        /* \"#utility.yul\":6689:6708   */\n      swap1\n      pop\n        /* \"#utility.yul\":6348:6714   */\n      swap2\n      swap1\n      pop\n      jump\t// out\n        /* \"#utility.yul\":6720:7139   */\n    tag_81:\n        /* \"#utility.yul\":6886:6890   */\n      0x00\n        /* \"#utility.yul\":6924:6926   */\n      0x20\n        /* \"#utility.yul\":6913:6922   */\n      dup3\n        /* \"#utility.yul\":6909:6927   */\n      add\n        /* \"#utility.yul\":6901:6927   */\n      swap1\n      pop\n        /* \"#utility.yul\":6973:6982   */\n      dup2\n        /* \"#utility.yul\":6967:6971   */\n      dup2\n        /* \"#utility.yul\":6963:6983   */\n      sub\n        /* \"#utility.yul\":6959:6960   */\n      0x00\n        /* \"#utility.yul\":6948:6957   */\n      dup4\n        /* \"#utility.yul\":6944:6961   */\n      add\n        /* \"#utility.yul\":6937:6984   */\n      mstore\n        /* \"#utility.yul\":7001:7132   */\n      tag_197\n        /* \"#utility.yul\":7127:7131   */\n      dup2\n        /* \"#utility.yul\":7001:7132   */\n      tag_131\n      jump\t// in\n    tag_197:\n        /* \"#utility.yul\":6993:7132   */\n      swap1\n      pop\n        /* \"#utility.yul\":6720:7139   */\n      swap2\n      swap1\n      pop\n      jump\t// out\n        /* \"#utility.yul\":7145:7325   */\n    tag_106:\n        /* \"#utility.yul\":7193:7270   */\n      0x4e487b7100000000000000000000000000000000000000000000000000000000\n        /* \"#utility.yul\":7190:7191   */\n      0x00\n        /* \"#utility.yul\":7183:7271   */\n      mstore\n        /* \"#utility.yul\":7290:7294   */\n      0x12\n        /* \"#utility.yul\":7287:7288   */\n      0x04\n        /* \"#utility.yul\":7280:7295   */\n      mstore\n        /* \"#utility.yul\":7314:7318   */\n      0x24\n        /* \"#utility.yul\":7311:7312   */\n      0x00\n        /* \"#utility.yul\":7304:7319   */\n      revert\n\n    auxdata: 0xa26469706673582212201ce5fb09e087d9535e86ea870b9937616eb9b016d173bab9fc2898ffff9a823f64736f6c63430008190033\n}\n",
				"bytecode": {
					"linkReferences": {},
					"object": "60806040525f805560405180606001604052805f81526020015f81526020015f81525060015f820151815f015560208201518160010155604082015181600201555050348015604c575f80fd5b50610b498061005a5f395ff3fe608060405234801561000f575f80fd5b506004361061007b575f3560e01c806343e376381161005957806343e37638146100d757806365372147146100f3578063aa04375c14610111578063bdb35499146101415761007b565b806310b0b5d51461007f578063239de9f41461009b57806342577da2146100b7575b5f80fd5b610099600480360381019061009491906107e5565b61015d565b005b6100b560048036038101906100b091906107e5565b6101c7565b005b6100bf61023b565b6040516100ce93929190610848565b60405180910390f35b6100f160048036038101906100ec91906107e5565b610252565b005b6100fb6102f5565b604051610108919061087d565b60405180910390f35b61012b600480360381019061012691906107e5565b6102fa565b60405161013891906108e5565b60405180910390f35b61015b600480360381019061015691906107e5565b6104e4565b005b5f8282905003156101c3576101bd61054e8383808060200260200160405190810160405280939291908181526020018383602002808284375f81840152601f19601f8201169050808301925050505050505061057090919063ffffffff16565b5f819055505b5050565b5f82829050036101dc575f8081905550610237565b6102316106258383808060200260200160405190810160405280939291908181526020018383602002808284375f81840152601f19601f8201169050808301925050505050505061057090919063ffffffff16565b5f819055505b5050565b6001805f0154908060010154908060020154905083565b5f8282905003610297576040517f08c379a000000000000000000000000000000000000000000000000000000000815260040161028e90610958565b60405180910390fd5b6102ec6106478383808060200260200160405190810160405280939291908181526020018383602002808284375f81840152601f19601f8201169050808301925050505050505061057090919063ffffffff16565b5f819055505050565b5f5481565b61030261075e565b5f805f805b86869050811015610492575f87878381811061032657610325610976565b5b9050602002013590505f60045f8381526020019081526020015f205f015f9054906101000a900460ff1660ff16036103c0576040518060400160405280600160ff1681526020018281525060045f8381526020019081526020015f205f820151815f015f6101000a81548160ff021916908360ff1602179055506020820151816001015590505084806103b8906109d0565b955050610476565b60045f8281526020019081526020015f205f015f81819054906101000a900460ff16809291906103ef90610a23565b91906101000a81548160ff021916908360ff160217905550508260045f8381526020019081526020015f205f015f9054906101000a900460ff1660ff1611156104755760045f8281526020019081526020015f2060010154600180018190555060045f8281526020019081526020015f205f015f9054906101000a900460ff1660ff1692505b5b80846104829190610a4b565b9350508080600101915050610307565b505f8311156104a5578160015f01819055505b8260016002018190555060016040518060600160405290815f820154815260200160018201548152602001600282015481525050935050505092915050565b5f82829050031561054a576105446106698383808060200260200160405190810160405280939291908181526020018383602002808284375f81840152601f19601f8201169050808301925050505050505061057090919063ffffffff16565b5f819055505b5050565b5f80610563838561068b90919063ffffffff16565b9150508091505092915050565b5f825f8151036105b5576040517f08c379a00000000000000000000000000000000000000000000000000000000081526004016105ac90610ac8565b60405180910390fd5b5f845f815181106105c9576105c8610976565b5b602002602001015190505f600190505b85518110156106195761060a828783815181106105f9576105f8610976565b5b60200260200101518763ffffffff16565b915080806001019150506105d9565b50809250505092915050565b5f8061063a83856106b790919063ffffffff16565b9150508091505092915050565b5f8061065c838561070590919063ffffffff16565b9150508091505092915050565b5f8061067e838561073890919063ffffffff16565b9150508091505092915050565b5f805f8385019050848110156106a7575f8092509250506106b0565b60018192509250505b9250929050565b5f805f84036106cc5760015f915091506106fe565b5f8385029050838582816106e3576106e2610ae6565b5b04146106f5575f8092509250506106fe565b60018192509250505b9250929050565b5f805f8303610719575f8091509150610731565b600183858161072b5761072a610ae6565b5b04915091505b9250929050565b5f808383111561074d575f8091509150610757565b6001838503915091505b9250929050565b60405180606001604052805f81526020015f81526020015f81525090565b5f80fd5b5f80fd5b5f80fd5b5f80fd5b5f80fd5b5f8083601f8401126107a5576107a4610784565b5b8235905067ffffffffffffffff8111156107c2576107c1610788565b5b6020830191508360208202830111156107de576107dd61078c565b5b9250929050565b5f80602083850312156107fb576107fa61077c565b5b5f83013567ffffffffffffffff81111561081857610817610780565b5b61082485828601610790565b92509250509250929050565b5f819050919050565b61084281610830565b82525050565b5f60608201905061085b5f830186610839565b6108686020830185610839565b6108756040830184610839565b949350505050565b5f6020820190506108905f830184610839565b92915050565b61089f81610830565b82525050565b606082015f8201516108b95f850182610896565b5060208201516108cc6020850182610896565b5060408201516108df6040850182610896565b50505050565b5f6060820190506108f85f8301846108a5565b92915050565b5f82825260208201905092915050565b7f596f752063616e6e6f7420646976696465206279207a65726f000000000000005f82015250565b5f6109426019836108fe565b915061094d8261090e565b602082019050919050565b5f6020820190508181035f83015261096f81610936565b9050919050565b7f4e487b71000000000000000000000000000000000000000000000000000000005f52603260045260245ffd5b7f4e487b71000000000000000000000000000000000000000000000000000000005f52601160045260245ffd5b5f6109da82610830565b91507fffffffffffffffffffffffffffffffffffffffffffffffffffffffffffffffff8203610a0c57610a0b6109a3565b5b600182019050919050565b5f60ff82169050919050565b5f610a2d82610a17565b915060ff8203610a4057610a3f6109a3565b5b600182019050919050565b5f610a5582610830565b9150610a6083610830565b9250828201905080821115610a7857610a776109a3565b5b92915050565b7f4172726179206d757374206e6f7420626520656d7074790000000000000000005f82015250565b5f610ab26017836108fe565b9150610abd82610a7e565b602082019050919050565b5f6020820190508181035f830152610adf81610aa6565b9050919050565b7f4e487b71000000000000000000000000000000000000000000000000000000005f52601260045260245ffdfea26469706673582212201ce5fb09e087d9535e86ea870b9937616eb9b016d173bab9fc2898ffff9a823f64736f6c63430008190033",
					"opcodes": "PUSH1 0x80 PUSH1 0x40 MSTORE PUSH0 DUP1 SSTORE PUSH1 0x40 MLOAD DUP1 PUSH1 0x60 ADD PUSH1 0x40 MSTORE DUP1 PUSH0 DUP2 MSTORE PUSH1 0x20 ADD PUSH0 DUP2 MSTORE PUSH1 0x20 ADD PUSH0 DUP2 MSTORE POP PUSH1 0x1 PUSH0 DUP3 ADD MLOAD DUP2 PUSH0 ADD SSTORE PUSH1 0x20 DUP3 ADD MLOAD DUP2 PUSH1 0x1 ADD SSTORE PUSH1 0x40 DUP3 ADD MLOAD DUP2 PUSH1 0x2 ADD SSTORE POP POP CALLVALUE DUP1 ISZERO PUSH1 0x4C JUMPI PUSH0 DUP1 REVERT JUMPDEST POP PUSH2 0xB49 DUP1 PUSH2 0x5A PUSH0 CODECOPY PUSH0 RETURN INVALID PUSH1 0x80 PUSH1 0x40 MSTORE CALLVALUE DUP1 ISZERO PUSH2 0xF JUMPI PUSH0 DUP1 REVERT JUMPDEST POP PUSH1 0x4 CALLDATASIZE LT PUSH2 0x7B JUMPI PUSH0 CALLDATALOAD PUSH1 0xE0 SHR DUP1 PUSH4 0x43E37638 GT PUSH2 0x59 JUMPI DUP1 PUSH4 0x43E37638 EQ PUSH2 0xD7 JUMPI DUP1 PUSH4 0x65372147 EQ PUSH2 0xF3 JUMPI DUP1 PUSH4 0xAA04375C EQ PUSH2 0x111 JUMPI DUP1 PUSH4 0xBDB35499 EQ PUSH2 0x141 JUMPI PUSH2 0x7B JUMP JUMPDEST DUP1 PUSH4 0x10B0B5D5 EQ PUSH2 0x7F JUMPI DUP1 PUSH4 0x239DE9F4 EQ PUSH2 0x9B JUMPI DUP1 PUSH4 0x42577DA2 EQ PUSH2 0xB7 JUMPI JUMPDEST PUSH0 DUP1 REVERT JUMPDEST PUSH2 0x99 PUSH1 0x4 DUP1 CALLDATASIZE SUB DUP2 ADD SWAP1 PUSH2 0x94 SWAP2 SWAP1 PUSH2 0x7E5 JUMP JUMPDEST PUSH2 0x15D JUMP JUMPDEST STOP JUMPDEST PUSH2 0xB5 PUSH1 0x4 DUP1 CALLDATASIZE SUB DUP2 ADD SWAP1 PUSH2 0xB0 SWAP2 SWAP1 PUSH2 0x7E5 JUMP JUMPDEST PUSH2 0x1C7 JUMP JUMPDEST STOP JUMPDEST PUSH2 0xBF PUSH2 0x23B JUMP JUMPDEST PUSH1 0x40 MLOAD PUSH2 0xCE SWAP4 SWAP3 SWAP2 SWAP1 PUSH2 0x848 JUMP JUMPDEST PUSH1 0x40 MLOAD DUP1 SWAP2 SUB SWAP1 RETURN JUMPDEST PUSH2 0xF1 PUSH1 0x4 DUP1 CALLDATASIZE SUB DUP2 ADD SWAP1 PUSH2 0xEC SWAP2 SWAP1 PUSH2 0x7E5 JUMP JUMPDEST PUSH2 0x252 JUMP JUMPDEST STOP JUMPDEST PUSH2 0xFB PUSH2 0x2F5 JUMP JUMPDEST PUSH1 0x40 MLOAD PUSH2 0x108 SWAP2 SWAP1 PUSH2 0x87D JUMP JUMPDEST PUSH1 0x40 MLOAD DUP1 SWAP2 SUB SWAP1 RETURN JUMPDEST PUSH2 0x12B PUSH1 0x4 DUP1 CALLDATASIZE SUB DUP2 ADD SWAP1 PUSH2 0x126 SWAP2 SWAP1 PUSH2 0x7E5 JUMP JUMPDEST PUSH2 0x2FA JUMP JUMPDEST PUSH1 0x40 MLOAD PUSH2 0x138 SWAP2 SWAP1 PUSH2 0x8E5 JUMP JUMPDEST PUSH1 0x40 MLOAD DUP1 SWAP2 SUB SWAP1 RETURN JUMPDEST PUSH2 0x15B PUSH1 0x4 DUP1 CALLDATASIZE SUB DUP2 ADD SWAP1 PUSH2 0x156 SWAP2 SWAP1 PUSH2 0x7E5 JUMP JUMPDEST PUSH2 0x4E4 JUMP JUMPDEST STOP JUMPDEST PUSH0 DUP3 DUP3 SWAP1 POP SUB ISZERO PUSH2 0x1C3 JUMPI PUSH2 0x1BD PUSH2 0x54E DUP4 DUP4 DUP1 DUP1 PUSH1 0x20 MUL PUSH1 0x20 ADD PUSH1 0x40 MLOAD SWAP1 DUP2 ADD PUSH1 0x40 MSTORE DUP1 SWAP4 SWAP3 SWAP2 SWAP1 DUP2 DUP2 MSTORE PUSH1 0x20 ADD DUP4 DUP4 PUSH1 0x20 MUL DUP1 DUP3 DUP5 CALLDATACOPY PUSH0 DUP2 DUP5 ADD MSTORE PUSH1 0x1F NOT PUSH1 0x1F DUP3 ADD AND SWAP1 POP DUP1 DUP4 ADD SWAP3 POP POP POP POP POP POP POP PUSH2 0x570 SWAP1 SWAP2 SWAP1 PUSH4 0xFFFFFFFF AND JUMP JUMPDEST PUSH0 DUP2 SWAP1 SSTORE POP JUMPDEST POP POP JUMP JUMPDEST PUSH0 DUP3 DUP3 SWAP1 POP SUB PUSH2 0x1DC JUMPI PUSH0 DUP1 DUP2 SWAP1 SSTORE POP PUSH2 0x237 JUMP JUMPDEST PUSH2 0x231 PUSH2 0x625 DUP4 DUP4 DUP1 DUP1 PUSH1 0x20 MUL PUSH1 0x20 ADD PUSH1 0x40 MLOAD SWAP1 DUP2 ADD PUSH1 0x40 MSTORE DUP1 SWAP4 SWAP3 SWAP2 SWAP1 DUP2 DUP2 MSTORE PUSH1 0x20 ADD DUP4 DUP4 PUSH1 0x20 MUL DUP1 DUP3 DUP5 CALLDATACOPY PUSH0 DUP2 DUP5 ADD MSTORE PUSH1 0x1F NOT PUSH1 0x1F DUP3 ADD AND SWAP1 POP DUP1 DUP4 ADD SWAP3 POP POP POP POP POP POP POP PUSH2 0x570 SWAP1 SWAP2 SWAP1 PUSH4 0xFFFFFFFF AND JUMP JUMPDEST PUSH0 DUP2 SWAP1 SSTORE POP JUMPDEST POP POP JUMP JUMPDEST PUSH1 0x1 DUP1 PUSH0 ADD SLOAD SWAP1 DUP1 PUSH1 0x1 ADD SLOAD SWAP1 DUP1 PUSH1 0x2 ADD SLOAD SWAP1 POP DUP4 JUMP JUMPDEST PUSH0 DUP3 DUP3 SWAP1 POP SUB PUSH2 0x297 JUMPI PUSH1 0x40 MLOAD PUSH32 0x8C379A000000000000000000000000000000000000000000000000000000000 DUP2 MSTORE PUSH1 0x4 ADD PUSH2 0x28E SWAP1 PUSH2 0x958 JUMP JUMPDEST PUSH1 0x40 MLOAD DUP1 SWAP2 SUB SWAP1 REVERT JUMPDEST PUSH2 0x2EC PUSH2 0x647 DUP4 DUP4 DUP1 DUP1 PUSH1 0x20 MUL PUSH1 0x20 ADD PUSH1 0x40 MLOAD SWAP1 DUP2 ADD PUSH1 0x40 MSTORE DUP1 SWAP4 SWAP3 SWAP2 SWAP1 DUP2 DUP2 MSTORE PUSH1 0x20 ADD DUP4 DUP4 PUSH1 0x20 MUL DUP1 DUP3 DUP5 CALLDATACOPY PUSH0 DUP2 DUP5 ADD MSTORE PUSH1 0x1F NOT PUSH1 0x1F DUP3 ADD AND SWAP1 POP DUP1 DUP4 ADD SWAP3 POP POP POP POP POP POP POP PUSH2 0x570 SWAP1 SWAP2 SWAP1 PUSH4 0xFFFFFFFF AND JUMP JUMPDEST PUSH0 DUP2 SWAP1 SSTORE POP POP POP JUMP JUMPDEST PUSH0 SLOAD DUP2 JUMP JUMPDEST PUSH2 0x302 PUSH2 0x75E JUMP JUMPDEST PUSH0 DUP1 PUSH0 DUP1 JUMPDEST DUP7 DUP7 SWAP1 POP DUP2 LT ISZERO PUSH2 0x492 JUMPI PUSH0 DUP8 DUP8 DUP4 DUP2 DUP2 LT PUSH2 0x326 JUMPI PUSH2 0x325 PUSH2 0x976 JUMP JUMPDEST JUMPDEST SWAP1 POP PUSH1 0x20 MUL ADD CALLDATALOAD SWAP1 POP PUSH0 PUSH1 0x4 PUSH0 DUP4 DUP2 MSTORE PUSH1 0x20 ADD SWAP1 DUP2 MSTORE PUSH1 0x20 ADD PUSH0 KECCAK256 PUSH0 ADD PUSH0 SWAP1 SLOAD SWAP1 PUSH2 0x100 EXP SWAP1 DIV PUSH1 0xFF AND PUSH1 0xFF AND SUB PUSH2 0x3C0 JUMPI PUSH1 0x40 MLOAD DUP1 PUSH1 0x40 ADD PUSH1 0x40 MSTORE DUP1 PUSH1 0x1 PUSH1 0xFF AND DUP2 MSTORE PUSH1 0x20 ADD DUP3 DUP2 MSTORE POP PUSH1 0x4 PUSH0 DUP4 DUP2 MSTORE PUSH1 0x20 ADD SWAP1 DUP2 MSTORE PUSH1 0x20 ADD PUSH0 KECCAK256 PUSH0 DUP3 ADD MLOAD DUP2 PUSH0 ADD PUSH0 PUSH2 0x100 EXP DUP2 SLOAD DUP2 PUSH1 0xFF MUL NOT AND SWAP1 DUP4 PUSH1 0xFF AND MUL OR SWAP1 SSTORE POP PUSH1 0x20 DUP3 ADD MLOAD DUP2 PUSH1 0x1 ADD SSTORE SWAP1 POP POP DUP5 DUP1 PUSH2 0x3B8 SWAP1 PUSH2 0x9D0 JUMP JUMPDEST SWAP6 POP POP PUSH2 0x476 JUMP JUMPDEST PUSH1 0x4 PUSH0 DUP3 DUP2 MSTORE PUSH1 0x20 ADD SWAP1 DUP2 MSTORE PUSH1 0x20 ADD PUSH0 KECCAK256 PUSH0 ADD PUSH0 DUP2 DUP2 SWAP1 SLOAD SWAP1 PUSH2 0x100 EXP SWAP1 DIV PUSH1 0xFF AND DUP1 SWAP3 SWAP2 SWAP1 PUSH2 0x3EF SWAP1 PUSH2 0xA23 JUMP JUMPDEST SWAP2 SWAP1 PUSH2 0x100 EXP DUP2 SLOAD DUP2 PUSH1 0xFF MUL NOT AND SWAP1 DUP4 PUSH1 0xFF AND MUL OR SWAP1 SSTORE POP POP DUP3 PUSH1 0x4 PUSH0 DUP4 DUP2 MSTORE PUSH1 0x20 ADD SWAP1 DUP2 MSTORE PUSH1 0x20 ADD PUSH0 KECCAK256 PUSH0 ADD PUSH0 SWAP1 SLOAD SWAP1 PUSH2 0x100 EXP SWAP1 DIV PUSH1 0xFF AND PUSH1 0xFF AND GT ISZERO PUSH2 0x475 JUMPI PUSH1 0x4 PUSH0 DUP3 DUP2 MSTORE PUSH1 0x20 ADD SWAP1 DUP2 MSTORE PUSH1 0x20 ADD PUSH0 KECCAK256 PUSH1 0x1 ADD SLOAD PUSH1 0x1 DUP1 ADD DUP2 SWAP1 SSTORE POP PUSH1 0x4 PUSH0 DUP3 DUP2 MSTORE PUSH1 0x20 ADD SWAP1 DUP2 MSTORE PUSH1 0x20 ADD PUSH0 KECCAK256 PUSH0 ADD PUSH0 SWAP1 SLOAD SWAP1 PUSH2 0x100 EXP SWAP1 DIV PUSH1 0xFF AND PUSH1 0xFF AND SWAP3 POP JUMPDEST JUMPDEST DUP1 DUP5 PUSH2 0x482 SWAP2 SWAP1 PUSH2 0xA4B JUMP JUMPDEST SWAP4 POP POP DUP1 DUP1 PUSH1 0x1 ADD SWAP2 POP POP PUSH2 0x307 JUMP JUMPDEST POP PUSH0 DUP4 GT ISZERO PUSH2 0x4A5 JUMPI DUP2 PUSH1 0x1 PUSH0 ADD DUP2 SWAP1 SSTORE POP JUMPDEST DUP3 PUSH1 0x1 PUSH1 0x2 ADD DUP2 SWAP1 SSTORE POP PUSH1 0x1 PUSH1 0x40 MLOAD DUP1 PUSH1 0x60 ADD PUSH1 0x40 MSTORE SWAP1 DUP2 PUSH0 DUP3 ADD SLOAD DUP2 MSTORE PUSH1 0x20 ADD PUSH1 0x1 DUP3 ADD SLOAD DUP2 MSTORE PUSH1 0x20 ADD PUSH1 0x2 DUP3 ADD SLOAD DUP2 MSTORE POP POP SWAP4 POP POP POP POP SWAP3 SWAP2 POP POP JUMP JUMPDEST PUSH0 DUP3 DUP3 SWAP1 POP SUB ISZERO PUSH2 0x54A JUMPI PUSH2 0x544 PUSH2 0x669 DUP4 DUP4 DUP1 DUP1 PUSH1 0x20 MUL PUSH1 0x20 ADD PUSH1 0x40 MLOAD SWAP1 DUP2 ADD PUSH1 0x40 MSTORE DUP1 SWAP4 SWAP3 SWAP2 SWAP1 DUP2 DUP2 MSTORE PUSH1 0x20 ADD DUP4 DUP4 PUSH1 0x20 MUL DUP1 DUP3 DUP5 CALLDATACOPY PUSH0 DUP2 DUP5 ADD MSTORE PUSH1 0x1F NOT PUSH1 0x1F DUP3 ADD AND SWAP1 POP DUP1 DUP4 ADD SWAP3 POP POP POP POP POP POP POP PUSH2 0x570 SWAP1 SWAP2 SWAP1 PUSH4 0xFFFFFFFF AND JUMP JUMPDEST PUSH0 DUP2 SWAP1 SSTORE POP JUMPDEST POP POP JUMP JUMPDEST PUSH0 DUP1 PUSH2 0x563 DUP4 DUP6 PUSH2 0x68B SWAP1 SWAP2 SWAP1 PUSH4 0xFFFFFFFF AND JUMP JUMPDEST SWAP2 POP POP DUP1 SWAP2 POP POP SWAP3 SWAP2 POP POP JUMP JUMPDEST PUSH0 DUP3 PUSH0 DUP2 MLOAD SUB PUSH2 0x5B5 JUMPI PUSH1 0x40 MLOAD PUSH32 0x8C379A000000000000000000000000000000000000000000000000000000000 DUP2 MSTORE PUSH1 0x4 ADD PUSH2 0x5AC SWAP1 PUSH2 0xAC8 JUMP JUMPDEST PUSH1 0x40 MLOAD DUP1 SWAP2 SUB SWAP1 REVERT JUMPDEST PUSH0 DUP5 PUSH0 DUP2 MLOAD DUP2 LT PUSH2 0x5C9 JUMPI PUSH2 0x5C8 PUSH2 0x976 JUMP JUMPDEST JUMPDEST PUSH1 0x20 MUL PUSH1 0x20 ADD ADD MLOAD SWAP1 POP PUSH0 PUSH1 0x1 SWAP1 POP JUMPDEST DUP6 MLOAD DUP2 LT ISZERO PUSH2 0x619 JUMPI PUSH2 0x60A DUP3 DUP8 DUP4 DUP2 MLOAD DUP2 LT PUSH2 0x5F9 JUMPI PUSH2 0x5F8 PUSH2 0x976 JUMP JUMPDEST JUMPDEST PUSH1 0x20 MUL PUSH1 0x20 ADD ADD MLOAD DUP8 PUSH4 0xFFFFFFFF AND JUMP JUMPDEST SWAP2 POP DUP1 DUP1 PUSH1 0x1 ADD SWAP2 POP POP PUSH2 0x5D9 JUMP JUMPDEST POP DUP1 SWAP3 POP POP POP SWAP3 SWAP2 POP POP JUMP JUMPDEST PUSH0 DUP1 PUSH2 0x63A DUP4 DUP6 PUSH2 0x6B7 SWAP1 SWAP2 SWAP1 PUSH4 0xFFFFFFFF AND JUMP JUMPDEST SWAP2 POP POP DUP1 SWAP2 POP POP SWAP3 SWAP2 POP POP JUMP JUMPDEST PUSH0 DUP1 PUSH2 0x65C DUP4 DUP6 PUSH2 0x705 SWAP1 SWAP2 SWAP1 PUSH4 0xFFFFFFFF AND JUMP JUMPDEST SWAP2 POP POP DUP1 SWAP2 POP POP SWAP3 SWAP2 POP POP JUMP JUMPDEST PUSH0 DUP1 PUSH2 0x67E DUP4 DUP6 PUSH2 0x738 SWAP1 SWAP2 SWAP1 PUSH4 0xFFFFFFFF AND JUMP JUMPDEST SWAP2 POP POP DUP1 SWAP2 POP POP SWAP3 SWAP2 POP POP JUMP JUMPDEST PUSH0 DUP1 PUSH0 DUP4 DUP6 ADD SWAP1 POP DUP5 DUP2 LT ISZERO PUSH2 0x6A7 JUMPI PUSH0 DUP1 SWAP3 POP SWAP3 POP POP PUSH2 0x6B0 JUMP JUMPDEST PUSH1 0x1 DUP2 SWAP3 POP SWAP3 POP POP JUMPDEST SWAP3 POP SWAP3 SWAP1 POP JUMP JUMPDEST PUSH0 DUP1 PUSH0 DUP5 SUB PUSH2 0x6CC JUMPI PUSH1 0x1 PUSH0 SWAP2 POP SWAP2 POP PUSH2 0x6FE JUMP JUMPDEST PUSH0 DUP4 DUP6 MUL SWAP1 POP DUP4 DUP6 DUP3 DUP2 PUSH2 0x6E3 JUMPI PUSH2 0x6E2 PUSH2 0xAE6 JUMP JUMPDEST JUMPDEST DIV EQ PUSH2 0x6F5 JUMPI PUSH0 DUP1 SWAP3 POP SWAP3 POP POP PUSH2 0x6FE JUMP JUMPDEST PUSH1 0x1 DUP2 SWAP3 POP SWAP3 POP POP JUMPDEST SWAP3 POP SWAP3 SWAP1 POP JUMP JUMPDEST PUSH0 DUP1 PUSH0 DUP4 SUB PUSH2 0x719 JUMPI PUSH0 DUP1 SWAP2 POP SWAP2 POP PUSH2 0x731 JUMP JUMPDEST PUSH1 0x1 DUP4 DUP6 DUP2 PUSH2 0x72B JUMPI PUSH2 0x72A PUSH2 0xAE6 JUMP JUMPDEST JUMPDEST DIV SWAP2 POP SWAP2 POP JUMPDEST SWAP3 POP SWAP3 SWAP1 POP JUMP JUMPDEST PUSH0 DUP1 DUP4 DUP4 GT ISZERO PUSH2 0x74D JUMPI PUSH0 DUP1 SWAP2 POP SWAP2 POP PUSH2 0x757 JUMP JUMPDEST PUSH1 0x1 DUP4 DUP6 SUB SWAP2 POP SWAP2 POP JUMPDEST SWAP3 POP SWAP3 SWAP1 POP JUMP JUMPDEST PUSH1 0x40 MLOAD DUP1 PUSH1 0x60 ADD PUSH1 0x40 MSTORE DUP1 PUSH0 DUP2 MSTORE PUSH1 0x20 ADD PUSH0 DUP2 MSTORE PUSH1 0x20 ADD PUSH0 DUP2 MSTORE POP SWAP1 JUMP JUMPDEST PUSH0 DUP1 REVERT JUMPDEST PUSH0 DUP1 REVERT JUMPDEST PUSH0 DUP1 REVERT JUMPDEST PUSH0 DUP1 REVERT JUMPDEST PUSH0 DUP1 REVERT JUMPDEST PUSH0 DUP1 DUP4 PUSH1 0x1F DUP5 ADD SLT PUSH2 0x7A5 JUMPI PUSH2 0x7A4 PUSH2 0x784 JUMP JUMPDEST JUMPDEST DUP3 CALLDATALOAD SWAP1 POP PUSH8 0xFFFFFFFFFFFFFFFF DUP2 GT ISZERO PUSH2 0x7C2 JUMPI PUSH2 0x7C1 PUSH2 0x788 JUMP JUMPDEST JUMPDEST PUSH1 0x20 DUP4 ADD SWAP2 POP DUP4 PUSH1 0x20 DUP3 MUL DUP4 ADD GT ISZERO PUSH2 0x7DE JUMPI PUSH2 0x7DD PUSH2 0x78C JUMP JUMPDEST JUMPDEST SWAP3 POP SWAP3 SWAP1 POP JUMP JUMPDEST PUSH0 DUP1 PUSH1 0x20 DUP4 DUP6 SUB SLT ISZERO PUSH2 0x7FB JUMPI PUSH2 0x7FA PUSH2 0x77C JUMP JUMPDEST JUMPDEST PUSH0 DUP4 ADD CALLDATALOAD PUSH8 0xFFFFFFFFFFFFFFFF DUP2 GT ISZERO PUSH2 0x818 JUMPI PUSH2 0x817 PUSH2 0x780 JUMP JUMPDEST JUMPDEST PUSH2 0x824 DUP6 DUP3 DUP7 ADD PUSH2 0x790 JUMP JUMPDEST SWAP3 POP SWAP3 POP POP SWAP3 POP SWAP3 SWAP1 POP JUMP JUMPDEST PUSH0 DUP2 SWAP1 POP SWAP2 SWAP1 POP JUMP JUMPDEST PUSH2 0x842 DUP2 PUSH2 0x830 JUMP JUMPDEST DUP3 MSTORE POP POP JUMP JUMPDEST PUSH0 PUSH1 0x60 DUP3 ADD SWAP1 POP PUSH2 0x85B PUSH0 DUP4 ADD DUP7 PUSH2 0x839 JUMP JUMPDEST PUSH2 0x868 PUSH1 0x20 DUP4 ADD DUP6 PUSH2 0x839 JUMP JUMPDEST PUSH2 0x875 PUSH1 0x40 DUP4 ADD DUP5 PUSH2 0x839 JUMP JUMPDEST SWAP5 SWAP4 POP POP POP POP JUMP JUMPDEST PUSH0 PUSH1 0x20 DUP3 ADD SWAP1 POP PUSH2 0x890 PUSH0 DUP4 ADD DUP5 PUSH2 0x839 JUMP JUMPDEST SWAP3 SWAP2 POP POP JUMP JUMPDEST PUSH2 0x89F DUP2 PUSH2 0x830 JUMP JUMPDEST DUP3 MSTORE POP POP JUMP JUMPDEST PUSH1 0x60 DUP3 ADD PUSH0 DUP3 ADD MLOAD PUSH2 0x8B9 PUSH0 DUP6 ADD DUP3 PUSH2 0x896 JUMP JUMPDEST POP PUSH1 0x20 DUP3 ADD MLOAD PUSH2 0x8CC PUSH1 0x20 DUP6 ADD DUP3 PUSH2 0x896 JUMP JUMPDEST POP PUSH1 0x40 DUP3 ADD MLOAD PUSH2 0x8DF PUSH1 0x40 DUP6 ADD DUP3 PUSH2 0x896 JUMP JUMPDEST POP POP POP POP JUMP JUMPDEST PUSH0 PUSH1 0x60 DUP3 ADD SWAP1 POP PUSH2 0x8F8 PUSH0 DUP4 ADD DUP5 PUSH2 0x8A5 JUMP JUMPDEST SWAP3 SWAP2 POP POP JUMP JUMPDEST PUSH0 DUP3 DUP3 MSTORE PUSH1 0x20 DUP3 ADD SWAP1 POP SWAP3 SWAP2 POP POP JUMP JUMPDEST PUSH32 0x596F752063616E6E6F7420646976696465206279207A65726F00000000000000 PUSH0 DUP3 ADD MSTORE POP JUMP JUMPDEST PUSH0 PUSH2 0x942 PUSH1 0x19 DUP4 PUSH2 0x8FE JUMP JUMPDEST SWAP2 POP PUSH2 0x94D DUP3 PUSH2 0x90E JUMP JUMPDEST PUSH1 0x20 DUP3 ADD SWAP1 POP SWAP2 SWAP1 POP JUMP JUMPDEST PUSH0 PUSH1 0x20 DUP3 ADD SWAP1 POP DUP2 DUP2 SUB PUSH0 DUP4 ADD MSTORE PUSH2 0x96F DUP2 PUSH2 0x936 JUMP JUMPDEST SWAP1 POP SWAP2 SWAP1 POP JUMP JUMPDEST PUSH32 0x4E487B7100000000000000000000000000000000000000000000000000000000 PUSH0 MSTORE PUSH1 0x32 PUSH1 0x4 MSTORE PUSH1 0x24 PUSH0 REVERT JUMPDEST PUSH32 0x4E487B7100000000000000000000000000000000000000000000000000000000 PUSH0 MSTORE PUSH1 0x11 PUSH1 0x4 MSTORE PUSH1 0x24 PUSH0 REVERT JUMPDEST PUSH0 PUSH2 0x9DA DUP3 PUSH2 0x830 JUMP JUMPDEST SWAP2 POP PUSH32 0xFFFFFFFFFFFFFFFFFFFFFFFFFFFFFFFFFFFFFFFFFFFFFFFFFFFFFFFFFFFFFFFF DUP3 SUB PUSH2 0xA0C JUMPI PUSH2 0xA0B PUSH2 0x9A3 JUMP JUMPDEST JUMPDEST PUSH1 0x1 DUP3 ADD SWAP1 POP SWAP2 SWAP1 POP JUMP JUMPDEST PUSH0 PUSH1 0xFF DUP3 AND SWAP1 POP SWAP2 SWAP1 POP JUMP JUMPDEST PUSH0 PUSH2 0xA2D DUP3 PUSH2 0xA17 JUMP JUMPDEST SWAP2 POP PUSH1 0xFF DUP3 SUB PUSH2 0xA40 JUMPI PUSH2 0xA3F PUSH2 0x9A3 JUMP JUMPDEST JUMPDEST PUSH1 0x1 DUP3 ADD SWAP1 POP SWAP2 SWAP1 POP JUMP JUMPDEST PUSH0 PUSH2 0xA55 DUP3 PUSH2 0x830 JUMP JUMPDEST SWAP2 POP PUSH2 0xA60 DUP4 PUSH2 0x830 JUMP JUMPDEST SWAP3 POP DUP3 DUP3 ADD SWAP1 POP DUP1 DUP3 GT ISZERO PUSH2 0xA78 JUMPI PUSH2 0xA77 PUSH2 0x9A3 JUMP JUMPDEST JUMPDEST SWAP3 SWAP2 POP POP JUMP JUMPDEST PUSH32 0x4172726179206D757374206E6F7420626520656D707479000000000000000000 PUSH0 DUP3 ADD MSTORE POP JUMP JUMPDEST PUSH0 PUSH2 0xAB2 PUSH1 0x17 DUP4 PUSH2 0x8FE JUMP JUMPDEST SWAP2 POP PUSH2 0xABD DUP3 PUSH2 0xA7E JUMP JUMPDEST PUSH1 0x20 DUP3 ADD SWAP1 POP SWAP2 SWAP1 POP JUMP JUMPDEST PUSH0 PUSH1 0x20 DUP3 ADD SWAP1 POP DUP2 DUP2 SUB PUSH0 DUP4 ADD MSTORE PUSH2 0xADF DUP2 PUSH2 0xAA6 JUMP JUMPDEST SWAP1 POP SWAP2 SWAP1 POP JUMP JUMPDEST PUSH32 0x4E487B7100000000000000000000000000000000000000000000000000000000 PUSH0 MSTORE PUSH1 0x12 PUSH1 0x4 MSTORE PUSH1 0x24 PUSH0 REVERT INVALID LOG2 PUSH5 0x6970667358 0x22 SLT KECCAK256 SHR 0xE5 0xFB MULMOD 0xE0 DUP8 0xD9 MSTORE8 MCOPY DUP7 0xEA DUP8 SIGNEXTEND SWAP10 CALLDATACOPY PUSH2 0x6EB9 0xB0 AND 0xD1 PUSH20 0xBAB9FC2898FFFF9A823F64736F6C634300081900 CALLER "
				},
				"gasEstimates": {
					"creation": {
						"codeDepositCost": "577800",
						"executionCost": "20746",
						"totalCost": "598546"
					},
					"external": {
						"add(uint256[])": "infinite",
						"divide(uint256[])": "infinite",
						"multiply(uint256[])": "infinite",
						"result()": "2446",
						"stats(uint256[])": "infinite",
						"statsAnswer()": "infinite",
						"subtract(uint256[])": "infinite"
					},
					"internal": {
						"_add(uint256,uint256)": "infinite",
						"_divide(uint256,uint256)": "infinite",
						"_multiply(uint256,uint256)": "infinite",
						"_subtract(uint256,uint256)": "infinite"
					}
				},
				"methodIdentifiers": {
					"add(uint256[])": "10b0b5d5",
					"divide(uint256[])": "43e37638",
					"multiply(uint256[])": "239de9f4",
					"result()": "65372147",
					"stats(uint256[])": "aa04375c",
					"statsAnswer()": "42577da2",
					"subtract(uint256[])": "bdb35499"
				}
			},
			"storageLayout": {
				"storage": [
					{
						"astId": 25,
						"contract": "contracts/myCalc.sol:Calculator",
						"label": "result",
						"offset": 0,
						"slot": "0",
						"type": "t_uint256"
					},
					{
						"astId": 33,
						"contract": "contracts/myCalc.sol:Calculator",
						"label": "statsAnswer",
						"offset": 0,
						"slot": "1",
						"type": "t_struct(ArrayData)17_storage"
					},
					{
						"astId": 38,
						"contract": "contracts/myCalc.sol:Calculator",
						"label": "_numberToStatElement",
						"offset": 0,
						"slot": "4",
						"type": "t_mapping(t_uint256,t_struct(ArrayElementData)22_storage)"
					}
				],
				"types": {
					"t_mapping(t_uint256,t_struct(ArrayElementData)22_storage)": {
						"encoding": "mapping",
						"key": "t_uint256",
						"label": "mapping(uint256 => struct Calculator.ArrayElementData)",
						"numberOfBytes": "32",
						"value": "t_struct(ArrayElementData)22_storage"
					},
					"t_struct(ArrayData)17_storage": {
						"encoding": "inplace",
						"label": "struct Calculator.ArrayData",
						"members": [
							{
								"astId": 12,
								"contract": "contracts/myCalc.sol:Calculator",
								"label": "mean",
								"offset": 0,
								"slot": "0",
								"type": "t_uint256"
							},
							{
								"astId": 14,
								"contract": "contracts/myCalc.sol:Calculator",
								"label": "mode",
								"offset": 0,
								"slot": "1",
								"type": "t_uint256"
							},
							{
								"astId": 16,
								"contract": "contracts/myCalc.sol:Calculator",
								"label": "totalItems",
								"offset": 0,
								"slot": "2",
								"type": "t_uint256"
							}
						],
						"numberOfBytes": "96"
					},
					"t_struct(ArrayElementData)22_storage": {
						"encoding": "inplace",
						"label": "struct Calculator.ArrayElementData",
						"members": [
							{
								"astId": 19,
								"contract": "contracts/myCalc.sol:Calculator",
								"label": "repeatedTimes",
								"offset": 0,
								"slot": "0",
								"type": "t_uint8"
							},
							{
								"astId": 21,
								"contract": "contracts/myCalc.sol:Calculator",
								"label": "value",
								"offset": 0,
								"slot": "1",
								"type": "t_uint256"
							}
						],
						"numberOfBytes": "64"
					},
					"t_uint256": {
						"encoding": "inplace",
						"label": "uint256",
						"numberOfBytes": "32"
					},
					"t_uint8": {
						"encoding": "inplace",
						"label": "uint8",
						"numberOfBytes": "1"
					}
				}
			},
			"userdoc": {
				"kind": "user",
				"methods": {},
				"version": 1
			}
		}
	}
}