{
	"data": {
		"bytecode": {
			"linkReferences": {},
			"object": "60806040525f805560405180606001604052805f81526020015f81526020015f81525060015f820151815f015560208201518160010155604082015181600201555050348015604c575f80fd5b50610b498061005a5f395ff3fe608060405234801561000f575f80fd5b506004361061007b575f3560e01c806343e376381161005957806343e37638146100d757806365372147146100f3578063aa04375c14610111578063bdb35499146101415761007b565b806310b0b5d51461007f578063239de9f41461009b57806342577da2146100b7575b5f80fd5b610099600480360381019061009491906107e5565b61015d565b005b6100b560048036038101906100b091906107e5565b6101c7565b005b6100bf61023b565b6040516100ce93929190610848565b60405180910390f35b6100f160048036038101906100ec91906107e5565b610252565b005b6100fb6102f5565b604051610108919061087d565b60405180910390f35b61012b600480360381019061012691906107e5565b6102fa565b60405161013891906108e5565b60405180910390f35b61015b600480360381019061015691906107e5565b6104e4565b005b5f8282905003156101c3576101bd61054e8383808060200260200160405190810160405280939291908181526020018383602002808284375f81840152601f19601f8201169050808301925050505050505061057090919063ffffffff16565b5f819055505b5050565b5f82829050036101dc575f8081905550610237565b6102316106258383808060200260200160405190810160405280939291908181526020018383602002808284375f81840152601f19601f8201169050808301925050505050505061057090919063ffffffff16565b5f819055505b5050565b6001805f0154908060010154908060020154905083565b5f8282905003610297576040517f08c379a000000000000000000000000000000000000000000000000000000000815260040161028e90610958565b60405180910390fd5b6102ec6106478383808060200260200160405190810160405280939291908181526020018383602002808284375f81840152601f19601f8201169050808301925050505050505061057090919063ffffffff16565b5f819055505050565b5f5481565b61030261075e565b5f805f805b86869050811015610492575f87878381811061032657610325610976565b5b9050602002013590505f60045f8381526020019081526020015f205f015f9054906101000a900460ff1660ff16036103c0576040518060400160405280600160ff1681526020018281525060045f8381526020019081526020015f205f820151815f015f6101000a81548160ff021916908360ff1602179055506020820151816001015590505084806103b8906109d0565b955050610476565b60045f8281526020019081526020015f205f015f81819054906101000a900460ff16809291906103ef90610a23565b91906101000a81548160ff021916908360ff160217905550508260045f8381526020019081526020015f205f015f9054906101000a900460ff1660ff1611156104755760045f8281526020019081526020015f2060010154600180018190555060045f8281526020019081526020015f205f015f9054906101000a900460ff1660ff1692505b5b80846104829190610a4b565b9350508080600101915050610307565b505f8311156104a5578160015f01819055505b8260016002018190555060016040518060600160405290815f820154815260200160018201548152602001600282015481525050935050505092915050565b5f82829050031561054a576105446106698383808060200260200160405190810160405280939291908181526020018383602002808284375f81840152601f19601f8201169050808301925050505050505061057090919063ffffffff16565b5f819055505b5050565b5f80610563838561068b90919063ffffffff16565b9150508091505092915050565b5f825f8151036105b5576040517f08c379a00000000000000000000000000000000000000000000000000000000081526004016105ac90610ac8565b60405180910390fd5b5f845f815181106105c9576105c8610976565b5b602002602001015190505f600190505b85518110156106195761060a828783815181106105f9576105f8610976565b5b60200260200101518763ffffffff16565b915080806001019150506105d9565b50809250505092915050565b5f8061063a83856106b790919063ffffffff16565b9150508091505092915050565b5f8061065c838561070590919063ffffffff16565b9150508091505092915050565b5f8061067e838561073890919063ffffffff16565b9150508091505092915050565b5f805f8385019050848110156106a7575f8092509250506106b0565b60018192509250505b9250929050565b5f805f84036106cc5760015f915091506106fe565b5f8385029050838582816106e3576106e2610ae6565b5b04146106f5575f8092509250506106fe565b60018192509250505b9250929050565b5f805f8303610719575f8091509150610731565b600183858161072b5761072a610ae6565b5b04915091505b9250929050565b5f808383111561074d575f8091509150610757565b6001838503915091505b9250929050565b60405180606001604052805f81526020015f81526020015f81525090565b5f80fd5b5f80fd5b5f80fd5b5f80fd5b5f80fd5b5f8083601f8401126107a5576107a4610784565b5b8235905067ffffffffffffffff8111156107c2576107c1610788565b5b6020830191508360208202830111156107de576107dd61078c565b5b9250929050565b5f80602083850312156107fb576107fa61077c565b5b5f83013567ffffffffffffffff81111561081857610817610780565b5b61082485828601610790565b92509250509250929050565b5f819050919050565b61084281610830565b82525050565b5f60608201905061085b5f830186610839565b6108686020830185610839565b6108756040830184610839565b949350505050565b5f6020820190506108905f830184610839565b92915050565b61089f81610830565b82525050565b606082015f8201516108b95f850182610896565b5060208201516108cc6020850182610896565b5060408201516108df6040850182610896565b50505050565b5f6060820190506108f85f8301846108a5565b92915050565b5f82825260208201905092915050565b7f596f752063616e6e6f7420646976696465206279207a65726f000000000000005f82015250565b5f6109426019836108fe565b915061094d8261090e565b602082019050919050565b5f6020820190508181035f83015261096f81610936565b9050919050565b7f4e487b71000000000000000000000000000000000000000000000000000000005f52603260045260245ffd5b7f4e487b71000000000000000000000000000000000000000000000000000000005f52601160045260245ffd5b5f6109da82610830565b91507fffffffffffffffffffffffffffffffffffffffffffffffffffffffffffffffff8203610a0c57610a0b6109a3565b5b600182019050919050565b5f60ff82169050919050565b5f610a2d82610a17565b915060ff8203610a4057610a3f6109a3565b5b600182019050919050565b5f610a5582610830565b9150610a6083610830565b9250828201905080821115610a7857610a776109a3565b5b92915050565b7f4172726179206d757374206e6f7420626520656d7074790000000000000000005f82015250565b5f610ab26017836108fe565b9150610abd82610a7e565b602082019050919050565b5f6020820190508181035f830152610adf81610aa6565b9050919050565b7f4e487b71000000000000000000000000000000000000000000000000000000005f52601260045260245ffdfea26469706673582212201ce5fb09e087d9535e86ea870b9937616eb9b016d173bab9fc2898ffff9a823f64736f6c63430008190033",
			"opcodes": "PUSH1 0x80 PUSH1 0x40 MSTORE PUSH0 DUP1 SSTORE PUSH1 0x40 MLOAD DUP1 PUSH1 0x60 ADD PUSH1 0x40 MSTORE DUP1 PUSH0 DUP2 MSTORE PUSH1 0x20 ADD PUSH0 DUP2 MSTORE PUSH1 0x20 ADD PUSH0 DUP2 MSTORE POP PUSH1 0x1 PUSH0 DUP3 ADD MLOAD DUP2 PUSH0 ADD SSTORE PUSH1 0x20 DUP3 ADD MLOAD DUP2 PUSH1 0x1 ADD SSTORE PUSH1 0x40 DUP3 ADD MLOAD DUP2 PUSH1 0x2 ADD SSTORE POP POP CALLVALUE DUP1 ISZERO PUSH1 0x4C JUMPI PUSH0 DUP1 REVERT JUMPDEST POP PUSH2 0xB49 DUP1 PUSH2 0x5A PUSH0 CODECOPY PUSH0 RETURN INVALID PUSH1 0x80 PUSH1 0x40 MSTORE CALLVALUE DUP1 ISZERO PUSH2 0xF JUMPI PUSH0 DUP1 REVERT JUMPDEST POP PUSH1 0x4 CALLDATASIZE LT PUSH2 0x7B JUMPI PUSH0 CALLDATALOAD PUSH1 0xE0 SHR DUP1 PUSH4 0x43E37638 GT PUSH2 0x59 JUMPI DUP1 PUSH4 0x43E37638 EQ PUSH2 0xD7 JUMPI DUP1 PUSH4 0x65372147 EQ PUSH2 0xF3 JUMPI DUP1 PUSH4 0xAA04375C EQ PUSH2 0x111 JUMPI DUP1 PUSH4 0xBDB35499 EQ PUSH2 0x141 JUMPI PUSH2 0x7B JUMP JUMPDEST DUP1 PUSH4 0x10B0B5D5 EQ PUSH2 0x7F JUMPI DUP1 PUSH4 0x239DE9F4 EQ PUSH2 0x9B JUMPI DUP1 PUSH4 0x42577DA2 EQ PUSH2 0xB7 JUMPI JUMPDEST PUSH0 DUP1 REVERT JUMPDEST PUSH2 0x99 PUSH1 0x4 DUP1 CALLDATASIZE SUB DUP2 ADD SWAP1 PUSH2 0x94 SWAP2 SWAP1 PUSH2 0x7E5 JUMP JUMPDEST PUSH2 0x15D JUMP JUMPDEST STOP JUMPDEST PUSH2 0xB5 PUSH1 0x4 DUP1 CALLDATASIZE SUB DUP2 ADD SWAP1 PUSH2 0xB0 SWAP2 SWAP1 PUSH2 0x7E5 JUMP JUMPDEST PUSH2 0x1C7 JUMP JUMPDEST STOP JUMPDEST PUSH2 0xBF PUSH2 0x23B JUMP JUMPDEST PUSH1 0x40 MLOAD PUSH2 0xCE SWAP4 SWAP3 SWAP2 SWAP1 PUSH2 0x848 JUMP JUMPDEST PUSH1 0x40 MLOAD DUP1 SWAP2 SUB SWAP1 RETURN JUMPDEST PUSH2 0xF1 PUSH1 0x4 DUP1 CALLDATASIZE SUB DUP2 ADD SWAP1 PUSH2 0xEC SWAP2 SWAP1 PUSH2 0x7E5 JUMP JUMPDEST PUSH2 0x252 JUMP JUMPDEST STOP JUMPDEST PUSH2 0xFB PUSH2 0x2F5 JUMP JUMPDEST PUSH1 0x40 MLOAD PUSH2 0x108 SWAP2 SWAP1 PUSH2 0x87D JUMP JUMPDEST PUSH1 0x40 MLOAD DUP1 SWAP2 SUB SWAP1 RETURN JUMPDEST PUSH2 0x12B PUSH1 0x4 DUP1 CALLDATASIZE SUB DUP2 ADD SWAP1 PUSH2 0x126 SWAP2 SWAP1 PUSH2 0x7E5 JUMP JUMPDEST PUSH2 0x2FA JUMP JUMPDEST PUSH1 0x40 MLOAD PUSH2 0x138 SWAP2 SWAP1 PUSH2 0x8E5 JUMP JUMPDEST PUSH1 0x40 MLOAD DUP1 SWAP2 SUB SWAP1 RETURN JUMPDEST PUSH2 0x15B PUSH1 0x4 DUP1 CALLDATASIZE SUB DUP2 ADD SWAP1 PUSH2 0x156 SWAP2 SWAP1 PUSH2 0x7E5 JUMP JUMPDEST PUSH2 0x4E4 JUMP JUMPDEST STOP JUMPDEST PUSH0 DUP3 DUP3 SWAP1 POP SUB ISZERO PUSH2 0x1C3 JUMPI PUSH2 0x1BD PUSH2 0x54E DUP4 DUP4 DUP1 DUP1 PUSH1 0x20 MUL PUSH1 0x20 ADD PUSH1 0x40 MLOAD SWAP1 DUP2 ADD PUSH1 0x40 MSTORE DUP1 SWAP4 SWAP3 SWAP2 SWAP1 DUP2 DUP2 MSTORE PUSH1 0x20 ADD DUP4 DUP4 PUSH1 0x20 MUL DUP1 DUP3 DUP5 CALLDATACOPY PUSH0 DUP2 DUP5 ADD MSTORE PUSH1 0x1F NOT PUSH1 0x1F DUP3 ADD AND SWAP1 POP DUP1 DUP4 ADD SWAP3 POP POP POP POP POP POP POP PUSH2 0x570 SWAP1 SWAP2 SWAP1 PUSH4 0xFFFFFFFF AND JUMP JUMPDEST PUSH0 DUP2 SWAP1 SSTORE POP JUMPDEST POP POP JUMP JUMPDEST PUSH0 DUP3 DUP3 SWAP1 POP SUB PUSH2 0x1DC JUMPI PUSH0 DUP1 DUP2 SWAP1 SSTORE POP PUSH2 0x237 JUMP JUMPDEST PUSH2 0x231 PUSH2 0x625 DUP4 DUP4 DUP1 DUP1 PUSH1 0x20 MUL PUSH1 0x20 ADD PUSH1 0x40 MLOAD SWAP1 DUP2 ADD PUSH1 0x40 MSTORE DUP1 SWAP4 SWAP3 SWAP2 SWAP1 DUP2 DUP2 MSTORE PUSH1 0x20 ADD DUP4 DUP4 PUSH1 0x20 MUL DUP1 DUP3 DUP5 CALLDATACOPY PUSH0 DUP2 DUP5 ADD MSTORE PUSH1 0x1F NOT PUSH1 0x1F DUP3 ADD AND SWAP1 POP DUP1 DUP4 ADD SWAP3 POP POP POP POP POP POP POP PUSH2 0x570 SWAP1 SWAP2 SWAP1 PUSH4 0xFFFFFFFF AND JUMP JUMPDEST PUSH0 DUP2 SWAP1 SSTORE POP JUMPDEST POP POP JUMP JUMPDEST PUSH1 0x1 DUP1 PUSH0 ADD SLOAD SWAP1 DUP1 PUSH1 0x1 ADD SLOAD SWAP1 DUP1 PUSH1 0x2 ADD SLOAD SWAP1 POP DUP4 JUMP JUMPDEST PUSH0 DUP3 DUP3 SWAP1 POP SUB PUSH2 0x297 JUMPI PUSH1 0x40 MLOAD PUSH32 0x8C379A000000000000000000000000000000000000000000000000000000000 DUP2 MSTORE PUSH1 0x4 ADD PUSH2 0x28E SWAP1 PUSH2 0x958 JUMP JUMPDEST PUSH1 0x40 MLOAD DUP1 SWAP2 SUB SWAP1 REVERT JUMPDEST PUSH2 0x2EC PUSH2 0x647 DUP4 DUP4 DUP1 DUP1 PUSH1 0x20 MUL PUSH1 0x20 ADD PUSH1 0x40 MLOAD SWAP1 DUP2 ADD PUSH1 0x40 MSTORE DUP1 SWAP4 SWAP3 SWAP2 SWAP1 DUP2 DUP2 MSTORE PUSH1 0x20 ADD DUP4 DUP4 PUSH1 0x20 MUL DUP1 DUP3 DUP5 CALLDATACOPY PUSH0 DUP2 DUP5 ADD MSTORE PUSH1 0x1F NOT PUSH1 0x1F DUP3 ADD AND SWAP1 POP DUP1 DUP4 ADD SWAP3 POP POP POP POP POP POP POP PUSH2 0x570 SWAP1 SWAP2 SWAP1 PUSH4 0xFFFFFFFF AND JUMP JUMPDEST PUSH0 DUP2 SWAP1 SSTORE POP POP POP JUMP JUMPDEST PUSH0 SLOAD DUP2 JUMP JUMPDEST PUSH2 0x302 PUSH2 0x75E JUMP JUMPDEST PUSH0 DUP1 PUSH0 DUP1 JUMPDEST DUP7 DUP7 SWAP1 POP DUP2 LT ISZERO PUSH2 0x492 JUMPI PUSH0 DUP8 DUP8 DUP4 DUP2 DUP2 LT PUSH2 0x326 JUMPI PUSH2 0x325 PUSH2 0x976 JUMP JUMPDEST JUMPDEST SWAP1 POP PUSH1 0x20 MUL ADD CALLDATALOAD SWAP1 POP PUSH0 PUSH1 0x4 PUSH0 DUP4 DUP2 MSTORE PUSH1 0x20 ADD SWAP1 DUP2 MSTORE PUSH1 0x20 ADD PUSH0 KECCAK256 PUSH0 ADD PUSH0 SWAP1 SLOAD SWAP1 PUSH2 0x100 EXP SWAP1 DIV PUSH1 0xFF AND PUSH1 0xFF AND SUB PUSH2 0x3C0 JUMPI PUSH1 0x40 MLOAD DUP1 PUSH1 0x40 ADD PUSH1 0x40 MSTORE DUP1 PUSH1 0x1 PUSH1 0xFF AND DUP2 MSTORE PUSH1 0x20 ADD DUP3 DUP2 MSTORE POP PUSH1 0x4 PUSH0 DUP4 DUP2 MSTORE PUSH1 0x20 ADD SWAP1 DUP2 MSTORE PUSH1 0x20 ADD PUSH0 KECCAK256 PUSH0 DUP3 ADD MLOAD DUP2 PUSH0 ADD PUSH0 PUSH2 0x100 EXP DUP2 SLOAD DUP2 PUSH1 0xFF MUL NOT AND SWAP1 DUP4 PUSH1 0xFF AND MUL OR SWAP1 SSTORE POP PUSH1 0x20 DUP3 ADD MLOAD DUP2 PUSH1 0x1 ADD SSTORE SWAP1 POP POP DUP5 DUP1 PUSH2 0x3B8 SWAP1 PUSH2 0x9D0 JUMP JUMPDEST SWAP6 POP POP PUSH2 0x476 JUMP JUMPDEST PUSH1 0x4 PUSH0 DUP3 DUP2 MSTORE PUSH1 0x20 ADD SWAP1 DUP2 MSTORE PUSH1 0x20 ADD PUSH0 KECCAK256 PUSH0 ADD PUSH0 DUP2 DUP2 SWAP1 SLOAD SWAP1 PUSH2 0x100 EXP SWAP1 DIV PUSH1 0xFF AND DUP1 SWAP3 SWAP2 SWAP1 PUSH2 0x3EF SWAP1 PUSH2 0xA23 JUMP JUMPDEST SWAP2 SWAP1 PUSH2 0x100 EXP DUP2 SLOAD DUP2 PUSH1 0xFF MUL NOT AND SWAP1 DUP4 PUSH1 0xFF AND MUL OR SWAP1 SSTORE POP POP DUP3 PUSH1 0x4 PUSH0 DUP4 DUP2 MSTORE PUSH1 0x20 ADD SWAP1 DUP2 MSTORE PUSH1 0x20 ADD PUSH0 KECCAK256 PUSH0 ADD PUSH0 SWAP1 SLOAD SWAP1 PUSH2 0x100 EXP SWAP1 DIV PUSH1 0xFF AND PUSH1 0xFF AND GT ISZERO PUSH2 0x475 JUMPI PUSH1 0x4 PUSH0 DUP3 DUP2 MSTORE PUSH1 0x20 ADD SWAP1 DUP2 MSTORE PUSH1 0x20 ADD PUSH0 KECCAK256 PUSH1 0x1 ADD SLOAD PUSH1 0x1 DUP1 ADD DUP2 SWAP1 SSTORE POP PUSH1 0x4 PUSH0 DUP3 DUP2 MSTORE PUSH1 0x20 ADD SWAP1 DUP2 MSTORE PUSH1 0x20 ADD PUSH0 KECCAK256 PUSH0 ADD PUSH0 SWAP1 SLOAD SWAP1 PUSH2 0x100 EXP SWAP1 DIV PUSH1 0xFF AND PUSH1 0xFF AND SWAP3 POP JUMPDEST JUMPDEST DUP1 DUP5 PUSH2 0x482 SWAP2 SWAP1 PUSH2 0xA4B JUMP JUMPDEST SWAP4 POP POP DUP1 DUP1 PUSH1 0x1 ADD SWAP2 POP POP PUSH2 0x307 JUMP JUMPDEST POP PUSH0 DUP4 GT ISZERO PUSH2 0x4A5 JUMPI DUP2 PUSH1 0x1 PUSH0 ADD DUP2 SWAP1 SSTORE POP JUMPDEST DUP3 PUSH1 0x1 PUSH1 0x2 ADD DUP2 SWAP1 SSTORE POP PUSH1 0x1 PUSH1 0x40 MLOAD DUP1 PUSH1 0x60 ADD PUSH1 0x40 MSTORE SWAP1 DUP2 PUSH0 DUP3 ADD SLOAD DUP2 MSTORE PUSH1 0x20 ADD PUSH1 0x1 DUP3 ADD SLOAD DUP2 MSTORE PUSH1 0x20 ADD PUSH1 0x2 DUP3 ADD SLOAD DUP2 MSTORE POP POP SWAP4 POP POP POP POP SWAP3 SWAP2 POP POP JUMP JUMPDEST PUSH0 DUP3 DUP3 SWAP1 POP SUB ISZERO PUSH2 0x54A JUMPI PUSH2 0x544 PUSH2 0x669 DUP4 DUP4 DUP1 DUP1 PUSH1 0x20 MUL PUSH1 0x20 ADD PUSH1 0x40 MLOAD SWAP1 DUP2 ADD PUSH1 0x40 MSTORE DUP1 SWAP4 SWAP3 SWAP2 SWAP1 DUP2 DUP2 MSTORE PUSH1 0x20 ADD DUP4 DUP4 PUSH1 0x20 MUL DUP1 DUP3 DUP5 CALLDATACOPY PUSH0 DUP2 DUP5 ADD MSTORE PUSH1 0x1F NOT PUSH1 0x1F DUP3 ADD AND SWAP1 POP DUP1 DUP4 ADD SWAP3 POP POP POP POP POP POP POP PUSH2 0x570 SWAP1 SWAP2 SWAP1 PUSH4 0xFFFFFFFF AND JUMP JUMPDEST PUSH0 DUP2 SWAP1 SSTORE POP JUMPDEST POP POP JUMP JUMPDEST PUSH0 DUP1 PUSH2 0x563 DUP4 DUP6 PUSH2 0x68B SWAP1 SWAP2 SWAP1 PUSH4 0xFFFFFFFF AND JUMP JUMPDEST SWAP2 POP POP DUP1 SWAP2 POP POP SWAP3 SWAP2 POP POP JUMP JUMPDEST PUSH0 DUP3 PUSH0 DUP2 MLOAD SUB PUSH2 0x5B5 JUMPI PUSH1 0x40 MLOAD PUSH32 0x8C379A000000000000000000000000000000000000000000000000000000000 DUP2 MSTORE PUSH1 0x4 ADD PUSH2 0x5AC SWAP1 PUSH2 0xAC8 JUMP JUMPDEST PUSH1 0x40 MLOAD DUP1 SWAP2 SUB SWAP1 REVERT JUMPDEST PUSH0 DUP5 PUSH0 DUP2 MLOAD DUP2 LT PUSH2 0x5C9 JUMPI PUSH2 0x5C8 PUSH2 0x976 JUMP JUMPDEST JUMPDEST PUSH1 0x20 MUL PUSH1 0x20 ADD ADD MLOAD SWAP1 POP PUSH0 PUSH1 0x1 SWAP1 POP JUMPDEST DUP6 MLOAD DUP2 LT ISZERO PUSH2 0x619 JUMPI PUSH2 0x60A DUP3 DUP8 DUP4 DUP2 MLOAD DUP2 LT PUSH2 0x5F9 JUMPI PUSH2 0x5F8 PUSH2 0x976 JUMP JUMPDEST JUMPDEST PUSH1 0x20 MUL PUSH1 0x20 ADD ADD MLOAD DUP8 PUSH4 0xFFFFFFFF AND JUMP JUMPDEST SWAP2 POP DUP1 DUP1 PUSH1 0x1 ADD SWAP2 POP POP PUSH2 0x5D9 JUMP JUMPDEST POP DUP1 SWAP3 POP POP POP SWAP3 SWAP2 POP POP JUMP JUMPDEST PUSH0 DUP1 PUSH2 0x63A DUP4 DUP6 PUSH2 0x6B7 SWAP1 SWAP2 SWAP1 PUSH4 0xFFFFFFFF AND JUMP JUMPDEST SWAP2 POP POP DUP1 SWAP2 POP POP SWAP3 SWAP2 POP POP JUMP JUMPDEST PUSH0 DUP1 PUSH2 0x65C DUP4 DUP6 PUSH2 0x705 SWAP1 SWAP2 SWAP1 PUSH4 0xFFFFFFFF AND JUMP JUMPDEST SWAP2 POP POP DUP1 SWAP2 POP POP SWAP3 SWAP2 POP POP JUMP JUMPDEST PUSH0 DUP1 PUSH2 0x67E DUP4 DUP6 PUSH2 0x738 SWAP1 SWAP2 SWAP1 PUSH4 0xFFFFFFFF AND JUMP JUMPDEST SWAP2 POP POP DUP1 SWAP2 POP POP SWAP3 SWAP2 POP POP JUMP JUMPDEST PUSH0 DUP1 PUSH0 DUP4 DUP6 ADD SWAP1 POP DUP5 DUP2 LT ISZERO PUSH2 0x6A7 JUMPI PUSH0 DUP1 SWAP3 POP SWAP3 POP POP PUSH2 0x6B0 JUMP JUMPDEST PUSH1 0x1 DUP2 SWAP3 POP SWAP3 POP POP JUMPDEST SWAP3 POP SWAP3 SWAP1 POP JUMP JUMPDEST PUSH0 DUP1 PUSH0 DUP5 SUB PUSH2 0x6CC JUMPI PUSH1 0x1 PUSH0 SWAP2 POP SWAP2 POP PUSH2 0x6FE JUMP JUMPDEST PUSH0 DUP4 DUP6 MUL SWAP1 POP DUP4 DUP6 DUP3 DUP2 PUSH2 0x6E3 JUMPI PUSH2 0x6E2 PUSH2 0xAE6 JUMP JUMPDEST JUMPDEST DIV EQ PUSH2 0x6F5 JUMPI PUSH0 DUP1 SWAP3 POP SWAP3 POP POP PUSH2 0x6FE JUMP JUMPDEST PUSH1 0x1 DUP2 SWAP3 POP SWAP3 POP POP JUMPDEST SWAP3 POP SWAP3 SWAP1 POP JUMP JUMPDEST PUSH0 DUP1 PUSH0 DUP4 SUB PUSH2 0x719 JUMPI PUSH0 DUP1 SWAP2 POP SWAP2 POP PUSH2 0x731 JUMP JUMPDEST PUSH1 0x1 DUP4 DUP6 DUP2 PUSH2 0x72B JUMPI PUSH2 0x72A PUSH2 0xAE6 JUMP JUMPDEST JUMPDEST DIV SWAP2 POP SWAP2 POP JUMPDEST SWAP3 POP SWAP3 SWAP1 POP JUMP JUMPDEST PUSH0 DUP1 DUP4 DUP4 GT ISZERO PUSH2 0x74D JUMPI PUSH0 DUP1 SWAP2 POP SWAP2 POP PUSH2 0x757 JUMP JUMPDEST PUSH1 0x1 DUP4 DUP6 SUB SWAP2 POP SWAP2 POP JUMPDEST SWAP3 POP SWAP3 SWAP1 POP JUMP JUMPDEST PUSH1 0x40 MLOAD DUP1 PUSH1 0x60 ADD PUSH1 0x40 MSTORE DUP1 PUSH0 DUP2 MSTORE PUSH1 0x20 ADD PUSH0 DUP2 MSTORE PUSH1 0x20 ADD PUSH0 DUP2 MSTORE POP SWAP1 JUMP JUMPDEST PUSH0 DUP1 REVERT JUMPDEST PUSH0 DUP1 REVERT JUMPDEST PUSH0 DUP1 REVERT JUMPDEST PUSH0 DUP1 REVERT JUMPDEST PUSH0 DUP1 REVERT JUMPDEST PUSH0 DUP1 DUP4 PUSH1 0x1F DUP5 ADD SLT PUSH2 0x7A5 JUMPI PUSH2 0x7A4 PUSH2 0x784 JUMP JUMPDEST JUMPDEST DUP3 CALLDATALOAD SWAP1 POP PUSH8 0xFFFFFFFFFFFFFFFF DUP2 GT ISZERO PUSH2 0x7C2 JUMPI PUSH2 0x7C1 PUSH2 0x788 JUMP JUMPDEST JUMPDEST PUSH1 0x20 DUP4 ADD SWAP2 POP DUP4 PUSH1 0x20 DUP3 MUL DUP4 ADD GT ISZERO PUSH2 0x7DE JUMPI PUSH2 0x7DD PUSH2 0x78C JUMP JUMPDEST JUMPDEST SWAP3 POP SWAP3 SWAP1 POP JUMP JUMPDEST PUSH0 DUP1 PUSH1 0x20 DUP4 DUP6 SUB SLT ISZERO PUSH2 0x7FB JUMPI PUSH2 0x7FA PUSH2 0x77C JUMP JUMPDEST JUMPDEST PUSH0 DUP4 ADD CALLDATALOAD PUSH8 0xFFFFFFFFFFFFFFFF DUP2 GT ISZERO PUSH2 0x818 JUMPI PUSH2 0x817 PUSH2 0x780 JUMP JUMPDEST JUMPDEST PUSH2 0x824 DUP6 DUP3 DUP7 ADD PUSH2 0x790 JUMP JUMPDEST SWAP3 POP SWAP3 POP POP SWAP3 POP SWAP3 SWAP1 POP JUMP JUMPDEST PUSH0 DUP2 SWAP1 POP SWAP2 SWAP1 POP JUMP JUMPDEST PUSH2 0x842 DUP2 PUSH2 0x830 JUMP JUMPDEST DUP3 MSTORE POP POP JUMP JUMPDEST PUSH0 PUSH1 0x60 DUP3 ADD SWAP1 POP PUSH2 0x85B PUSH0 DUP4 ADD DUP7 PUSH2 0x839 JUMP JUMPDEST PUSH2 0x868 PUSH1 0x20 DUP4 ADD DUP6 PUSH2 0x839 JUMP JUMPDEST PUSH2 0x875 PUSH1 0x40 DUP4 ADD DUP5 PUSH2 0x839 JUMP JUMPDEST SWAP5 SWAP4 POP POP POP POP JUMP JUMPDEST PUSH0 PUSH1 0x20 DUP3 ADD SWAP1 POP PUSH2 0x890 PUSH0 DUP4 ADD DUP5 PUSH2 0x839 JUMP JUMPDEST SWAP3 SWAP2 POP POP JUMP JUMPDEST PUSH2 0x89F DUP2 PUSH2 0x830 JUMP JUMPDEST DUP3 MSTORE POP POP JUMP JUMPDEST PUSH1 0x60 DUP3 ADD PUSH0 DUP3 ADD MLOAD PUSH2 0x8B9 PUSH0 DUP6 ADD DUP3 PUSH2 0x896 JUMP JUMPDEST POP PUSH1 0x20 DUP3 ADD MLOAD PUSH2 0x8CC PUSH1 0x20 DUP6 ADD DUP3 PUSH2 0x896 JUMP JUMPDEST POP PUSH1 0x40 DUP3 ADD MLOAD PUSH2 0x8DF PUSH1 0x40 DUP6 ADD DUP3 PUSH2 0x896 JUMP JUMPDEST POP POP POP POP JUMP JUMPDEST PUSH0 PUSH1 0x60 DUP3 ADD SWAP1 POP PUSH2 0x8F8 PUSH0 DUP4 ADD DUP5 PUSH2 0x8A5 JUMP JUMPDEST SWAP3 SWAP2 POP POP JUMP JUMPDEST PUSH0 DUP3 DUP3 MSTORE PUSH1 0x20 DUP3 ADD SWAP1 POP SWAP3 SWAP2 POP POP JUMP JUMPDEST PUSH32 0x596F752063616E6E6F7420646976696465206279207A65726F00000000000000 PUSH0 DUP3 ADD MSTORE POP JUMP JUMPDEST PUSH0 PUSH2 0x942 PUSH1 0x19 DUP4 PUSH2 0x8FE JUMP JUMPDEST SWAP2 POP PUSH2 0x94D DUP3 PUSH2 0x90E JUMP JUMPDEST PUSH1 0x20 DUP3 ADD SWAP1 POP SWAP2 SWAP1 POP JUMP JUMPDEST PUSH0 PUSH1 0x20 DUP3 ADD SWAP1 POP DUP2 DUP2 SUB PUSH0 DUP4 ADD MSTORE PUSH2 0x96F DUP2 PUSH2 0x936 JUMP JUMPDEST SWAP1 POP SWAP2 SWAP1 POP JUMP JUMPDEST PUSH32 0x4E487B7100000000000000000000000000000000000000000000000000000000 PUSH0 MSTORE PUSH1 0x32 PUSH1 0x4 MSTORE PUSH1 0x24 PUSH0 REVERT JUMPDEST PUSH32 0x4E487B7100000000000000000000000000000000000000000000000000000000 PUSH0 MSTORE PUSH1 0x11 PUSH1 0x4 MSTORE PUSH1 0x24 PUSH0 REVERT JUMPDEST PUSH0 PUSH2 0x9DA DUP3 PUSH2 0x830 JUMP JUMPDEST SWAP2 POP PUSH32 0xFFFFFFFFFFFFFFFFFFFFFFFFFFFFFFFFFFFFFFFFFFFFFFFFFFFFFFFFFFFFFFFF DUP3 SUB PUSH2 0xA0C JUMPI PUSH2 0xA0B PUSH2 0x9A3 JUMP JUMPDEST JUMPDEST PUSH1 0x1 DUP3 ADD SWAP1 POP SWAP2 SWAP1 POP JUMP JUMPDEST PUSH0 PUSH1 0xFF DUP3 AND SWAP1 POP SWAP2 SWAP1 POP JUMP JUMPDEST PUSH0 PUSH2 0xA2D DUP3 PUSH2 0xA17 JUMP JUMPDEST SWAP2 POP PUSH1 0xFF DUP3 SUB PUSH2 0xA40 JUMPI PUSH2 0xA3F PUSH2 0x9A3 JUMP JUMPDEST JUMPDEST PUSH1 0x1 DUP3 ADD SWAP1 POP SWAP2 SWAP1 POP JUMP JUMPDEST PUSH0 PUSH2 0xA55 DUP3 PUSH2 0x830 JUMP JUMPDEST SWAP2 POP PUSH2 0xA60 DUP4 PUSH2 0x830 JUMP JUMPDEST SWAP3 POP DUP3 DUP3 ADD SWAP1 POP DUP1 DUP3 GT ISZERO PUSH2 0xA78 JUMPI PUSH2 0xA77 PUSH2 0x9A3 JUMP JUMPDEST JUMPDEST SWAP3 SWAP2 POP POP JUMP JUMPDEST PUSH32 0x4172726179206D757374206E6F7420626520656D707479000000000000000000 PUSH0 DUP3 ADD MSTORE POP JUMP JUMPDEST PUSH0 PUSH2 0xAB2 PUSH1 0x17 DUP4 PUSH2 0x8FE JUMP JUMPDEST SWAP2 POP PUSH2 0xABD DUP3 PUSH2 0xA7E JUMP JUMPDEST PUSH1 0x20 DUP3 ADD SWAP1 POP SWAP2 SWAP1 POP JUMP JUMPDEST PUSH0 PUSH1 0x20 DUP3 ADD SWAP1 POP DUP2 DUP2 SUB PUSH0 DUP4 ADD MSTORE PUSH2 0xADF DUP2 PUSH2 0xAA6 JUMP JUMPDEST SWAP1 POP SWAP2 SWAP1 POP JUMP JUMPDEST PUSH32 0x4E487B7100000000000000000000000000000000000000000000000000000000 PUSH0 MSTORE PUSH1 0x12 PUSH1 0x4 MSTORE PUSH1 0x24 PUSH0 REVERT INVALID LOG2 PUSH5 0x6970667358 0x22 SLT KECCAK256 SHR 0xE5 0xFB MULMOD 0xE0 DUP8 0xD9 MSTORE8 MCOPY DUP7 0xEA DUP8 SIGNEXTEND SWAP10 CALLDATACOPY PUSH2 0x6EB9 0xB0 AND 0xD1 PUSH20 0xBAB9FC2898FFFF9A823F64736F6C634300081900 CALLER "
		},
		"gasEstimates": {
			"creation": {
				"codeDepositCost": "577800",
				"executionCost": "20746",
				"totalCost": "598546"
			},
			"external": {
				"add(uint256[])": "infinite",
				"divide(uint256[])": "infinite",
				"multiply(uint256[])": "infinite",
				"result()": "2446",
				"stats(uint256[])": "infinite",
				"statsAnswer()": "infinite",
				"subtract(uint256[])": "infinite"
			},
			"internal": {
				"_add(uint256,uint256)": "infinite",
				"_divide(uint256,uint256)": "infinite",
				"_multiply(uint256,uint256)": "infinite",
				"_subtract(uint256,uint256)": "infinite"
			}
		},
		"methodIdentifiers": {
			"add(uint256[])": "10b0b5d5",
			"divide(uint256[])": "43e37638",
			"multiply(uint256[])": "239de9f4",
			"result()": "65372147",
			"stats(uint256[])": "aa04375c",
			"statsAnswer()": "42577da2",
			"subtract(uint256[])": "bdb35499"
		}
	},
	"abi": [
		{
			"inputs": [
				{
					"internalType": "uint256[]",
					"name": "_values",
					"type": "uint256[]"
				}
			],
			"name": "add",
			"outputs": [],
			"stateMutability": "nonpayable",
			"type": "function"
		},
		{
			"inputs": [
				{
					"internalType": "uint256[]",
					"name": "_values",
					"type": "uint256[]"
				}
			],
			"name": "divide",
			"outputs": [],
			"stateMutability": "nonpayable",
			"type": "function"
		},
		{
			"inputs": [
				{
					"internalType": "uint256[]",
					"name": "_values",
					"type": "uint256[]"
				}
			],
			"name": "multiply",
			"outputs": [],
			"stateMutability": "nonpayable",
			"type": "function"
		},
		{
			"inputs": [],
			"name": "result",
			"outputs": [
				{
					"internalType": "uint256",
					"name": "",
					"type": "uint256"
				}
			],
			"stateMutability": "view",
			"type": "function"
		},
		{
			"inputs": [
				{
					"internalType": "uint256[]",
					"name": "_values",
					"type": "uint256[]"
				}
			],
			"name": "stats",
			"outputs": [
				{
					"components": [
						{
							"internalType": "uint256",
							"name": "mean",
							"type": "uint256"
						},
						{
							"internalType": "uint256",
							"name": "mode",
							"type": "uint256"
						},
						{
							"internalType": "uint256",
							"name": "totalItems",
							"type": "uint256"
						}
					],
					"internalType": "struct Calculator.ArrayData",
					"name": "",
					"type": "tuple"
				}
			],
			"stateMutability": "nonpayable",
			"type": "function"
		},
		{
			"inputs": [],
			"name": "statsAnswer",
			"outputs": [
				{
					"internalType": "uint256",
					"name": "mean",
					"type": "uint256"
				},
				{
					"internalType": "uint256",
					"name": "mode",
					"type": "uint256"
				},
				{
					"internalType": "uint256",
					"name": "totalItems",
					"type": "uint256"
				}
			],
			"stateMutability": "view",
			"type": "function"
		},
		{
			"inputs": [
				{
					"internalType": "uint256[]",
					"name": "_values",
					"type": "uint256[]"
				}
			],
			"name": "subtract",
			"outputs": [],
			"stateMutability": "nonpayable",
			"type": "function"
		}
	]
}