{
	"data": {
		"bytecode": {
			"linkReferences": {},
			"object": "60806040525f805f6101000a81548160ff021916908360ff1602179055506040518060400160405280601481526020017f596f7520637261636b65642074686520636f64650000000000000000000000008152506001908161006191906102ad565b5034801561006d575f80fd5b5061037c565b5f81519050919050565b7f4e487b71000000000000000000000000000000000000000000000000000000005f52604160045260245ffd5b7f4e487b71000000000000000000000000000000000000000000000000000000005f52602260045260245ffd5b5f60028204905060018216806100ee57607f821691505b602082108103610101576101006100aa565b5b50919050565b5f819050815f5260205f209050919050565b5f6020601f8301049050919050565b5f82821b905092915050565b5f600883026101637fffffffffffffffffffffffffffffffffffffffffffffffffffffffffffffffff82610128565b61016d8683610128565b95508019841693508086168417925050509392505050565b5f819050919050565b5f819050919050565b5f6101b16101ac6101a784610185565b61018e565b610185565b9050919050565b5f819050919050565b6101ca83610197565b6101de6101d6826101b8565b848454610134565b825550505050565b5f90565b6101f26101e6565b6101fd8184846101c1565b505050565b5b81811015610220576102155f826101ea565b600181019050610203565b5050565b601f8211156102655761023681610107565b61023f84610119565b8101602085101561024e578190505b61026261025a85610119565b830182610202565b50505b505050565b5f82821c905092915050565b5f6102855f198460080261026a565b1980831691505092915050565b5f61029d8383610276565b9150826002028217905092915050565b6102b682610073565b67ffffffffffffffff8111156102cf576102ce61007d565b5b6102d982546100d7565b6102e4828285610224565b5f60209050601f831160018114610315575f8415610303578287015190505b61030d8582610292565b865550610374565b601f19841661032386610107565b5f5b8281101561034a57848901518255600182019150602085019450602081019050610325565b868310156103675784890151610363601f891682610276565b8355505b6001600288020188555050505b505050505050565b6103fa806103895f395ff3fe608060405234801561000f575f80fd5b506004361061003f575f3560e01c80631687fe8e146100435780635763440b1461004d5780635b9fdc301461006b575b5f80fd5b61004b610089565b005b6100556100dc565b6040516100629190610230565b60405180910390f35b6100736100ec565b60405161008091906102b9565b60405180910390f35b5f806100ae60015f8054906101000a900460ff1660ff166101e990919063ffffffff16565b91509150816100be5750506100da565b805f806101000a81548160ff021916908360ff16021790555050505b565b5f8054906101000a900460ff1681565b6060600a5f8054906101000a900460ff1660ff1611801561011c575060145f8054906101000a900460ff1660ff16105b61015b576040517f08c379a000000000000000000000000000000000000000000000000000000000815260040161015290610349565b60405180910390fd5b6001805461016890610394565b80601f016020809104026020016040519081016040528092919081815260200182805461019490610394565b80156101df5780601f106101b6576101008083540402835291602001916101df565b820191905f5260205f20905b8154815290600101906020018083116101c257829003601f168201915b5050505050905090565b5f805f838501905084811015610205575f80925092505061020e565b60018192509250505b9250929050565b5f60ff82169050919050565b61022a81610215565b82525050565b5f6020820190506102435f830184610221565b92915050565b5f81519050919050565b5f82825260208201905092915050565b8281835e5f83830152505050565b5f601f19601f8301169050919050565b5f61028b82610249565b6102958185610253565b93506102a5818560208601610263565b6102ae81610271565b840191505092915050565b5f6020820190508181035f8301526102d18184610281565b905092915050565b7f436f756e7465722073686f756c64206265206265747765656e20313020616e645f8201527f2032300000000000000000000000000000000000000000000000000000000000602082015250565b5f610333602383610253565b915061033e826102d9565b604082019050919050565b5f6020820190508181035f83015261036081610327565b9050919050565b7f4e487b71000000000000000000000000000000000000000000000000000000005f52602260045260245ffd5b5f60028204905060018216806103ab57607f821691505b6020821081036103be576103bd610367565b5b5091905056fea2646970667358221220169e3f9f9fd09f2ee98c0393c3200341d6a69457f49b161f4afb38fdff724dbe64736f6c63430008190033",
			"opcodes": "PUSH1 0x80 PUSH1 0x40 MSTORE PUSH0 DUP1 PUSH0 PUSH2 0x100 EXP DUP2 SLOAD DUP2 PUSH1 0xFF MUL NOT AND SWAP1 DUP4 PUSH1 0xFF AND MUL OR SWAP1 SSTORE POP PUSH1 0x40 MLOAD DUP1 PUSH1 0x40 ADD PUSH1 0x40 MSTORE DUP1 PUSH1 0x14 DUP2 MSTORE PUSH1 0x20 ADD PUSH32 0x596F7520637261636B65642074686520636F6465000000000000000000000000 DUP2 MSTORE POP PUSH1 0x1 SWAP1 DUP2 PUSH2 0x61 SWAP2 SWAP1 PUSH2 0x2AD JUMP JUMPDEST POP CALLVALUE DUP1 ISZERO PUSH2 0x6D JUMPI PUSH0 DUP1 REVERT JUMPDEST POP PUSH2 0x37C JUMP JUMPDEST PUSH0 DUP2 MLOAD SWAP1 POP SWAP2 SWAP1 POP JUMP JUMPDEST PUSH32 0x4E487B7100000000000000000000000000000000000000000000000000000000 PUSH0 MSTORE PUSH1 0x41 PUSH1 0x4 MSTORE PUSH1 0x24 PUSH0 REVERT JUMPDEST PUSH32 0x4E487B7100000000000000000000000000000000000000000000000000000000 PUSH0 MSTORE PUSH1 0x22 PUSH1 0x4 MSTORE PUSH1 0x24 PUSH0 REVERT JUMPDEST PUSH0 PUSH1 0x2 DUP3 DIV SWAP1 POP PUSH1 0x1 DUP3 AND DUP1 PUSH2 0xEE JUMPI PUSH1 0x7F DUP3 AND SWAP2 POP JUMPDEST PUSH1 0x20 DUP3 LT DUP2 SUB PUSH2 0x101 JUMPI PUSH2 0x100 PUSH2 0xAA JUMP JUMPDEST JUMPDEST POP SWAP2 SWAP1 POP JUMP JUMPDEST PUSH0 DUP2 SWAP1 POP DUP2 PUSH0 MSTORE PUSH1 0x20 PUSH0 KECCAK256 SWAP1 POP SWAP2 SWAP1 POP JUMP JUMPDEST PUSH0 PUSH1 0x20 PUSH1 0x1F DUP4 ADD DIV SWAP1 POP SWAP2 SWAP1 POP JUMP JUMPDEST PUSH0 DUP3 DUP3 SHL SWAP1 POP SWAP3 SWAP2 POP POP JUMP JUMPDEST PUSH0 PUSH1 0x8 DUP4 MUL PUSH2 0x163 PUSH32 0xFFFFFFFFFFFFFFFFFFFFFFFFFFFFFFFFFFFFFFFFFFFFFFFFFFFFFFFFFFFFFFFF DUP3 PUSH2 0x128 JUMP JUMPDEST PUSH2 0x16D DUP7 DUP4 PUSH2 0x128 JUMP JUMPDEST SWAP6 POP DUP1 NOT DUP5 AND SWAP4 POP DUP1 DUP7 AND DUP5 OR SWAP3 POP POP POP SWAP4 SWAP3 POP POP POP JUMP JUMPDEST PUSH0 DUP2 SWAP1 POP SWAP2 SWAP1 POP JUMP JUMPDEST PUSH0 DUP2 SWAP1 POP SWAP2 SWAP1 POP JUMP JUMPDEST PUSH0 PUSH2 0x1B1 PUSH2 0x1AC PUSH2 0x1A7 DUP5 PUSH2 0x185 JUMP JUMPDEST PUSH2 0x18E JUMP JUMPDEST PUSH2 0x185 JUMP JUMPDEST SWAP1 POP SWAP2 SWAP1 POP JUMP JUMPDEST PUSH0 DUP2 SWAP1 POP SWAP2 SWAP1 POP JUMP JUMPDEST PUSH2 0x1CA DUP4 PUSH2 0x197 JUMP JUMPDEST PUSH2 0x1DE PUSH2 0x1D6 DUP3 PUSH2 0x1B8 JUMP JUMPDEST DUP5 DUP5 SLOAD PUSH2 0x134 JUMP JUMPDEST DUP3 SSTORE POP POP POP POP JUMP JUMPDEST PUSH0 SWAP1 JUMP JUMPDEST PUSH2 0x1F2 PUSH2 0x1E6 JUMP JUMPDEST PUSH2 0x1FD DUP2 DUP5 DUP5 PUSH2 0x1C1 JUMP JUMPDEST POP POP POP JUMP JUMPDEST JUMPDEST DUP2 DUP2 LT ISZERO PUSH2 0x220 JUMPI PUSH2 0x215 PUSH0 DUP3 PUSH2 0x1EA JUMP JUMPDEST PUSH1 0x1 DUP2 ADD SWAP1 POP PUSH2 0x203 JUMP JUMPDEST POP POP JUMP JUMPDEST PUSH1 0x1F DUP3 GT ISZERO PUSH2 0x265 JUMPI PUSH2 0x236 DUP2 PUSH2 0x107 JUMP JUMPDEST PUSH2 0x23F DUP5 PUSH2 0x119 JUMP JUMPDEST DUP2 ADD PUSH1 0x20 DUP6 LT ISZERO PUSH2 0x24E JUMPI DUP2 SWAP1 POP JUMPDEST PUSH2 0x262 PUSH2 0x25A DUP6 PUSH2 0x119 JUMP JUMPDEST DUP4 ADD DUP3 PUSH2 0x202 JUMP JUMPDEST POP POP JUMPDEST POP POP POP JUMP JUMPDEST PUSH0 DUP3 DUP3 SHR SWAP1 POP SWAP3 SWAP2 POP POP JUMP JUMPDEST PUSH0 PUSH2 0x285 PUSH0 NOT DUP5 PUSH1 0x8 MUL PUSH2 0x26A JUMP JUMPDEST NOT DUP1 DUP4 AND SWAP2 POP POP SWAP3 SWAP2 POP POP JUMP JUMPDEST PUSH0 PUSH2 0x29D DUP4 DUP4 PUSH2 0x276 JUMP JUMPDEST SWAP2 POP DUP3 PUSH1 0x2 MUL DUP3 OR SWAP1 POP SWAP3 SWAP2 POP POP JUMP JUMPDEST PUSH2 0x2B6 DUP3 PUSH2 0x73 JUMP JUMPDEST PUSH8 0xFFFFFFFFFFFFFFFF DUP2 GT ISZERO PUSH2 0x2CF JUMPI PUSH2 0x2CE PUSH2 0x7D JUMP JUMPDEST JUMPDEST PUSH2 0x2D9 DUP3 SLOAD PUSH2 0xD7 JUMP JUMPDEST PUSH2 0x2E4 DUP3 DUP3 DUP6 PUSH2 0x224 JUMP JUMPDEST PUSH0 PUSH1 0x20 SWAP1 POP PUSH1 0x1F DUP4 GT PUSH1 0x1 DUP2 EQ PUSH2 0x315 JUMPI PUSH0 DUP5 ISZERO PUSH2 0x303 JUMPI DUP3 DUP8 ADD MLOAD SWAP1 POP JUMPDEST PUSH2 0x30D DUP6 DUP3 PUSH2 0x292 JUMP JUMPDEST DUP7 SSTORE POP PUSH2 0x374 JUMP JUMPDEST PUSH1 0x1F NOT DUP5 AND PUSH2 0x323 DUP7 PUSH2 0x107 JUMP JUMPDEST PUSH0 JUMPDEST DUP3 DUP2 LT ISZERO PUSH2 0x34A JUMPI DUP5 DUP10 ADD MLOAD DUP3 SSTORE PUSH1 0x1 DUP3 ADD SWAP2 POP PUSH1 0x20 DUP6 ADD SWAP5 POP PUSH1 0x20 DUP2 ADD SWAP1 POP PUSH2 0x325 JUMP JUMPDEST DUP7 DUP4 LT ISZERO PUSH2 0x367 JUMPI DUP5 DUP10 ADD MLOAD PUSH2 0x363 PUSH1 0x1F DUP10 AND DUP3 PUSH2 0x276 JUMP JUMPDEST DUP4 SSTORE POP JUMPDEST PUSH1 0x1 PUSH1 0x2 DUP9 MUL ADD DUP9 SSTORE POP POP POP JUMPDEST POP POP POP POP POP POP JUMP JUMPDEST PUSH2 0x3FA DUP1 PUSH2 0x389 PUSH0 CODECOPY PUSH0 RETURN INVALID PUSH1 0x80 PUSH1 0x40 MSTORE CALLVALUE DUP1 ISZERO PUSH2 0xF JUMPI PUSH0 DUP1 REVERT JUMPDEST POP PUSH1 0x4 CALLDATASIZE LT PUSH2 0x3F JUMPI PUSH0 CALLDATALOAD PUSH1 0xE0 SHR DUP1 PUSH4 0x1687FE8E EQ PUSH2 0x43 JUMPI DUP1 PUSH4 0x5763440B EQ PUSH2 0x4D JUMPI DUP1 PUSH4 0x5B9FDC30 EQ PUSH2 0x6B JUMPI JUMPDEST PUSH0 DUP1 REVERT JUMPDEST PUSH2 0x4B PUSH2 0x89 JUMP JUMPDEST STOP JUMPDEST PUSH2 0x55 PUSH2 0xDC JUMP JUMPDEST PUSH1 0x40 MLOAD PUSH2 0x62 SWAP2 SWAP1 PUSH2 0x230 JUMP JUMPDEST PUSH1 0x40 MLOAD DUP1 SWAP2 SUB SWAP1 RETURN JUMPDEST PUSH2 0x73 PUSH2 0xEC JUMP JUMPDEST PUSH1 0x40 MLOAD PUSH2 0x80 SWAP2 SWAP1 PUSH2 0x2B9 JUMP JUMPDEST PUSH1 0x40 MLOAD DUP1 SWAP2 SUB SWAP1 RETURN JUMPDEST PUSH0 DUP1 PUSH2 0xAE PUSH1 0x1 PUSH0 DUP1 SLOAD SWAP1 PUSH2 0x100 EXP SWAP1 DIV PUSH1 0xFF AND PUSH1 0xFF AND PUSH2 0x1E9 SWAP1 SWAP2 SWAP1 PUSH4 0xFFFFFFFF AND JUMP JUMPDEST SWAP2 POP SWAP2 POP DUP2 PUSH2 0xBE JUMPI POP POP PUSH2 0xDA JUMP JUMPDEST DUP1 PUSH0 DUP1 PUSH2 0x100 EXP DUP2 SLOAD DUP2 PUSH1 0xFF MUL NOT AND SWAP1 DUP4 PUSH1 0xFF AND MUL OR SWAP1 SSTORE POP POP POP JUMPDEST JUMP JUMPDEST PUSH0 DUP1 SLOAD SWAP1 PUSH2 0x100 EXP SWAP1 DIV PUSH1 0xFF AND DUP2 JUMP JUMPDEST PUSH1 0x60 PUSH1 0xA PUSH0 DUP1 SLOAD SWAP1 PUSH2 0x100 EXP SWAP1 DIV PUSH1 0xFF AND PUSH1 0xFF AND GT DUP1 ISZERO PUSH2 0x11C JUMPI POP PUSH1 0x14 PUSH0 DUP1 SLOAD SWAP1 PUSH2 0x100 EXP SWAP1 DIV PUSH1 0xFF AND PUSH1 0xFF AND LT JUMPDEST PUSH2 0x15B JUMPI PUSH1 0x40 MLOAD PUSH32 0x8C379A000000000000000000000000000000000000000000000000000000000 DUP2 MSTORE PUSH1 0x4 ADD PUSH2 0x152 SWAP1 PUSH2 0x349 JUMP JUMPDEST PUSH1 0x40 MLOAD DUP1 SWAP2 SUB SWAP1 REVERT JUMPDEST PUSH1 0x1 DUP1 SLOAD PUSH2 0x168 SWAP1 PUSH2 0x394 JUMP JUMPDEST DUP1 PUSH1 0x1F ADD PUSH1 0x20 DUP1 SWAP2 DIV MUL PUSH1 0x20 ADD PUSH1 0x40 MLOAD SWAP1 DUP2 ADD PUSH1 0x40 MSTORE DUP1 SWAP3 SWAP2 SWAP1 DUP2 DUP2 MSTORE PUSH1 0x20 ADD DUP3 DUP1 SLOAD PUSH2 0x194 SWAP1 PUSH2 0x394 JUMP JUMPDEST DUP1 ISZERO PUSH2 0x1DF JUMPI DUP1 PUSH1 0x1F LT PUSH2 0x1B6 JUMPI PUSH2 0x100 DUP1 DUP4 SLOAD DIV MUL DUP4 MSTORE SWAP2 PUSH1 0x20 ADD SWAP2 PUSH2 0x1DF JUMP JUMPDEST DUP3 ADD SWAP2 SWAP1 PUSH0 MSTORE PUSH1 0x20 PUSH0 KECCAK256 SWAP1 JUMPDEST DUP2 SLOAD DUP2 MSTORE SWAP1 PUSH1 0x1 ADD SWAP1 PUSH1 0x20 ADD DUP1 DUP4 GT PUSH2 0x1C2 JUMPI DUP3 SWAP1 SUB PUSH1 0x1F AND DUP3 ADD SWAP2 JUMPDEST POP POP POP POP POP SWAP1 POP SWAP1 JUMP JUMPDEST PUSH0 DUP1 PUSH0 DUP4 DUP6 ADD SWAP1 POP DUP5 DUP2 LT ISZERO PUSH2 0x205 JUMPI PUSH0 DUP1 SWAP3 POP SWAP3 POP POP PUSH2 0x20E JUMP JUMPDEST PUSH1 0x1 DUP2 SWAP3 POP SWAP3 POP POP JUMPDEST SWAP3 POP SWAP3 SWAP1 POP JUMP JUMPDEST PUSH0 PUSH1 0xFF DUP3 AND SWAP1 POP SWAP2 SWAP1 POP JUMP JUMPDEST PUSH2 0x22A DUP2 PUSH2 0x215 JUMP JUMPDEST DUP3 MSTORE POP POP JUMP JUMPDEST PUSH0 PUSH1 0x20 DUP3 ADD SWAP1 POP PUSH2 0x243 PUSH0 DUP4 ADD DUP5 PUSH2 0x221 JUMP JUMPDEST SWAP3 SWAP2 POP POP JUMP JUMPDEST PUSH0 DUP2 MLOAD SWAP1 POP SWAP2 SWAP1 POP JUMP JUMPDEST PUSH0 DUP3 DUP3 MSTORE PUSH1 0x20 DUP3 ADD SWAP1 POP SWAP3 SWAP2 POP POP JUMP JUMPDEST DUP3 DUP2 DUP4 MCOPY PUSH0 DUP4 DUP4 ADD MSTORE POP POP POP JUMP JUMPDEST PUSH0 PUSH1 0x1F NOT PUSH1 0x1F DUP4 ADD AND SWAP1 POP SWAP2 SWAP1 POP JUMP JUMPDEST PUSH0 PUSH2 0x28B DUP3 PUSH2 0x249 JUMP JUMPDEST PUSH2 0x295 DUP2 DUP6 PUSH2 0x253 JUMP JUMPDEST SWAP4 POP PUSH2 0x2A5 DUP2 DUP6 PUSH1 0x20 DUP7 ADD PUSH2 0x263 JUMP JUMPDEST PUSH2 0x2AE DUP2 PUSH2 0x271 JUMP JUMPDEST DUP5 ADD SWAP2 POP POP SWAP3 SWAP2 POP POP JUMP JUMPDEST PUSH0 PUSH1 0x20 DUP3 ADD SWAP1 POP DUP2 DUP2 SUB PUSH0 DUP4 ADD MSTORE PUSH2 0x2D1 DUP2 DUP5 PUSH2 0x281 JUMP JUMPDEST SWAP1 POP SWAP3 SWAP2 POP POP JUMP JUMPDEST PUSH32 0x436F756E7465722073686F756C64206265206265747765656E20313020616E64 PUSH0 DUP3 ADD MSTORE PUSH32 0x2032300000000000000000000000000000000000000000000000000000000000 PUSH1 0x20 DUP3 ADD MSTORE POP JUMP JUMPDEST PUSH0 PUSH2 0x333 PUSH1 0x23 DUP4 PUSH2 0x253 JUMP JUMPDEST SWAP2 POP PUSH2 0x33E DUP3 PUSH2 0x2D9 JUMP JUMPDEST PUSH1 0x40 DUP3 ADD SWAP1 POP SWAP2 SWAP1 POP JUMP JUMPDEST PUSH0 PUSH1 0x20 DUP3 ADD SWAP1 POP DUP2 DUP2 SUB PUSH0 DUP4 ADD MSTORE PUSH2 0x360 DUP2 PUSH2 0x327 JUMP JUMPDEST SWAP1 POP SWAP2 SWAP1 POP JUMP JUMPDEST PUSH32 0x4E487B7100000000000000000000000000000000000000000000000000000000 PUSH0 MSTORE PUSH1 0x22 PUSH1 0x4 MSTORE PUSH1 0x24 PUSH0 REVERT JUMPDEST PUSH0 PUSH1 0x2 DUP3 DIV SWAP1 POP PUSH1 0x1 DUP3 AND DUP1 PUSH2 0x3AB JUMPI PUSH1 0x7F DUP3 AND SWAP2 POP JUMPDEST PUSH1 0x20 DUP3 LT DUP2 SUB PUSH2 0x3BE JUMPI PUSH2 0x3BD PUSH2 0x367 JUMP JUMPDEST JUMPDEST POP SWAP2 SWAP1 POP JUMP INVALID LOG2 PUSH5 0x6970667358 0x22 SLT KECCAK256 AND SWAP15 EXTCODEHASH SWAP16 SWAP16 0xD0 SWAP16 0x2E 0xE9 DUP13 SUB SWAP4 0xC3 KECCAK256 SUB COINBASE 0xD6 0xA6 SWAP5 JUMPI DELEGATECALL SWAP12 AND 0x1F BLOBBASEFEE 0xFB CODESIZE REVERT SELFDESTRUCT PUSH19 0x4DBE64736F6C63430008190033000000000000 "
		},
		"gasEstimates": {
			"creation": {
				"codeDepositCost": "203600",
				"executionCost": "infinite",
				"totalCost": "infinite"
			},
			"external": {
				"currentCounter()": "2463",
				"getSecret()": "infinite",
				"updateCounter()": "infinite"
			}
		},
		"methodIdentifiers": {
			"currentCounter()": "5763440b",
			"getSecret()": "5b9fdc30",
			"updateCounter()": "1687fe8e"
		}
	},
	"abi": [
		{
			"inputs": [],
			"name": "currentCounter",
			"outputs": [
				{
					"internalType": "uint8",
					"name": "",
					"type": "uint8"
				}
			],
			"stateMutability": "view",
			"type": "function"
		},
		{
			"inputs": [],
			"name": "getSecret",
			"outputs": [
				{
					"internalType": "string",
					"name": "",
					"type": "string"
				}
			],
			"stateMutability": "view",
			"type": "function"
		},
		{
			"inputs": [],
			"name": "updateCounter",
			"outputs": [],
			"stateMutability": "nonpayable",
			"type": "function"
		}
	]
}