{
	"data": {
		"bytecode": {
			"linkReferences": {},
			"object": "608060405234801561000f575f80fd5b506040516116f13803806116f1833981810160405281019061003191906104df565b825f73ffffffffffffffffffffffffffffffffffffffff168173ffffffffffffffffffffffffffffffffffffffff16036100a2575f6040517f1e4fbdf7000000000000000000000000000000000000000000000000000000008152600401610099919061055a565b60405180910390fd5b6100b18161015760201b60201c565b508160015f820151815f0190816100c89190610777565b506020820151816001015f6101000a8154816fffffffffffffffffffffffffffffffff021916908360801c02179055509050508060038190555061011061021860201b60201c565b60045f6101000a81548173ffffffffffffffffffffffffffffffffffffffff021916908373ffffffffffffffffffffffffffffffffffffffff160217905550505050610846565b5f805f9054906101000a900473ffffffffffffffffffffffffffffffffffffffff169050815f806101000a81548173ffffffffffffffffffffffffffffffffffffffff021916908373ffffffffffffffffffffffffffffffffffffffff1602179055508173ffffffffffffffffffffffffffffffffffffffff168173ffffffffffffffffffffffffffffffffffffffff167f8be0079c531659141344cd1fd0a4f28419497f9722a3daafe3b4186f6b6457e060405160405180910390a35050565b5f805f9054906101000a900473ffffffffffffffffffffffffffffffffffffffff16905090565b5f604051905090565b5f80fd5b5f80fd5b5f73ffffffffffffffffffffffffffffffffffffffff82169050919050565b5f61027982610250565b9050919050565b6102898161026f565b8114610293575f80fd5b50565b5f815190506102a481610280565b92915050565b5f80fd5b5f601f19601f8301169050919050565b7f4e487b71000000000000000000000000000000000000000000000000000000005f52604160045260245ffd5b6102f4826102ae565b810181811067ffffffffffffffff82111715610313576103126102be565b5b80604052505050565b5f61032561023f565b905061033182826102eb565b919050565b5f80fd5b5f80fd5b5f80fd5b5f67ffffffffffffffff82111561035c5761035b6102be565b5b610365826102ae565b9050602081019050919050565b8281835e5f83830152505050565b5f61039261038d84610342565b61031c565b9050828152602081018484840111156103ae576103ad61033e565b5b6103b9848285610372565b509392505050565b5f82601f8301126103d5576103d461033a565b5b81516103e5848260208601610380565b91505092915050565b5f7fffffffffffffffffffffffffffffffff0000000000000000000000000000000082169050919050565b610422816103ee565b811461042c575f80fd5b50565b5f8151905061043d81610419565b92915050565b5f60408284031215610458576104576102aa565b5b610462604061031c565b90505f82015167ffffffffffffffff81111561048157610480610336565b5b61048d848285016103c1565b5f8301525060206104a08482850161042f565b60208301525092915050565b5f819050919050565b6104be816104ac565b81146104c8575f80fd5b50565b5f815190506104d9816104b5565b92915050565b5f805f606084860312156104f6576104f5610248565b5b5f61050386828701610296565b935050602084015167ffffffffffffffff8111156105245761052361024c565b5b61053086828701610443565b9250506040610541868287016104cb565b9150509250925092565b6105548161026f565b82525050565b5f60208201905061056d5f83018461054b565b92915050565b5f81519050919050565b7f4e487b71000000000000000000000000000000000000000000000000000000005f52602260045260245ffd5b5f60028204905060018216806105c157607f821691505b6020821081036105d4576105d361057d565b5b50919050565b5f819050815f5260205f209050919050565b5f6020601f8301049050919050565b5f82821b905092915050565b5f600883026106367fffffffffffffffffffffffffffffffffffffffffffffffffffffffffffffffff826105fb565b61064086836105fb565b95508019841693508086168417925050509392505050565b5f819050919050565b5f61067b610676610671846104ac565b610658565b6104ac565b9050919050565b5f819050919050565b61069483610661565b6106a86106a082610682565b848454610607565b825550505050565b5f90565b6106bc6106b0565b6106c781848461068b565b505050565b5b818110156106ea576106df5f826106b4565b6001810190506106cd565b5050565b601f82111561072f57610700816105da565b610709846105ec565b81016020851015610718578190505b61072c610724856105ec565b8301826106cc565b50505b505050565b5f82821c905092915050565b5f61074f5f1984600802610734565b1980831691505092915050565b5f6107678383610740565b9150826002028217905092915050565b61078082610573565b67ffffffffffffffff811115610799576107986102be565b5b6107a382546105aa565b6107ae8282856106ee565b5f60209050601f8311600181146107df575f84156107cd578287015190505b6107d7858261075c565b86555061083e565b601f1984166107ed866105da565b5f5b82811015610814578489015182556001820191506020850194506020810190506107ef565b86831015610831578489015161082d601f891682610740565b8355505b6001600288020188555050505b505050505050565b610e9e806108535f395ff3fe60806040526004361061007a575f3560e01c80638da5cb5b1161004d5780638da5cb5b146100fd578063a38bffda14610127578063cc28cd3b14610151578063f2fde38b1461016d5761007a565b806324600fc31461007e57806369769a2714610094578063715018a6146100bf5780638d6cc56d146100d5575b5f80fd5b348015610089575f80fd5b50610092610195565b005b34801561009f575f80fd5b506100a861026e565b6040516100b6929190610733565b60405180910390f35b3480156100ca575f80fd5b506100d3610311565b005b3480156100e0575f80fd5b506100fb60048036038101906100f691906107a5565b610324565b005b348015610108575f80fd5b5061011161036b565b60405161011e919061080f565b60405180910390f35b348015610132575f80fd5b5061013b610392565b6040516101489190610837565b60405180910390f35b61016b6004803603810190610166919061097c565b610398565b005b348015610178575f80fd5b50610193600480360381019061018e91906109ed565b6104b6565b005b61019d61053a565b5f4790505f60045f9054906101000a900473ffffffffffffffffffffffffffffffffffffffff1673ffffffffffffffffffffffffffffffffffffffff16826040516101e790610a45565b5f6040518083038185875af1925050503d805f8114610221576040519150601f19603f3d011682016040523d82523d5f602084013e610226565b606091505b505090508061026a576040517f08c379a000000000000000000000000000000000000000000000000000000000815260040161026190610aa3565b60405180910390fd5b5050565b6001805f01805461027e90610aee565b80601f01602080910402602001604051908101604052809291908181526020018280546102aa90610aee565b80156102f55780601f106102cc576101008083540402835291602001916102f5565b820191905f5260205f20905b8154815290600101906020018083116102d857829003601f168201915b505050505090806001015f9054906101000a900460801b905082565b61031961053a565b6103225f6105c1565b565b61032c61053a565b5f60035490508160038190555081817f9bdb33962ec269ba46cf891894f92891dcfbcda357db379ca990f7a6e9b951a360405160405180910390a35050565b5f805f9054906101000a900473ffffffffffffffffffffffffffffffffffffffff16905090565b60035481565b6103a061053a565b60035434146103e4576040517f08c379a00000000000000000000000000000000000000000000000000000000081526004016103db90610b8e565b60405180910390fd5b7fc5d2460186f7233c927e7db2dcc703c0e500b653ca82273b7bfad8045d85a470816040516020016104169190610be6565b6040516020818303038152906040528051906020012014610444578060015f0190816104429190610d99565b505b5f61044d61036b565b9050610458336104b6565b3373ffffffffffffffffffffffffffffffffffffffff168173ffffffffffffffffffffffffffffffffffffffff167fc26ebe5b6f78dfb9113d7b983bf073e2fb6dfab1fb744b0feb73e04fb2bcc07760405160405180910390a35050565b6104be61053a565b5f73ffffffffffffffffffffffffffffffffffffffff168173ffffffffffffffffffffffffffffffffffffffff160361052e575f6040517f1e4fbdf7000000000000000000000000000000000000000000000000000000008152600401610525919061080f565b60405180910390fd5b610537816105c1565b50565b610542610682565b73ffffffffffffffffffffffffffffffffffffffff1661056061036b565b73ffffffffffffffffffffffffffffffffffffffff16146105bf57610583610682565b6040517f118cdaa70000000000000000000000000000000000000000000000000000000081526004016105b6919061080f565b60405180910390fd5b565b5f805f9054906101000a900473ffffffffffffffffffffffffffffffffffffffff169050815f806101000a81548173ffffffffffffffffffffffffffffffffffffffff021916908373ffffffffffffffffffffffffffffffffffffffff1602179055508173ffffffffffffffffffffffffffffffffffffffff168173ffffffffffffffffffffffffffffffffffffffff167f8be0079c531659141344cd1fd0a4f28419497f9722a3daafe3b4186f6b6457e060405160405180910390a35050565b5f33905090565b5f81519050919050565b5f82825260208201905092915050565b8281835e5f83830152505050565b5f601f19601f8301169050919050565b5f6106cb82610689565b6106d58185610693565b93506106e58185602086016106a3565b6106ee816106b1565b840191505092915050565b5f7fffffffffffffffffffffffffffffffff0000000000000000000000000000000082169050919050565b61072d816106f9565b82525050565b5f6040820190508181035f83015261074b81856106c1565b905061075a6020830184610724565b9392505050565b5f604051905090565b5f80fd5b5f80fd5b5f819050919050565b61078481610772565b811461078e575f80fd5b50565b5f8135905061079f8161077b565b92915050565b5f602082840312156107ba576107b961076a565b5b5f6107c784828501610791565b91505092915050565b5f73ffffffffffffffffffffffffffffffffffffffff82169050919050565b5f6107f9826107d0565b9050919050565b610809816107ef565b82525050565b5f6020820190506108225f830184610800565b92915050565b61083181610772565b82525050565b5f60208201905061084a5f830184610828565b92915050565b5f80fd5b5f80fd5b7f4e487b71000000000000000000000000000000000000000000000000000000005f52604160045260245ffd5b61088e826106b1565b810181811067ffffffffffffffff821117156108ad576108ac610858565b5b80604052505050565b5f6108bf610761565b90506108cb8282610885565b919050565b5f67ffffffffffffffff8211156108ea576108e9610858565b5b6108f3826106b1565b9050602081019050919050565b828183375f83830152505050565b5f61092061091b846108d0565b6108b6565b90508281526020810184848401111561093c5761093b610854565b5b610947848285610900565b509392505050565b5f82601f83011261096357610962610850565b5b813561097384826020860161090e565b91505092915050565b5f602082840312156109915761099061076a565b5b5f82013567ffffffffffffffff8111156109ae576109ad61076e565b5b6109ba8482850161094f565b91505092915050565b6109cc816107ef565b81146109d6575f80fd5b50565b5f813590506109e7816109c3565b92915050565b5f60208284031215610a0257610a0161076a565b5b5f610a0f848285016109d9565b91505092915050565b5f81905092915050565b50565b5f610a305f83610a18565b9150610a3b82610a22565b5f82019050919050565b5f610a4f82610a25565b9150819050919050565b7f46756e6473206e6f742077697468647261776e207375636365737366756c6c795f82015250565b5f610a8d602083610693565b9150610a9882610a59565b602082019050919050565b5f6020820190508181035f830152610aba81610a81565b9050919050565b7f4e487b71000000000000000000000000000000000000000000000000000000005f52602260045260245ffd5b5f6002820490506001821680610b0557607f821691505b602082108103610b1857610b17610ac1565b5b50919050565b7f5472616e73616374696f6e206661696c65642c20656e7375726520796f7572205f8201527f76616c756520697320657175616c20746f2063757272656e7420707269636500602082015250565b5f610b78603f83610693565b9150610b8382610b1e565b604082019050919050565b5f6020820190508181035f830152610ba581610b6c565b9050919050565b5f81905092915050565b5f610bc082610689565b610bca8185610bac565b9350610bda8185602086016106a3565b80840191505092915050565b5f610bf18284610bb6565b915081905092915050565b5f819050815f5260205f209050919050565b5f6020601f8301049050919050565b5f82821b905092915050565b5f60088302610c587fffffffffffffffffffffffffffffffffffffffffffffffffffffffffffffffff82610c1d565b610c628683610c1d565b95508019841693508086168417925050509392505050565b5f819050919050565b5f610c9d610c98610c9384610772565b610c7a565b610772565b9050919050565b5f819050919050565b610cb683610c83565b610cca610cc282610ca4565b848454610c29565b825550505050565b5f90565b610cde610cd2565b610ce9818484610cad565b505050565b5b81811015610d0c57610d015f82610cd6565b600181019050610cef565b5050565b601f821115610d5157610d2281610bfc565b610d2b84610c0e565b81016020851015610d3a578190505b610d4e610d4685610c0e565b830182610cee565b50505b505050565b5f82821c905092915050565b5f610d715f1984600802610d56565b1980831691505092915050565b5f610d898383610d62565b9150826002028217905092915050565b610da282610689565b67ffffffffffffffff811115610dbb57610dba610858565b5b610dc58254610aee565b610dd0828285610d10565b5f60209050601f831160018114610e01575f8415610def578287015190505b610df98582610d7e565b865550610e60565b601f198416610e0f86610bfc565b5f5b82811015610e3657848901518255600182019150602085019450602081019050610e11565b86831015610e535784890151610e4f601f891682610d62565b8355505b6001600288020188555050505b50505050505056fea26469706673582212204a79e63aa5d27febd45ed3bb5167c336b523d428727d3d0adb1a0c415867496564736f6c63430008190033",
			"opcodes": "PUSH1 0x80 PUSH1 0x40 MSTORE CALLVALUE DUP1 ISZERO PUSH2 0xF JUMPI PUSH0 DUP1 REVERT JUMPDEST POP PUSH1 0x40 MLOAD PUSH2 0x16F1 CODESIZE SUB DUP1 PUSH2 0x16F1 DUP4 CODECOPY DUP2 DUP2 ADD PUSH1 0x40 MSTORE DUP2 ADD SWAP1 PUSH2 0x31 SWAP2 SWAP1 PUSH2 0x4DF JUMP JUMPDEST DUP3 PUSH0 PUSH20 0xFFFFFFFFFFFFFFFFFFFFFFFFFFFFFFFFFFFFFFFF AND DUP2 PUSH20 0xFFFFFFFFFFFFFFFFFFFFFFFFFFFFFFFFFFFFFFFF AND SUB PUSH2 0xA2 JUMPI PUSH0 PUSH1 0x40 MLOAD PUSH32 0x1E4FBDF700000000000000000000000000000000000000000000000000000000 DUP2 MSTORE PUSH1 0x4 ADD PUSH2 0x99 SWAP2 SWAP1 PUSH2 0x55A JUMP JUMPDEST PUSH1 0x40 MLOAD DUP1 SWAP2 SUB SWAP1 REVERT JUMPDEST PUSH2 0xB1 DUP2 PUSH2 0x157 PUSH1 0x20 SHL PUSH1 0x20 SHR JUMP JUMPDEST POP DUP2 PUSH1 0x1 PUSH0 DUP3 ADD MLOAD DUP2 PUSH0 ADD SWAP1 DUP2 PUSH2 0xC8 SWAP2 SWAP1 PUSH2 0x777 JUMP JUMPDEST POP PUSH1 0x20 DUP3 ADD MLOAD DUP2 PUSH1 0x1 ADD PUSH0 PUSH2 0x100 EXP DUP2 SLOAD DUP2 PUSH16 0xFFFFFFFFFFFFFFFFFFFFFFFFFFFFFFFF MUL NOT AND SWAP1 DUP4 PUSH1 0x80 SHR MUL OR SWAP1 SSTORE POP SWAP1 POP POP DUP1 PUSH1 0x3 DUP2 SWAP1 SSTORE POP PUSH2 0x110 PUSH2 0x218 PUSH1 0x20 SHL PUSH1 0x20 SHR JUMP JUMPDEST PUSH1 0x4 PUSH0 PUSH2 0x100 EXP DUP2 SLOAD DUP2 PUSH20 0xFFFFFFFFFFFFFFFFFFFFFFFFFFFFFFFFFFFFFFFF MUL NOT AND SWAP1 DUP4 PUSH20 0xFFFFFFFFFFFFFFFFFFFFFFFFFFFFFFFFFFFFFFFF AND MUL OR SWAP1 SSTORE POP POP POP POP PUSH2 0x846 JUMP JUMPDEST PUSH0 DUP1 PUSH0 SWAP1 SLOAD SWAP1 PUSH2 0x100 EXP SWAP1 DIV PUSH20 0xFFFFFFFFFFFFFFFFFFFFFFFFFFFFFFFFFFFFFFFF AND SWAP1 POP DUP2 PUSH0 DUP1 PUSH2 0x100 EXP DUP2 SLOAD DUP2 PUSH20 0xFFFFFFFFFFFFFFFFFFFFFFFFFFFFFFFFFFFFFFFF MUL NOT AND SWAP1 DUP4 PUSH20 0xFFFFFFFFFFFFFFFFFFFFFFFFFFFFFFFFFFFFFFFF AND MUL OR SWAP1 SSTORE POP DUP2 PUSH20 0xFFFFFFFFFFFFFFFFFFFFFFFFFFFFFFFFFFFFFFFF AND DUP2 PUSH20 0xFFFFFFFFFFFFFFFFFFFFFFFFFFFFFFFFFFFFFFFF AND PUSH32 0x8BE0079C531659141344CD1FD0A4F28419497F9722A3DAAFE3B4186F6B6457E0 PUSH1 0x40 MLOAD PUSH1 0x40 MLOAD DUP1 SWAP2 SUB SWAP1 LOG3 POP POP JUMP JUMPDEST PUSH0 DUP1 PUSH0 SWAP1 SLOAD SWAP1 PUSH2 0x100 EXP SWAP1 DIV PUSH20 0xFFFFFFFFFFFFFFFFFFFFFFFFFFFFFFFFFFFFFFFF AND SWAP1 POP SWAP1 JUMP JUMPDEST PUSH0 PUSH1 0x40 MLOAD SWAP1 POP SWAP1 JUMP JUMPDEST PUSH0 DUP1 REVERT JUMPDEST PUSH0 DUP1 REVERT JUMPDEST PUSH0 PUSH20 0xFFFFFFFFFFFFFFFFFFFFFFFFFFFFFFFFFFFFFFFF DUP3 AND SWAP1 POP SWAP2 SWAP1 POP JUMP JUMPDEST PUSH0 PUSH2 0x279 DUP3 PUSH2 0x250 JUMP JUMPDEST SWAP1 POP SWAP2 SWAP1 POP JUMP JUMPDEST PUSH2 0x289 DUP2 PUSH2 0x26F JUMP JUMPDEST DUP2 EQ PUSH2 0x293 JUMPI PUSH0 DUP1 REVERT JUMPDEST POP JUMP JUMPDEST PUSH0 DUP2 MLOAD SWAP1 POP PUSH2 0x2A4 DUP2 PUSH2 0x280 JUMP JUMPDEST SWAP3 SWAP2 POP POP JUMP JUMPDEST PUSH0 DUP1 REVERT JUMPDEST PUSH0 PUSH1 0x1F NOT PUSH1 0x1F DUP4 ADD AND SWAP1 POP SWAP2 SWAP1 POP JUMP JUMPDEST PUSH32 0x4E487B7100000000000000000000000000000000000000000000000000000000 PUSH0 MSTORE PUSH1 0x41 PUSH1 0x4 MSTORE PUSH1 0x24 PUSH0 REVERT JUMPDEST PUSH2 0x2F4 DUP3 PUSH2 0x2AE JUMP JUMPDEST DUP2 ADD DUP2 DUP2 LT PUSH8 0xFFFFFFFFFFFFFFFF DUP3 GT OR ISZERO PUSH2 0x313 JUMPI PUSH2 0x312 PUSH2 0x2BE JUMP JUMPDEST JUMPDEST DUP1 PUSH1 0x40 MSTORE POP POP POP JUMP JUMPDEST PUSH0 PUSH2 0x325 PUSH2 0x23F JUMP JUMPDEST SWAP1 POP PUSH2 0x331 DUP3 DUP3 PUSH2 0x2EB JUMP JUMPDEST SWAP2 SWAP1 POP JUMP JUMPDEST PUSH0 DUP1 REVERT JUMPDEST PUSH0 DUP1 REVERT JUMPDEST PUSH0 DUP1 REVERT JUMPDEST PUSH0 PUSH8 0xFFFFFFFFFFFFFFFF DUP3 GT ISZERO PUSH2 0x35C JUMPI PUSH2 0x35B PUSH2 0x2BE JUMP JUMPDEST JUMPDEST PUSH2 0x365 DUP3 PUSH2 0x2AE JUMP JUMPDEST SWAP1 POP PUSH1 0x20 DUP2 ADD SWAP1 POP SWAP2 SWAP1 POP JUMP JUMPDEST DUP3 DUP2 DUP4 MCOPY PUSH0 DUP4 DUP4 ADD MSTORE POP POP POP JUMP JUMPDEST PUSH0 PUSH2 0x392 PUSH2 0x38D DUP5 PUSH2 0x342 JUMP JUMPDEST PUSH2 0x31C JUMP JUMPDEST SWAP1 POP DUP3 DUP2 MSTORE PUSH1 0x20 DUP2 ADD DUP5 DUP5 DUP5 ADD GT ISZERO PUSH2 0x3AE JUMPI PUSH2 0x3AD PUSH2 0x33E JUMP JUMPDEST JUMPDEST PUSH2 0x3B9 DUP5 DUP3 DUP6 PUSH2 0x372 JUMP JUMPDEST POP SWAP4 SWAP3 POP POP POP JUMP JUMPDEST PUSH0 DUP3 PUSH1 0x1F DUP4 ADD SLT PUSH2 0x3D5 JUMPI PUSH2 0x3D4 PUSH2 0x33A JUMP JUMPDEST JUMPDEST DUP2 MLOAD PUSH2 0x3E5 DUP5 DUP3 PUSH1 0x20 DUP7 ADD PUSH2 0x380 JUMP JUMPDEST SWAP2 POP POP SWAP3 SWAP2 POP POP JUMP JUMPDEST PUSH0 PUSH32 0xFFFFFFFFFFFFFFFFFFFFFFFFFFFFFFFF00000000000000000000000000000000 DUP3 AND SWAP1 POP SWAP2 SWAP1 POP JUMP JUMPDEST PUSH2 0x422 DUP2 PUSH2 0x3EE JUMP JUMPDEST DUP2 EQ PUSH2 0x42C JUMPI PUSH0 DUP1 REVERT JUMPDEST POP JUMP JUMPDEST PUSH0 DUP2 MLOAD SWAP1 POP PUSH2 0x43D DUP2 PUSH2 0x419 JUMP JUMPDEST SWAP3 SWAP2 POP POP JUMP JUMPDEST PUSH0 PUSH1 0x40 DUP3 DUP5 SUB SLT ISZERO PUSH2 0x458 JUMPI PUSH2 0x457 PUSH2 0x2AA JUMP JUMPDEST JUMPDEST PUSH2 0x462 PUSH1 0x40 PUSH2 0x31C JUMP JUMPDEST SWAP1 POP PUSH0 DUP3 ADD MLOAD PUSH8 0xFFFFFFFFFFFFFFFF DUP2 GT ISZERO PUSH2 0x481 JUMPI PUSH2 0x480 PUSH2 0x336 JUMP JUMPDEST JUMPDEST PUSH2 0x48D DUP5 DUP3 DUP6 ADD PUSH2 0x3C1 JUMP JUMPDEST PUSH0 DUP4 ADD MSTORE POP PUSH1 0x20 PUSH2 0x4A0 DUP5 DUP3 DUP6 ADD PUSH2 0x42F JUMP JUMPDEST PUSH1 0x20 DUP4 ADD MSTORE POP SWAP3 SWAP2 POP POP JUMP JUMPDEST PUSH0 DUP2 SWAP1 POP SWAP2 SWAP1 POP JUMP JUMPDEST PUSH2 0x4BE DUP2 PUSH2 0x4AC JUMP JUMPDEST DUP2 EQ PUSH2 0x4C8 JUMPI PUSH0 DUP1 REVERT JUMPDEST POP JUMP JUMPDEST PUSH0 DUP2 MLOAD SWAP1 POP PUSH2 0x4D9 DUP2 PUSH2 0x4B5 JUMP JUMPDEST SWAP3 SWAP2 POP POP JUMP JUMPDEST PUSH0 DUP1 PUSH0 PUSH1 0x60 DUP5 DUP7 SUB SLT ISZERO PUSH2 0x4F6 JUMPI PUSH2 0x4F5 PUSH2 0x248 JUMP JUMPDEST JUMPDEST PUSH0 PUSH2 0x503 DUP7 DUP3 DUP8 ADD PUSH2 0x296 JUMP JUMPDEST SWAP4 POP POP PUSH1 0x20 DUP5 ADD MLOAD PUSH8 0xFFFFFFFFFFFFFFFF DUP2 GT ISZERO PUSH2 0x524 JUMPI PUSH2 0x523 PUSH2 0x24C JUMP JUMPDEST JUMPDEST PUSH2 0x530 DUP7 DUP3 DUP8 ADD PUSH2 0x443 JUMP JUMPDEST SWAP3 POP POP PUSH1 0x40 PUSH2 0x541 DUP7 DUP3 DUP8 ADD PUSH2 0x4CB JUMP JUMPDEST SWAP2 POP POP SWAP3 POP SWAP3 POP SWAP3 JUMP JUMPDEST PUSH2 0x554 DUP2 PUSH2 0x26F JUMP JUMPDEST DUP3 MSTORE POP POP JUMP JUMPDEST PUSH0 PUSH1 0x20 DUP3 ADD SWAP1 POP PUSH2 0x56D PUSH0 DUP4 ADD DUP5 PUSH2 0x54B JUMP JUMPDEST SWAP3 SWAP2 POP POP JUMP JUMPDEST PUSH0 DUP2 MLOAD SWAP1 POP SWAP2 SWAP1 POP JUMP JUMPDEST PUSH32 0x4E487B7100000000000000000000000000000000000000000000000000000000 PUSH0 MSTORE PUSH1 0x22 PUSH1 0x4 MSTORE PUSH1 0x24 PUSH0 REVERT JUMPDEST PUSH0 PUSH1 0x2 DUP3 DIV SWAP1 POP PUSH1 0x1 DUP3 AND DUP1 PUSH2 0x5C1 JUMPI PUSH1 0x7F DUP3 AND SWAP2 POP JUMPDEST PUSH1 0x20 DUP3 LT DUP2 SUB PUSH2 0x5D4 JUMPI PUSH2 0x5D3 PUSH2 0x57D JUMP JUMPDEST JUMPDEST POP SWAP2 SWAP1 POP JUMP JUMPDEST PUSH0 DUP2 SWAP1 POP DUP2 PUSH0 MSTORE PUSH1 0x20 PUSH0 KECCAK256 SWAP1 POP SWAP2 SWAP1 POP JUMP JUMPDEST PUSH0 PUSH1 0x20 PUSH1 0x1F DUP4 ADD DIV SWAP1 POP SWAP2 SWAP1 POP JUMP JUMPDEST PUSH0 DUP3 DUP3 SHL SWAP1 POP SWAP3 SWAP2 POP POP JUMP JUMPDEST PUSH0 PUSH1 0x8 DUP4 MUL PUSH2 0x636 PUSH32 0xFFFFFFFFFFFFFFFFFFFFFFFFFFFFFFFFFFFFFFFFFFFFFFFFFFFFFFFFFFFFFFFF DUP3 PUSH2 0x5FB JUMP JUMPDEST PUSH2 0x640 DUP7 DUP4 PUSH2 0x5FB JUMP JUMPDEST SWAP6 POP DUP1 NOT DUP5 AND SWAP4 POP DUP1 DUP7 AND DUP5 OR SWAP3 POP POP POP SWAP4 SWAP3 POP POP POP JUMP JUMPDEST PUSH0 DUP2 SWAP1 POP SWAP2 SWAP1 POP JUMP JUMPDEST PUSH0 PUSH2 0x67B PUSH2 0x676 PUSH2 0x671 DUP5 PUSH2 0x4AC JUMP JUMPDEST PUSH2 0x658 JUMP JUMPDEST PUSH2 0x4AC JUMP JUMPDEST SWAP1 POP SWAP2 SWAP1 POP JUMP JUMPDEST PUSH0 DUP2 SWAP1 POP SWAP2 SWAP1 POP JUMP JUMPDEST PUSH2 0x694 DUP4 PUSH2 0x661 JUMP JUMPDEST PUSH2 0x6A8 PUSH2 0x6A0 DUP3 PUSH2 0x682 JUMP JUMPDEST DUP5 DUP5 SLOAD PUSH2 0x607 JUMP JUMPDEST DUP3 SSTORE POP POP POP POP JUMP JUMPDEST PUSH0 SWAP1 JUMP JUMPDEST PUSH2 0x6BC PUSH2 0x6B0 JUMP JUMPDEST PUSH2 0x6C7 DUP2 DUP5 DUP5 PUSH2 0x68B JUMP JUMPDEST POP POP POP JUMP JUMPDEST JUMPDEST DUP2 DUP2 LT ISZERO PUSH2 0x6EA JUMPI PUSH2 0x6DF PUSH0 DUP3 PUSH2 0x6B4 JUMP JUMPDEST PUSH1 0x1 DUP2 ADD SWAP1 POP PUSH2 0x6CD JUMP JUMPDEST POP POP JUMP JUMPDEST PUSH1 0x1F DUP3 GT ISZERO PUSH2 0x72F JUMPI PUSH2 0x700 DUP2 PUSH2 0x5DA JUMP JUMPDEST PUSH2 0x709 DUP5 PUSH2 0x5EC JUMP JUMPDEST DUP2 ADD PUSH1 0x20 DUP6 LT ISZERO PUSH2 0x718 JUMPI DUP2 SWAP1 POP JUMPDEST PUSH2 0x72C PUSH2 0x724 DUP6 PUSH2 0x5EC JUMP JUMPDEST DUP4 ADD DUP3 PUSH2 0x6CC JUMP JUMPDEST POP POP JUMPDEST POP POP POP JUMP JUMPDEST PUSH0 DUP3 DUP3 SHR SWAP1 POP SWAP3 SWAP2 POP POP JUMP JUMPDEST PUSH0 PUSH2 0x74F PUSH0 NOT DUP5 PUSH1 0x8 MUL PUSH2 0x734 JUMP JUMPDEST NOT DUP1 DUP4 AND SWAP2 POP POP SWAP3 SWAP2 POP POP JUMP JUMPDEST PUSH0 PUSH2 0x767 DUP4 DUP4 PUSH2 0x740 JUMP JUMPDEST SWAP2 POP DUP3 PUSH1 0x2 MUL DUP3 OR SWAP1 POP SWAP3 SWAP2 POP POP JUMP JUMPDEST PUSH2 0x780 DUP3 PUSH2 0x573 JUMP JUMPDEST PUSH8 0xFFFFFFFFFFFFFFFF DUP2 GT ISZERO PUSH2 0x799 JUMPI PUSH2 0x798 PUSH2 0x2BE JUMP JUMPDEST JUMPDEST PUSH2 0x7A3 DUP3 SLOAD PUSH2 0x5AA JUMP JUMPDEST PUSH2 0x7AE DUP3 DUP3 DUP6 PUSH2 0x6EE JUMP JUMPDEST PUSH0 PUSH1 0x20 SWAP1 POP PUSH1 0x1F DUP4 GT PUSH1 0x1 DUP2 EQ PUSH2 0x7DF JUMPI PUSH0 DUP5 ISZERO PUSH2 0x7CD JUMPI DUP3 DUP8 ADD MLOAD SWAP1 POP JUMPDEST PUSH2 0x7D7 DUP6 DUP3 PUSH2 0x75C JUMP JUMPDEST DUP7 SSTORE POP PUSH2 0x83E JUMP JUMPDEST PUSH1 0x1F NOT DUP5 AND PUSH2 0x7ED DUP7 PUSH2 0x5DA JUMP JUMPDEST PUSH0 JUMPDEST DUP3 DUP2 LT ISZERO PUSH2 0x814 JUMPI DUP5 DUP10 ADD MLOAD DUP3 SSTORE PUSH1 0x1 DUP3 ADD SWAP2 POP PUSH1 0x20 DUP6 ADD SWAP5 POP PUSH1 0x20 DUP2 ADD SWAP1 POP PUSH2 0x7EF JUMP JUMPDEST DUP7 DUP4 LT ISZERO PUSH2 0x831 JUMPI DUP5 DUP10 ADD MLOAD PUSH2 0x82D PUSH1 0x1F DUP10 AND DUP3 PUSH2 0x740 JUMP JUMPDEST DUP4 SSTORE POP JUMPDEST PUSH1 0x1 PUSH1 0x2 DUP9 MUL ADD DUP9 SSTORE POP POP POP JUMPDEST POP POP POP POP POP POP JUMP JUMPDEST PUSH2 0xE9E DUP1 PUSH2 0x853 PUSH0 CODECOPY PUSH0 RETURN INVALID PUSH1 0x80 PUSH1 0x40 MSTORE PUSH1 0x4 CALLDATASIZE LT PUSH2 0x7A JUMPI PUSH0 CALLDATALOAD PUSH1 0xE0 SHR DUP1 PUSH4 0x8DA5CB5B GT PUSH2 0x4D JUMPI DUP1 PUSH4 0x8DA5CB5B EQ PUSH2 0xFD JUMPI DUP1 PUSH4 0xA38BFFDA EQ PUSH2 0x127 JUMPI DUP1 PUSH4 0xCC28CD3B EQ PUSH2 0x151 JUMPI DUP1 PUSH4 0xF2FDE38B EQ PUSH2 0x16D JUMPI PUSH2 0x7A JUMP JUMPDEST DUP1 PUSH4 0x24600FC3 EQ PUSH2 0x7E JUMPI DUP1 PUSH4 0x69769A27 EQ PUSH2 0x94 JUMPI DUP1 PUSH4 0x715018A6 EQ PUSH2 0xBF JUMPI DUP1 PUSH4 0x8D6CC56D EQ PUSH2 0xD5 JUMPI JUMPDEST PUSH0 DUP1 REVERT JUMPDEST CALLVALUE DUP1 ISZERO PUSH2 0x89 JUMPI PUSH0 DUP1 REVERT JUMPDEST POP PUSH2 0x92 PUSH2 0x195 JUMP JUMPDEST STOP JUMPDEST CALLVALUE DUP1 ISZERO PUSH2 0x9F JUMPI PUSH0 DUP1 REVERT JUMPDEST POP PUSH2 0xA8 PUSH2 0x26E JUMP JUMPDEST PUSH1 0x40 MLOAD PUSH2 0xB6 SWAP3 SWAP2 SWAP1 PUSH2 0x733 JUMP JUMPDEST PUSH1 0x40 MLOAD DUP1 SWAP2 SUB SWAP1 RETURN JUMPDEST CALLVALUE DUP1 ISZERO PUSH2 0xCA JUMPI PUSH0 DUP1 REVERT JUMPDEST POP PUSH2 0xD3 PUSH2 0x311 JUMP JUMPDEST STOP JUMPDEST CALLVALUE DUP1 ISZERO PUSH2 0xE0 JUMPI PUSH0 DUP1 REVERT JUMPDEST POP PUSH2 0xFB PUSH1 0x4 DUP1 CALLDATASIZE SUB DUP2 ADD SWAP1 PUSH2 0xF6 SWAP2 SWAP1 PUSH2 0x7A5 JUMP JUMPDEST PUSH2 0x324 JUMP JUMPDEST STOP JUMPDEST CALLVALUE DUP1 ISZERO PUSH2 0x108 JUMPI PUSH0 DUP1 REVERT JUMPDEST POP PUSH2 0x111 PUSH2 0x36B JUMP JUMPDEST PUSH1 0x40 MLOAD PUSH2 0x11E SWAP2 SWAP1 PUSH2 0x80F JUMP JUMPDEST PUSH1 0x40 MLOAD DUP1 SWAP2 SUB SWAP1 RETURN JUMPDEST CALLVALUE DUP1 ISZERO PUSH2 0x132 JUMPI PUSH0 DUP1 REVERT JUMPDEST POP PUSH2 0x13B PUSH2 0x392 JUMP JUMPDEST PUSH1 0x40 MLOAD PUSH2 0x148 SWAP2 SWAP1 PUSH2 0x837 JUMP JUMPDEST PUSH1 0x40 MLOAD DUP1 SWAP2 SUB SWAP1 RETURN JUMPDEST PUSH2 0x16B PUSH1 0x4 DUP1 CALLDATASIZE SUB DUP2 ADD SWAP1 PUSH2 0x166 SWAP2 SWAP1 PUSH2 0x97C JUMP JUMPDEST PUSH2 0x398 JUMP JUMPDEST STOP JUMPDEST CALLVALUE DUP1 ISZERO PUSH2 0x178 JUMPI PUSH0 DUP1 REVERT JUMPDEST POP PUSH2 0x193 PUSH1 0x4 DUP1 CALLDATASIZE SUB DUP2 ADD SWAP1 PUSH2 0x18E SWAP2 SWAP1 PUSH2 0x9ED JUMP JUMPDEST PUSH2 0x4B6 JUMP JUMPDEST STOP JUMPDEST PUSH2 0x19D PUSH2 0x53A JUMP JUMPDEST PUSH0 SELFBALANCE SWAP1 POP PUSH0 PUSH1 0x4 PUSH0 SWAP1 SLOAD SWAP1 PUSH2 0x100 EXP SWAP1 DIV PUSH20 0xFFFFFFFFFFFFFFFFFFFFFFFFFFFFFFFFFFFFFFFF AND PUSH20 0xFFFFFFFFFFFFFFFFFFFFFFFFFFFFFFFFFFFFFFFF AND DUP3 PUSH1 0x40 MLOAD PUSH2 0x1E7 SWAP1 PUSH2 0xA45 JUMP JUMPDEST PUSH0 PUSH1 0x40 MLOAD DUP1 DUP4 SUB DUP2 DUP6 DUP8 GAS CALL SWAP3 POP POP POP RETURNDATASIZE DUP1 PUSH0 DUP2 EQ PUSH2 0x221 JUMPI PUSH1 0x40 MLOAD SWAP2 POP PUSH1 0x1F NOT PUSH1 0x3F RETURNDATASIZE ADD AND DUP3 ADD PUSH1 0x40 MSTORE RETURNDATASIZE DUP3 MSTORE RETURNDATASIZE PUSH0 PUSH1 0x20 DUP5 ADD RETURNDATACOPY PUSH2 0x226 JUMP JUMPDEST PUSH1 0x60 SWAP2 POP JUMPDEST POP POP SWAP1 POP DUP1 PUSH2 0x26A JUMPI PUSH1 0x40 MLOAD PUSH32 0x8C379A000000000000000000000000000000000000000000000000000000000 DUP2 MSTORE PUSH1 0x4 ADD PUSH2 0x261 SWAP1 PUSH2 0xAA3 JUMP JUMPDEST PUSH1 0x40 MLOAD DUP1 SWAP2 SUB SWAP1 REVERT JUMPDEST POP POP JUMP JUMPDEST PUSH1 0x1 DUP1 PUSH0 ADD DUP1 SLOAD PUSH2 0x27E SWAP1 PUSH2 0xAEE JUMP JUMPDEST DUP1 PUSH1 0x1F ADD PUSH1 0x20 DUP1 SWAP2 DIV MUL PUSH1 0x20 ADD PUSH1 0x40 MLOAD SWAP1 DUP2 ADD PUSH1 0x40 MSTORE DUP1 SWAP3 SWAP2 SWAP1 DUP2 DUP2 MSTORE PUSH1 0x20 ADD DUP3 DUP1 SLOAD PUSH2 0x2AA SWAP1 PUSH2 0xAEE JUMP JUMPDEST DUP1 ISZERO PUSH2 0x2F5 JUMPI DUP1 PUSH1 0x1F LT PUSH2 0x2CC JUMPI PUSH2 0x100 DUP1 DUP4 SLOAD DIV MUL DUP4 MSTORE SWAP2 PUSH1 0x20 ADD SWAP2 PUSH2 0x2F5 JUMP JUMPDEST DUP3 ADD SWAP2 SWAP1 PUSH0 MSTORE PUSH1 0x20 PUSH0 KECCAK256 SWAP1 JUMPDEST DUP2 SLOAD DUP2 MSTORE SWAP1 PUSH1 0x1 ADD SWAP1 PUSH1 0x20 ADD DUP1 DUP4 GT PUSH2 0x2D8 JUMPI DUP3 SWAP1 SUB PUSH1 0x1F AND DUP3 ADD SWAP2 JUMPDEST POP POP POP POP POP SWAP1 DUP1 PUSH1 0x1 ADD PUSH0 SWAP1 SLOAD SWAP1 PUSH2 0x100 EXP SWAP1 DIV PUSH1 0x80 SHL SWAP1 POP DUP3 JUMP JUMPDEST PUSH2 0x319 PUSH2 0x53A JUMP JUMPDEST PUSH2 0x322 PUSH0 PUSH2 0x5C1 JUMP JUMPDEST JUMP JUMPDEST PUSH2 0x32C PUSH2 0x53A JUMP JUMPDEST PUSH0 PUSH1 0x3 SLOAD SWAP1 POP DUP2 PUSH1 0x3 DUP2 SWAP1 SSTORE POP DUP2 DUP2 PUSH32 0x9BDB33962EC269BA46CF891894F92891DCFBCDA357DB379CA990F7A6E9B951A3 PUSH1 0x40 MLOAD PUSH1 0x40 MLOAD DUP1 SWAP2 SUB SWAP1 LOG3 POP POP JUMP JUMPDEST PUSH0 DUP1 PUSH0 SWAP1 SLOAD SWAP1 PUSH2 0x100 EXP SWAP1 DIV PUSH20 0xFFFFFFFFFFFFFFFFFFFFFFFFFFFFFFFFFFFFFFFF AND SWAP1 POP SWAP1 JUMP JUMPDEST PUSH1 0x3 SLOAD DUP2 JUMP JUMPDEST PUSH2 0x3A0 PUSH2 0x53A JUMP JUMPDEST PUSH1 0x3 SLOAD CALLVALUE EQ PUSH2 0x3E4 JUMPI PUSH1 0x40 MLOAD PUSH32 0x8C379A000000000000000000000000000000000000000000000000000000000 DUP2 MSTORE PUSH1 0x4 ADD PUSH2 0x3DB SWAP1 PUSH2 0xB8E JUMP JUMPDEST PUSH1 0x40 MLOAD DUP1 SWAP2 SUB SWAP1 REVERT JUMPDEST PUSH32 0xC5D2460186F7233C927E7DB2DCC703C0E500B653CA82273B7BFAD8045D85A470 DUP2 PUSH1 0x40 MLOAD PUSH1 0x20 ADD PUSH2 0x416 SWAP2 SWAP1 PUSH2 0xBE6 JUMP JUMPDEST PUSH1 0x40 MLOAD PUSH1 0x20 DUP2 DUP4 SUB SUB DUP2 MSTORE SWAP1 PUSH1 0x40 MSTORE DUP1 MLOAD SWAP1 PUSH1 0x20 ADD KECCAK256 EQ PUSH2 0x444 JUMPI DUP1 PUSH1 0x1 PUSH0 ADD SWAP1 DUP2 PUSH2 0x442 SWAP2 SWAP1 PUSH2 0xD99 JUMP JUMPDEST POP JUMPDEST PUSH0 PUSH2 0x44D PUSH2 0x36B JUMP JUMPDEST SWAP1 POP PUSH2 0x458 CALLER PUSH2 0x4B6 JUMP JUMPDEST CALLER PUSH20 0xFFFFFFFFFFFFFFFFFFFFFFFFFFFFFFFFFFFFFFFF AND DUP2 PUSH20 0xFFFFFFFFFFFFFFFFFFFFFFFFFFFFFFFFFFFFFFFF AND PUSH32 0xC26EBE5B6F78DFB9113D7B983BF073E2FB6DFAB1FB744B0FEB73E04FB2BCC077 PUSH1 0x40 MLOAD PUSH1 0x40 MLOAD DUP1 SWAP2 SUB SWAP1 LOG3 POP POP JUMP JUMPDEST PUSH2 0x4BE PUSH2 0x53A JUMP JUMPDEST PUSH0 PUSH20 0xFFFFFFFFFFFFFFFFFFFFFFFFFFFFFFFFFFFFFFFF AND DUP2 PUSH20 0xFFFFFFFFFFFFFFFFFFFFFFFFFFFFFFFFFFFFFFFF AND SUB PUSH2 0x52E JUMPI PUSH0 PUSH1 0x40 MLOAD PUSH32 0x1E4FBDF700000000000000000000000000000000000000000000000000000000 DUP2 MSTORE PUSH1 0x4 ADD PUSH2 0x525 SWAP2 SWAP1 PUSH2 0x80F JUMP JUMPDEST PUSH1 0x40 MLOAD DUP1 SWAP2 SUB SWAP1 REVERT JUMPDEST PUSH2 0x537 DUP2 PUSH2 0x5C1 JUMP JUMPDEST POP JUMP JUMPDEST PUSH2 0x542 PUSH2 0x682 JUMP JUMPDEST PUSH20 0xFFFFFFFFFFFFFFFFFFFFFFFFFFFFFFFFFFFFFFFF AND PUSH2 0x560 PUSH2 0x36B JUMP JUMPDEST PUSH20 0xFFFFFFFFFFFFFFFFFFFFFFFFFFFFFFFFFFFFFFFF AND EQ PUSH2 0x5BF JUMPI PUSH2 0x583 PUSH2 0x682 JUMP JUMPDEST PUSH1 0x40 MLOAD PUSH32 0x118CDAA700000000000000000000000000000000000000000000000000000000 DUP2 MSTORE PUSH1 0x4 ADD PUSH2 0x5B6 SWAP2 SWAP1 PUSH2 0x80F JUMP JUMPDEST PUSH1 0x40 MLOAD DUP1 SWAP2 SUB SWAP1 REVERT JUMPDEST JUMP JUMPDEST PUSH0 DUP1 PUSH0 SWAP1 SLOAD SWAP1 PUSH2 0x100 EXP SWAP1 DIV PUSH20 0xFFFFFFFFFFFFFFFFFFFFFFFFFFFFFFFFFFFFFFFF AND SWAP1 POP DUP2 PUSH0 DUP1 PUSH2 0x100 EXP DUP2 SLOAD DUP2 PUSH20 0xFFFFFFFFFFFFFFFFFFFFFFFFFFFFFFFFFFFFFFFF MUL NOT AND SWAP1 DUP4 PUSH20 0xFFFFFFFFFFFFFFFFFFFFFFFFFFFFFFFFFFFFFFFF AND MUL OR SWAP1 SSTORE POP DUP2 PUSH20 0xFFFFFFFFFFFFFFFFFFFFFFFFFFFFFFFFFFFFFFFF AND DUP2 PUSH20 0xFFFFFFFFFFFFFFFFFFFFFFFFFFFFFFFFFFFFFFFF AND PUSH32 0x8BE0079C531659141344CD1FD0A4F28419497F9722A3DAAFE3B4186F6B6457E0 PUSH1 0x40 MLOAD PUSH1 0x40 MLOAD DUP1 SWAP2 SUB SWAP1 LOG3 POP POP JUMP JUMPDEST PUSH0 CALLER SWAP1 POP SWAP1 JUMP JUMPDEST PUSH0 DUP2 MLOAD SWAP1 POP SWAP2 SWAP1 POP JUMP JUMPDEST PUSH0 DUP3 DUP3 MSTORE PUSH1 0x20 DUP3 ADD SWAP1 POP SWAP3 SWAP2 POP POP JUMP JUMPDEST DUP3 DUP2 DUP4 MCOPY PUSH0 DUP4 DUP4 ADD MSTORE POP POP POP JUMP JUMPDEST PUSH0 PUSH1 0x1F NOT PUSH1 0x1F DUP4 ADD AND SWAP1 POP SWAP2 SWAP1 POP JUMP JUMPDEST PUSH0 PUSH2 0x6CB DUP3 PUSH2 0x689 JUMP JUMPDEST PUSH2 0x6D5 DUP2 DUP6 PUSH2 0x693 JUMP JUMPDEST SWAP4 POP PUSH2 0x6E5 DUP2 DUP6 PUSH1 0x20 DUP7 ADD PUSH2 0x6A3 JUMP JUMPDEST PUSH2 0x6EE DUP2 PUSH2 0x6B1 JUMP JUMPDEST DUP5 ADD SWAP2 POP POP SWAP3 SWAP2 POP POP JUMP JUMPDEST PUSH0 PUSH32 0xFFFFFFFFFFFFFFFFFFFFFFFFFFFFFFFF00000000000000000000000000000000 DUP3 AND SWAP1 POP SWAP2 SWAP1 POP JUMP JUMPDEST PUSH2 0x72D DUP2 PUSH2 0x6F9 JUMP JUMPDEST DUP3 MSTORE POP POP JUMP JUMPDEST PUSH0 PUSH1 0x40 DUP3 ADD SWAP1 POP DUP2 DUP2 SUB PUSH0 DUP4 ADD MSTORE PUSH2 0x74B DUP2 DUP6 PUSH2 0x6C1 JUMP JUMPDEST SWAP1 POP PUSH2 0x75A PUSH1 0x20 DUP4 ADD DUP5 PUSH2 0x724 JUMP JUMPDEST SWAP4 SWAP3 POP POP POP JUMP JUMPDEST PUSH0 PUSH1 0x40 MLOAD SWAP1 POP SWAP1 JUMP JUMPDEST PUSH0 DUP1 REVERT JUMPDEST PUSH0 DUP1 REVERT JUMPDEST PUSH0 DUP2 SWAP1 POP SWAP2 SWAP1 POP JUMP JUMPDEST PUSH2 0x784 DUP2 PUSH2 0x772 JUMP JUMPDEST DUP2 EQ PUSH2 0x78E JUMPI PUSH0 DUP1 REVERT JUMPDEST POP JUMP JUMPDEST PUSH0 DUP2 CALLDATALOAD SWAP1 POP PUSH2 0x79F DUP2 PUSH2 0x77B JUMP JUMPDEST SWAP3 SWAP2 POP POP JUMP JUMPDEST PUSH0 PUSH1 0x20 DUP3 DUP5 SUB SLT ISZERO PUSH2 0x7BA JUMPI PUSH2 0x7B9 PUSH2 0x76A JUMP JUMPDEST JUMPDEST PUSH0 PUSH2 0x7C7 DUP5 DUP3 DUP6 ADD PUSH2 0x791 JUMP JUMPDEST SWAP2 POP POP SWAP3 SWAP2 POP POP JUMP JUMPDEST PUSH0 PUSH20 0xFFFFFFFFFFFFFFFFFFFFFFFFFFFFFFFFFFFFFFFF DUP3 AND SWAP1 POP SWAP2 SWAP1 POP JUMP JUMPDEST PUSH0 PUSH2 0x7F9 DUP3 PUSH2 0x7D0 JUMP JUMPDEST SWAP1 POP SWAP2 SWAP1 POP JUMP JUMPDEST PUSH2 0x809 DUP2 PUSH2 0x7EF JUMP JUMPDEST DUP3 MSTORE POP POP JUMP JUMPDEST PUSH0 PUSH1 0x20 DUP3 ADD SWAP1 POP PUSH2 0x822 PUSH0 DUP4 ADD DUP5 PUSH2 0x800 JUMP JUMPDEST SWAP3 SWAP2 POP POP JUMP JUMPDEST PUSH2 0x831 DUP2 PUSH2 0x772 JUMP JUMPDEST DUP3 MSTORE POP POP JUMP JUMPDEST PUSH0 PUSH1 0x20 DUP3 ADD SWAP1 POP PUSH2 0x84A PUSH0 DUP4 ADD DUP5 PUSH2 0x828 JUMP JUMPDEST SWAP3 SWAP2 POP POP JUMP JUMPDEST PUSH0 DUP1 REVERT JUMPDEST PUSH0 DUP1 REVERT JUMPDEST PUSH32 0x4E487B7100000000000000000000000000000000000000000000000000000000 PUSH0 MSTORE PUSH1 0x41 PUSH1 0x4 MSTORE PUSH1 0x24 PUSH0 REVERT JUMPDEST PUSH2 0x88E DUP3 PUSH2 0x6B1 JUMP JUMPDEST DUP2 ADD DUP2 DUP2 LT PUSH8 0xFFFFFFFFFFFFFFFF DUP3 GT OR ISZERO PUSH2 0x8AD JUMPI PUSH2 0x8AC PUSH2 0x858 JUMP JUMPDEST JUMPDEST DUP1 PUSH1 0x40 MSTORE POP POP POP JUMP JUMPDEST PUSH0 PUSH2 0x8BF PUSH2 0x761 JUMP JUMPDEST SWAP1 POP PUSH2 0x8CB DUP3 DUP3 PUSH2 0x885 JUMP JUMPDEST SWAP2 SWAP1 POP JUMP JUMPDEST PUSH0 PUSH8 0xFFFFFFFFFFFFFFFF DUP3 GT ISZERO PUSH2 0x8EA JUMPI PUSH2 0x8E9 PUSH2 0x858 JUMP JUMPDEST JUMPDEST PUSH2 0x8F3 DUP3 PUSH2 0x6B1 JUMP JUMPDEST SWAP1 POP PUSH1 0x20 DUP2 ADD SWAP1 POP SWAP2 SWAP1 POP JUMP JUMPDEST DUP3 DUP2 DUP4 CALLDATACOPY PUSH0 DUP4 DUP4 ADD MSTORE POP POP POP JUMP JUMPDEST PUSH0 PUSH2 0x920 PUSH2 0x91B DUP5 PUSH2 0x8D0 JUMP JUMPDEST PUSH2 0x8B6 JUMP JUMPDEST SWAP1 POP DUP3 DUP2 MSTORE PUSH1 0x20 DUP2 ADD DUP5 DUP5 DUP5 ADD GT ISZERO PUSH2 0x93C JUMPI PUSH2 0x93B PUSH2 0x854 JUMP JUMPDEST JUMPDEST PUSH2 0x947 DUP5 DUP3 DUP6 PUSH2 0x900 JUMP JUMPDEST POP SWAP4 SWAP3 POP POP POP JUMP JUMPDEST PUSH0 DUP3 PUSH1 0x1F DUP4 ADD SLT PUSH2 0x963 JUMPI PUSH2 0x962 PUSH2 0x850 JUMP JUMPDEST JUMPDEST DUP2 CALLDATALOAD PUSH2 0x973 DUP5 DUP3 PUSH1 0x20 DUP7 ADD PUSH2 0x90E JUMP JUMPDEST SWAP2 POP POP SWAP3 SWAP2 POP POP JUMP JUMPDEST PUSH0 PUSH1 0x20 DUP3 DUP5 SUB SLT ISZERO PUSH2 0x991 JUMPI PUSH2 0x990 PUSH2 0x76A JUMP JUMPDEST JUMPDEST PUSH0 DUP3 ADD CALLDATALOAD PUSH8 0xFFFFFFFFFFFFFFFF DUP2 GT ISZERO PUSH2 0x9AE JUMPI PUSH2 0x9AD PUSH2 0x76E JUMP JUMPDEST JUMPDEST PUSH2 0x9BA DUP5 DUP3 DUP6 ADD PUSH2 0x94F JUMP JUMPDEST SWAP2 POP POP SWAP3 SWAP2 POP POP JUMP JUMPDEST PUSH2 0x9CC DUP2 PUSH2 0x7EF JUMP JUMPDEST DUP2 EQ PUSH2 0x9D6 JUMPI PUSH0 DUP1 REVERT JUMPDEST POP JUMP JUMPDEST PUSH0 DUP2 CALLDATALOAD SWAP1 POP PUSH2 0x9E7 DUP2 PUSH2 0x9C3 JUMP JUMPDEST SWAP3 SWAP2 POP POP JUMP JUMPDEST PUSH0 PUSH1 0x20 DUP3 DUP5 SUB SLT ISZERO PUSH2 0xA02 JUMPI PUSH2 0xA01 PUSH2 0x76A JUMP JUMPDEST JUMPDEST PUSH0 PUSH2 0xA0F DUP5 DUP3 DUP6 ADD PUSH2 0x9D9 JUMP JUMPDEST SWAP2 POP POP SWAP3 SWAP2 POP POP JUMP JUMPDEST PUSH0 DUP2 SWAP1 POP SWAP3 SWAP2 POP POP JUMP JUMPDEST POP JUMP JUMPDEST PUSH0 PUSH2 0xA30 PUSH0 DUP4 PUSH2 0xA18 JUMP JUMPDEST SWAP2 POP PUSH2 0xA3B DUP3 PUSH2 0xA22 JUMP JUMPDEST PUSH0 DUP3 ADD SWAP1 POP SWAP2 SWAP1 POP JUMP JUMPDEST PUSH0 PUSH2 0xA4F DUP3 PUSH2 0xA25 JUMP JUMPDEST SWAP2 POP DUP2 SWAP1 POP SWAP2 SWAP1 POP JUMP JUMPDEST PUSH32 0x46756E6473206E6F742077697468647261776E207375636365737366756C6C79 PUSH0 DUP3 ADD MSTORE POP JUMP JUMPDEST PUSH0 PUSH2 0xA8D PUSH1 0x20 DUP4 PUSH2 0x693 JUMP JUMPDEST SWAP2 POP PUSH2 0xA98 DUP3 PUSH2 0xA59 JUMP JUMPDEST PUSH1 0x20 DUP3 ADD SWAP1 POP SWAP2 SWAP1 POP JUMP JUMPDEST PUSH0 PUSH1 0x20 DUP3 ADD SWAP1 POP DUP2 DUP2 SUB PUSH0 DUP4 ADD MSTORE PUSH2 0xABA DUP2 PUSH2 0xA81 JUMP JUMPDEST SWAP1 POP SWAP2 SWAP1 POP JUMP JUMPDEST PUSH32 0x4E487B7100000000000000000000000000000000000000000000000000000000 PUSH0 MSTORE PUSH1 0x22 PUSH1 0x4 MSTORE PUSH1 0x24 PUSH0 REVERT JUMPDEST PUSH0 PUSH1 0x2 DUP3 DIV SWAP1 POP PUSH1 0x1 DUP3 AND DUP1 PUSH2 0xB05 JUMPI PUSH1 0x7F DUP3 AND SWAP2 POP JUMPDEST PUSH1 0x20 DUP3 LT DUP2 SUB PUSH2 0xB18 JUMPI PUSH2 0xB17 PUSH2 0xAC1 JUMP JUMPDEST JUMPDEST POP SWAP2 SWAP1 POP JUMP JUMPDEST PUSH32 0x5472616E73616374696F6E206661696C65642C20656E7375726520796F757220 PUSH0 DUP3 ADD MSTORE PUSH32 0x76616C756520697320657175616C20746F2063757272656E7420707269636500 PUSH1 0x20 DUP3 ADD MSTORE POP JUMP JUMPDEST PUSH0 PUSH2 0xB78 PUSH1 0x3F DUP4 PUSH2 0x693 JUMP JUMPDEST SWAP2 POP PUSH2 0xB83 DUP3 PUSH2 0xB1E JUMP JUMPDEST PUSH1 0x40 DUP3 ADD SWAP1 POP SWAP2 SWAP1 POP JUMP JUMPDEST PUSH0 PUSH1 0x20 DUP3 ADD SWAP1 POP DUP2 DUP2 SUB PUSH0 DUP4 ADD MSTORE PUSH2 0xBA5 DUP2 PUSH2 0xB6C JUMP JUMPDEST SWAP1 POP SWAP2 SWAP1 POP JUMP JUMPDEST PUSH0 DUP2 SWAP1 POP SWAP3 SWAP2 POP POP JUMP JUMPDEST PUSH0 PUSH2 0xBC0 DUP3 PUSH2 0x689 JUMP JUMPDEST PUSH2 0xBCA DUP2 DUP6 PUSH2 0xBAC JUMP JUMPDEST SWAP4 POP PUSH2 0xBDA DUP2 DUP6 PUSH1 0x20 DUP7 ADD PUSH2 0x6A3 JUMP JUMPDEST DUP1 DUP5 ADD SWAP2 POP POP SWAP3 SWAP2 POP POP JUMP JUMPDEST PUSH0 PUSH2 0xBF1 DUP3 DUP5 PUSH2 0xBB6 JUMP JUMPDEST SWAP2 POP DUP2 SWAP1 POP SWAP3 SWAP2 POP POP JUMP JUMPDEST PUSH0 DUP2 SWAP1 POP DUP2 PUSH0 MSTORE PUSH1 0x20 PUSH0 KECCAK256 SWAP1 POP SWAP2 SWAP1 POP JUMP JUMPDEST PUSH0 PUSH1 0x20 PUSH1 0x1F DUP4 ADD DIV SWAP1 POP SWAP2 SWAP1 POP JUMP JUMPDEST PUSH0 DUP3 DUP3 SHL SWAP1 POP SWAP3 SWAP2 POP POP JUMP JUMPDEST PUSH0 PUSH1 0x8 DUP4 MUL PUSH2 0xC58 PUSH32 0xFFFFFFFFFFFFFFFFFFFFFFFFFFFFFFFFFFFFFFFFFFFFFFFFFFFFFFFFFFFFFFFF DUP3 PUSH2 0xC1D JUMP JUMPDEST PUSH2 0xC62 DUP7 DUP4 PUSH2 0xC1D JUMP JUMPDEST SWAP6 POP DUP1 NOT DUP5 AND SWAP4 POP DUP1 DUP7 AND DUP5 OR SWAP3 POP POP POP SWAP4 SWAP3 POP POP POP JUMP JUMPDEST PUSH0 DUP2 SWAP1 POP SWAP2 SWAP1 POP JUMP JUMPDEST PUSH0 PUSH2 0xC9D PUSH2 0xC98 PUSH2 0xC93 DUP5 PUSH2 0x772 JUMP JUMPDEST PUSH2 0xC7A JUMP JUMPDEST PUSH2 0x772 JUMP JUMPDEST SWAP1 POP SWAP2 SWAP1 POP JUMP JUMPDEST PUSH0 DUP2 SWAP1 POP SWAP2 SWAP1 POP JUMP JUMPDEST PUSH2 0xCB6 DUP4 PUSH2 0xC83 JUMP JUMPDEST PUSH2 0xCCA PUSH2 0xCC2 DUP3 PUSH2 0xCA4 JUMP JUMPDEST DUP5 DUP5 SLOAD PUSH2 0xC29 JUMP JUMPDEST DUP3 SSTORE POP POP POP POP JUMP JUMPDEST PUSH0 SWAP1 JUMP JUMPDEST PUSH2 0xCDE PUSH2 0xCD2 JUMP JUMPDEST PUSH2 0xCE9 DUP2 DUP5 DUP5 PUSH2 0xCAD JUMP JUMPDEST POP POP POP JUMP JUMPDEST JUMPDEST DUP2 DUP2 LT ISZERO PUSH2 0xD0C JUMPI PUSH2 0xD01 PUSH0 DUP3 PUSH2 0xCD6 JUMP JUMPDEST PUSH1 0x1 DUP2 ADD SWAP1 POP PUSH2 0xCEF JUMP JUMPDEST POP POP JUMP JUMPDEST PUSH1 0x1F DUP3 GT ISZERO PUSH2 0xD51 JUMPI PUSH2 0xD22 DUP2 PUSH2 0xBFC JUMP JUMPDEST PUSH2 0xD2B DUP5 PUSH2 0xC0E JUMP JUMPDEST DUP2 ADD PUSH1 0x20 DUP6 LT ISZERO PUSH2 0xD3A JUMPI DUP2 SWAP1 POP JUMPDEST PUSH2 0xD4E PUSH2 0xD46 DUP6 PUSH2 0xC0E JUMP JUMPDEST DUP4 ADD DUP3 PUSH2 0xCEE JUMP JUMPDEST POP POP JUMPDEST POP POP POP JUMP JUMPDEST PUSH0 DUP3 DUP3 SHR SWAP1 POP SWAP3 SWAP2 POP POP JUMP JUMPDEST PUSH0 PUSH2 0xD71 PUSH0 NOT DUP5 PUSH1 0x8 MUL PUSH2 0xD56 JUMP JUMPDEST NOT DUP1 DUP4 AND SWAP2 POP POP SWAP3 SWAP2 POP POP JUMP JUMPDEST PUSH0 PUSH2 0xD89 DUP4 DUP4 PUSH2 0xD62 JUMP JUMPDEST SWAP2 POP DUP3 PUSH1 0x2 MUL DUP3 OR SWAP1 POP SWAP3 SWAP2 POP POP JUMP JUMPDEST PUSH2 0xDA2 DUP3 PUSH2 0x689 JUMP JUMPDEST PUSH8 0xFFFFFFFFFFFFFFFF DUP2 GT ISZERO PUSH2 0xDBB JUMPI PUSH2 0xDBA PUSH2 0x858 JUMP JUMPDEST JUMPDEST PUSH2 0xDC5 DUP3 SLOAD PUSH2 0xAEE JUMP JUMPDEST PUSH2 0xDD0 DUP3 DUP3 DUP6 PUSH2 0xD10 JUMP JUMPDEST PUSH0 PUSH1 0x20 SWAP1 POP PUSH1 0x1F DUP4 GT PUSH1 0x1 DUP2 EQ PUSH2 0xE01 JUMPI PUSH0 DUP5 ISZERO PUSH2 0xDEF JUMPI DUP3 DUP8 ADD MLOAD SWAP1 POP JUMPDEST PUSH2 0xDF9 DUP6 DUP3 PUSH2 0xD7E JUMP JUMPDEST DUP7 SSTORE POP PUSH2 0xE60 JUMP JUMPDEST PUSH1 0x1F NOT DUP5 AND PUSH2 0xE0F DUP7 PUSH2 0xBFC JUMP JUMPDEST PUSH0 JUMPDEST DUP3 DUP2 LT ISZERO PUSH2 0xE36 JUMPI DUP5 DUP10 ADD MLOAD DUP3 SSTORE PUSH1 0x1 DUP3 ADD SWAP2 POP PUSH1 0x20 DUP6 ADD SWAP5 POP PUSH1 0x20 DUP2 ADD SWAP1 POP PUSH2 0xE11 JUMP JUMPDEST DUP7 DUP4 LT ISZERO PUSH2 0xE53 JUMPI DUP5 DUP10 ADD MLOAD PUSH2 0xE4F PUSH1 0x1F DUP10 AND DUP3 PUSH2 0xD62 JUMP JUMPDEST DUP4 SSTORE POP JUMPDEST PUSH1 0x1 PUSH1 0x2 DUP9 MUL ADD DUP9 SSTORE POP POP POP JUMPDEST POP POP POP POP POP POP JUMP INVALID LOG2 PUSH5 0x6970667358 0x22 SLT KECCAK256 BLOBBASEFEE PUSH26 0xE63AA5D27FEBD45ED3BB5167C336B523D428727D3D0ADB1A0C41 PC PUSH8 0x496564736F6C6343 STOP ADDMOD NOT STOP CALLER "
		},
		"gasEstimates": {
			"creation": {
				"codeDepositCost": "748400",
				"executionCost": "infinite",
				"totalCost": "infinite"
			},
			"external": {
				"NFTPrice()": "2447",
				"ownedNFT()": "infinite",
				"owner()": "2515",
				"renounceOwnership()": "infinite",
				"sellNFT(string)": "infinite",
				"transferOwnership(address)": "infinite",
				"updatePrice(uint256)": "infinite",
				"withdrawFunds()": "infinite"
			}
		},
		"methodIdentifiers": {
			"NFTPrice()": "a38bffda",
			"ownedNFT()": "69769a27",
			"owner()": "8da5cb5b",
			"renounceOwnership()": "715018a6",
			"sellNFT(string)": "cc28cd3b",
			"transferOwnership(address)": "f2fde38b",
			"updatePrice(uint256)": "8d6cc56d",
			"withdrawFunds()": "24600fc3"
		}
	},
	"abi": [
		{
			"inputs": [
				{
					"internalType": "address",
					"name": "_owner",
					"type": "address"
				},
				{
					"components": [
						{
							"internalType": "string",
							"name": "name",
							"type": "string"
						},
						{
							"internalType": "bytes16",
							"name": "dna",
							"type": "bytes16"
						}
					],
					"internalType": "struct NFT",
					"name": "_NFT",
					"type": "tuple"
				},
				{
					"internalType": "uint256",
					"name": "_price",
					"type": "uint256"
				}
			],
			"stateMutability": "nonpayable",
			"type": "constructor"
		},
		{
			"inputs": [
				{
					"internalType": "address",
					"name": "owner",
					"type": "address"
				}
			],
			"name": "OwnableInvalidOwner",
			"type": "error"
		},
		{
			"inputs": [
				{
					"internalType": "address",
					"name": "account",
					"type": "address"
				}
			],
			"name": "OwnableUnauthorizedAccount",
			"type": "error"
		},
		{
			"anonymous": false,
			"inputs": [
				{
					"indexed": true,
					"internalType": "address",
					"name": "previousOwner",
					"type": "address"
				},
				{
					"indexed": true,
					"internalType": "address",
					"name": "newOwner",
					"type": "address"
				}
			],
			"name": "OwnershipTransferred",
			"type": "event"
		},
		{
			"anonymous": false,
			"inputs": [
				{
					"indexed": true,
					"internalType": "address",
					"name": "from",
					"type": "address"
				},
				{
					"indexed": true,
					"internalType": "address",
					"name": "to",
					"type": "address"
				}
			],
			"name": "SoldNFT",
			"type": "event"
		},
		{
			"anonymous": false,
			"inputs": [
				{
					"indexed": true,
					"internalType": "uint256",
					"name": "oldPrice",
					"type": "uint256"
				},
				{
					"indexed": true,
					"internalType": "uint256",
					"name": "newPrice",
					"type": "uint256"
				}
			],
			"name": "UpdatedPrice",
			"type": "event"
		},
		{
			"inputs": [],
			"name": "NFTPrice",
			"outputs": [
				{
					"internalType": "uint256",
					"name": "",
					"type": "uint256"
				}
			],
			"stateMutability": "view",
			"type": "function"
		},
		{
			"inputs": [],
			"name": "ownedNFT",
			"outputs": [
				{
					"internalType": "string",
					"name": "name",
					"type": "string"
				},
				{
					"internalType": "bytes16",
					"name": "dna",
					"type": "bytes16"
				}
			],
			"stateMutability": "view",
			"type": "function"
		},
		{
			"inputs": [],
			"name": "owner",
			"outputs": [
				{
					"internalType": "address",
					"name": "",
					"type": "address"
				}
			],
			"stateMutability": "view",
			"type": "function"
		},
		{
			"inputs": [],
			"name": "renounceOwnership",
			"outputs": [],
			"stateMutability": "nonpayable",
			"type": "function"
		},
		{
			"inputs": [
				{
					"internalType": "string",
					"name": "_name",
					"type": "string"
				}
			],
			"name": "sellNFT",
			"outputs": [],
			"stateMutability": "payable",
			"type": "function"
		},
		{
			"inputs": [
				{
					"internalType": "address",
					"name": "newOwner",
					"type": "address"
				}
			],
			"name": "transferOwnership",
			"outputs": [],
			"stateMutability": "nonpayable",
			"type": "function"
		},
		{
			"inputs": [
				{
					"internalType": "uint256",
					"name": "_newPrice",
					"type": "uint256"
				}
			],
			"name": "updatePrice",
			"outputs": [],
			"stateMutability": "nonpayable",
			"type": "function"
		},
		{
			"inputs": [],
			"name": "withdrawFunds",
			"outputs": [],
			"stateMutability": "nonpayable",
			"type": "function"
		}
	]
}