{
	"data": {
		"bytecode": {
			"linkReferences": {},
			"object": "6080604052348015600e575f80fd5b506105718061001c5f395ff3fe608060405234801561000f575f80fd5b5060043610610055575f3560e01c80632173d6e91461005957806335ec82ab1461007757806369c113e1146100935780637cc5c136146100b1578063e173f72c146100cf575b5f80fd5b6100616100eb565b60405161006e9190610261565b60405180910390f35b610091600480360381019061008c91906102b4565b6100fa565b005b61009b61011c565b6040516100a891906102ee565b60405180910390f35b6100b96101d2565b6040516100c691906102ee565b60405180910390f35b6100e960048036038101906100e49190610331565b6101e4565b005b5f8054906101000a90045f0b81565b805f60016101000a81548161ffff021916908360010b61ffff16021790555050565b5f8060019054906101000a900460010b60010b5f8054906101000a90045f0b5f0b1261017d576040517f08c379a0000000000000000000000000000000000000000000000000000000008152600401610174906103dc565b60405180910390fd5b5f8060019054906101000a900460010b5f8054906101000a90045f0b5f0b6101a59190610427565b90505f60019054906101000a900460010b60010b8160010b136101cb576101ca610480565b5b8091505090565b5f60019054906101000a900460010b81565b600a815f0b03610229576040517f08c379a00000000000000000000000000000000000000000000000000000000081526004016102209061051d565b60405180910390fd5b805f806101000a81548160ff02191690835f0b60ff16021790555050565b5f815f0b9050919050565b61025b81610247565b82525050565b5f6020820190506102745f830184610252565b92915050565b5f80fd5b5f8160010b9050919050565b6102938161027e565b811461029d575f80fd5b50565b5f813590506102ae8161028a565b92915050565b5f602082840312156102c9576102c861027a565b5b5f6102d6848285016102a0565b91505092915050565b6102e88161027e565b82525050565b5f6020820190506103015f8301846102df565b92915050565b61031081610247565b811461031a575f80fd5b50565b5f8135905061032b81610307565b92915050565b5f602082840312156103465761034561027a565b5b5f6103538482850161031d565b91505092915050565b5f82825260208201905092915050565b7f4669727374206e756d6265722073686f756c64206265206c657373207468616e5f8201527f20746865207365636f6e64000000000000000000000000000000000000000000602082015250565b5f6103c6602b8361035c565b91506103d18261036c565b604082019050919050565b5f6020820190508181035f8301526103f3816103ba565b9050919050565b7f4e487b71000000000000000000000000000000000000000000000000000000005f52601160045260245ffd5b5f6104318261027e565b915061043c8361027e565b925082820190507fffffffffffffffffffffffffffffffffffffffffffffffffffffffffffff80008112617fff8213171561047a576104796103fa565b5b92915050565b7f4e487b71000000000000000000000000000000000000000000000000000000005f52600160045260245ffd5b7f456e7375726520746865206669727374206e756d626572206973206e6f7420655f8201527f7175616c20746f20313000000000000000000000000000000000000000000000602082015250565b5f610507602a8361035c565b9150610512826104ad565b604082019050919050565b5f6020820190508181035f830152610534816104fb565b905091905056fea26469706673582212207ca9c2bd70609789683cb853977fc2e6346b9e1e381ea4dda29ab2dcd25ee03d64736f6c63430008190033",
			"opcodes": "PUSH1 0x80 PUSH1 0x40 MSTORE CALLVALUE DUP1 ISZERO PUSH1 0xE JUMPI PUSH0 DUP1 REVERT JUMPDEST POP PUSH2 0x571 DUP1 PUSH2 0x1C PUSH0 CODECOPY PUSH0 RETURN INVALID PUSH1 0x80 PUSH1 0x40 MSTORE CALLVALUE DUP1 ISZERO PUSH2 0xF JUMPI PUSH0 DUP1 REVERT JUMPDEST POP PUSH1 0x4 CALLDATASIZE LT PUSH2 0x55 JUMPI PUSH0 CALLDATALOAD PUSH1 0xE0 SHR DUP1 PUSH4 0x2173D6E9 EQ PUSH2 0x59 JUMPI DUP1 PUSH4 0x35EC82AB EQ PUSH2 0x77 JUMPI DUP1 PUSH4 0x69C113E1 EQ PUSH2 0x93 JUMPI DUP1 PUSH4 0x7CC5C136 EQ PUSH2 0xB1 JUMPI DUP1 PUSH4 0xE173F72C EQ PUSH2 0xCF JUMPI JUMPDEST PUSH0 DUP1 REVERT JUMPDEST PUSH2 0x61 PUSH2 0xEB JUMP JUMPDEST PUSH1 0x40 MLOAD PUSH2 0x6E SWAP2 SWAP1 PUSH2 0x261 JUMP JUMPDEST PUSH1 0x40 MLOAD DUP1 SWAP2 SUB SWAP1 RETURN JUMPDEST PUSH2 0x91 PUSH1 0x4 DUP1 CALLDATASIZE SUB DUP2 ADD SWAP1 PUSH2 0x8C SWAP2 SWAP1 PUSH2 0x2B4 JUMP JUMPDEST PUSH2 0xFA JUMP JUMPDEST STOP JUMPDEST PUSH2 0x9B PUSH2 0x11C JUMP JUMPDEST PUSH1 0x40 MLOAD PUSH2 0xA8 SWAP2 SWAP1 PUSH2 0x2EE JUMP JUMPDEST PUSH1 0x40 MLOAD DUP1 SWAP2 SUB SWAP1 RETURN JUMPDEST PUSH2 0xB9 PUSH2 0x1D2 JUMP JUMPDEST PUSH1 0x40 MLOAD PUSH2 0xC6 SWAP2 SWAP1 PUSH2 0x2EE JUMP JUMPDEST PUSH1 0x40 MLOAD DUP1 SWAP2 SUB SWAP1 RETURN JUMPDEST PUSH2 0xE9 PUSH1 0x4 DUP1 CALLDATASIZE SUB DUP2 ADD SWAP1 PUSH2 0xE4 SWAP2 SWAP1 PUSH2 0x331 JUMP JUMPDEST PUSH2 0x1E4 JUMP JUMPDEST STOP JUMPDEST PUSH0 DUP1 SLOAD SWAP1 PUSH2 0x100 EXP SWAP1 DIV PUSH0 SIGNEXTEND DUP2 JUMP JUMPDEST DUP1 PUSH0 PUSH1 0x1 PUSH2 0x100 EXP DUP2 SLOAD DUP2 PUSH2 0xFFFF MUL NOT AND SWAP1 DUP4 PUSH1 0x1 SIGNEXTEND PUSH2 0xFFFF AND MUL OR SWAP1 SSTORE POP POP JUMP JUMPDEST PUSH0 DUP1 PUSH1 0x1 SWAP1 SLOAD SWAP1 PUSH2 0x100 EXP SWAP1 DIV PUSH1 0x1 SIGNEXTEND PUSH1 0x1 SIGNEXTEND PUSH0 DUP1 SLOAD SWAP1 PUSH2 0x100 EXP SWAP1 DIV PUSH0 SIGNEXTEND PUSH0 SIGNEXTEND SLT PUSH2 0x17D JUMPI PUSH1 0x40 MLOAD PUSH32 0x8C379A000000000000000000000000000000000000000000000000000000000 DUP2 MSTORE PUSH1 0x4 ADD PUSH2 0x174 SWAP1 PUSH2 0x3DC JUMP JUMPDEST PUSH1 0x40 MLOAD DUP1 SWAP2 SUB SWAP1 REVERT JUMPDEST PUSH0 DUP1 PUSH1 0x1 SWAP1 SLOAD SWAP1 PUSH2 0x100 EXP SWAP1 DIV PUSH1 0x1 SIGNEXTEND PUSH0 DUP1 SLOAD SWAP1 PUSH2 0x100 EXP SWAP1 DIV PUSH0 SIGNEXTEND PUSH0 SIGNEXTEND PUSH2 0x1A5 SWAP2 SWAP1 PUSH2 0x427 JUMP JUMPDEST SWAP1 POP PUSH0 PUSH1 0x1 SWAP1 SLOAD SWAP1 PUSH2 0x100 EXP SWAP1 DIV PUSH1 0x1 SIGNEXTEND PUSH1 0x1 SIGNEXTEND DUP2 PUSH1 0x1 SIGNEXTEND SGT PUSH2 0x1CB JUMPI PUSH2 0x1CA PUSH2 0x480 JUMP JUMPDEST JUMPDEST DUP1 SWAP2 POP POP SWAP1 JUMP JUMPDEST PUSH0 PUSH1 0x1 SWAP1 SLOAD SWAP1 PUSH2 0x100 EXP SWAP1 DIV PUSH1 0x1 SIGNEXTEND DUP2 JUMP JUMPDEST PUSH1 0xA DUP2 PUSH0 SIGNEXTEND SUB PUSH2 0x229 JUMPI PUSH1 0x40 MLOAD PUSH32 0x8C379A000000000000000000000000000000000000000000000000000000000 DUP2 MSTORE PUSH1 0x4 ADD PUSH2 0x220 SWAP1 PUSH2 0x51D JUMP JUMPDEST PUSH1 0x40 MLOAD DUP1 SWAP2 SUB SWAP1 REVERT JUMPDEST DUP1 PUSH0 DUP1 PUSH2 0x100 EXP DUP2 SLOAD DUP2 PUSH1 0xFF MUL NOT AND SWAP1 DUP4 PUSH0 SIGNEXTEND PUSH1 0xFF AND MUL OR SWAP1 SSTORE POP POP JUMP JUMPDEST PUSH0 DUP2 PUSH0 SIGNEXTEND SWAP1 POP SWAP2 SWAP1 POP JUMP JUMPDEST PUSH2 0x25B DUP2 PUSH2 0x247 JUMP JUMPDEST DUP3 MSTORE POP POP JUMP JUMPDEST PUSH0 PUSH1 0x20 DUP3 ADD SWAP1 POP PUSH2 0x274 PUSH0 DUP4 ADD DUP5 PUSH2 0x252 JUMP JUMPDEST SWAP3 SWAP2 POP POP JUMP JUMPDEST PUSH0 DUP1 REVERT JUMPDEST PUSH0 DUP2 PUSH1 0x1 SIGNEXTEND SWAP1 POP SWAP2 SWAP1 POP JUMP JUMPDEST PUSH2 0x293 DUP2 PUSH2 0x27E JUMP JUMPDEST DUP2 EQ PUSH2 0x29D JUMPI PUSH0 DUP1 REVERT JUMPDEST POP JUMP JUMPDEST PUSH0 DUP2 CALLDATALOAD SWAP1 POP PUSH2 0x2AE DUP2 PUSH2 0x28A JUMP JUMPDEST SWAP3 SWAP2 POP POP JUMP JUMPDEST PUSH0 PUSH1 0x20 DUP3 DUP5 SUB SLT ISZERO PUSH2 0x2C9 JUMPI PUSH2 0x2C8 PUSH2 0x27A JUMP JUMPDEST JUMPDEST PUSH0 PUSH2 0x2D6 DUP5 DUP3 DUP6 ADD PUSH2 0x2A0 JUMP JUMPDEST SWAP2 POP POP SWAP3 SWAP2 POP POP JUMP JUMPDEST PUSH2 0x2E8 DUP2 PUSH2 0x27E JUMP JUMPDEST DUP3 MSTORE POP POP JUMP JUMPDEST PUSH0 PUSH1 0x20 DUP3 ADD SWAP1 POP PUSH2 0x301 PUSH0 DUP4 ADD DUP5 PUSH2 0x2DF JUMP JUMPDEST SWAP3 SWAP2 POP POP JUMP JUMPDEST PUSH2 0x310 DUP2 PUSH2 0x247 JUMP JUMPDEST DUP2 EQ PUSH2 0x31A JUMPI PUSH0 DUP1 REVERT JUMPDEST POP JUMP JUMPDEST PUSH0 DUP2 CALLDATALOAD SWAP1 POP PUSH2 0x32B DUP2 PUSH2 0x307 JUMP JUMPDEST SWAP3 SWAP2 POP POP JUMP JUMPDEST PUSH0 PUSH1 0x20 DUP3 DUP5 SUB SLT ISZERO PUSH2 0x346 JUMPI PUSH2 0x345 PUSH2 0x27A JUMP JUMPDEST JUMPDEST PUSH0 PUSH2 0x353 DUP5 DUP3 DUP6 ADD PUSH2 0x31D JUMP JUMPDEST SWAP2 POP POP SWAP3 SWAP2 POP POP JUMP JUMPDEST PUSH0 DUP3 DUP3 MSTORE PUSH1 0x20 DUP3 ADD SWAP1 POP SWAP3 SWAP2 POP POP JUMP JUMPDEST PUSH32 0x4669727374206E756D6265722073686F756C64206265206C657373207468616E PUSH0 DUP3 ADD MSTORE PUSH32 0x20746865207365636F6E64000000000000000000000000000000000000000000 PUSH1 0x20 DUP3 ADD MSTORE POP JUMP JUMPDEST PUSH0 PUSH2 0x3C6 PUSH1 0x2B DUP4 PUSH2 0x35C JUMP JUMPDEST SWAP2 POP PUSH2 0x3D1 DUP3 PUSH2 0x36C JUMP JUMPDEST PUSH1 0x40 DUP3 ADD SWAP1 POP SWAP2 SWAP1 POP JUMP JUMPDEST PUSH0 PUSH1 0x20 DUP3 ADD SWAP1 POP DUP2 DUP2 SUB PUSH0 DUP4 ADD MSTORE PUSH2 0x3F3 DUP2 PUSH2 0x3BA JUMP JUMPDEST SWAP1 POP SWAP2 SWAP1 POP JUMP JUMPDEST PUSH32 0x4E487B7100000000000000000000000000000000000000000000000000000000 PUSH0 MSTORE PUSH1 0x11 PUSH1 0x4 MSTORE PUSH1 0x24 PUSH0 REVERT JUMPDEST PUSH0 PUSH2 0x431 DUP3 PUSH2 0x27E JUMP JUMPDEST SWAP2 POP PUSH2 0x43C DUP4 PUSH2 0x27E JUMP JUMPDEST SWAP3 POP DUP3 DUP3 ADD SWAP1 POP PUSH32 0xFFFFFFFFFFFFFFFFFFFFFFFFFFFFFFFFFFFFFFFFFFFFFFFFFFFFFFFFFFFF8000 DUP2 SLT PUSH2 0x7FFF DUP3 SGT OR ISZERO PUSH2 0x47A JUMPI PUSH2 0x479 PUSH2 0x3FA JUMP JUMPDEST JUMPDEST SWAP3 SWAP2 POP POP JUMP JUMPDEST PUSH32 0x4E487B7100000000000000000000000000000000000000000000000000000000 PUSH0 MSTORE PUSH1 0x1 PUSH1 0x4 MSTORE PUSH1 0x24 PUSH0 REVERT JUMPDEST PUSH32 0x456E7375726520746865206669727374206E756D626572206973206E6F742065 PUSH0 DUP3 ADD MSTORE PUSH32 0x7175616C20746F20313000000000000000000000000000000000000000000000 PUSH1 0x20 DUP3 ADD MSTORE POP JUMP JUMPDEST PUSH0 PUSH2 0x507 PUSH1 0x2A DUP4 PUSH2 0x35C JUMP JUMPDEST SWAP2 POP PUSH2 0x512 DUP3 PUSH2 0x4AD JUMP JUMPDEST PUSH1 0x40 DUP3 ADD SWAP1 POP SWAP2 SWAP1 POP JUMP JUMPDEST PUSH0 PUSH1 0x20 DUP3 ADD SWAP1 POP DUP2 DUP2 SUB PUSH0 DUP4 ADD MSTORE PUSH2 0x534 DUP2 PUSH2 0x4FB JUMP JUMPDEST SWAP1 POP SWAP2 SWAP1 POP JUMP INVALID LOG2 PUSH5 0x6970667358 0x22 SLT KECCAK256 PUSH29 0xA9C2BD70609789683CB853977FC2E6346B9E1E381EA4DDA29AB2DCD25E 0xE0 RETURNDATASIZE PUSH5 0x736F6C6343 STOP ADDMOD NOT STOP CALLER "
		},
		"gasEstimates": {
			"creation": {
				"codeDepositCost": "278600",
				"executionCost": "316",
				"totalCost": "278916"
			},
			"external": {
				"addNumbers()": "infinite",
				"firstNumber()": "2443",
				"secondNumber()": "2564",
				"setFirstNumber(int8)": "24777",
				"setSecondNumber(int16)": "24733"
			}
		},
		"methodIdentifiers": {
			"addNumbers()": "69c113e1",
			"firstNumber()": "2173d6e9",
			"secondNumber()": "7cc5c136",
			"setFirstNumber(int8)": "e173f72c",
			"setSecondNumber(int16)": "35ec82ab"
		}
	},
	"abi": [
		{
			"inputs": [],
			"name": "addNumbers",
			"outputs": [
				{
					"internalType": "int16",
					"name": "",
					"type": "int16"
				}
			],
			"stateMutability": "view",
			"type": "function"
		},
		{
			"inputs": [],
			"name": "firstNumber",
			"outputs": [
				{
					"internalType": "int8",
					"name": "",
					"type": "int8"
				}
			],
			"stateMutability": "view",
			"type": "function"
		},
		{
			"inputs": [],
			"name": "secondNumber",
			"outputs": [
				{
					"internalType": "int16",
					"name": "",
					"type": "int16"
				}
			],
			"stateMutability": "view",
			"type": "function"
		},
		{
			"inputs": [
				{
					"internalType": "int8",
					"name": "_number",
					"type": "int8"
				}
			],
			"name": "setFirstNumber",
			"outputs": [],
			"stateMutability": "nonpayable",
			"type": "function"
		},
		{
			"inputs": [
				{
					"internalType": "int16",
					"name": "_number",
					"type": "int16"
				}
			],
			"name": "setSecondNumber",
			"outputs": [],
			"stateMutability": "nonpayable",
			"type": "function"
		}
	]
}